{"contracts/BlocPolAdvanced.sol":{"BlocPolAdvanced":{"abi":[{"inputs":[{"internalType":"address","name":"_zkProofVerifier","type":"address"},{"internalType":"address","name":"_liquidDemocracy","type":"address"},{"internalType":"address","name":"_voteMixing","type":"address"},{"internalType":"uint256","name":"_minVotingPower","type":"uint256"},{"internalType":"uint256","name":"_maxVotingPower","type":"uint256"},{"internalType":"uint256","name":"_commitmentPeriod","type":"uint256"},{"internalType":"uint256","name":"_revealPeriod","type":"uint256"}],"stateMutability":"nonpayable","type":"constructor"},{"inputs":[],"name":"EnforcedPause","type":"error"},{"inputs":[],"name":"ExpectedPause","type":"error"},{"inputs":[{"internalType":"address","name":"owner","type":"address"}],"name":"OwnableInvalidOwner","type":"error"},{"inputs":[{"internalType":"address","name":"account","type":"address"}],"name":"OwnableUnauthorizedAccount","type":"error"},{"inputs":[],"name":"ReentrancyGuardReentrantCall","type":"error"},{"anonymous":false,"inputs":[{"indexed":true,"internalType":"bytes32","name":"actionHash","type":"bytes32"},{"indexed":true,"internalType":"address","name":"actor","type":"address"},{"indexed":false,"internalType":"string","name":"action","type":"string"},{"indexed":false,"internalType":"uint256","name":"timestamp","type":"uint256"}],"name":"AuditLogCreated","type":"event"},{"anonymous":false,"inputs":[{"indexed":true,"internalType":"uint256","name":"candidateId","type":"uint256"},{"indexed":false,"internalType":"string","name":"name","type":"string"},{"indexed":false,"internalType":"string","name":"ipfsHash","type":"string"},{"indexed":false,"internalType":"uint256","name":"timestamp","type":"uint256"}],"name":"CandidateRegistered","type":"event"},{"anonymous":false,"inputs":[{"indexed":true,"internalType":"address","name":"from","type":"address"},{"indexed":true,"internalType":"address","name":"to","type":"address"},{"indexed":false,"internalType":"uint256","name":"power","type":"uint256"},{"indexed":false,"internalType":"uint256","name":"timestamp","type":"uint256"}],"name":"DelegationCreated","type":"event"},{"anonymous":false,"inputs":[{"indexed":true,"internalType":"address","name":"previousOwner","type":"address"},{"indexed":true,"internalType":"address","name":"newOwner","type":"address"}],"name":"OwnershipTransferred","type":"event"},{"anonymous":false,"inputs":[{"indexed":false,"internalType":"address","name":"account","type":"address"}],"name":"Paused","type":"event"},{"anonymous":false,"inputs":[{"indexed":false,"internalType":"address","name":"account","type":"address"}],"name":"Unpaused","type":"event"},{"anonymous":false,"inputs":[{"indexed":true,"internalType":"address","name":"voter","type":"address"},{"indexed":true,"internalType":"uint256","name":"candidateId","type":"uint256"},{"indexed":false,"internalType":"enum BlocPolAdvanced.VoteType","name":"voteType","type":"uint8"},{"indexed":false,"internalType":"uint256","name":"timestamp","type":"uint256"}],"name":"VoteCast","type":"event"},{"anonymous":false,"inputs":[{"indexed":true,"internalType":"bytes32","name":"originalVote","type":"bytes32"},{"indexed":true,"internalType":"bytes32","name":"mixedVote","type":"bytes32"},{"indexed":false,"internalType":"uint256","name":"timestamp","type":"uint256"}],"name":"VoteMixed","type":"event"},{"anonymous":false,"inputs":[{"indexed":true,"internalType":"address","name":"voter","type":"address"},{"indexed":true,"internalType":"uint256","name":"candidateId","type":"uint256"},{"indexed":false,"internalType":"uint256","name":"timestamp","type":"uint256"}],"name":"VoteRevealed","type":"event"},{"anonymous":false,"inputs":[{"indexed":true,"internalType":"uint256","name":"sessionId","type":"uint256"},{"indexed":false,"internalType":"enum BlocPolAdvanced.VotingMode","name":"mode","type":"uint8"},{"indexed":false,"internalType":"uint256","name":"startTime","type":"uint256"},{"indexed":false,"internalType":"uint256","name":"endTime","type":"uint256"}],"name":"VotingSessionCreated","type":"event"},{"anonymous":false,"inputs":[{"indexed":true,"internalType":"uint256","name":"sessionId","type":"uint256"},{"indexed":false,"internalType":"uint256","name":"totalVotes","type":"uint256"},{"indexed":false,"internalType":"uint256","name":"timestamp","type":"uint256"}],"name":"VotingSessionEnded","type":"event"},{"anonymous":false,"inputs":[{"indexed":true,"internalType":"bytes32","name":"proofHash","type":"bytes32"},{"indexed":false,"internalType":"bool","name":"isValid","type":"bool"},{"indexed":false,"internalType":"uint256","name":"timestamp","type":"uint256"}],"name":"ZKProofVerified","type":"event"},{"inputs":[{"internalType":"uint256","name":"sessionId","type":"uint256"},{"internalType":"uint256","name":"candidateId","type":"uint256"},{"internalType":"uint256","name":"votingPower","type":"uint256"}],"name":"castDelegatedVote","outputs":[{"internalType":"uint256","name":"voteId","type":"uint256"}],"stateMutability":"nonpayable","type":"function"},{"inputs":[{"internalType":"uint256","name":"sessionId","type":"uint256"},{"internalType":"uint256","name":"candidateId","type":"uint256"},{"internalType":"bytes32","name":"commitmentHash","type":"bytes32"},{"internalType":"uint256","name":"votingPower","type":"uint256"}],"name":"castVote","outputs":[{"internalType":"uint256","name":"voteId","type":"uint256"}],"stateMutability":"nonpayable","type":"function"},{"inputs":[{"internalType":"uint256","name":"sessionId","type":"uint256"},{"internalType":"uint256","name":"candidateId","type":"uint256"},{"internalType":"bytes32","name":"zkProofHash","type":"bytes32"},{"internalType":"uint256","name":"votingPower","type":"uint256"}],"name":"castZKVote","outputs":[{"internalType":"uint256","name":"voteId","type":"uint256"}],"stateMutability":"nonpayable","type":"function"},{"inputs":[],"name":"commitmentPeriod","outputs":[{"internalType":"uint256","name":"","type":"uint256"}],"stateMutability":"view","type":"function"},{"inputs":[{"internalType":"uint256","name":"durationSeconds","type":"uint256"},{"internalType":"enum BlocPolAdvanced.VotingMode","name":"mode","type":"uint8"}],"name":"createVotingSession","outputs":[{"internalType":"uint256","name":"sessionId","type":"uint256"}],"stateMutability":"nonpayable","type":"function"},{"inputs":[{"internalType":"uint256","name":"sessionId","type":"uint256"}],"name":"endVotingSession","outputs":[],"stateMutability":"nonpayable","type":"function"},{"inputs":[],"name":"getAllCandidates","outputs":[{"components":[{"internalType":"uint256","name":"id","type":"uint256"},{"internalType":"string","name":"name","type":"string"},{"internalType":"string","name":"ipfsHash","type":"string"},{"internalType":"uint256","name":"voteCount","type":"uint256"},{"internalType":"uint256","name":"delegatedVoteCount","type":"uint256"},{"internalType":"bool","name":"isActive","type":"bool"},{"internalType":"uint256","name":"registrationTime","type":"uint256"}],"internalType":"struct BlocPolAdvanced.Candidate[]","name":"","type":"tuple[]"}],"stateMutability":"view","type":"function"},{"inputs":[{"internalType":"bytes32","name":"actionHash","type":"bytes32"}],"name":"getAuditTrail","outputs":[{"components":[{"internalType":"bytes32","name":"actionHash","type":"bytes32"},{"internalType":"address","name":"actor","type":"address"},{"internalType":"string","name":"action","type":"string"},{"internalType":"uint256","name":"timestamp","type":"uint256"},{"internalType":"bytes32[]","name":"proof","type":"bytes32[]"}],"internalType":"struct BlocPolAdvanced.AuditTrail","name":"","type":"tuple"}],"stateMutability":"view","type":"function"},{"inputs":[{"internalType":"uint256","name":"candidateId","type":"uint256"}],"name":"getCandidate","outputs":[{"components":[{"internalType":"uint256","name":"id","type":"uint256"},{"internalType":"string","name":"name","type":"string"},{"internalType":"string","name":"ipfsHash","type":"string"},{"internalType":"uint256","name":"voteCount","type":"uint256"},{"internalType":"uint256","name":"delegatedVoteCount","type":"uint256"},{"internalType":"bool","name":"isActive","type":"bool"},{"internalType":"uint256","name":"registrationTime","type":"uint256"}],"internalType":"struct BlocPolAdvanced.Candidate","name":"","type":"tuple"}],"stateMutability":"view","type":"function"},{"inputs":[{"internalType":"uint256","name":"candidateId","type":"uint256"}],"name":"getCandidateTotalVotes","outputs":[{"internalType":"uint256","name":"","type":"uint256"}],"stateMutability":"view","type":"function"},{"inputs":[{"internalType":"uint256","name":"sessionId","type":"uint256"}],"name":"getSessionTotals","outputs":[{"internalType":"uint256","name":"totalVotes","type":"uint256"},{"internalType":"uint256","name":"totalVotingPower","type":"uint256"}],"stateMutability":"view","type":"function"},{"inputs":[{"internalType":"uint256","name":"voteId","type":"uint256"}],"name":"getVote","outputs":[{"components":[{"internalType":"address","name":"voter","type":"address"},{"internalType":"uint256","name":"candidateId","type":"uint256"},{"internalType":"uint256[]","name":"rankedChoices","type":"uint256[]"},{"internalType":"bytes32","name":"commitmentHash","type":"bytes32"},{"internalType":"bytes32","name":"zkProofHash","type":"bytes32"},{"internalType":"bytes32","name":"mixedVoteHash","type":"bytes32"},{"internalType":"uint256","name":"votingPower","type":"uint256"},{"internalType":"uint256","name":"timestamp","type":"uint256"},{"internalType":"bool","name":"isRevealed","type":"bool"},{"internalType":"enum BlocPolAdvanced.VoteType","name":"voteType","type":"uint8"}],"internalType":"struct BlocPolAdvanced.AdvancedVote","name":"","type":"tuple"}],"stateMutability":"view","type":"function"},{"inputs":[{"internalType":"address","name":"voter","type":"address"}],"name":"getVoterVotes","outputs":[{"internalType":"uint256[]","name":"","type":"uint256[]"}],"stateMutability":"view","type":"function"},{"inputs":[{"internalType":"uint256","name":"sessionId","type":"uint256"}],"name":"getVotingSession","outputs":[{"components":[{"internalType":"uint256","name":"sessionId","type":"uint256"},{"internalType":"uint256","name":"startTime","type":"uint256"},{"internalType":"uint256","name":"endTime","type":"uint256"},{"internalType":"uint256","name":"revealTime","type":"uint256"},{"internalType":"bool","name":"isActive","type":"bool"},{"internalType":"bool","name":"isRevealed","type":"bool"},{"internalType":"uint256","name":"totalVotes","type":"uint256"},{"internalType":"uint256","name":"totalVotingPower","type":"uint256"},{"internalType":"enum BlocPolAdvanced.VotingMode","name":"mode","type":"uint8"},{"internalType":"bytes32","name":"merkleRoot","type":"bytes32"}],"internalType":"struct BlocPolAdvanced.VotingSession","name":"","type":"tuple"}],"stateMutability":"view","type":"function"},{"inputs":[{"internalType":"address","name":"voter","type":"address"},{"internalType":"uint256","name":"sessionId","type":"uint256"}],"name":"hasVoterVoted","outputs":[{"internalType":"bool","name":"","type":"bool"}],"stateMutability":"view","type":"function"},{"inputs":[],"name":"liquidDemocracy","outputs":[{"internalType":"contract LiquidDemocracy","name":"","type":"address"}],"stateMutability":"view","type":"function"},{"inputs":[],"name":"liquidDemocracyEnabled","outputs":[{"internalType":"bool","name":"","type":"bool"}],"stateMutability":"view","type":"function"},{"inputs":[],"name":"maxVotingPower","outputs":[{"internalType":"uint256","name":"","type":"uint256"}],"stateMutability":"view","type":"function"},{"inputs":[],"name":"minVotingPower","outputs":[{"internalType":"uint256","name":"","type":"uint256"}],"stateMutability":"view","type":"function"},{"inputs":[],"name":"owner","outputs":[{"internalType":"address","name":"","type":"address"}],"stateMutability":"view","type":"function"},{"inputs":[],"name":"pause","outputs":[],"stateMutability":"nonpayable","type":"function"},{"inputs":[],"name":"paused","outputs":[{"internalType":"bool","name":"","type":"bool"}],"stateMutability":"view","type":"function"},{"inputs":[{"internalType":"string","name":"name","type":"string"},{"internalType":"string","name":"ipfsHash","type":"string"}],"name":"registerCandidate","outputs":[{"internalType":"uint256","name":"candidateId","type":"uint256"}],"stateMutability":"nonpayable","type":"function"},{"inputs":[],"name":"renounceOwnership","outputs":[],"stateMutability":"nonpayable","type":"function"},{"inputs":[],"name":"revealPeriod","outputs":[{"internalType":"uint256","name":"","type":"uint256"}],"stateMutability":"view","type":"function"},{"inputs":[{"internalType":"uint256","name":"voteId","type":"uint256"},{"internalType":"bytes32","name":"originalVote","type":"bytes32"},{"internalType":"bytes32","name":"randomness","type":"bytes32"}],"name":"revealVote","outputs":[],"stateMutability":"nonpayable","type":"function"},{"inputs":[{"internalType":"bool","name":"_zkProofsEnabled","type":"bool"},{"internalType":"bool","name":"_liquidDemocracyEnabled","type":"bool"},{"internalType":"bool","name":"_voteMixingEnabled","type":"bool"}],"name":"setFeatures","outputs":[],"stateMutability":"nonpayable","type":"function"},{"inputs":[{"internalType":"address","name":"newOwner","type":"address"}],"name":"transferOwnership","outputs":[],"stateMutability":"nonpayable","type":"function"},{"inputs":[],"name":"unpause","outputs":[],"stateMutability":"nonpayable","type":"function"},{"inputs":[{"internalType":"uint256","name":"_minVotingPower","type":"uint256"},{"internalType":"uint256","name":"_maxVotingPower","type":"uint256"},{"internalType":"uint256","name":"_commitmentPeriod","type":"uint256"},{"internalType":"uint256","name":"_revealPeriod","type":"uint256"}],"name":"updateVotingParameters","outputs":[],"stateMutability":"nonpayable","type":"function"},{"inputs":[],"name":"voteMixing","outputs":[{"internalType":"contract VoteMixing","name":"","type":"address"}],"stateMutability":"view","type":"function"},{"inputs":[],"name":"voteMixingEnabled","outputs":[{"internalType":"bool","name":"","type":"bool"}],"stateMutability":"view","type":"function"},{"inputs":[],"name":"zkProofVerifier","outputs":[{"internalType":"contract ZKProofVerifier","name":"","type":"address"}],"stateMutability":"view","type":"function"},{"inputs":[],"name":"zkProofsEnabled","outputs":[{"internalType":"bool","name":"","type":"bool"}],"stateMutability":"view","type":"function"}],"evm":{"bytecode":{"linkReferences":{},"object":"6080604052346100315761002061001461012f565b95949094939193610243565b6040516139e361040982396139e390f35b600080fd5b634e487b7160e01b600052604160045260246000fd5b90601f01601f191681019081106001600160401b0382111761006d57604052565b610036565b9061008661007f60405190565b928361004c565b565b6001600160a01b031690565b90565b6001600160a01b0381165b0361003157565b9050519061008682610097565b806100a2565b90505190610086826100b6565b60e081830312610031576100dd82826100a9565b926100eb83602084016100a9565b926100f981604085016100a9565b9261010782606083016100bc565b9261009461011884608085016100bc565b9360c06101288260a087016100bc565b94016100bc565b61014d613dec8038038061014281610072565b9283398101906100c9565b90919293949596565b61009490610088906001600160a01b031682565b61009490610156565b6100949061016a565b906001600160a01b03905b9181191691161790565b906101a16100946101a892610173565b825461017c565b9055565b9060001990610187565b6100946100946100949290565b906101d36100946101a8926101b6565b82546101ac565b9060ff90610187565b906101f36100946101a892151590565b82546101da565b9061ff009060081b610187565b906102176100946101a892151590565b82546101fa565b9062ff00009060101b610187565b9061023c6100946101a892151590565b825461021e565b6102a796959361028b6102846102999561027161027d6102a09a976102716102766102929961027133610300565b610173565b600d610191565b600e610191565b600f610191565b60106101c3565b60116101c3565b60126101c3565b60136101c3565b6102dc6102b460006101b6565b6102bf8160096101c3565b6102ca81600a6101c3565b6102d581600b6101c3565b600c6101c3565b6102e8600160146101e3565b6102f460016014610207565b6100866001601461022c565b61008690610313565b61009460016101b6565b61031c90610357565b610086610327610309565b60016101c3565b6100886100946100949290565b6100949061032e565b6001600160a01b03909116815260200190565b60006103628161033b565b6001600160a01b0381166001600160a01b03841614610386575050610086906103b6565b631e4fbdf760e01b8252819061039f9060048301610344565b0390fd5b61009490610088565b61009490546103a3565b6103d76103d16103c660006103ac565b610271846000610191565b91610173565b907f8be0079c531659141344cd1fd0a4f28419497f9722a3daafe3b4186f6b6457e061040260405190565b600090a356fe6080604052600436101561001257600080fd5b60003560e01c80630dbce4dd146102325780631119501e1461022d5780631943c90b146102285780632966d67a146102235780632beb449e1461021e5780632e6997fe1461021957806333845e521461021457806335b8e8201461020f57806335bb3d301461020a57806336fffde0146102055780633f4ba83a1461020057806342ab9786146101fb5780634650baa1146101f65780635414e58e146101f15780635a55c1f0146101ec5780635c975abb146101e7578063715018a6146101e257806373a8ce8b146101dd5780637c25e889146101d85780637dabdd99146101d35780638456cb59146101ce5780638a3c5f9b146101c95780638da5cb5b146101c45780638ed1fde7146101bf5780639b541f76146101ba5780639ef0fb85146101b5578063abdd80a3146101b0578063b4483aa7146101ab578063bac7c890146101a6578063c7a800af146101a1578063cf0425111461019c578063dd304e3e14610197578063f2fde38b146101925763f96046810361023757610dac565b610d88565b610d6d565b610d3a565b610cbc565b610c94565b610c78565b610c5d565b610c42565b610c1a565b610bcf565b610b7f565b610b54565b610b30565b610b15565b610adb565b610a9d565b6109e1565b6109c6565b61099f565b61085b565b61081a565b6107f2565b6107a0565b610785565b61074b565b610724565b6106f5565b610689565b610516565b610481565b61045a565b610348565b6102c0565b600080fd5b909182601f830112156102375781359167ffffffffffffffff831161023757602001926001830284011161023757565b909160408284031261023757813567ffffffffffffffff8111610237578361029591840161023c565b929093602082013567ffffffffffffffff8111610237576102b6920161023c565b9091565b9052565b565b34610237576102ef6102df6102d636600461026c565b92919091611397565b6040519182918290815260200190565b0390f35b805b0361023757565b905035906102be826102f3565b6080818303126102375761031d82826102fc565b9261034561032e84602085016102fc565b93606061033e82604087016102fc565b94016102fc565b90565b34610237576102ef6102df61035e366004610309565b92919091611b2e565b9060208282031261023757610345916102fc565b634e487b7160e01b600052602160045260246000fd5b6004111561039b57565b61037b565b906102be82610391565b610345906103a0565b6102ba906103aa565b805182526102be91906101209081906103da60208201516020860152565b6103e960408201516040860152565b6103f860608201516060860152565b60808181015115159085015260a08181015115159085015261041f60c082015160c0860152565b61042e60e082015160e0860152565b6104426101008201516101008601906103b3565b0151910152565b610140810192916102be91906103bc565b34610237576102ef610475610470366004610367565b611c95565b60405191829182610449565b34610237576102ef6102df610497366004610309565b92919091611fa4565b600091031261023757565b610345916008021c5b6001600160a01b031690565b9061034591546104ab565b6103456000600d6104c0565b610345906104b4906001600160a01b031682565b610345906104d7565b610345906104eb565b6102ba906104f4565b6020810192916102be91906104fd565b34610237576105263660046104a0565b6102ef6105316104cb565b60405191829182610506565b60005b8381106105505750506000910152565b8181015183820152602001610540565b61058161058a60209361059493610575815190565b80835293849260200190565b9586910161053d565b601f01601f191690565b0190565b80518252906103459060c0806105d26105c060e0850160208801518682036020880152610560565b60408701518582036040870152610560565b946105e260608201516060860152565b6105f160808201516080860152565b60a081810151151590850152610442565b9061034591610598565b90610622610618835190565b8083529160200190565b90816106346020830284019460200190565b926000915b83831061064857505050505090565b9091929394602061066b61066483856001950387528951610602565b9760200190565b9301930191939290610639565b60208082526103459291019061060c565b34610237576106993660046104a0565b6102ef6106a4612167565b60405191829182610678565b8015156102f5565b905035906102be826106b0565b9091606082840312610237576103456106de84846106b8565b9360406106ee82602087016106b8565b94016106b8565b346102375761070e6107083660046106c5565b9161223c565b604051005b602080825261034592910190610598565b34610237576102ef61073f61073a366004610367565b612247565b60405191829182610713565b346102375761070e61075e366004610367565b6124c7565b610345916008021c81565b906103459154610763565b6103456000601061076e565b34610237576107953660046104a0565b6102ef6102df610779565b34610237576107b03660046104a0565b61070e6124e3565b6004111561023757565b905035906102be826107b8565b9190604083820312610237576103459060206107eb82866102fc565b94016107c2565b34610237576102ef6102df6108083660046107cf565b906127c2565b6103456000600f6104c0565b346102375761082a3660046104a0565b6102ef61053161080e565b610345916008021c5b60ff1690565b906103459154610835565b61034560016014610844565b346102375761086b3660046104a0565b6102ef61087661084f565b60405191829182901515815260200190565b6102ba906104b4565b906108b16108aa6108a0845190565b8084529260200190565b9260200190565b9060005b8181106108c25750505090565b9091926108df6108d86001928651815260200190565b9460200190565b9291016108b5565b90610345906101208061092b610140840161090a60008801516000870190610888565b61091960208801516020870152565b60408701518582036040870152610891565b9461093b60608201516060860152565b61094a60808201516080860152565b61095960a082015160a0860152565b61096860c082015160c0860152565b61097760e082015160e0860152565b6101008181015115159085015201519101906103b3565b6020808252610345929101906108e7565b34610237576102ef6109ba6109b5366004610367565b612931565b6040519182918261098e565b34610237576109d63660046104a0565b6102ef61087661294d565b34610237576109f13660046104a0565b61070e61298f565b90610a086108aa6108a0845190565b9060005b818110610a195750505090565b909192610a2f6108d86001928651815260200190565b929101610a0c565b80518252610345916080610a6c60a08301610a5a60208601516020860190610888565b60408501518482036040860152610560565b92610a7c60608201516060850152565b01519060808184039101526109f9565b602080825261034592910190610a37565b34610237576102ef610ab8610ab3366004610367565b612aa5565b60405191829182610a8c565b9081526040810192916102be9160200152565b0152565b3461023757610af3610aee366004610367565b612ac1565b906102ef610b0060405190565b92839283610ac4565b6103456000600e6104c0565b3461023757610b253660046104a0565b6102ef610531610b09565b3461023757610b403660046104a0565b61070e612afa565b6103456000601261076e565b3461023757610b643660046104a0565b6102ef6102df610b48565b6020810192916102be9190610888565b3461023757610b8f3660046104a0565b6102ef610b9a612b02565b60405191829182610b6f565b909160608284031261023757610345610bbf84846102fc565b93604061033e82602087016102fc565b346102375761070e610be2366004610ba6565b91612c38565b6102f5816104b4565b905035906102be82610be8565b91906040838203126102375761034590602061033e8286610bf1565b34610237576102ef610876610c30366004610bfe565b90612d71565b6103456000601161076e565b3461023757610c523660046104a0565b6102ef6102df610c36565b34610237576102ef6102df610c73366004610367565b612d8c565b34610237576102ef6102df610c8e366004610ba6565b91613250565b346102375761070e610ca7366004610309565b92919091613298565b61034560026014610844565b3461023757610ccc3660046104a0565b6102ef610876610cb0565b906020828203126102375761034591610bf1565b90610cfa6108aa6108a0845190565b9060005b818110610d0b5750505090565b909192610d216108d86001928651815260200190565b929101610cfe565b602080825261034592910190610ceb565b34610237576102ef610d55610d50366004610cd7565b6132ad565b60405191829182610d29565b61034560006014610844565b3461023757610d7d3660046104a0565b6102ef610876610d61565b346102375761070e610d9b366004610cd7565b61331b565b6103456000601361076e565b3461023757610dbc3660046104a0565b6102ef6102df610da0565b9061034594939291610dd7613324565b611265565b6103459081565b6103459054610ddc565b634e487b7160e01b600052601160045260246000fd5b6000198114610e125760010190565b610ded565b90600019905b9181191691161790565b6103456103456103459290565b90610e44610345610e4b92610e27565b8254610e17565b9055565b634e487b7160e01b600052604160045260246000fd5b90601f01601f1916810190811067ffffffffffffffff821117610e8757604052565b610e4f565b906102be610e9960405190565b9283610e65565b61034560e0610e8c565b67ffffffffffffffff8111610e8757602090601f01601f19160190565b90826000939282370152565b90929192610ee8610ee382610eaa565b610e8c565b9381855281830111610237576102be916020850190610ec7565b610345913691610ed3565b90610f1790610e27565b600052602052604060002090565b634e487b7160e01b600052602260045260246000fd5b9060016002830492168015610f5b575b6020831014610f5657565b610f25565b91607f1691610f4b565b9160001960089290920291821b911b610e1d565b9190610f8a610345610e4b93610e27565b908354610f65565b6102be91600091610f79565b818110610fa9575050565b80610fb76000600193610f92565b01610f9e565b9190601f8111610fcc57505050565b610fde6102be93600052602060002090565b906020601f840181900483019310611000575b6020601f909101040190610f9e565b9091508190610ff1565b90611013815190565b9067ffffffffffffffff8211610e8757611037826110318554610f3b565b85610fbd565b602090601f831160011461107257610e4b929160009183611067575b5050600019600883021c1916906002021790565b015190503880611053565b601f1983169161108785600052602060002090565b9260005b8181106110c5575091600293918560019694106110ac575b50505002019055565b01516000196008601f8516021c191690553880806110a3565b9193602060018192878701518155019501920161108b565b906102be9161100a565b9060ff90610e1d565b90611100610345610e4b92151590565b82546110e7565b60066111a060c06102be94611126611120600083015190565b86610e34565b61113d611134602083015190565b600187016110dd565b61115461114b604083015190565b600287016110dd565b61116b611162606083015190565b60038701610e34565b611182611179608083015190565b60048701610e34565b61119b61119260a0830151151590565b600587016110f0565b015190565b9101610e34565b906102be91611107565b90916105949083908093610ec7565b01916111b1565b916111b1565b906111da610ee383610eaa565b918252565b6111e960146111cd565b7310d05391125110551157d49151d254d51154915160621b602082015290565b6103456111df565b919061058a81611228816105949560209181520190565b8095610ec7565b9594926102be946112526112609360409560608b01918b830360008d0152611211565b9188830360208a0152611211565b940152565b5092917fd97eaf93ad8386d19c4444905f34d814effa6ed87627bbbaa1e75e797f5b65d5916113916112976009610de3565b956112ab6112a488610e03565b6009610e34565b6113276112b6610ea0565b6112be898252565b6112d26112cb8685610f02565b6020830152565b6112e66112df8988610f02565b6040830152565b6113056112f36000610e27565b6112fe816060850152565b6080830152565b600160a08201526113174260c0830152565b611322896003610f0d565b6111a7565b61137361133360405190565b611366818a61135a8b8a8a89602087019586926020846111c061034598966111c796959052565b90810382520382610e65565b61136e611209565b613502565b61137c87610e27565b9561138660405190565b94859442938661122f565b0390a290565b610345939291906000610dc7565b6103459061083e565b61034590546113a5565b156113bf57565b60405162461bcd60e51b815260206004820152601260248201527153657373696f6e206e6f742061637469766560701b604482015280606481015b0390fd5b906103459493929161142461141f6004611419856005610f0d565b016113ae565b6113b8565b611469565b1561143057565b60405162461bcd60e51b8152602060048201526011602482015270496e76616c69642063616e64696461746560781b6044820152606490fd5b90610345949392916114896114846005611419866003610f0d565b611429565b6114d1565b1561149557565b60405162461bcd60e51b815260206004820152601460248201527324b73b30b634b2103b37ba34b733903837bbb2b960611b6044820152606490fd5b90610345949392916114e66103456010610de3565b851015806114fd575b6114f89061148e565b6118f7565b506114f861150e6103456011610de3565b86111590506114ef565b90610f17906104f4565b1561152957565b60405162461bcd60e51b815260206004820152601d60248201527f416c726561647920766f74656420696e20746869732073657373696f6e0000006044820152606490fd5b1561157557565b60405162461bcd60e51b8152602060048201526013602482015272159bdd1a5b99c81c195c9a5bd908195b991959606a1b6044820152606490fd5b67ffffffffffffffff8111610e875760208091020190565b906111da610ee3836115b0565b369037565b906102be6115f06115ea846115c8565b936115b0565b601f1901602084016115d5565b610345610140610e8c565b906102ba906104b4565b906102ba906103a0565b61034590516104b4565b906001600160a01b0390610e1d565b90611645610345610e4b926104f4565b8254611626565b91909182821061165b57505050565b6102be9291611671905b91600052602060002090565b9182019101610f9e565b90600160401b8111610e8757816116936102be935490565b9082815561164c565b81519167ffffffffffffffff8311610e87576116d36116c76001926116c1868661167b565b60200190565b92600052602060002090565b92049160005b8381106116e65750505050565b60019060206116f6610345865190565b94019381840155016116d9565b906102be9161169c565b90610e44610345610e4b9290565b61034590516103a0565b9061ff009060081b610e1d565b90611742610345610e4b926103aa565b8254611725565b9061182b61012060086102be9461176b6117656000870161161c565b82611635565b611782611779602087015190565b60018301610e34565b611799611790604087015190565b60028301611703565b6117b06117a7606087015190565b6003830161170d565b6117c76117be608087015190565b6004830161170d565b6117de6117d560a087015190565b6005830161170d565b6117f56117ec60c087015190565b60068301610e34565b61180c61180360e087015190565b60078301610e34565b019261182561181f610100830151151590565b856110f0565b0161171b565b90611732565b906102be91611749565b634e487b7160e01b600052603260045260246000fd5b80548210156118745761186b600191600052602060002090565b91020190600090565b61183b565b90815491600160401b831015610e87578261189c9160016102be95018155611851565b90610f79565b91908201809211610e1257565b01918252565b6118bf60096111cd565b681593d51157d0d054d560ba1b602082015290565b6103456118b5565b9160206102be929493610ad7604082019660008301906103b3565b50600693816119063387611518565b9061191091610f0d565b611919906113ae565b1561192390611522565b6005946119308387610f0d565b60020161193c90610de3565b4211156119489061156e565b611952600a610de3565b9561195c87610e03565b61196790600a610e34565b60009561197387610e27565b61197c906115da565b9061198688610e27565b9061198f6115fd565b9261199c338b8601611608565b6119a7896020860152565b604084015260608301526119bc816080840152565b60a08201526119cc8460c0830152565b6119d74260e0830152565b8615156101008201526119ee876101208301611612565b6119f9886004610f0d565b90611a0391611831565b83611a0e3384611518565b90611a1891610f0d565b6001611a23916110f0565b86611a2f336007611518565b90611a3991611879565b8381611a458282610f0d565b01611a4f81610de3565b611a5890610e03565b611a6191610e34565b611a6a91610f0d565b0181611a7582610de3565b90611a7f916118a2565b611a8891610e34565b82611a9260405190565b9283926020840192611abb928985926118af6020610594946118af82886118af829b9a83999052565b908103825203611acb9082610e65565b611ad36118d4565b90611add91613502565b611ae6336104f4565b90611af090610e27565b91611afa60405190565b809142611b0791836118dc565b037f2c9deb38f462962eadbd85a9d3a4120503ee091f1582eaaa10aa8c6797651d2991a390565b6103459392919060006113fe565b611b446115fd565b906000825260208080808080808080808b01600081520160005b8152016000815201600081520160005b8152016000815201600081520160008152016000905250565b610345611b3c565b6103459060081c61083e565b6103459054611b8f565b906102be611c846008611bb66115fd565b94611bc7611bc382610de3565b8752565b611bdd611bd660018301610de3565b6020880152565b611bf3611bec60028301610de3565b6040880152565b611c09611c0260038301610de3565b6060880152565b611c21611c18600483016113ae565b15156080880152565b611c39611c3060048301611b9b565b151560a0880152565b611c4f611c4860058301610de3565b60c0880152565b611c65611c5e60068301610de3565b60e0880152565b611c7e611c74600783016113ae565b6101008801611612565b01610de3565b610120840152565b61034590611ba5565b611cac61034591611ca4611b87565b506005610f0d565b611c8c565b9061034594939291611ccc61141f6004611419856005610f0d565b9061034594939291611ce76114846005611419866003610f0d565b9061034594939291611cfc6103456010610de3565b85101580611d13575b611d0e9061148e565b611d99565b50611d0e611d246103456011610de3565b8611159050611d05565b15611d3557565b60405162461bcd60e51b81526020600482015260126024820152711692cb5c1c9bdbd99cc8191a5cd8589b195960721b6044820152606490fd5b611d79600c6111cd565b6b1692d7d593d51157d0d054d560a21b602082015290565b610345611d6f565b611f54929361135a92611f23611dd897611f4c9450611dc0611dbb60146113ae565b611d2e565b611deb611de6611de2611ddd8660069d8e3390611518565b610f0d565b6113ae565b1590565b611522565b611f0d611df8600a610de3565b99611e0c611e058c610e03565b600a610e34565b611eb88a611e996000611e79611e29611e2483610e27565b6115da565b611e5c611e3584610e27565b91611e55611e416115fd565b97611e4e33888b01611608565b6020890152565b6040870152565b611e67816060870152565b611e728c6080870152565b60a0850152565b611e848760c0850152565b611e8f4260e0850152565b1515610100830152565b611ea860036101208301611612565b611eb38d6004610f0d565b611831565b611ed06001611ecb87611dd83386611518565b6110f0565b611ee78b611ee2610345336007611518565b611879565b611f13856005611dd881611efb8482610f0d565b01611f0d611f0882610de3565b610e03565b90610e34565b0191611f1e83610de3565b6118a2565b6040519384928760208501938a85926118af6020610594946118af82886118af829b9a83999052565b61136e611d91565b611f66611f60336104f4565b91610e27565b907f2c9deb38f462962eadbd85a9d3a4120503ee091f1582eaaa10aa8c6797651d29611f9160405190565b80611f9e426003836118dc565b0390a390565b610345939291906000611cb1565b611fba610ea0565b90600082526020808080808080880160608152016060611b6e565b610345611fb2565b60005b828110611fec57505050565b602090611ff7611fd5565b8184015201611fe0565b906102be6120116115ea846115c8565b601f190160208401611fdd565b90612027825190565b811015611874576020809102010190565b8054600093929161205561204b83610f3b565b8085529360200190565b91600181169081156120a7575060011461206e57505050565b6120819192939450600052602060002090565b916000925b8184106120935750500190565b805484840152602090930192600101612086565b92949550505060ff1916825215156020020190565b9061034591612038565b906102be6120e0926120d760405190565b938480926120bc565b0383610e65565b906102be61215760066120f8610ea0565b94612105611bc382610de3565b612114611bd6600183016120c6565b612123611bec600283016120c6565b612132611c0260038301610de3565b61214861214160048301610de3565b6080880152565b611c7e611c30600583016113ae565b60c0840152565b610345906120e7565b6121796121746009610de3565b612001565b6121836000610e27565b6121906103456009610de3565b8110156121cf57806121ae6121a96121ca936003610f0d565b61215e565b6121b8828561201e565b526121c3818461201e565b5060010190565b612183565b5090565b906102be92916121e1613324565b61221b565b90611742610345610e4b92151590565b9062ff00009060101b610e1d565b90612214610345610e4b92151590565b82546121f6565b6102be929161222e6122359260146110f0565b60146121e6565b6014612204565b906102be92916121d3565b6121a961034591612256611fd5565b506003610f0d565b6102be9061226a613324565b61230e565b1561227657565b60405162461bcd60e51b815260206004820152601160248201527014d95cdcda5bdb881b9bdd08195b991959607a1b6044820152606490fd5b610345906104b4565b61034590546122af565b6122ce6102ba916104b4565b60601b90565b0180926122c2565b6122e660146111cd565b731593d5125391d7d4d154d4d253d397d15391115160621b602082015290565b6103456122dc565b9061231d610345836005610f0d565b90600482019061232f61141f836113ae565b61234961234161034560028601610de3565b42101561226f565b612355600080936110f0565b6005830193612366611e2486610de3565b946123716000610e27565b61237d61034583610de3565b81101561240c576124079061240161135a6123e160046123b66001611c7e876123b08e6123aa8388610f0d565b016122b8565b94610f0d565b906123c060405190565b93849260208401928884602093926118af85836122d4601495610594979052565b6123f36123ec825190565b9160200190565b206123fe838b61201e565b52565b60010190565b612371565b507f5ebf5ba0a9d6578537b09fb99eac524839499181ce448f968b5c9ca6c1b82b4793506124a7906124a261135a61249a6124ad959861245b6124526124c2999c613654565b6008830161170d565b612470600661246987610de3565b9201610de3565b9061247a60405190565b93849260208401928d84602093926118af85836118af8295610594979052565b61136e612306565b610de3565b93610e27565b926124b760405190565b918291429083610ac4565b0390a2565b6102be9061225e565b6124d8613324565b6102be6102be613812565b6102be6124d0565b9061034592916124f9613324565b612654565b90611100610345610e4b926103aa565b60086125d56101206102be94612528611120600083015190565b61253f612536602083015190565b60018701610e34565b61255661254d604083015190565b60028701610e34565b612564611162606083015190565b61258e6004860161258161257b6080850151151590565b826110f0565b60a08301511515906121e6565b6125a561259c60c083015190565b60058701610e34565b6125bc6125b360e083015190565b60068701610e34565b61119b6125cc610100830161171b565b600787016124fe565b910161170d565b906102be9161250e565b6125f26102ba916103aa565b60f81b90565b0180926125e6565b61260a60166111cd565b751593d5125391d7d4d154d4d253d397d0d4915055115160521b602082015290565b610345612600565b604090610ad76102be94969593966112cb606084019860008501906103b3565b50907e914bb2a5e0ac4484c74b57ec82229700da233d0eed407c4cff3eb82aac23bf61270061278c612686600b610de3565b9461269a61269387610e03565b600b610e34565b6127438661272d61271b6126ae85426118a2565b6127076126ce6126be88426118a2565b6126c86013610de3565b906118a2565b6000998a936126ee6126df86610e27565b986126e86115fd565b9d8e0152565b6126f94260208e0152565b60408c0152565b60608a0152565b6001608089015280151560a0890152610e27565b6127268160c0890152565b60e0870152565b61273b876101008701611612565b610120850152565b61275783612752886005610f0d565b6125dc565b61278461276360405190565b6020808201898152919384929161135a9161059460018c6118af85886125f8565b61136e61262c565b6127a2604061279c602084015190565b92015190565b926113916127af86610e27565b946127b960405190565b93849384612634565b610345919060006124eb565b6127d66115fd565b906000825260208080808080808080808b0160008152016060611b5e565b6103456127ce565b9061280b6116c76108a0845490565b9060005b81811061281c5750505090565b90919261284061283960019261283187610de3565b815260200190565b9460010190565b92910161280f565b90610345916127fc565b906102be6120e09261286360405190565b93848092612848565b906102be61291e600861287d6115fd565b9461289061288a826122b8565b87611608565b61289f611bd660018301610de3565b6128ae611bec60028301612852565b6128bd611c0260038301610de3565b6128cc61214160048301610de3565b6128e26128db60058301610de3565b60a0880152565b6128f1611c4860068301610de3565b612900611c5e60078301610de3565b61291861290e8383016113ae565b1515610100880152565b01611b9b565b6101208401611612565b6103459061286c565b612948610345916129406127f4565b506004610f0d565b612928565b61034560026113ae565b61295f613324565b6102be61297d565b6104b46103456103459290565b61034590612967565b6102be61298a6000612974565b61381a565b6102be612957565b61034560a0610e8c565b6129a9612997565b906000825260208080808086016000815201606081520160008152016060905250565b6103456129a1565b90610f17565b906129e96116c76108a0845490565b9060005b8181106129fa5750505090565b909192612a0f61283960019261283187610de3565b9291016129ed565b90610345916129da565b906102be6120e092612a3260405190565b93848092612a17565b906102be612a956004612a4c612997565b94612a59611bc382610de3565b612a71612a68600183016122b8565b60208801611608565b612a80611bec600283016120c6565b612a8f611c0260038301610de3565b01612a21565b6080840152565b61034590612a3b565b612abc61034591612ab46129cc565b5060086129d4565b612a9c565b611cac612ad091611ca4600090565b9061034560e0612ae160c085015190565b93015190565b612aef613324565b6102be6102be6138ae565b6102be612ae7565b61034560006122b8565b15612b1357565b60405162461bcd60e51b815260206004820152600d60248201526c4e6f7420796f757220766f746560981b6044820152606490fd5b15612b4f57565b60405162461bcd60e51b8152602060048201526015602482015274159bdd1948185b1c9958591e481c995d99585b1959605a1b6044820152606490fd5b15612b9357565b60405162461bcd60e51b81526020600482015260116024820152704e6f7420612064697265637420766f746560781b6044820152606490fd5b15612bd357565b60405162461bcd60e51b8152602060048201526012602482015271125b9d985b1a590818dbdb5b5a5d1b595b9d60721b6044820152606490fd5b612c17600d6111cd565b6c1593d51157d491559150531151609a1b602082015290565b610345612c0d565b61135a612d24612d2c94936124a293612cdb6001612c5a610345846004610f0d565b97612c7f612c678a6122b8565b612c79612c73336104b4565b916104b4565b14612b0c565b611ecb612cd660088b0192612c9e612c99611de2866113ae565b612b48565b612cc3612caa85611b9b565b612cbd612cb760006103a0565b916103a0565b14612b8c565b612ccf60038d01610de3565b90886138b6565b612bcc565b612d066001612cec60068901610de3565b970196611f0d6003611f13612d008b610de3565b82610f0d565b6040515b9384926020840192836020816118af610594938396959052565b61136e612c30565b612d38611f60336104f4565b907ff65a04be847d83385f9a7abcf32cfb35055023a4affcc7eaa319160746f44528612d6360405190565b42815280602081015b0390a3565b61034591611dd8611ddd92612d84600090565b506006611518565b610345906126c86004611c7e6003936123b085611c7e8382610f0d565b90610345939291612dc361141f6004611419856005610f0d565b90610345939291612ddd6114846005611419866003610f0d565b90610345939291612df16103456010610de3565b84101580612e08575b612e039061148e565b613078565b50612e03612e196103456011610de3565b8511159050612dfa565b15612e2a57565b60405162461bcd60e51b815260206004820152601960248201527f4c69717569642064656d6f63726163792064697361626c6564000000000000006044820152606490fd5b905051906102be82610be8565b905051906102be826102f3565b90929192612e99610ee3826115b0565b938185526020808601920283019281841161023757915b838310612ebd5750505050565b60208091612ecb8486612e6f565b815201920191612eb0565b9080601f8301121561023757815161034592602001612e89565b905051906102be826106b0565b9190916101208184031261023757612f16610120610e8c565b92612f218183612e6f565b8452612f308160208401612e7c565b6020850152612f428160408401612e7c565b6040850152612f548160608401612e7c565b6060850152612f668160808401612e6f565b608085015260a08201519067ffffffffffffffff821161023757612f8f81612fc3938501612ed6565b60a0860152612fa18160c08501612ef0565b60c0860152612fb38160e08501612e7c565b60e0860152610100809301612e7c565b90830152565b9060208282031261023757815167ffffffffffffffff8111610237576103459201612efd565b6040513d6000823e3d90fd5b1561300257565b60405162461bcd60e51b815260206004820152601960248201527f496e73756666696369656e7420766f74696e6720706f776572000000000000006044820152606490fd5b61305160136111cd565b721111531151d055115117d593d51157d0d054d5606a1b602082015290565b610345613047565b5061308b6130866014611b9b565b612e23565b6006926130a5611de6611de2611ddd85611dd8338a611518565b6130b76130b2600e6122b8565b6104f4565b9060006130c360405190565b928390631a9ea1f360e31b825281806130df3360048301610b6f565b03915afa90811561324b576131e69361311e61310c60606131de9561135a9760009161322a575b50015190565b8390613117565b9190565b1015612ffb565b611f2361312b600a610de3565b97613138611e058a610e03565b6131978861317d6000613172613150611e2483610e27565b61315c611e3584610e27565b613167816060870152565b611e72816080870152565b611e848860c0850152565b61318c60016101208301611612565b611eb38b6004610f0d565b6131aa6001611ecb85611dd83386611518565b6131bc89611ee2610345336007611518565b6131d0836005611dd881611efb8482610f0d565b01611f0d84611f1e83610de3565b61136e613070565b6131f2611f60336104f4565b907f2c9deb38f462962eadbd85a9d3a4120503ee091f1582eaaa10aa8c6797651d2961321d60405190565b80611f9e426001836118dc565b613245913d8091833e61323d8183610e65565b810190612fc9565b38613106565b612fef565b6103459291906000612da9565b906102be93929161326c613324565b9161328a613291926132836102be96956010610e34565b6011610e34565b6012610e34565b6013610e34565b906102be93929161325d565b61034590612852565b6132c4610345916132bc606090565b506007611518565b6132a4565b6102be906132d5613324565b60006132e081612974565b6132e9816104b4565b6132f2846104b4565b146133025750506102be9061381a565b631e4fbdf760e01b825281906113fa9060048301610b6f565b6102be906132c9565b61332c612b02565b339061333a612c73836104b4565b036133425750565b63118cdaa760e01b60009081529061335b906004610b6f565b036000fd5b61059461337892602092613372815190565b94859290565b9384910161053d565b926118af6111da6105949461339a602098978996613360565b90613360565b9190610f8a610345610e4b9390565b6102be916000916133a0565b8181106133c6575050565b806133d460006001936133af565b016133bb565b9190918282106133e957505050565b6102be92916133f790611665565b91820191016133bb565b90600160401b8111610e8757816134196102be935490565b908281556133da565b81519167ffffffffffffffff8311610e87576134476116c76001926116c18686613401565b92049160005b83811061345a5750505050565b600190602061346a610345865190565b940193818401550161344d565b906102be91613422565b60046134d460806102be946134a061349a600083015190565b8661170d565b6134b86134af6020830161161c565b60018701611635565b6134c661114b604083015190565b61119b611162606083015190565b9101613477565b906102be91613481565b929160206112606102be9360408701908782036000890152610560565b9061135a6135326135ac92613517600c610de3565b9061352160405190565b938492602084019242908985613381565b61353d6123ec825190565b2061359561354e611e246000610e27565b613585613559612997565b91613562858452565b61356f3360208501611608565b61357a876040850152565b6112fe426060850152565b6135908360086129d4565b6134db565b6103456135a5611f08600c610de3565b600c610e34565b7ff6d3f32241786cad73e665a475dd59e4aff37ee43093b5504c05d73d3806f9ef612d6c6135d9336104f4565b936135e360405190565b9182914290836134e5565b156135f557565b60405162461bcd60e51b8152602060048201526012602482015271456d707479206c656176657320617272617960701b6044820152606490fd5b634e487b7160e01b600052601260045260246000fd5b811561364f570490565b61362f565b90613673613660835190565b61366d6131136000610e27565b116135ee565b81519160019261368561311385610e27565b146137b25761369e613695825190565b6126c885610e27565b926136b7611e246002956136b187610e27565b90613645565b91816136c36000610e27565b905b6136d8575b5050506103459192506138e9565b6136e3610345835190565b8110156137ad579061378283926137026136fc85610e27565b826118a2565b613710613113610345865190565b10156137895761377961135a61375861373061372c858861201e565b5190565b61374e61372c6137486137428b610e27565b886118a2565b8961201e565b90612d0a60405190565b6137636123ec825190565b206123fe6137486137738c610e27565b85613645565b6126c888610e27565b90916136c5565b6137a861379961372c838661201e565b6123fe6137486137738c610e27565b613779565b6136ca565b61034591925061372c906137c66000610e27565b9061201e565b6137d461396a565b6102be6137e3600060026110f0565b7f5db9ee0a495bf2e6ff9c91a7834c1ba4fdd244a5e8aa4e537bd38aeae4b073aa61380d33610b9a565b0390a1565b6102be6137cc565b61383b61383561382a60006122b8565b6130b2846000611635565b916104f4565b907f8be0079c531659141344cd1fd0a4f28419497f9722a3daafe3b4186f6b6457e061386660405190565b8080612d6c565b61387561398d565b6102be613884600160026110f0565b7f62e78cea01bee320cd4e420270b5ea74000d11b0c9f74754ebdbfc544b05a25861380d33610b9a565b6102be61386d565b61135a6138d56138e593613113936138cc600090565b50604051612d0a565b6138e06123ec825190565b209290565b1490565b908151916001926138fc61311385610e27565b146137b25761390c613695825190565b9261391f611e246002956136b187610e27565b918161392b6000610e27565b905b61393f575050506103459192506138e9565b61394a610345835190565b8110156137ad579061396383926137026136fc85610e27565b909161392d565b613975611de261294d565b61397b57565b638dfc202b60e01b6000908152600490fd5b61399561294d565b61399b57565b63d93c066560e01b6000908152600490fdfea26469706673582212203ea3255c6e3c6ca3c3ae5ed666a3157d36341e819dca40fe82e6acea5d99b74f64736f6c634300081c0033","opcodes":"PUSH1 0x80 PUSH1 0x40 MSTORE CALLVALUE PUSH2 0x31 JUMPI PUSH2 0x20 PUSH2 0x14 PUSH2 0x12F JUMP JUMPDEST SWAP6 SWAP5 SWAP1 SWAP5 SWAP4 SWAP2 SWAP4 PUSH2 0x243 JUMP JUMPDEST PUSH1 0x40 MLOAD PUSH2 0x39E3 PUSH2 0x409 DUP3 CODECOPY PUSH2 0x39E3 SWAP1 RETURN JUMPDEST PUSH1 0x0 DUP1 REVERT JUMPDEST PUSH4 0x4E487B71 PUSH1 0xE0 SHL PUSH1 0x0 MSTORE PUSH1 0x41 PUSH1 0x4 MSTORE PUSH1 0x24 PUSH1 0x0 REVERT JUMPDEST SWAP1 PUSH1 0x1F ADD PUSH1 0x1F NOT AND DUP2 ADD SWAP1 DUP2 LT PUSH1 0x1 PUSH1 0x1 PUSH1 0x40 SHL SUB DUP3 GT OR PUSH2 0x6D JUMPI PUSH1 0x40 MSTORE JUMP JUMPDEST PUSH2 0x36 JUMP JUMPDEST SWAP1 PUSH2 0x86 PUSH2 0x7F PUSH1 0x40 MLOAD SWAP1 JUMP JUMPDEST SWAP3 DUP4 PUSH2 0x4C JUMP JUMPDEST JUMP JUMPDEST PUSH1 0x1 PUSH1 0x1 PUSH1 0xA0 SHL SUB AND SWAP1 JUMP JUMPDEST SWAP1 JUMP JUMPDEST PUSH1 0x1 PUSH1 0x1 PUSH1 0xA0 SHL SUB DUP2 AND JUMPDEST SUB PUSH2 0x31 JUMPI JUMP JUMPDEST SWAP1 POP MLOAD SWAP1 PUSH2 0x86 DUP3 PUSH2 0x97 JUMP JUMPDEST DUP1 PUSH2 0xA2 JUMP JUMPDEST SWAP1 POP MLOAD SWAP1 PUSH2 0x86 DUP3 PUSH2 0xB6 JUMP JUMPDEST PUSH1 0xE0 DUP2 DUP4 SUB SLT PUSH2 0x31 JUMPI PUSH2 0xDD DUP3 DUP3 PUSH2 0xA9 JUMP JUMPDEST SWAP3 PUSH2 0xEB DUP4 PUSH1 0x20 DUP5 ADD PUSH2 0xA9 JUMP JUMPDEST SWAP3 PUSH2 0xF9 DUP2 PUSH1 0x40 DUP6 ADD PUSH2 0xA9 JUMP JUMPDEST SWAP3 PUSH2 0x107 DUP3 PUSH1 0x60 DUP4 ADD PUSH2 0xBC JUMP JUMPDEST SWAP3 PUSH2 0x94 PUSH2 0x118 DUP5 PUSH1 0x80 DUP6 ADD PUSH2 0xBC JUMP JUMPDEST SWAP4 PUSH1 0xC0 PUSH2 0x128 DUP3 PUSH1 0xA0 DUP8 ADD PUSH2 0xBC JUMP JUMPDEST SWAP5 ADD PUSH2 0xBC JUMP JUMPDEST PUSH2 0x14D PUSH2 0x3DEC DUP1 CODESIZE SUB DUP1 PUSH2 0x142 DUP2 PUSH2 0x72 JUMP JUMPDEST SWAP3 DUP4 CODECOPY DUP2 ADD SWAP1 PUSH2 0xC9 JUMP JUMPDEST SWAP1 SWAP2 SWAP3 SWAP4 SWAP5 SWAP6 SWAP7 JUMP JUMPDEST PUSH2 0x94 SWAP1 PUSH2 0x88 SWAP1 PUSH1 0x1 PUSH1 0x1 PUSH1 0xA0 SHL SUB AND DUP3 JUMP JUMPDEST PUSH2 0x94 SWAP1 PUSH2 0x156 JUMP JUMPDEST PUSH2 0x94 SWAP1 PUSH2 0x16A JUMP JUMPDEST SWAP1 PUSH1 0x1 PUSH1 0x1 PUSH1 0xA0 SHL SUB SWAP1 JUMPDEST SWAP2 DUP2 NOT AND SWAP2 AND OR SWAP1 JUMP JUMPDEST SWAP1 PUSH2 0x1A1 PUSH2 0x94 PUSH2 0x1A8 SWAP3 PUSH2 0x173 JUMP JUMPDEST DUP3 SLOAD PUSH2 0x17C JUMP JUMPDEST SWAP1 SSTORE JUMP JUMPDEST SWAP1 PUSH1 0x0 NOT SWAP1 PUSH2 0x187 JUMP JUMPDEST PUSH2 0x94 PUSH2 0x94 PUSH2 0x94 SWAP3 SWAP1 JUMP JUMPDEST SWAP1 PUSH2 0x1D3 PUSH2 0x94 PUSH2 0x1A8 SWAP3 PUSH2 0x1B6 JUMP JUMPDEST DUP3 SLOAD PUSH2 0x1AC JUMP JUMPDEST SWAP1 PUSH1 0xFF SWAP1 PUSH2 0x187 JUMP JUMPDEST SWAP1 PUSH2 0x1F3 PUSH2 0x94 PUSH2 0x1A8 SWAP3 ISZERO ISZERO SWAP1 JUMP JUMPDEST DUP3 SLOAD PUSH2 0x1DA JUMP JUMPDEST SWAP1 PUSH2 0xFF00 SWAP1 PUSH1 0x8 SHL PUSH2 0x187 JUMP JUMPDEST SWAP1 PUSH2 0x217 PUSH2 0x94 PUSH2 0x1A8 SWAP3 ISZERO ISZERO SWAP1 JUMP JUMPDEST DUP3 SLOAD PUSH2 0x1FA JUMP JUMPDEST SWAP1 PUSH3 0xFF0000 SWAP1 PUSH1 0x10 SHL PUSH2 0x187 JUMP JUMPDEST SWAP1 PUSH2 0x23C PUSH2 0x94 PUSH2 0x1A8 SWAP3 ISZERO ISZERO SWAP1 JUMP JUMPDEST DUP3 SLOAD PUSH2 0x21E JUMP JUMPDEST PUSH2 0x2A7 SWAP7 SWAP6 SWAP4 PUSH2 0x28B PUSH2 0x284 PUSH2 0x299 SWAP6 PUSH2 0x271 PUSH2 0x27D PUSH2 0x2A0 SWAP11 SWAP8 PUSH2 0x271 PUSH2 0x276 PUSH2 0x292 SWAP10 PUSH2 0x271 CALLER PUSH2 0x300 JUMP JUMPDEST PUSH2 0x173 JUMP JUMPDEST PUSH1 0xD PUSH2 0x191 JUMP JUMPDEST PUSH1 0xE PUSH2 0x191 JUMP JUMPDEST PUSH1 0xF PUSH2 0x191 JUMP JUMPDEST PUSH1 0x10 PUSH2 0x1C3 JUMP JUMPDEST PUSH1 0x11 PUSH2 0x1C3 JUMP JUMPDEST PUSH1 0x12 PUSH2 0x1C3 JUMP JUMPDEST PUSH1 0x13 PUSH2 0x1C3 JUMP JUMPDEST PUSH2 0x2DC PUSH2 0x2B4 PUSH1 0x0 PUSH2 0x1B6 JUMP JUMPDEST PUSH2 0x2BF DUP2 PUSH1 0x9 PUSH2 0x1C3 JUMP JUMPDEST PUSH2 0x2CA DUP2 PUSH1 0xA PUSH2 0x1C3 JUMP JUMPDEST PUSH2 0x2D5 DUP2 PUSH1 0xB PUSH2 0x1C3 JUMP JUMPDEST PUSH1 0xC PUSH2 0x1C3 JUMP JUMPDEST PUSH2 0x2E8 PUSH1 0x1 PUSH1 0x14 PUSH2 0x1E3 JUMP JUMPDEST PUSH2 0x2F4 PUSH1 0x1 PUSH1 0x14 PUSH2 0x207 JUMP JUMPDEST PUSH2 0x86 PUSH1 0x1 PUSH1 0x14 PUSH2 0x22C JUMP JUMPDEST PUSH2 0x86 SWAP1 PUSH2 0x313 JUMP JUMPDEST PUSH2 0x94 PUSH1 0x1 PUSH2 0x1B6 JUMP JUMPDEST PUSH2 0x31C SWAP1 PUSH2 0x357 JUMP JUMPDEST PUSH2 0x86 PUSH2 0x327 PUSH2 0x309 JUMP JUMPDEST PUSH1 0x1 PUSH2 0x1C3 JUMP JUMPDEST PUSH2 0x88 PUSH2 0x94 PUSH2 0x94 SWAP3 SWAP1 JUMP JUMPDEST PUSH2 0x94 SWAP1 PUSH2 0x32E JUMP JUMPDEST PUSH1 0x1 PUSH1 0x1 PUSH1 0xA0 SHL SUB SWAP1 SWAP2 AND DUP2 MSTORE PUSH1 0x20 ADD SWAP1 JUMP JUMPDEST PUSH1 0x0 PUSH2 0x362 DUP2 PUSH2 0x33B JUMP JUMPDEST PUSH1 0x1 PUSH1 0x1 PUSH1 0xA0 SHL SUB DUP2 AND PUSH1 0x1 PUSH1 0x1 PUSH1 0xA0 SHL SUB DUP5 AND EQ PUSH2 0x386 JUMPI POP POP PUSH2 0x86 SWAP1 PUSH2 0x3B6 JUMP JUMPDEST PUSH4 0x1E4FBDF7 PUSH1 0xE0 SHL DUP3 MSTORE DUP2 SWAP1 PUSH2 0x39F SWAP1 PUSH1 0x4 DUP4 ADD PUSH2 0x344 JUMP JUMPDEST SUB SWAP1 REVERT JUMPDEST PUSH2 0x94 SWAP1 PUSH2 0x88 JUMP JUMPDEST PUSH2 0x94 SWAP1 SLOAD PUSH2 0x3A3 JUMP JUMPDEST PUSH2 0x3D7 PUSH2 0x3D1 PUSH2 0x3C6 PUSH1 0x0 PUSH2 0x3AC JUMP JUMPDEST PUSH2 0x271 DUP5 PUSH1 0x0 PUSH2 0x191 JUMP JUMPDEST SWAP2 PUSH2 0x173 JUMP JUMPDEST SWAP1 PUSH32 0x8BE0079C531659141344CD1FD0A4F28419497F9722A3DAAFE3B4186F6B6457E0 PUSH2 0x402 PUSH1 0x40 MLOAD SWAP1 JUMP JUMPDEST PUSH1 0x0 SWAP1 LOG3 JUMP INVALID PUSH1 0x80 PUSH1 0x40 MSTORE PUSH1 0x4 CALLDATASIZE LT ISZERO PUSH2 0x12 JUMPI PUSH1 0x0 DUP1 REVERT JUMPDEST PUSH1 0x0 CALLDATALOAD PUSH1 0xE0 SHR DUP1 PUSH4 0xDBCE4DD EQ PUSH2 0x232 JUMPI DUP1 PUSH4 0x1119501E EQ PUSH2 0x22D JUMPI DUP1 PUSH4 0x1943C90B EQ PUSH2 0x228 JUMPI DUP1 PUSH4 0x2966D67A EQ PUSH2 0x223 JUMPI DUP1 PUSH4 0x2BEB449E EQ PUSH2 0x21E JUMPI DUP1 PUSH4 0x2E6997FE EQ PUSH2 0x219 JUMPI DUP1 PUSH4 0x33845E52 EQ PUSH2 0x214 JUMPI DUP1 PUSH4 0x35B8E820 EQ PUSH2 0x20F JUMPI DUP1 PUSH4 0x35BB3D30 EQ PUSH2 0x20A JUMPI DUP1 PUSH4 0x36FFFDE0 EQ PUSH2 0x205 JUMPI DUP1 PUSH4 0x3F4BA83A EQ PUSH2 0x200 JUMPI DUP1 PUSH4 0x42AB9786 EQ PUSH2 0x1FB JUMPI DUP1 PUSH4 0x4650BAA1 EQ PUSH2 0x1F6 JUMPI DUP1 PUSH4 0x5414E58E EQ PUSH2 0x1F1 JUMPI DUP1 PUSH4 0x5A55C1F0 EQ PUSH2 0x1EC JUMPI DUP1 PUSH4 0x5C975ABB EQ PUSH2 0x1E7 JUMPI DUP1 PUSH4 0x715018A6 EQ PUSH2 0x1E2 JUMPI DUP1 PUSH4 0x73A8CE8B EQ PUSH2 0x1DD JUMPI DUP1 PUSH4 0x7C25E889 EQ PUSH2 0x1D8 JUMPI DUP1 PUSH4 0x7DABDD99 EQ PUSH2 0x1D3 JUMPI DUP1 PUSH4 0x8456CB59 EQ PUSH2 0x1CE JUMPI DUP1 PUSH4 0x8A3C5F9B EQ PUSH2 0x1C9 JUMPI DUP1 PUSH4 0x8DA5CB5B EQ PUSH2 0x1C4 JUMPI DUP1 PUSH4 0x8ED1FDE7 EQ PUSH2 0x1BF JUMPI DUP1 PUSH4 0x9B541F76 EQ PUSH2 0x1BA JUMPI DUP1 PUSH4 0x9EF0FB85 EQ PUSH2 0x1B5 JUMPI DUP1 PUSH4 0xABDD80A3 EQ PUSH2 0x1B0 JUMPI DUP1 PUSH4 0xB4483AA7 EQ PUSH2 0x1AB JUMPI DUP1 PUSH4 0xBAC7C890 EQ PUSH2 0x1A6 JUMPI DUP1 PUSH4 0xC7A800AF EQ PUSH2 0x1A1 JUMPI DUP1 PUSH4 0xCF042511 EQ PUSH2 0x19C JUMPI DUP1 PUSH4 0xDD304E3E EQ PUSH2 0x197 JUMPI DUP1 PUSH4 0xF2FDE38B EQ PUSH2 0x192 JUMPI PUSH4 0xF9604681 SUB PUSH2 0x237 JUMPI PUSH2 0xDAC JUMP JUMPDEST PUSH2 0xD88 JUMP JUMPDEST PUSH2 0xD6D JUMP JUMPDEST PUSH2 0xD3A JUMP JUMPDEST PUSH2 0xCBC JUMP JUMPDEST PUSH2 0xC94 JUMP JUMPDEST PUSH2 0xC78 JUMP JUMPDEST PUSH2 0xC5D JUMP JUMPDEST PUSH2 0xC42 JUMP JUMPDEST PUSH2 0xC1A JUMP JUMPDEST PUSH2 0xBCF JUMP JUMPDEST PUSH2 0xB7F JUMP JUMPDEST PUSH2 0xB54 JUMP JUMPDEST PUSH2 0xB30 JUMP JUMPDEST PUSH2 0xB15 JUMP JUMPDEST PUSH2 0xADB JUMP JUMPDEST PUSH2 0xA9D JUMP JUMPDEST PUSH2 0x9E1 JUMP JUMPDEST PUSH2 0x9C6 JUMP JUMPDEST PUSH2 0x99F JUMP JUMPDEST PUSH2 0x85B JUMP JUMPDEST PUSH2 0x81A JUMP JUMPDEST PUSH2 0x7F2 JUMP JUMPDEST PUSH2 0x7A0 JUMP JUMPDEST PUSH2 0x785 JUMP JUMPDEST PUSH2 0x74B JUMP JUMPDEST PUSH2 0x724 JUMP JUMPDEST PUSH2 0x6F5 JUMP JUMPDEST PUSH2 0x689 JUMP JUMPDEST PUSH2 0x516 JUMP JUMPDEST PUSH2 0x481 JUMP JUMPDEST PUSH2 0x45A JUMP JUMPDEST PUSH2 0x348 JUMP JUMPDEST PUSH2 0x2C0 JUMP JUMPDEST PUSH1 0x0 DUP1 REVERT JUMPDEST SWAP1 SWAP2 DUP3 PUSH1 0x1F DUP4 ADD SLT ISZERO PUSH2 0x237 JUMPI DUP2 CALLDATALOAD SWAP2 PUSH8 0xFFFFFFFFFFFFFFFF DUP4 GT PUSH2 0x237 JUMPI PUSH1 0x20 ADD SWAP3 PUSH1 0x1 DUP4 MUL DUP5 ADD GT PUSH2 0x237 JUMPI JUMP JUMPDEST SWAP1 SWAP2 PUSH1 0x40 DUP3 DUP5 SUB SLT PUSH2 0x237 JUMPI DUP2 CALLDATALOAD PUSH8 0xFFFFFFFFFFFFFFFF DUP2 GT PUSH2 0x237 JUMPI DUP4 PUSH2 0x295 SWAP2 DUP5 ADD PUSH2 0x23C JUMP JUMPDEST SWAP3 SWAP1 SWAP4 PUSH1 0x20 DUP3 ADD CALLDATALOAD PUSH8 0xFFFFFFFFFFFFFFFF DUP2 GT PUSH2 0x237 JUMPI PUSH2 0x2B6 SWAP3 ADD PUSH2 0x23C JUMP JUMPDEST SWAP1 SWAP2 JUMP JUMPDEST SWAP1 MSTORE JUMP JUMPDEST JUMP JUMPDEST CALLVALUE PUSH2 0x237 JUMPI PUSH2 0x2EF PUSH2 0x2DF PUSH2 0x2D6 CALLDATASIZE PUSH1 0x4 PUSH2 0x26C JUMP JUMPDEST SWAP3 SWAP2 SWAP1 SWAP2 PUSH2 0x1397 JUMP JUMPDEST PUSH1 0x40 MLOAD SWAP2 DUP3 SWAP2 DUP3 SWAP1 DUP2 MSTORE PUSH1 0x20 ADD SWAP1 JUMP JUMPDEST SUB SWAP1 RETURN JUMPDEST DUP1 JUMPDEST SUB PUSH2 0x237 JUMPI JUMP JUMPDEST SWAP1 POP CALLDATALOAD SWAP1 PUSH2 0x2BE DUP3 PUSH2 0x2F3 JUMP JUMPDEST PUSH1 0x80 DUP2 DUP4 SUB SLT PUSH2 0x237 JUMPI PUSH2 0x31D DUP3 DUP3 PUSH2 0x2FC JUMP JUMPDEST SWAP3 PUSH2 0x345 PUSH2 0x32E DUP5 PUSH1 0x20 DUP6 ADD PUSH2 0x2FC JUMP JUMPDEST SWAP4 PUSH1 0x60 PUSH2 0x33E DUP3 PUSH1 0x40 DUP8 ADD PUSH2 0x2FC JUMP JUMPDEST SWAP5 ADD PUSH2 0x2FC JUMP JUMPDEST SWAP1 JUMP JUMPDEST CALLVALUE PUSH2 0x237 JUMPI PUSH2 0x2EF PUSH2 0x2DF PUSH2 0x35E CALLDATASIZE PUSH1 0x4 PUSH2 0x309 JUMP JUMPDEST SWAP3 SWAP2 SWAP1 SWAP2 PUSH2 0x1B2E JUMP JUMPDEST SWAP1 PUSH1 0x20 DUP3 DUP3 SUB SLT PUSH2 0x237 JUMPI PUSH2 0x345 SWAP2 PUSH2 0x2FC JUMP JUMPDEST PUSH4 0x4E487B71 PUSH1 0xE0 SHL PUSH1 0x0 MSTORE PUSH1 0x21 PUSH1 0x4 MSTORE PUSH1 0x24 PUSH1 0x0 REVERT JUMPDEST PUSH1 0x4 GT ISZERO PUSH2 0x39B JUMPI JUMP JUMPDEST PUSH2 0x37B JUMP JUMPDEST SWAP1 PUSH2 0x2BE DUP3 PUSH2 0x391 JUMP JUMPDEST PUSH2 0x345 SWAP1 PUSH2 0x3A0 JUMP JUMPDEST PUSH2 0x2BA SWAP1 PUSH2 0x3AA JUMP JUMPDEST DUP1 MLOAD DUP3 MSTORE PUSH2 0x2BE SWAP2 SWAP1 PUSH2 0x120 SWAP1 DUP2 SWAP1 PUSH2 0x3DA PUSH1 0x20 DUP3 ADD MLOAD PUSH1 0x20 DUP7 ADD MSTORE JUMP JUMPDEST PUSH2 0x3E9 PUSH1 0x40 DUP3 ADD MLOAD PUSH1 0x40 DUP7 ADD MSTORE JUMP JUMPDEST PUSH2 0x3F8 PUSH1 0x60 DUP3 ADD MLOAD PUSH1 0x60 DUP7 ADD MSTORE JUMP JUMPDEST PUSH1 0x80 DUP2 DUP2 ADD MLOAD ISZERO ISZERO SWAP1 DUP6 ADD MSTORE PUSH1 0xA0 DUP2 DUP2 ADD MLOAD ISZERO ISZERO SWAP1 DUP6 ADD MSTORE PUSH2 0x41F PUSH1 0xC0 DUP3 ADD MLOAD PUSH1 0xC0 DUP7 ADD MSTORE JUMP JUMPDEST PUSH2 0x42E PUSH1 0xE0 DUP3 ADD MLOAD PUSH1 0xE0 DUP7 ADD MSTORE JUMP JUMPDEST PUSH2 0x442 PUSH2 0x100 DUP3 ADD MLOAD PUSH2 0x100 DUP7 ADD SWAP1 PUSH2 0x3B3 JUMP JUMPDEST ADD MLOAD SWAP2 ADD MSTORE JUMP JUMPDEST PUSH2 0x140 DUP2 ADD SWAP3 SWAP2 PUSH2 0x2BE SWAP2 SWAP1 PUSH2 0x3BC JUMP JUMPDEST CALLVALUE PUSH2 0x237 JUMPI PUSH2 0x2EF PUSH2 0x475 PUSH2 0x470 CALLDATASIZE PUSH1 0x4 PUSH2 0x367 JUMP JUMPDEST PUSH2 0x1C95 JUMP JUMPDEST PUSH1 0x40 MLOAD SWAP2 DUP3 SWAP2 DUP3 PUSH2 0x449 JUMP JUMPDEST CALLVALUE PUSH2 0x237 JUMPI PUSH2 0x2EF PUSH2 0x2DF PUSH2 0x497 CALLDATASIZE PUSH1 0x4 PUSH2 0x309 JUMP JUMPDEST SWAP3 SWAP2 SWAP1 SWAP2 PUSH2 0x1FA4 JUMP JUMPDEST PUSH1 0x0 SWAP2 SUB SLT PUSH2 0x237 JUMPI JUMP JUMPDEST PUSH2 0x345 SWAP2 PUSH1 0x8 MUL SHR JUMPDEST PUSH1 0x1 PUSH1 0x1 PUSH1 0xA0 SHL SUB AND SWAP1 JUMP JUMPDEST SWAP1 PUSH2 0x345 SWAP2 SLOAD PUSH2 0x4AB JUMP JUMPDEST PUSH2 0x345 PUSH1 0x0 PUSH1 0xD PUSH2 0x4C0 JUMP JUMPDEST PUSH2 0x345 SWAP1 PUSH2 0x4B4 SWAP1 PUSH1 0x1 PUSH1 0x1 PUSH1 0xA0 SHL SUB AND DUP3 JUMP JUMPDEST PUSH2 0x345 SWAP1 PUSH2 0x4D7 JUMP JUMPDEST PUSH2 0x345 SWAP1 PUSH2 0x4EB JUMP JUMPDEST PUSH2 0x2BA SWAP1 PUSH2 0x4F4 JUMP JUMPDEST PUSH1 0x20 DUP2 ADD SWAP3 SWAP2 PUSH2 0x2BE SWAP2 SWAP1 PUSH2 0x4FD JUMP JUMPDEST CALLVALUE PUSH2 0x237 JUMPI PUSH2 0x526 CALLDATASIZE PUSH1 0x4 PUSH2 0x4A0 JUMP JUMPDEST PUSH2 0x2EF PUSH2 0x531 PUSH2 0x4CB JUMP JUMPDEST PUSH1 0x40 MLOAD SWAP2 DUP3 SWAP2 DUP3 PUSH2 0x506 JUMP JUMPDEST PUSH1 0x0 JUMPDEST DUP4 DUP2 LT PUSH2 0x550 JUMPI POP POP PUSH1 0x0 SWAP2 ADD MSTORE JUMP JUMPDEST DUP2 DUP2 ADD MLOAD DUP4 DUP3 ADD MSTORE PUSH1 0x20 ADD PUSH2 0x540 JUMP JUMPDEST PUSH2 0x581 PUSH2 0x58A PUSH1 0x20 SWAP4 PUSH2 0x594 SWAP4 PUSH2 0x575 DUP2 MLOAD SWAP1 JUMP JUMPDEST DUP1 DUP4 MSTORE SWAP4 DUP5 SWAP3 PUSH1 0x20 ADD SWAP1 JUMP JUMPDEST SWAP6 DUP7 SWAP2 ADD PUSH2 0x53D JUMP JUMPDEST PUSH1 0x1F ADD PUSH1 0x1F NOT AND SWAP1 JUMP JUMPDEST ADD SWAP1 JUMP JUMPDEST DUP1 MLOAD DUP3 MSTORE SWAP1 PUSH2 0x345 SWAP1 PUSH1 0xC0 DUP1 PUSH2 0x5D2 PUSH2 0x5C0 PUSH1 0xE0 DUP6 ADD PUSH1 0x20 DUP9 ADD MLOAD DUP7 DUP3 SUB PUSH1 0x20 DUP9 ADD MSTORE PUSH2 0x560 JUMP JUMPDEST PUSH1 0x40 DUP8 ADD MLOAD DUP6 DUP3 SUB PUSH1 0x40 DUP8 ADD MSTORE PUSH2 0x560 JUMP JUMPDEST SWAP5 PUSH2 0x5E2 PUSH1 0x60 DUP3 ADD MLOAD PUSH1 0x60 DUP7 ADD MSTORE JUMP JUMPDEST PUSH2 0x5F1 PUSH1 0x80 DUP3 ADD MLOAD PUSH1 0x80 DUP7 ADD MSTORE JUMP JUMPDEST PUSH1 0xA0 DUP2 DUP2 ADD MLOAD ISZERO ISZERO SWAP1 DUP6 ADD MSTORE PUSH2 0x442 JUMP JUMPDEST SWAP1 PUSH2 0x345 SWAP2 PUSH2 0x598 JUMP JUMPDEST SWAP1 PUSH2 0x622 PUSH2 0x618 DUP4 MLOAD SWAP1 JUMP JUMPDEST DUP1 DUP4 MSTORE SWAP2 PUSH1 0x20 ADD SWAP1 JUMP JUMPDEST SWAP1 DUP2 PUSH2 0x634 PUSH1 0x20 DUP4 MUL DUP5 ADD SWAP5 PUSH1 0x20 ADD SWAP1 JUMP JUMPDEST SWAP3 PUSH1 0x0 SWAP2 JUMPDEST DUP4 DUP4 LT PUSH2 0x648 JUMPI POP POP POP POP POP SWAP1 JUMP JUMPDEST SWAP1 SWAP2 SWAP3 SWAP4 SWAP5 PUSH1 0x20 PUSH2 0x66B PUSH2 0x664 DUP4 DUP6 PUSH1 0x1 SWAP6 SUB DUP8 MSTORE DUP10 MLOAD PUSH2 0x602 JUMP JUMPDEST SWAP8 PUSH1 0x20 ADD SWAP1 JUMP JUMPDEST SWAP4 ADD SWAP4 ADD SWAP2 SWAP4 SWAP3 SWAP1 PUSH2 0x639 JUMP JUMPDEST PUSH1 0x20 DUP1 DUP3 MSTORE PUSH2 0x345 SWAP3 SWAP2 ADD SWAP1 PUSH2 0x60C JUMP JUMPDEST CALLVALUE PUSH2 0x237 JUMPI PUSH2 0x699 CALLDATASIZE PUSH1 0x4 PUSH2 0x4A0 JUMP JUMPDEST PUSH2 0x2EF PUSH2 0x6A4 PUSH2 0x2167 JUMP JUMPDEST PUSH1 0x40 MLOAD SWAP2 DUP3 SWAP2 DUP3 PUSH2 0x678 JUMP JUMPDEST DUP1 ISZERO ISZERO PUSH2 0x2F5 JUMP JUMPDEST SWAP1 POP CALLDATALOAD SWAP1 PUSH2 0x2BE DUP3 PUSH2 0x6B0 JUMP JUMPDEST SWAP1 SWAP2 PUSH1 0x60 DUP3 DUP5 SUB SLT PUSH2 0x237 JUMPI PUSH2 0x345 PUSH2 0x6DE DUP5 DUP5 PUSH2 0x6B8 JUMP JUMPDEST SWAP4 PUSH1 0x40 PUSH2 0x6EE DUP3 PUSH1 0x20 DUP8 ADD PUSH2 0x6B8 JUMP JUMPDEST SWAP5 ADD PUSH2 0x6B8 JUMP JUMPDEST CALLVALUE PUSH2 0x237 JUMPI PUSH2 0x70E PUSH2 0x708 CALLDATASIZE PUSH1 0x4 PUSH2 0x6C5 JUMP JUMPDEST SWAP2 PUSH2 0x223C JUMP JUMPDEST PUSH1 0x40 MLOAD STOP JUMPDEST PUSH1 0x20 DUP1 DUP3 MSTORE PUSH2 0x345 SWAP3 SWAP2 ADD SWAP1 PUSH2 0x598 JUMP JUMPDEST CALLVALUE PUSH2 0x237 JUMPI PUSH2 0x2EF PUSH2 0x73F PUSH2 0x73A CALLDATASIZE PUSH1 0x4 PUSH2 0x367 JUMP JUMPDEST PUSH2 0x2247 JUMP JUMPDEST PUSH1 0x40 MLOAD SWAP2 DUP3 SWAP2 DUP3 PUSH2 0x713 JUMP JUMPDEST CALLVALUE PUSH2 0x237 JUMPI PUSH2 0x70E PUSH2 0x75E CALLDATASIZE PUSH1 0x4 PUSH2 0x367 JUMP JUMPDEST PUSH2 0x24C7 JUMP JUMPDEST PUSH2 0x345 SWAP2 PUSH1 0x8 MUL SHR DUP2 JUMP JUMPDEST SWAP1 PUSH2 0x345 SWAP2 SLOAD PUSH2 0x763 JUMP JUMPDEST PUSH2 0x345 PUSH1 0x0 PUSH1 0x10 PUSH2 0x76E JUMP JUMPDEST CALLVALUE PUSH2 0x237 JUMPI PUSH2 0x795 CALLDATASIZE PUSH1 0x4 PUSH2 0x4A0 JUMP JUMPDEST PUSH2 0x2EF PUSH2 0x2DF PUSH2 0x779 JUMP JUMPDEST CALLVALUE PUSH2 0x237 JUMPI PUSH2 0x7B0 CALLDATASIZE PUSH1 0x4 PUSH2 0x4A0 JUMP JUMPDEST PUSH2 0x70E PUSH2 0x24E3 JUMP JUMPDEST PUSH1 0x4 GT ISZERO PUSH2 0x237 JUMPI JUMP JUMPDEST SWAP1 POP CALLDATALOAD SWAP1 PUSH2 0x2BE DUP3 PUSH2 0x7B8 JUMP JUMPDEST SWAP2 SWAP1 PUSH1 0x40 DUP4 DUP3 SUB SLT PUSH2 0x237 JUMPI PUSH2 0x345 SWAP1 PUSH1 0x20 PUSH2 0x7EB DUP3 DUP7 PUSH2 0x2FC JUMP JUMPDEST SWAP5 ADD PUSH2 0x7C2 JUMP JUMPDEST CALLVALUE PUSH2 0x237 JUMPI PUSH2 0x2EF PUSH2 0x2DF PUSH2 0x808 CALLDATASIZE PUSH1 0x4 PUSH2 0x7CF JUMP JUMPDEST SWAP1 PUSH2 0x27C2 JUMP JUMPDEST PUSH2 0x345 PUSH1 0x0 PUSH1 0xF PUSH2 0x4C0 JUMP JUMPDEST CALLVALUE PUSH2 0x237 JUMPI PUSH2 0x82A CALLDATASIZE PUSH1 0x4 PUSH2 0x4A0 JUMP JUMPDEST PUSH2 0x2EF PUSH2 0x531 PUSH2 0x80E JUMP JUMPDEST PUSH2 0x345 SWAP2 PUSH1 0x8 MUL SHR JUMPDEST PUSH1 0xFF AND SWAP1 JUMP JUMPDEST SWAP1 PUSH2 0x345 SWAP2 SLOAD PUSH2 0x835 JUMP JUMPDEST PUSH2 0x345 PUSH1 0x1 PUSH1 0x14 PUSH2 0x844 JUMP JUMPDEST CALLVALUE PUSH2 0x237 JUMPI PUSH2 0x86B CALLDATASIZE PUSH1 0x4 PUSH2 0x4A0 JUMP JUMPDEST PUSH2 0x2EF PUSH2 0x876 PUSH2 0x84F JUMP JUMPDEST PUSH1 0x40 MLOAD SWAP2 DUP3 SWAP2 DUP3 SWAP1 ISZERO ISZERO DUP2 MSTORE PUSH1 0x20 ADD SWAP1 JUMP JUMPDEST PUSH2 0x2BA SWAP1 PUSH2 0x4B4 JUMP JUMPDEST SWAP1 PUSH2 0x8B1 PUSH2 0x8AA PUSH2 0x8A0 DUP5 MLOAD SWAP1 JUMP JUMPDEST DUP1 DUP5 MSTORE SWAP3 PUSH1 0x20 ADD SWAP1 JUMP JUMPDEST SWAP3 PUSH1 0x20 ADD SWAP1 JUMP JUMPDEST SWAP1 PUSH1 0x0 JUMPDEST DUP2 DUP2 LT PUSH2 0x8C2 JUMPI POP POP POP SWAP1 JUMP JUMPDEST SWAP1 SWAP2 SWAP3 PUSH2 0x8DF PUSH2 0x8D8 PUSH1 0x1 SWAP3 DUP7 MLOAD DUP2 MSTORE PUSH1 0x20 ADD SWAP1 JUMP JUMPDEST SWAP5 PUSH1 0x20 ADD SWAP1 JUMP JUMPDEST SWAP3 SWAP2 ADD PUSH2 0x8B5 JUMP JUMPDEST SWAP1 PUSH2 0x345 SWAP1 PUSH2 0x120 DUP1 PUSH2 0x92B PUSH2 0x140 DUP5 ADD PUSH2 0x90A PUSH1 0x0 DUP9 ADD MLOAD PUSH1 0x0 DUP8 ADD SWAP1 PUSH2 0x888 JUMP JUMPDEST PUSH2 0x919 PUSH1 0x20 DUP9 ADD MLOAD PUSH1 0x20 DUP8 ADD MSTORE JUMP JUMPDEST PUSH1 0x40 DUP8 ADD MLOAD DUP6 DUP3 SUB PUSH1 0x40 DUP8 ADD MSTORE PUSH2 0x891 JUMP JUMPDEST SWAP5 PUSH2 0x93B PUSH1 0x60 DUP3 ADD MLOAD PUSH1 0x60 DUP7 ADD MSTORE JUMP JUMPDEST PUSH2 0x94A PUSH1 0x80 DUP3 ADD MLOAD PUSH1 0x80 DUP7 ADD MSTORE JUMP JUMPDEST PUSH2 0x959 PUSH1 0xA0 DUP3 ADD MLOAD PUSH1 0xA0 DUP7 ADD MSTORE JUMP JUMPDEST PUSH2 0x968 PUSH1 0xC0 DUP3 ADD MLOAD PUSH1 0xC0 DUP7 ADD MSTORE JUMP JUMPDEST PUSH2 0x977 PUSH1 0xE0 DUP3 ADD MLOAD PUSH1 0xE0 DUP7 ADD MSTORE JUMP JUMPDEST PUSH2 0x100 DUP2 DUP2 ADD MLOAD ISZERO ISZERO SWAP1 DUP6 ADD MSTORE ADD MLOAD SWAP2 ADD SWAP1 PUSH2 0x3B3 JUMP JUMPDEST PUSH1 0x20 DUP1 DUP3 MSTORE PUSH2 0x345 SWAP3 SWAP2 ADD SWAP1 PUSH2 0x8E7 JUMP JUMPDEST CALLVALUE PUSH2 0x237 JUMPI PUSH2 0x2EF PUSH2 0x9BA PUSH2 0x9B5 CALLDATASIZE PUSH1 0x4 PUSH2 0x367 JUMP JUMPDEST PUSH2 0x2931 JUMP JUMPDEST PUSH1 0x40 MLOAD SWAP2 DUP3 SWAP2 DUP3 PUSH2 0x98E JUMP JUMPDEST CALLVALUE PUSH2 0x237 JUMPI PUSH2 0x9D6 CALLDATASIZE PUSH1 0x4 PUSH2 0x4A0 JUMP JUMPDEST PUSH2 0x2EF PUSH2 0x876 PUSH2 0x294D JUMP JUMPDEST CALLVALUE PUSH2 0x237 JUMPI PUSH2 0x9F1 CALLDATASIZE PUSH1 0x4 PUSH2 0x4A0 JUMP JUMPDEST PUSH2 0x70E PUSH2 0x298F JUMP JUMPDEST SWAP1 PUSH2 0xA08 PUSH2 0x8AA PUSH2 0x8A0 DUP5 MLOAD SWAP1 JUMP JUMPDEST SWAP1 PUSH1 0x0 JUMPDEST DUP2 DUP2 LT PUSH2 0xA19 JUMPI POP POP POP SWAP1 JUMP JUMPDEST SWAP1 SWAP2 SWAP3 PUSH2 0xA2F PUSH2 0x8D8 PUSH1 0x1 SWAP3 DUP7 MLOAD DUP2 MSTORE PUSH1 0x20 ADD SWAP1 JUMP JUMPDEST SWAP3 SWAP2 ADD PUSH2 0xA0C JUMP JUMPDEST DUP1 MLOAD DUP3 MSTORE PUSH2 0x345 SWAP2 PUSH1 0x80 PUSH2 0xA6C PUSH1 0xA0 DUP4 ADD PUSH2 0xA5A PUSH1 0x20 DUP7 ADD MLOAD PUSH1 0x20 DUP7 ADD SWAP1 PUSH2 0x888 JUMP JUMPDEST PUSH1 0x40 DUP6 ADD MLOAD DUP5 DUP3 SUB PUSH1 0x40 DUP7 ADD MSTORE PUSH2 0x560 JUMP JUMPDEST SWAP3 PUSH2 0xA7C PUSH1 0x60 DUP3 ADD MLOAD PUSH1 0x60 DUP6 ADD MSTORE JUMP JUMPDEST ADD MLOAD SWAP1 PUSH1 0x80 DUP2 DUP5 SUB SWAP2 ADD MSTORE PUSH2 0x9F9 JUMP JUMPDEST PUSH1 0x20 DUP1 DUP3 MSTORE PUSH2 0x345 SWAP3 SWAP2 ADD SWAP1 PUSH2 0xA37 JUMP JUMPDEST CALLVALUE PUSH2 0x237 JUMPI PUSH2 0x2EF PUSH2 0xAB8 PUSH2 0xAB3 CALLDATASIZE PUSH1 0x4 PUSH2 0x367 JUMP JUMPDEST PUSH2 0x2AA5 JUMP JUMPDEST PUSH1 0x40 MLOAD SWAP2 DUP3 SWAP2 DUP3 PUSH2 0xA8C JUMP JUMPDEST SWAP1 DUP2 MSTORE PUSH1 0x40 DUP2 ADD SWAP3 SWAP2 PUSH2 0x2BE SWAP2 PUSH1 0x20 ADD MSTORE JUMP JUMPDEST ADD MSTORE JUMP JUMPDEST CALLVALUE PUSH2 0x237 JUMPI PUSH2 0xAF3 PUSH2 0xAEE CALLDATASIZE PUSH1 0x4 PUSH2 0x367 JUMP JUMPDEST PUSH2 0x2AC1 JUMP JUMPDEST SWAP1 PUSH2 0x2EF PUSH2 0xB00 PUSH1 0x40 MLOAD SWAP1 JUMP JUMPDEST SWAP3 DUP4 SWAP3 DUP4 PUSH2 0xAC4 JUMP JUMPDEST PUSH2 0x345 PUSH1 0x0 PUSH1 0xE PUSH2 0x4C0 JUMP JUMPDEST CALLVALUE PUSH2 0x237 JUMPI PUSH2 0xB25 CALLDATASIZE PUSH1 0x4 PUSH2 0x4A0 JUMP JUMPDEST PUSH2 0x2EF PUSH2 0x531 PUSH2 0xB09 JUMP JUMPDEST CALLVALUE PUSH2 0x237 JUMPI PUSH2 0xB40 CALLDATASIZE PUSH1 0x4 PUSH2 0x4A0 JUMP JUMPDEST PUSH2 0x70E PUSH2 0x2AFA JUMP JUMPDEST PUSH2 0x345 PUSH1 0x0 PUSH1 0x12 PUSH2 0x76E JUMP JUMPDEST CALLVALUE PUSH2 0x237 JUMPI PUSH2 0xB64 CALLDATASIZE PUSH1 0x4 PUSH2 0x4A0 JUMP JUMPDEST PUSH2 0x2EF PUSH2 0x2DF PUSH2 0xB48 JUMP JUMPDEST PUSH1 0x20 DUP2 ADD SWAP3 SWAP2 PUSH2 0x2BE SWAP2 SWAP1 PUSH2 0x888 JUMP JUMPDEST CALLVALUE PUSH2 0x237 JUMPI PUSH2 0xB8F CALLDATASIZE PUSH1 0x4 PUSH2 0x4A0 JUMP JUMPDEST PUSH2 0x2EF PUSH2 0xB9A PUSH2 0x2B02 JUMP JUMPDEST PUSH1 0x40 MLOAD SWAP2 DUP3 SWAP2 DUP3 PUSH2 0xB6F JUMP JUMPDEST SWAP1 SWAP2 PUSH1 0x60 DUP3 DUP5 SUB SLT PUSH2 0x237 JUMPI PUSH2 0x345 PUSH2 0xBBF DUP5 DUP5 PUSH2 0x2FC JUMP JUMPDEST SWAP4 PUSH1 0x40 PUSH2 0x33E DUP3 PUSH1 0x20 DUP8 ADD PUSH2 0x2FC JUMP JUMPDEST CALLVALUE PUSH2 0x237 JUMPI PUSH2 0x70E PUSH2 0xBE2 CALLDATASIZE PUSH1 0x4 PUSH2 0xBA6 JUMP JUMPDEST SWAP2 PUSH2 0x2C38 JUMP JUMPDEST PUSH2 0x2F5 DUP2 PUSH2 0x4B4 JUMP JUMPDEST SWAP1 POP CALLDATALOAD SWAP1 PUSH2 0x2BE DUP3 PUSH2 0xBE8 JUMP JUMPDEST SWAP2 SWAP1 PUSH1 0x40 DUP4 DUP3 SUB SLT PUSH2 0x237 JUMPI PUSH2 0x345 SWAP1 PUSH1 0x20 PUSH2 0x33E DUP3 DUP7 PUSH2 0xBF1 JUMP JUMPDEST CALLVALUE PUSH2 0x237 JUMPI PUSH2 0x2EF PUSH2 0x876 PUSH2 0xC30 CALLDATASIZE PUSH1 0x4 PUSH2 0xBFE JUMP JUMPDEST SWAP1 PUSH2 0x2D71 JUMP JUMPDEST PUSH2 0x345 PUSH1 0x0 PUSH1 0x11 PUSH2 0x76E JUMP JUMPDEST CALLVALUE PUSH2 0x237 JUMPI PUSH2 0xC52 CALLDATASIZE PUSH1 0x4 PUSH2 0x4A0 JUMP JUMPDEST PUSH2 0x2EF PUSH2 0x2DF PUSH2 0xC36 JUMP JUMPDEST CALLVALUE PUSH2 0x237 JUMPI PUSH2 0x2EF PUSH2 0x2DF PUSH2 0xC73 CALLDATASIZE PUSH1 0x4 PUSH2 0x367 JUMP JUMPDEST PUSH2 0x2D8C JUMP JUMPDEST CALLVALUE PUSH2 0x237 JUMPI PUSH2 0x2EF PUSH2 0x2DF PUSH2 0xC8E CALLDATASIZE PUSH1 0x4 PUSH2 0xBA6 JUMP JUMPDEST SWAP2 PUSH2 0x3250 JUMP JUMPDEST CALLVALUE PUSH2 0x237 JUMPI PUSH2 0x70E PUSH2 0xCA7 CALLDATASIZE PUSH1 0x4 PUSH2 0x309 JUMP JUMPDEST SWAP3 SWAP2 SWAP1 SWAP2 PUSH2 0x3298 JUMP JUMPDEST PUSH2 0x345 PUSH1 0x2 PUSH1 0x14 PUSH2 0x844 JUMP JUMPDEST CALLVALUE PUSH2 0x237 JUMPI PUSH2 0xCCC CALLDATASIZE PUSH1 0x4 PUSH2 0x4A0 JUMP JUMPDEST PUSH2 0x2EF PUSH2 0x876 PUSH2 0xCB0 JUMP JUMPDEST SWAP1 PUSH1 0x20 DUP3 DUP3 SUB SLT PUSH2 0x237 JUMPI PUSH2 0x345 SWAP2 PUSH2 0xBF1 JUMP JUMPDEST SWAP1 PUSH2 0xCFA PUSH2 0x8AA PUSH2 0x8A0 DUP5 MLOAD SWAP1 JUMP JUMPDEST SWAP1 PUSH1 0x0 JUMPDEST DUP2 DUP2 LT PUSH2 0xD0B JUMPI POP POP POP SWAP1 JUMP JUMPDEST SWAP1 SWAP2 SWAP3 PUSH2 0xD21 PUSH2 0x8D8 PUSH1 0x1 SWAP3 DUP7 MLOAD DUP2 MSTORE PUSH1 0x20 ADD SWAP1 JUMP JUMPDEST SWAP3 SWAP2 ADD PUSH2 0xCFE JUMP JUMPDEST PUSH1 0x20 DUP1 DUP3 MSTORE PUSH2 0x345 SWAP3 SWAP2 ADD SWAP1 PUSH2 0xCEB JUMP JUMPDEST CALLVALUE PUSH2 0x237 JUMPI PUSH2 0x2EF PUSH2 0xD55 PUSH2 0xD50 CALLDATASIZE PUSH1 0x4 PUSH2 0xCD7 JUMP JUMPDEST PUSH2 0x32AD JUMP JUMPDEST PUSH1 0x40 MLOAD SWAP2 DUP3 SWAP2 DUP3 PUSH2 0xD29 JUMP JUMPDEST PUSH2 0x345 PUSH1 0x0 PUSH1 0x14 PUSH2 0x844 JUMP JUMPDEST CALLVALUE PUSH2 0x237 JUMPI PUSH2 0xD7D CALLDATASIZE PUSH1 0x4 PUSH2 0x4A0 JUMP JUMPDEST PUSH2 0x2EF PUSH2 0x876 PUSH2 0xD61 JUMP JUMPDEST CALLVALUE PUSH2 0x237 JUMPI PUSH2 0x70E PUSH2 0xD9B CALLDATASIZE PUSH1 0x4 PUSH2 0xCD7 JUMP JUMPDEST PUSH2 0x331B JUMP JUMPDEST PUSH2 0x345 PUSH1 0x0 PUSH1 0x13 PUSH2 0x76E JUMP JUMPDEST CALLVALUE PUSH2 0x237 JUMPI PUSH2 0xDBC CALLDATASIZE PUSH1 0x4 PUSH2 0x4A0 JUMP JUMPDEST PUSH2 0x2EF PUSH2 0x2DF PUSH2 0xDA0 JUMP JUMPDEST SWAP1 PUSH2 0x345 SWAP5 SWAP4 SWAP3 SWAP2 PUSH2 0xDD7 PUSH2 0x3324 JUMP JUMPDEST PUSH2 0x1265 JUMP JUMPDEST PUSH2 0x345 SWAP1 DUP2 JUMP JUMPDEST PUSH2 0x345 SWAP1 SLOAD PUSH2 0xDDC JUMP JUMPDEST PUSH4 0x4E487B71 PUSH1 0xE0 SHL PUSH1 0x0 MSTORE PUSH1 0x11 PUSH1 0x4 MSTORE PUSH1 0x24 PUSH1 0x0 REVERT JUMPDEST PUSH1 0x0 NOT DUP2 EQ PUSH2 0xE12 JUMPI PUSH1 0x1 ADD SWAP1 JUMP JUMPDEST PUSH2 0xDED JUMP JUMPDEST SWAP1 PUSH1 0x0 NOT SWAP1 JUMPDEST SWAP2 DUP2 NOT AND SWAP2 AND OR SWAP1 JUMP JUMPDEST PUSH2 0x345 PUSH2 0x345 PUSH2 0x345 SWAP3 SWAP1 JUMP JUMPDEST SWAP1 PUSH2 0xE44 PUSH2 0x345 PUSH2 0xE4B SWAP3 PUSH2 0xE27 JUMP JUMPDEST DUP3 SLOAD PUSH2 0xE17 JUMP JUMPDEST SWAP1 SSTORE JUMP JUMPDEST PUSH4 0x4E487B71 PUSH1 0xE0 SHL PUSH1 0x0 MSTORE PUSH1 0x41 PUSH1 0x4 MSTORE PUSH1 0x24 PUSH1 0x0 REVERT JUMPDEST SWAP1 PUSH1 0x1F ADD PUSH1 0x1F NOT AND DUP2 ADD SWAP1 DUP2 LT PUSH8 0xFFFFFFFFFFFFFFFF DUP3 GT OR PUSH2 0xE87 JUMPI PUSH1 0x40 MSTORE JUMP JUMPDEST PUSH2 0xE4F JUMP JUMPDEST SWAP1 PUSH2 0x2BE PUSH2 0xE99 PUSH1 0x40 MLOAD SWAP1 JUMP JUMPDEST SWAP3 DUP4 PUSH2 0xE65 JUMP JUMPDEST PUSH2 0x345 PUSH1 0xE0 PUSH2 0xE8C JUMP JUMPDEST PUSH8 0xFFFFFFFFFFFFFFFF DUP2 GT PUSH2 0xE87 JUMPI PUSH1 0x20 SWAP1 PUSH1 0x1F ADD PUSH1 0x1F NOT AND ADD SWAP1 JUMP JUMPDEST SWAP1 DUP3 PUSH1 0x0 SWAP4 SWAP3 DUP3 CALLDATACOPY ADD MSTORE JUMP JUMPDEST SWAP1 SWAP3 SWAP2 SWAP3 PUSH2 0xEE8 PUSH2 0xEE3 DUP3 PUSH2 0xEAA JUMP JUMPDEST PUSH2 0xE8C JUMP JUMPDEST SWAP4 DUP2 DUP6 MSTORE DUP2 DUP4 ADD GT PUSH2 0x237 JUMPI PUSH2 0x2BE SWAP2 PUSH1 0x20 DUP6 ADD SWAP1 PUSH2 0xEC7 JUMP JUMPDEST PUSH2 0x345 SWAP2 CALLDATASIZE SWAP2 PUSH2 0xED3 JUMP JUMPDEST SWAP1 PUSH2 0xF17 SWAP1 PUSH2 0xE27 JUMP JUMPDEST PUSH1 0x0 MSTORE PUSH1 0x20 MSTORE PUSH1 0x40 PUSH1 0x0 KECCAK256 SWAP1 JUMP JUMPDEST PUSH4 0x4E487B71 PUSH1 0xE0 SHL PUSH1 0x0 MSTORE PUSH1 0x22 PUSH1 0x4 MSTORE PUSH1 0x24 PUSH1 0x0 REVERT JUMPDEST SWAP1 PUSH1 0x1 PUSH1 0x2 DUP4 DIV SWAP3 AND DUP1 ISZERO PUSH2 0xF5B JUMPI JUMPDEST PUSH1 0x20 DUP4 LT EQ PUSH2 0xF56 JUMPI JUMP JUMPDEST PUSH2 0xF25 JUMP JUMPDEST SWAP2 PUSH1 0x7F AND SWAP2 PUSH2 0xF4B JUMP JUMPDEST SWAP2 PUSH1 0x0 NOT PUSH1 0x8 SWAP3 SWAP1 SWAP3 MUL SWAP2 DUP3 SHL SWAP2 SHL PUSH2 0xE1D JUMP JUMPDEST SWAP2 SWAP1 PUSH2 0xF8A PUSH2 0x345 PUSH2 0xE4B SWAP4 PUSH2 0xE27 JUMP JUMPDEST SWAP1 DUP4 SLOAD PUSH2 0xF65 JUMP JUMPDEST PUSH2 0x2BE SWAP2 PUSH1 0x0 SWAP2 PUSH2 0xF79 JUMP JUMPDEST DUP2 DUP2 LT PUSH2 0xFA9 JUMPI POP POP JUMP JUMPDEST DUP1 PUSH2 0xFB7 PUSH1 0x0 PUSH1 0x1 SWAP4 PUSH2 0xF92 JUMP JUMPDEST ADD PUSH2 0xF9E JUMP JUMPDEST SWAP2 SWAP1 PUSH1 0x1F DUP2 GT PUSH2 0xFCC JUMPI POP POP POP JUMP JUMPDEST PUSH2 0xFDE PUSH2 0x2BE SWAP4 PUSH1 0x0 MSTORE PUSH1 0x20 PUSH1 0x0 KECCAK256 SWAP1 JUMP JUMPDEST SWAP1 PUSH1 0x20 PUSH1 0x1F DUP5 ADD DUP2 SWAP1 DIV DUP4 ADD SWAP4 LT PUSH2 0x1000 JUMPI JUMPDEST PUSH1 0x20 PUSH1 0x1F SWAP1 SWAP2 ADD DIV ADD SWAP1 PUSH2 0xF9E JUMP JUMPDEST SWAP1 SWAP2 POP DUP2 SWAP1 PUSH2 0xFF1 JUMP JUMPDEST SWAP1 PUSH2 0x1013 DUP2 MLOAD SWAP1 JUMP JUMPDEST SWAP1 PUSH8 0xFFFFFFFFFFFFFFFF DUP3 GT PUSH2 0xE87 JUMPI PUSH2 0x1037 DUP3 PUSH2 0x1031 DUP6 SLOAD PUSH2 0xF3B JUMP JUMPDEST DUP6 PUSH2 0xFBD JUMP JUMPDEST PUSH1 0x20 SWAP1 PUSH1 0x1F DUP4 GT PUSH1 0x1 EQ PUSH2 0x1072 JUMPI PUSH2 0xE4B SWAP3 SWAP2 PUSH1 0x0 SWAP2 DUP4 PUSH2 0x1067 JUMPI JUMPDEST POP POP PUSH1 0x0 NOT PUSH1 0x8 DUP4 MUL SHR NOT AND SWAP1 PUSH1 0x2 MUL OR SWAP1 JUMP JUMPDEST ADD MLOAD SWAP1 POP CODESIZE DUP1 PUSH2 0x1053 JUMP JUMPDEST PUSH1 0x1F NOT DUP4 AND SWAP2 PUSH2 0x1087 DUP6 PUSH1 0x0 MSTORE PUSH1 0x20 PUSH1 0x0 KECCAK256 SWAP1 JUMP JUMPDEST SWAP3 PUSH1 0x0 JUMPDEST DUP2 DUP2 LT PUSH2 0x10C5 JUMPI POP SWAP2 PUSH1 0x2 SWAP4 SWAP2 DUP6 PUSH1 0x1 SWAP7 SWAP5 LT PUSH2 0x10AC JUMPI JUMPDEST POP POP POP MUL ADD SWAP1 SSTORE JUMP JUMPDEST ADD MLOAD PUSH1 0x0 NOT PUSH1 0x8 PUSH1 0x1F DUP6 AND MUL SHR NOT AND SWAP1 SSTORE CODESIZE DUP1 DUP1 PUSH2 0x10A3 JUMP JUMPDEST SWAP2 SWAP4 PUSH1 0x20 PUSH1 0x1 DUP2 SWAP3 DUP8 DUP8 ADD MLOAD DUP2 SSTORE ADD SWAP6 ADD SWAP3 ADD PUSH2 0x108B JUMP JUMPDEST SWAP1 PUSH2 0x2BE SWAP2 PUSH2 0x100A JUMP JUMPDEST SWAP1 PUSH1 0xFF SWAP1 PUSH2 0xE1D JUMP JUMPDEST SWAP1 PUSH2 0x1100 PUSH2 0x345 PUSH2 0xE4B SWAP3 ISZERO ISZERO SWAP1 JUMP JUMPDEST DUP3 SLOAD PUSH2 0x10E7 JUMP JUMPDEST PUSH1 0x6 PUSH2 0x11A0 PUSH1 0xC0 PUSH2 0x2BE SWAP5 PUSH2 0x1126 PUSH2 0x1120 PUSH1 0x0 DUP4 ADD MLOAD SWAP1 JUMP JUMPDEST DUP7 PUSH2 0xE34 JUMP JUMPDEST PUSH2 0x113D PUSH2 0x1134 PUSH1 0x20 DUP4 ADD MLOAD SWAP1 JUMP JUMPDEST PUSH1 0x1 DUP8 ADD PUSH2 0x10DD JUMP JUMPDEST PUSH2 0x1154 PUSH2 0x114B PUSH1 0x40 DUP4 ADD MLOAD SWAP1 JUMP JUMPDEST PUSH1 0x2 DUP8 ADD PUSH2 0x10DD JUMP JUMPDEST PUSH2 0x116B PUSH2 0x1162 PUSH1 0x60 DUP4 ADD MLOAD SWAP1 JUMP JUMPDEST PUSH1 0x3 DUP8 ADD PUSH2 0xE34 JUMP JUMPDEST PUSH2 0x1182 PUSH2 0x1179 PUSH1 0x80 DUP4 ADD MLOAD SWAP1 JUMP JUMPDEST PUSH1 0x4 DUP8 ADD PUSH2 0xE34 JUMP JUMPDEST PUSH2 0x119B PUSH2 0x1192 PUSH1 0xA0 DUP4 ADD MLOAD ISZERO ISZERO SWAP1 JUMP JUMPDEST PUSH1 0x5 DUP8 ADD PUSH2 0x10F0 JUMP JUMPDEST ADD MLOAD SWAP1 JUMP JUMPDEST SWAP2 ADD PUSH2 0xE34 JUMP JUMPDEST SWAP1 PUSH2 0x2BE SWAP2 PUSH2 0x1107 JUMP JUMPDEST SWAP1 SWAP2 PUSH2 0x594 SWAP1 DUP4 SWAP1 DUP1 SWAP4 PUSH2 0xEC7 JUMP JUMPDEST ADD SWAP2 PUSH2 0x11B1 JUMP JUMPDEST SWAP2 PUSH2 0x11B1 JUMP JUMPDEST SWAP1 PUSH2 0x11DA PUSH2 0xEE3 DUP4 PUSH2 0xEAA JUMP JUMPDEST SWAP2 DUP3 MSTORE JUMP JUMPDEST PUSH2 0x11E9 PUSH1 0x14 PUSH2 0x11CD JUMP JUMPDEST PUSH20 0x10D05391125110551157D49151D254D511549151 PUSH1 0x62 SHL PUSH1 0x20 DUP3 ADD MSTORE SWAP1 JUMP JUMPDEST PUSH2 0x345 PUSH2 0x11DF JUMP JUMPDEST SWAP2 SWAP1 PUSH2 0x58A DUP2 PUSH2 0x1228 DUP2 PUSH2 0x594 SWAP6 PUSH1 0x20 SWAP2 DUP2 MSTORE ADD SWAP1 JUMP JUMPDEST DUP1 SWAP6 PUSH2 0xEC7 JUMP JUMPDEST SWAP6 SWAP5 SWAP3 PUSH2 0x2BE SWAP5 PUSH2 0x1252 PUSH2 0x1260 SWAP4 PUSH1 0x40 SWAP6 PUSH1 0x60 DUP12 ADD SWAP2 DUP12 DUP4 SUB PUSH1 0x0 DUP14 ADD MSTORE PUSH2 0x1211 JUMP JUMPDEST SWAP2 DUP9 DUP4 SUB PUSH1 0x20 DUP11 ADD MSTORE PUSH2 0x1211 JUMP JUMPDEST SWAP5 ADD MSTORE JUMP JUMPDEST POP SWAP3 SWAP2 PUSH32 0xD97EAF93AD8386D19C4444905F34D814EFFA6ED87627BBBAA1E75E797F5B65D5 SWAP2 PUSH2 0x1391 PUSH2 0x1297 PUSH1 0x9 PUSH2 0xDE3 JUMP JUMPDEST SWAP6 PUSH2 0x12AB PUSH2 0x12A4 DUP9 PUSH2 0xE03 JUMP JUMPDEST PUSH1 0x9 PUSH2 0xE34 JUMP JUMPDEST PUSH2 0x1327 PUSH2 0x12B6 PUSH2 0xEA0 JUMP JUMPDEST PUSH2 0x12BE DUP10 DUP3 MSTORE JUMP JUMPDEST PUSH2 0x12D2 PUSH2 0x12CB DUP7 DUP6 PUSH2 0xF02 JUMP JUMPDEST PUSH1 0x20 DUP4 ADD MSTORE JUMP JUMPDEST PUSH2 0x12E6 PUSH2 0x12DF DUP10 DUP9 PUSH2 0xF02 JUMP JUMPDEST PUSH1 0x40 DUP4 ADD MSTORE JUMP JUMPDEST PUSH2 0x1305 PUSH2 0x12F3 PUSH1 0x0 PUSH2 0xE27 JUMP JUMPDEST PUSH2 0x12FE DUP2 PUSH1 0x60 DUP6 ADD MSTORE JUMP JUMPDEST PUSH1 0x80 DUP4 ADD MSTORE JUMP JUMPDEST PUSH1 0x1 PUSH1 0xA0 DUP3 ADD MSTORE PUSH2 0x1317 TIMESTAMP PUSH1 0xC0 DUP4 ADD MSTORE JUMP JUMPDEST PUSH2 0x1322 DUP10 PUSH1 0x3 PUSH2 0xF0D JUMP JUMPDEST PUSH2 0x11A7 JUMP JUMPDEST PUSH2 0x1373 PUSH2 0x1333 PUSH1 0x40 MLOAD SWAP1 JUMP JUMPDEST PUSH2 0x1366 DUP2 DUP11 PUSH2 0x135A DUP12 DUP11 DUP11 DUP10 PUSH1 0x20 DUP8 ADD SWAP6 DUP7 SWAP3 PUSH1 0x20 DUP5 PUSH2 0x11C0 PUSH2 0x345 SWAP9 SWAP7 PUSH2 0x11C7 SWAP7 SWAP6 SWAP1 MSTORE JUMP JUMPDEST SWAP1 DUP2 SUB DUP3 MSTORE SUB DUP3 PUSH2 0xE65 JUMP JUMPDEST PUSH2 0x136E PUSH2 0x1209 JUMP JUMPDEST PUSH2 0x3502 JUMP JUMPDEST PUSH2 0x137C DUP8 PUSH2 0xE27 JUMP JUMPDEST SWAP6 PUSH2 0x1386 PUSH1 0x40 MLOAD SWAP1 JUMP JUMPDEST SWAP5 DUP6 SWAP5 TIMESTAMP SWAP4 DUP7 PUSH2 0x122F JUMP JUMPDEST SUB SWAP1 LOG2 SWAP1 JUMP JUMPDEST PUSH2 0x345 SWAP4 SWAP3 SWAP2 SWAP1 PUSH1 0x0 PUSH2 0xDC7 JUMP JUMPDEST PUSH2 0x345 SWAP1 PUSH2 0x83E JUMP JUMPDEST PUSH2 0x345 SWAP1 SLOAD PUSH2 0x13A5 JUMP JUMPDEST ISZERO PUSH2 0x13BF JUMPI JUMP JUMPDEST PUSH1 0x40 MLOAD PUSH3 0x461BCD PUSH1 0xE5 SHL DUP2 MSTORE PUSH1 0x20 PUSH1 0x4 DUP3 ADD MSTORE PUSH1 0x12 PUSH1 0x24 DUP3 ADD MSTORE PUSH18 0x53657373696F6E206E6F7420616374697665 PUSH1 0x70 SHL PUSH1 0x44 DUP3 ADD MSTORE DUP1 PUSH1 0x64 DUP2 ADD JUMPDEST SUB SWAP1 REVERT JUMPDEST SWAP1 PUSH2 0x345 SWAP5 SWAP4 SWAP3 SWAP2 PUSH2 0x1424 PUSH2 0x141F PUSH1 0x4 PUSH2 0x1419 DUP6 PUSH1 0x5 PUSH2 0xF0D JUMP JUMPDEST ADD PUSH2 0x13AE JUMP JUMPDEST PUSH2 0x13B8 JUMP JUMPDEST PUSH2 0x1469 JUMP JUMPDEST ISZERO PUSH2 0x1430 JUMPI JUMP JUMPDEST PUSH1 0x40 MLOAD PUSH3 0x461BCD PUSH1 0xE5 SHL DUP2 MSTORE PUSH1 0x20 PUSH1 0x4 DUP3 ADD MSTORE PUSH1 0x11 PUSH1 0x24 DUP3 ADD MSTORE PUSH17 0x496E76616C69642063616E646964617465 PUSH1 0x78 SHL PUSH1 0x44 DUP3 ADD MSTORE PUSH1 0x64 SWAP1 REVERT JUMPDEST SWAP1 PUSH2 0x345 SWAP5 SWAP4 SWAP3 SWAP2 PUSH2 0x1489 PUSH2 0x1484 PUSH1 0x5 PUSH2 0x1419 DUP7 PUSH1 0x3 PUSH2 0xF0D JUMP JUMPDEST PUSH2 0x1429 JUMP JUMPDEST PUSH2 0x14D1 JUMP JUMPDEST ISZERO PUSH2 0x1495 JUMPI JUMP JUMPDEST PUSH1 0x40 MLOAD PUSH3 0x461BCD PUSH1 0xE5 SHL DUP2 MSTORE PUSH1 0x20 PUSH1 0x4 DUP3 ADD MSTORE PUSH1 0x14 PUSH1 0x24 DUP3 ADD MSTORE PUSH20 0x24B73B30B634B2103B37BA34B733903837BBB2B9 PUSH1 0x61 SHL PUSH1 0x44 DUP3 ADD MSTORE PUSH1 0x64 SWAP1 REVERT JUMPDEST SWAP1 PUSH2 0x345 SWAP5 SWAP4 SWAP3 SWAP2 PUSH2 0x14E6 PUSH2 0x345 PUSH1 0x10 PUSH2 0xDE3 JUMP JUMPDEST DUP6 LT ISZERO DUP1 PUSH2 0x14FD JUMPI JUMPDEST PUSH2 0x14F8 SWAP1 PUSH2 0x148E JUMP JUMPDEST PUSH2 0x18F7 JUMP JUMPDEST POP PUSH2 0x14F8 PUSH2 0x150E PUSH2 0x345 PUSH1 0x11 PUSH2 0xDE3 JUMP JUMPDEST DUP7 GT ISZERO SWAP1 POP PUSH2 0x14EF JUMP JUMPDEST SWAP1 PUSH2 0xF17 SWAP1 PUSH2 0x4F4 JUMP JUMPDEST ISZERO PUSH2 0x1529 JUMPI JUMP JUMPDEST PUSH1 0x40 MLOAD PUSH3 0x461BCD PUSH1 0xE5 SHL DUP2 MSTORE PUSH1 0x20 PUSH1 0x4 DUP3 ADD MSTORE PUSH1 0x1D PUSH1 0x24 DUP3 ADD MSTORE PUSH32 0x416C726561647920766F74656420696E20746869732073657373696F6E000000 PUSH1 0x44 DUP3 ADD MSTORE PUSH1 0x64 SWAP1 REVERT JUMPDEST ISZERO PUSH2 0x1575 JUMPI JUMP JUMPDEST PUSH1 0x40 MLOAD PUSH3 0x461BCD PUSH1 0xE5 SHL DUP2 MSTORE PUSH1 0x20 PUSH1 0x4 DUP3 ADD MSTORE PUSH1 0x13 PUSH1 0x24 DUP3 ADD MSTORE PUSH19 0x159BDD1A5B99C81C195C9A5BD908195B991959 PUSH1 0x6A SHL PUSH1 0x44 DUP3 ADD MSTORE PUSH1 0x64 SWAP1 REVERT JUMPDEST PUSH8 0xFFFFFFFFFFFFFFFF DUP2 GT PUSH2 0xE87 JUMPI PUSH1 0x20 DUP1 SWAP2 MUL ADD SWAP1 JUMP JUMPDEST SWAP1 PUSH2 0x11DA PUSH2 0xEE3 DUP4 PUSH2 0x15B0 JUMP JUMPDEST CALLDATASIZE SWAP1 CALLDATACOPY JUMP JUMPDEST SWAP1 PUSH2 0x2BE PUSH2 0x15F0 PUSH2 0x15EA DUP5 PUSH2 0x15C8 JUMP JUMPDEST SWAP4 PUSH2 0x15B0 JUMP JUMPDEST PUSH1 0x1F NOT ADD PUSH1 0x20 DUP5 ADD PUSH2 0x15D5 JUMP JUMPDEST PUSH2 0x345 PUSH2 0x140 PUSH2 0xE8C JUMP JUMPDEST SWAP1 PUSH2 0x2BA SWAP1 PUSH2 0x4B4 JUMP JUMPDEST SWAP1 PUSH2 0x2BA SWAP1 PUSH2 0x3A0 JUMP JUMPDEST PUSH2 0x345 SWAP1 MLOAD PUSH2 0x4B4 JUMP JUMPDEST SWAP1 PUSH1 0x1 PUSH1 0x1 PUSH1 0xA0 SHL SUB SWAP1 PUSH2 0xE1D JUMP JUMPDEST SWAP1 PUSH2 0x1645 PUSH2 0x345 PUSH2 0xE4B SWAP3 PUSH2 0x4F4 JUMP JUMPDEST DUP3 SLOAD PUSH2 0x1626 JUMP JUMPDEST SWAP2 SWAP1 SWAP2 DUP3 DUP3 LT PUSH2 0x165B JUMPI POP POP POP JUMP JUMPDEST PUSH2 0x2BE SWAP3 SWAP2 PUSH2 0x1671 SWAP1 JUMPDEST SWAP2 PUSH1 0x0 MSTORE PUSH1 0x20 PUSH1 0x0 KECCAK256 SWAP1 JUMP JUMPDEST SWAP2 DUP3 ADD SWAP2 ADD PUSH2 0xF9E JUMP JUMPDEST SWAP1 PUSH1 0x1 PUSH1 0x40 SHL DUP2 GT PUSH2 0xE87 JUMPI DUP2 PUSH2 0x1693 PUSH2 0x2BE SWAP4 SLOAD SWAP1 JUMP JUMPDEST SWAP1 DUP3 DUP2 SSTORE PUSH2 0x164C JUMP JUMPDEST DUP2 MLOAD SWAP2 PUSH8 0xFFFFFFFFFFFFFFFF DUP4 GT PUSH2 0xE87 JUMPI PUSH2 0x16D3 PUSH2 0x16C7 PUSH1 0x1 SWAP3 PUSH2 0x16C1 DUP7 DUP7 PUSH2 0x167B JUMP JUMPDEST PUSH1 0x20 ADD SWAP1 JUMP JUMPDEST SWAP3 PUSH1 0x0 MSTORE PUSH1 0x20 PUSH1 0x0 KECCAK256 SWAP1 JUMP JUMPDEST SWAP3 DIV SWAP2 PUSH1 0x0 JUMPDEST DUP4 DUP2 LT PUSH2 0x16E6 JUMPI POP POP POP POP JUMP JUMPDEST PUSH1 0x1 SWAP1 PUSH1 0x20 PUSH2 0x16F6 PUSH2 0x345 DUP7 MLOAD SWAP1 JUMP JUMPDEST SWAP5 ADD SWAP4 DUP2 DUP5 ADD SSTORE ADD PUSH2 0x16D9 JUMP JUMPDEST SWAP1 PUSH2 0x2BE SWAP2 PUSH2 0x169C JUMP JUMPDEST SWAP1 PUSH2 0xE44 PUSH2 0x345 PUSH2 0xE4B SWAP3 SWAP1 JUMP JUMPDEST PUSH2 0x345 SWAP1 MLOAD PUSH2 0x3A0 JUMP JUMPDEST SWAP1 PUSH2 0xFF00 SWAP1 PUSH1 0x8 SHL PUSH2 0xE1D JUMP JUMPDEST SWAP1 PUSH2 0x1742 PUSH2 0x345 PUSH2 0xE4B SWAP3 PUSH2 0x3AA JUMP JUMPDEST DUP3 SLOAD PUSH2 0x1725 JUMP JUMPDEST SWAP1 PUSH2 0x182B PUSH2 0x120 PUSH1 0x8 PUSH2 0x2BE SWAP5 PUSH2 0x176B PUSH2 0x1765 PUSH1 0x0 DUP8 ADD PUSH2 0x161C JUMP JUMPDEST DUP3 PUSH2 0x1635 JUMP JUMPDEST PUSH2 0x1782 PUSH2 0x1779 PUSH1 0x20 DUP8 ADD MLOAD SWAP1 JUMP JUMPDEST PUSH1 0x1 DUP4 ADD PUSH2 0xE34 JUMP JUMPDEST PUSH2 0x1799 PUSH2 0x1790 PUSH1 0x40 DUP8 ADD MLOAD SWAP1 JUMP JUMPDEST PUSH1 0x2 DUP4 ADD PUSH2 0x1703 JUMP JUMPDEST PUSH2 0x17B0 PUSH2 0x17A7 PUSH1 0x60 DUP8 ADD MLOAD SWAP1 JUMP JUMPDEST PUSH1 0x3 DUP4 ADD PUSH2 0x170D JUMP JUMPDEST PUSH2 0x17C7 PUSH2 0x17BE PUSH1 0x80 DUP8 ADD MLOAD SWAP1 JUMP JUMPDEST PUSH1 0x4 DUP4 ADD PUSH2 0x170D JUMP JUMPDEST PUSH2 0x17DE PUSH2 0x17D5 PUSH1 0xA0 DUP8 ADD MLOAD SWAP1 JUMP JUMPDEST PUSH1 0x5 DUP4 ADD PUSH2 0x170D JUMP JUMPDEST PUSH2 0x17F5 PUSH2 0x17EC PUSH1 0xC0 DUP8 ADD MLOAD SWAP1 JUMP JUMPDEST PUSH1 0x6 DUP4 ADD PUSH2 0xE34 JUMP JUMPDEST PUSH2 0x180C PUSH2 0x1803 PUSH1 0xE0 DUP8 ADD MLOAD SWAP1 JUMP JUMPDEST PUSH1 0x7 DUP4 ADD PUSH2 0xE34 JUMP JUMPDEST ADD SWAP3 PUSH2 0x1825 PUSH2 0x181F PUSH2 0x100 DUP4 ADD MLOAD ISZERO ISZERO SWAP1 JUMP JUMPDEST DUP6 PUSH2 0x10F0 JUMP JUMPDEST ADD PUSH2 0x171B JUMP JUMPDEST SWAP1 PUSH2 0x1732 JUMP JUMPDEST SWAP1 PUSH2 0x2BE SWAP2 PUSH2 0x1749 JUMP JUMPDEST PUSH4 0x4E487B71 PUSH1 0xE0 SHL PUSH1 0x0 MSTORE PUSH1 0x32 PUSH1 0x4 MSTORE PUSH1 0x24 PUSH1 0x0 REVERT JUMPDEST DUP1 SLOAD DUP3 LT ISZERO PUSH2 0x1874 JUMPI PUSH2 0x186B PUSH1 0x1 SWAP2 PUSH1 0x0 MSTORE PUSH1 0x20 PUSH1 0x0 KECCAK256 SWAP1 JUMP JUMPDEST SWAP2 MUL ADD SWAP1 PUSH1 0x0 SWAP1 JUMP JUMPDEST PUSH2 0x183B JUMP JUMPDEST SWAP1 DUP2 SLOAD SWAP2 PUSH1 0x1 PUSH1 0x40 SHL DUP4 LT ISZERO PUSH2 0xE87 JUMPI DUP3 PUSH2 0x189C SWAP2 PUSH1 0x1 PUSH2 0x2BE SWAP6 ADD DUP2 SSTORE PUSH2 0x1851 JUMP JUMPDEST SWAP1 PUSH2 0xF79 JUMP JUMPDEST SWAP2 SWAP1 DUP3 ADD DUP1 SWAP3 GT PUSH2 0xE12 JUMPI JUMP JUMPDEST ADD SWAP2 DUP3 MSTORE JUMP JUMPDEST PUSH2 0x18BF PUSH1 0x9 PUSH2 0x11CD JUMP JUMPDEST PUSH9 0x1593D51157D0D054D5 PUSH1 0xBA SHL PUSH1 0x20 DUP3 ADD MSTORE SWAP1 JUMP JUMPDEST PUSH2 0x345 PUSH2 0x18B5 JUMP JUMPDEST SWAP2 PUSH1 0x20 PUSH2 0x2BE SWAP3 SWAP5 SWAP4 PUSH2 0xAD7 PUSH1 0x40 DUP3 ADD SWAP7 PUSH1 0x0 DUP4 ADD SWAP1 PUSH2 0x3B3 JUMP JUMPDEST POP PUSH1 0x6 SWAP4 DUP2 PUSH2 0x1906 CALLER DUP8 PUSH2 0x1518 JUMP JUMPDEST SWAP1 PUSH2 0x1910 SWAP2 PUSH2 0xF0D JUMP JUMPDEST PUSH2 0x1919 SWAP1 PUSH2 0x13AE JUMP JUMPDEST ISZERO PUSH2 0x1923 SWAP1 PUSH2 0x1522 JUMP JUMPDEST PUSH1 0x5 SWAP5 PUSH2 0x1930 DUP4 DUP8 PUSH2 0xF0D JUMP JUMPDEST PUSH1 0x2 ADD PUSH2 0x193C SWAP1 PUSH2 0xDE3 JUMP JUMPDEST TIMESTAMP GT ISZERO PUSH2 0x1948 SWAP1 PUSH2 0x156E JUMP JUMPDEST PUSH2 0x1952 PUSH1 0xA PUSH2 0xDE3 JUMP JUMPDEST SWAP6 PUSH2 0x195C DUP8 PUSH2 0xE03 JUMP JUMPDEST PUSH2 0x1967 SWAP1 PUSH1 0xA PUSH2 0xE34 JUMP JUMPDEST PUSH1 0x0 SWAP6 PUSH2 0x1973 DUP8 PUSH2 0xE27 JUMP JUMPDEST PUSH2 0x197C SWAP1 PUSH2 0x15DA JUMP JUMPDEST SWAP1 PUSH2 0x1986 DUP9 PUSH2 0xE27 JUMP JUMPDEST SWAP1 PUSH2 0x198F PUSH2 0x15FD JUMP JUMPDEST SWAP3 PUSH2 0x199C CALLER DUP12 DUP7 ADD PUSH2 0x1608 JUMP JUMPDEST PUSH2 0x19A7 DUP10 PUSH1 0x20 DUP7 ADD MSTORE JUMP JUMPDEST PUSH1 0x40 DUP5 ADD MSTORE PUSH1 0x60 DUP4 ADD MSTORE PUSH2 0x19BC DUP2 PUSH1 0x80 DUP5 ADD MSTORE JUMP JUMPDEST PUSH1 0xA0 DUP3 ADD MSTORE PUSH2 0x19CC DUP5 PUSH1 0xC0 DUP4 ADD MSTORE JUMP JUMPDEST PUSH2 0x19D7 TIMESTAMP PUSH1 0xE0 DUP4 ADD MSTORE JUMP JUMPDEST DUP7 ISZERO ISZERO PUSH2 0x100 DUP3 ADD MSTORE PUSH2 0x19EE DUP8 PUSH2 0x120 DUP4 ADD PUSH2 0x1612 JUMP JUMPDEST PUSH2 0x19F9 DUP9 PUSH1 0x4 PUSH2 0xF0D JUMP JUMPDEST SWAP1 PUSH2 0x1A03 SWAP2 PUSH2 0x1831 JUMP JUMPDEST DUP4 PUSH2 0x1A0E CALLER DUP5 PUSH2 0x1518 JUMP JUMPDEST SWAP1 PUSH2 0x1A18 SWAP2 PUSH2 0xF0D JUMP JUMPDEST PUSH1 0x1 PUSH2 0x1A23 SWAP2 PUSH2 0x10F0 JUMP JUMPDEST DUP7 PUSH2 0x1A2F CALLER PUSH1 0x7 PUSH2 0x1518 JUMP JUMPDEST SWAP1 PUSH2 0x1A39 SWAP2 PUSH2 0x1879 JUMP JUMPDEST DUP4 DUP2 PUSH2 0x1A45 DUP3 DUP3 PUSH2 0xF0D JUMP JUMPDEST ADD PUSH2 0x1A4F DUP2 PUSH2 0xDE3 JUMP JUMPDEST PUSH2 0x1A58 SWAP1 PUSH2 0xE03 JUMP JUMPDEST PUSH2 0x1A61 SWAP2 PUSH2 0xE34 JUMP JUMPDEST PUSH2 0x1A6A SWAP2 PUSH2 0xF0D JUMP JUMPDEST ADD DUP2 PUSH2 0x1A75 DUP3 PUSH2 0xDE3 JUMP JUMPDEST SWAP1 PUSH2 0x1A7F SWAP2 PUSH2 0x18A2 JUMP JUMPDEST PUSH2 0x1A88 SWAP2 PUSH2 0xE34 JUMP JUMPDEST DUP3 PUSH2 0x1A92 PUSH1 0x40 MLOAD SWAP1 JUMP JUMPDEST SWAP3 DUP4 SWAP3 PUSH1 0x20 DUP5 ADD SWAP3 PUSH2 0x1ABB SWAP3 DUP10 DUP6 SWAP3 PUSH2 0x18AF PUSH1 0x20 PUSH2 0x594 SWAP5 PUSH2 0x18AF DUP3 DUP9 PUSH2 0x18AF DUP3 SWAP12 SWAP11 DUP4 SWAP10 SWAP1 MSTORE JUMP JUMPDEST SWAP1 DUP2 SUB DUP3 MSTORE SUB PUSH2 0x1ACB SWAP1 DUP3 PUSH2 0xE65 JUMP JUMPDEST PUSH2 0x1AD3 PUSH2 0x18D4 JUMP JUMPDEST SWAP1 PUSH2 0x1ADD SWAP2 PUSH2 0x3502 JUMP JUMPDEST PUSH2 0x1AE6 CALLER PUSH2 0x4F4 JUMP JUMPDEST SWAP1 PUSH2 0x1AF0 SWAP1 PUSH2 0xE27 JUMP JUMPDEST SWAP2 PUSH2 0x1AFA PUSH1 0x40 MLOAD SWAP1 JUMP JUMPDEST DUP1 SWAP2 TIMESTAMP PUSH2 0x1B07 SWAP2 DUP4 PUSH2 0x18DC JUMP JUMPDEST SUB PUSH32 0x2C9DEB38F462962EADBD85A9D3A4120503EE091F1582EAAA10AA8C6797651D29 SWAP2 LOG3 SWAP1 JUMP JUMPDEST PUSH2 0x345 SWAP4 SWAP3 SWAP2 SWAP1 PUSH1 0x0 PUSH2 0x13FE JUMP JUMPDEST PUSH2 0x1B44 PUSH2 0x15FD JUMP JUMPDEST SWAP1 PUSH1 0x0 DUP3 MSTORE PUSH1 0x20 DUP1 DUP1 DUP1 DUP1 DUP1 DUP1 DUP1 DUP1 DUP1 DUP12 ADD PUSH1 0x0 DUP2 MSTORE ADD PUSH1 0x0 JUMPDEST DUP2 MSTORE ADD PUSH1 0x0 DUP2 MSTORE ADD PUSH1 0x0 DUP2 MSTORE ADD PUSH1 0x0 JUMPDEST DUP2 MSTORE ADD PUSH1 0x0 DUP2 MSTORE ADD PUSH1 0x0 DUP2 MSTORE ADD PUSH1 0x0 DUP2 MSTORE ADD PUSH1 0x0 SWAP1 MSTORE POP JUMP JUMPDEST PUSH2 0x345 PUSH2 0x1B3C JUMP JUMPDEST PUSH2 0x345 SWAP1 PUSH1 0x8 SHR PUSH2 0x83E JUMP JUMPDEST PUSH2 0x345 SWAP1 SLOAD PUSH2 0x1B8F JUMP JUMPDEST SWAP1 PUSH2 0x2BE PUSH2 0x1C84 PUSH1 0x8 PUSH2 0x1BB6 PUSH2 0x15FD JUMP JUMPDEST SWAP5 PUSH2 0x1BC7 PUSH2 0x1BC3 DUP3 PUSH2 0xDE3 JUMP JUMPDEST DUP8 MSTORE JUMP JUMPDEST PUSH2 0x1BDD PUSH2 0x1BD6 PUSH1 0x1 DUP4 ADD PUSH2 0xDE3 JUMP JUMPDEST PUSH1 0x20 DUP9 ADD MSTORE JUMP JUMPDEST PUSH2 0x1BF3 PUSH2 0x1BEC PUSH1 0x2 DUP4 ADD PUSH2 0xDE3 JUMP JUMPDEST PUSH1 0x40 DUP9 ADD MSTORE JUMP JUMPDEST PUSH2 0x1C09 PUSH2 0x1C02 PUSH1 0x3 DUP4 ADD PUSH2 0xDE3 JUMP JUMPDEST PUSH1 0x60 DUP9 ADD MSTORE JUMP JUMPDEST PUSH2 0x1C21 PUSH2 0x1C18 PUSH1 0x4 DUP4 ADD PUSH2 0x13AE JUMP JUMPDEST ISZERO ISZERO PUSH1 0x80 DUP9 ADD MSTORE JUMP JUMPDEST PUSH2 0x1C39 PUSH2 0x1C30 PUSH1 0x4 DUP4 ADD PUSH2 0x1B9B JUMP JUMPDEST ISZERO ISZERO PUSH1 0xA0 DUP9 ADD MSTORE JUMP JUMPDEST PUSH2 0x1C4F PUSH2 0x1C48 PUSH1 0x5 DUP4 ADD PUSH2 0xDE3 JUMP JUMPDEST PUSH1 0xC0 DUP9 ADD MSTORE JUMP JUMPDEST PUSH2 0x1C65 PUSH2 0x1C5E PUSH1 0x6 DUP4 ADD PUSH2 0xDE3 JUMP JUMPDEST PUSH1 0xE0 DUP9 ADD MSTORE JUMP JUMPDEST PUSH2 0x1C7E PUSH2 0x1C74 PUSH1 0x7 DUP4 ADD PUSH2 0x13AE JUMP JUMPDEST PUSH2 0x100 DUP9 ADD PUSH2 0x1612 JUMP JUMPDEST ADD PUSH2 0xDE3 JUMP JUMPDEST PUSH2 0x120 DUP5 ADD MSTORE JUMP JUMPDEST PUSH2 0x345 SWAP1 PUSH2 0x1BA5 JUMP JUMPDEST PUSH2 0x1CAC PUSH2 0x345 SWAP2 PUSH2 0x1CA4 PUSH2 0x1B87 JUMP JUMPDEST POP PUSH1 0x5 PUSH2 0xF0D JUMP JUMPDEST PUSH2 0x1C8C JUMP JUMPDEST SWAP1 PUSH2 0x345 SWAP5 SWAP4 SWAP3 SWAP2 PUSH2 0x1CCC PUSH2 0x141F PUSH1 0x4 PUSH2 0x1419 DUP6 PUSH1 0x5 PUSH2 0xF0D JUMP JUMPDEST SWAP1 PUSH2 0x345 SWAP5 SWAP4 SWAP3 SWAP2 PUSH2 0x1CE7 PUSH2 0x1484 PUSH1 0x5 PUSH2 0x1419 DUP7 PUSH1 0x3 PUSH2 0xF0D JUMP JUMPDEST SWAP1 PUSH2 0x345 SWAP5 SWAP4 SWAP3 SWAP2 PUSH2 0x1CFC PUSH2 0x345 PUSH1 0x10 PUSH2 0xDE3 JUMP JUMPDEST DUP6 LT ISZERO DUP1 PUSH2 0x1D13 JUMPI JUMPDEST PUSH2 0x1D0E SWAP1 PUSH2 0x148E JUMP JUMPDEST PUSH2 0x1D99 JUMP JUMPDEST POP PUSH2 0x1D0E PUSH2 0x1D24 PUSH2 0x345 PUSH1 0x11 PUSH2 0xDE3 JUMP JUMPDEST DUP7 GT ISZERO SWAP1 POP PUSH2 0x1D05 JUMP JUMPDEST ISZERO PUSH2 0x1D35 JUMPI JUMP JUMPDEST PUSH1 0x40 MLOAD PUSH3 0x461BCD PUSH1 0xE5 SHL DUP2 MSTORE PUSH1 0x20 PUSH1 0x4 DUP3 ADD MSTORE PUSH1 0x12 PUSH1 0x24 DUP3 ADD MSTORE PUSH18 0x1692CB5C1C9BDBD99CC8191A5CD8589B1959 PUSH1 0x72 SHL PUSH1 0x44 DUP3 ADD MSTORE PUSH1 0x64 SWAP1 REVERT JUMPDEST PUSH2 0x1D79 PUSH1 0xC PUSH2 0x11CD JUMP JUMPDEST PUSH12 0x1692D7D593D51157D0D054D5 PUSH1 0xA2 SHL PUSH1 0x20 DUP3 ADD MSTORE SWAP1 JUMP JUMPDEST PUSH2 0x345 PUSH2 0x1D6F JUMP JUMPDEST PUSH2 0x1F54 SWAP3 SWAP4 PUSH2 0x135A SWAP3 PUSH2 0x1F23 PUSH2 0x1DD8 SWAP8 PUSH2 0x1F4C SWAP5 POP PUSH2 0x1DC0 PUSH2 0x1DBB PUSH1 0x14 PUSH2 0x13AE JUMP JUMPDEST PUSH2 0x1D2E JUMP JUMPDEST PUSH2 0x1DEB PUSH2 0x1DE6 PUSH2 0x1DE2 PUSH2 0x1DDD DUP7 PUSH1 0x6 SWAP14 DUP15 CALLER SWAP1 PUSH2 0x1518 JUMP JUMPDEST PUSH2 0xF0D JUMP JUMPDEST PUSH2 0x13AE JUMP JUMPDEST ISZERO SWAP1 JUMP JUMPDEST PUSH2 0x1522 JUMP JUMPDEST PUSH2 0x1F0D PUSH2 0x1DF8 PUSH1 0xA PUSH2 0xDE3 JUMP JUMPDEST SWAP10 PUSH2 0x1E0C PUSH2 0x1E05 DUP13 PUSH2 0xE03 JUMP JUMPDEST PUSH1 0xA PUSH2 0xE34 JUMP JUMPDEST PUSH2 0x1EB8 DUP11 PUSH2 0x1E99 PUSH1 0x0 PUSH2 0x1E79 PUSH2 0x1E29 PUSH2 0x1E24 DUP4 PUSH2 0xE27 JUMP JUMPDEST PUSH2 0x15DA JUMP JUMPDEST PUSH2 0x1E5C PUSH2 0x1E35 DUP5 PUSH2 0xE27 JUMP JUMPDEST SWAP2 PUSH2 0x1E55 PUSH2 0x1E41 PUSH2 0x15FD JUMP JUMPDEST SWAP8 PUSH2 0x1E4E CALLER DUP9 DUP12 ADD PUSH2 0x1608 JUMP JUMPDEST PUSH1 0x20 DUP10 ADD MSTORE JUMP JUMPDEST PUSH1 0x40 DUP8 ADD MSTORE JUMP JUMPDEST PUSH2 0x1E67 DUP2 PUSH1 0x60 DUP8 ADD MSTORE JUMP JUMPDEST PUSH2 0x1E72 DUP13 PUSH1 0x80 DUP8 ADD MSTORE JUMP JUMPDEST PUSH1 0xA0 DUP6 ADD MSTORE JUMP JUMPDEST PUSH2 0x1E84 DUP8 PUSH1 0xC0 DUP6 ADD MSTORE JUMP JUMPDEST PUSH2 0x1E8F TIMESTAMP PUSH1 0xE0 DUP6 ADD MSTORE JUMP JUMPDEST ISZERO ISZERO PUSH2 0x100 DUP4 ADD MSTORE JUMP JUMPDEST PUSH2 0x1EA8 PUSH1 0x3 PUSH2 0x120 DUP4 ADD PUSH2 0x1612 JUMP JUMPDEST PUSH2 0x1EB3 DUP14 PUSH1 0x4 PUSH2 0xF0D JUMP JUMPDEST PUSH2 0x1831 JUMP JUMPDEST PUSH2 0x1ED0 PUSH1 0x1 PUSH2 0x1ECB DUP8 PUSH2 0x1DD8 CALLER DUP7 PUSH2 0x1518 JUMP JUMPDEST PUSH2 0x10F0 JUMP JUMPDEST PUSH2 0x1EE7 DUP12 PUSH2 0x1EE2 PUSH2 0x345 CALLER PUSH1 0x7 PUSH2 0x1518 JUMP JUMPDEST PUSH2 0x1879 JUMP JUMPDEST PUSH2 0x1F13 DUP6 PUSH1 0x5 PUSH2 0x1DD8 DUP2 PUSH2 0x1EFB DUP5 DUP3 PUSH2 0xF0D JUMP JUMPDEST ADD PUSH2 0x1F0D PUSH2 0x1F08 DUP3 PUSH2 0xDE3 JUMP JUMPDEST PUSH2 0xE03 JUMP JUMPDEST SWAP1 PUSH2 0xE34 JUMP JUMPDEST ADD SWAP2 PUSH2 0x1F1E DUP4 PUSH2 0xDE3 JUMP JUMPDEST PUSH2 0x18A2 JUMP JUMPDEST PUSH1 0x40 MLOAD SWAP4 DUP5 SWAP3 DUP8 PUSH1 0x20 DUP6 ADD SWAP4 DUP11 DUP6 SWAP3 PUSH2 0x18AF PUSH1 0x20 PUSH2 0x594 SWAP5 PUSH2 0x18AF DUP3 DUP9 PUSH2 0x18AF DUP3 SWAP12 SWAP11 DUP4 SWAP10 SWAP1 MSTORE JUMP JUMPDEST PUSH2 0x136E PUSH2 0x1D91 JUMP JUMPDEST PUSH2 0x1F66 PUSH2 0x1F60 CALLER PUSH2 0x4F4 JUMP JUMPDEST SWAP2 PUSH2 0xE27 JUMP JUMPDEST SWAP1 PUSH32 0x2C9DEB38F462962EADBD85A9D3A4120503EE091F1582EAAA10AA8C6797651D29 PUSH2 0x1F91 PUSH1 0x40 MLOAD SWAP1 JUMP JUMPDEST DUP1 PUSH2 0x1F9E TIMESTAMP PUSH1 0x3 DUP4 PUSH2 0x18DC JUMP JUMPDEST SUB SWAP1 LOG3 SWAP1 JUMP JUMPDEST PUSH2 0x345 SWAP4 SWAP3 SWAP2 SWAP1 PUSH1 0x0 PUSH2 0x1CB1 JUMP JUMPDEST PUSH2 0x1FBA PUSH2 0xEA0 JUMP JUMPDEST SWAP1 PUSH1 0x0 DUP3 MSTORE PUSH1 0x20 DUP1 DUP1 DUP1 DUP1 DUP1 DUP1 DUP9 ADD PUSH1 0x60 DUP2 MSTORE ADD PUSH1 0x60 PUSH2 0x1B6E JUMP JUMPDEST PUSH2 0x345 PUSH2 0x1FB2 JUMP JUMPDEST PUSH1 0x0 JUMPDEST DUP3 DUP2 LT PUSH2 0x1FEC JUMPI POP POP POP JUMP JUMPDEST PUSH1 0x20 SWAP1 PUSH2 0x1FF7 PUSH2 0x1FD5 JUMP JUMPDEST DUP2 DUP5 ADD MSTORE ADD PUSH2 0x1FE0 JUMP JUMPDEST SWAP1 PUSH2 0x2BE PUSH2 0x2011 PUSH2 0x15EA DUP5 PUSH2 0x15C8 JUMP JUMPDEST PUSH1 0x1F NOT ADD PUSH1 0x20 DUP5 ADD PUSH2 0x1FDD JUMP JUMPDEST SWAP1 PUSH2 0x2027 DUP3 MLOAD SWAP1 JUMP JUMPDEST DUP2 LT ISZERO PUSH2 0x1874 JUMPI PUSH1 0x20 DUP1 SWAP2 MUL ADD ADD SWAP1 JUMP JUMPDEST DUP1 SLOAD PUSH1 0x0 SWAP4 SWAP3 SWAP2 PUSH2 0x2055 PUSH2 0x204B DUP4 PUSH2 0xF3B JUMP JUMPDEST DUP1 DUP6 MSTORE SWAP4 PUSH1 0x20 ADD SWAP1 JUMP JUMPDEST SWAP2 PUSH1 0x1 DUP2 AND SWAP1 DUP2 ISZERO PUSH2 0x20A7 JUMPI POP PUSH1 0x1 EQ PUSH2 0x206E JUMPI POP POP POP JUMP JUMPDEST PUSH2 0x2081 SWAP2 SWAP3 SWAP4 SWAP5 POP PUSH1 0x0 MSTORE PUSH1 0x20 PUSH1 0x0 KECCAK256 SWAP1 JUMP JUMPDEST SWAP2 PUSH1 0x0 SWAP3 JUMPDEST DUP2 DUP5 LT PUSH2 0x2093 JUMPI POP POP ADD SWAP1 JUMP JUMPDEST DUP1 SLOAD DUP5 DUP5 ADD MSTORE PUSH1 0x20 SWAP1 SWAP4 ADD SWAP3 PUSH1 0x1 ADD PUSH2 0x2086 JUMP JUMPDEST SWAP3 SWAP5 SWAP6 POP POP POP PUSH1 0xFF NOT AND DUP3 MSTORE ISZERO ISZERO PUSH1 0x20 MUL ADD SWAP1 JUMP JUMPDEST SWAP1 PUSH2 0x345 SWAP2 PUSH2 0x2038 JUMP JUMPDEST SWAP1 PUSH2 0x2BE PUSH2 0x20E0 SWAP3 PUSH2 0x20D7 PUSH1 0x40 MLOAD SWAP1 JUMP JUMPDEST SWAP4 DUP5 DUP1 SWAP3 PUSH2 0x20BC JUMP JUMPDEST SUB DUP4 PUSH2 0xE65 JUMP JUMPDEST SWAP1 PUSH2 0x2BE PUSH2 0x2157 PUSH1 0x6 PUSH2 0x20F8 PUSH2 0xEA0 JUMP JUMPDEST SWAP5 PUSH2 0x2105 PUSH2 0x1BC3 DUP3 PUSH2 0xDE3 JUMP JUMPDEST PUSH2 0x2114 PUSH2 0x1BD6 PUSH1 0x1 DUP4 ADD PUSH2 0x20C6 JUMP JUMPDEST PUSH2 0x2123 PUSH2 0x1BEC PUSH1 0x2 DUP4 ADD PUSH2 0x20C6 JUMP JUMPDEST PUSH2 0x2132 PUSH2 0x1C02 PUSH1 0x3 DUP4 ADD PUSH2 0xDE3 JUMP JUMPDEST PUSH2 0x2148 PUSH2 0x2141 PUSH1 0x4 DUP4 ADD PUSH2 0xDE3 JUMP JUMPDEST PUSH1 0x80 DUP9 ADD MSTORE JUMP JUMPDEST PUSH2 0x1C7E PUSH2 0x1C30 PUSH1 0x5 DUP4 ADD PUSH2 0x13AE JUMP JUMPDEST PUSH1 0xC0 DUP5 ADD MSTORE JUMP JUMPDEST PUSH2 0x345 SWAP1 PUSH2 0x20E7 JUMP JUMPDEST PUSH2 0x2179 PUSH2 0x2174 PUSH1 0x9 PUSH2 0xDE3 JUMP JUMPDEST PUSH2 0x2001 JUMP JUMPDEST PUSH2 0x2183 PUSH1 0x0 PUSH2 0xE27 JUMP JUMPDEST PUSH2 0x2190 PUSH2 0x345 PUSH1 0x9 PUSH2 0xDE3 JUMP JUMPDEST DUP2 LT ISZERO PUSH2 0x21CF JUMPI DUP1 PUSH2 0x21AE PUSH2 0x21A9 PUSH2 0x21CA SWAP4 PUSH1 0x3 PUSH2 0xF0D JUMP JUMPDEST PUSH2 0x215E JUMP JUMPDEST PUSH2 0x21B8 DUP3 DUP6 PUSH2 0x201E JUMP JUMPDEST MSTORE PUSH2 0x21C3 DUP2 DUP5 PUSH2 0x201E JUMP JUMPDEST POP PUSH1 0x1 ADD SWAP1 JUMP JUMPDEST PUSH2 0x2183 JUMP JUMPDEST POP SWAP1 JUMP JUMPDEST SWAP1 PUSH2 0x2BE SWAP3 SWAP2 PUSH2 0x21E1 PUSH2 0x3324 JUMP JUMPDEST PUSH2 0x221B JUMP JUMPDEST SWAP1 PUSH2 0x1742 PUSH2 0x345 PUSH2 0xE4B SWAP3 ISZERO ISZERO SWAP1 JUMP JUMPDEST SWAP1 PUSH3 0xFF0000 SWAP1 PUSH1 0x10 SHL PUSH2 0xE1D JUMP JUMPDEST SWAP1 PUSH2 0x2214 PUSH2 0x345 PUSH2 0xE4B SWAP3 ISZERO ISZERO SWAP1 JUMP JUMPDEST DUP3 SLOAD PUSH2 0x21F6 JUMP JUMPDEST PUSH2 0x2BE SWAP3 SWAP2 PUSH2 0x222E PUSH2 0x2235 SWAP3 PUSH1 0x14 PUSH2 0x10F0 JUMP JUMPDEST PUSH1 0x14 PUSH2 0x21E6 JUMP JUMPDEST PUSH1 0x14 PUSH2 0x2204 JUMP JUMPDEST SWAP1 PUSH2 0x2BE SWAP3 SWAP2 PUSH2 0x21D3 JUMP JUMPDEST PUSH2 0x21A9 PUSH2 0x345 SWAP2 PUSH2 0x2256 PUSH2 0x1FD5 JUMP JUMPDEST POP PUSH1 0x3 PUSH2 0xF0D JUMP JUMPDEST PUSH2 0x2BE SWAP1 PUSH2 0x226A PUSH2 0x3324 JUMP JUMPDEST PUSH2 0x230E JUMP JUMPDEST ISZERO PUSH2 0x2276 JUMPI JUMP JUMPDEST PUSH1 0x40 MLOAD PUSH3 0x461BCD PUSH1 0xE5 SHL DUP2 MSTORE PUSH1 0x20 PUSH1 0x4 DUP3 ADD MSTORE PUSH1 0x11 PUSH1 0x24 DUP3 ADD MSTORE PUSH17 0x14D95CDCDA5BDB881B9BDD08195B991959 PUSH1 0x7A SHL PUSH1 0x44 DUP3 ADD MSTORE PUSH1 0x64 SWAP1 REVERT JUMPDEST PUSH2 0x345 SWAP1 PUSH2 0x4B4 JUMP JUMPDEST PUSH2 0x345 SWAP1 SLOAD PUSH2 0x22AF JUMP JUMPDEST PUSH2 0x22CE PUSH2 0x2BA SWAP2 PUSH2 0x4B4 JUMP JUMPDEST PUSH1 0x60 SHL SWAP1 JUMP JUMPDEST ADD DUP1 SWAP3 PUSH2 0x22C2 JUMP JUMPDEST PUSH2 0x22E6 PUSH1 0x14 PUSH2 0x11CD JUMP JUMPDEST PUSH20 0x1593D5125391D7D4D154D4D253D397D153911151 PUSH1 0x62 SHL PUSH1 0x20 DUP3 ADD MSTORE SWAP1 JUMP JUMPDEST PUSH2 0x345 PUSH2 0x22DC JUMP JUMPDEST SWAP1 PUSH2 0x231D PUSH2 0x345 DUP4 PUSH1 0x5 PUSH2 0xF0D JUMP JUMPDEST SWAP1 PUSH1 0x4 DUP3 ADD SWAP1 PUSH2 0x232F PUSH2 0x141F DUP4 PUSH2 0x13AE JUMP JUMPDEST PUSH2 0x2349 PUSH2 0x2341 PUSH2 0x345 PUSH1 0x2 DUP7 ADD PUSH2 0xDE3 JUMP JUMPDEST TIMESTAMP LT ISZERO PUSH2 0x226F JUMP JUMPDEST PUSH2 0x2355 PUSH1 0x0 DUP1 SWAP4 PUSH2 0x10F0 JUMP JUMPDEST PUSH1 0x5 DUP4 ADD SWAP4 PUSH2 0x2366 PUSH2 0x1E24 DUP7 PUSH2 0xDE3 JUMP JUMPDEST SWAP5 PUSH2 0x2371 PUSH1 0x0 PUSH2 0xE27 JUMP JUMPDEST PUSH2 0x237D PUSH2 0x345 DUP4 PUSH2 0xDE3 JUMP JUMPDEST DUP2 LT ISZERO PUSH2 0x240C JUMPI PUSH2 0x2407 SWAP1 PUSH2 0x2401 PUSH2 0x135A PUSH2 0x23E1 PUSH1 0x4 PUSH2 0x23B6 PUSH1 0x1 PUSH2 0x1C7E DUP8 PUSH2 0x23B0 DUP15 PUSH2 0x23AA DUP4 DUP9 PUSH2 0xF0D JUMP JUMPDEST ADD PUSH2 0x22B8 JUMP JUMPDEST SWAP5 PUSH2 0xF0D JUMP JUMPDEST SWAP1 PUSH2 0x23C0 PUSH1 0x40 MLOAD SWAP1 JUMP JUMPDEST SWAP4 DUP5 SWAP3 PUSH1 0x20 DUP5 ADD SWAP3 DUP9 DUP5 PUSH1 0x20 SWAP4 SWAP3 PUSH2 0x18AF DUP6 DUP4 PUSH2 0x22D4 PUSH1 0x14 SWAP6 PUSH2 0x594 SWAP8 SWAP1 MSTORE JUMP JUMPDEST PUSH2 0x23F3 PUSH2 0x23EC DUP3 MLOAD SWAP1 JUMP JUMPDEST SWAP2 PUSH1 0x20 ADD SWAP1 JUMP JUMPDEST KECCAK256 PUSH2 0x23FE DUP4 DUP12 PUSH2 0x201E JUMP JUMPDEST MSTORE JUMP JUMPDEST PUSH1 0x1 ADD SWAP1 JUMP JUMPDEST PUSH2 0x2371 JUMP JUMPDEST POP PUSH32 0x5EBF5BA0A9D6578537B09FB99EAC524839499181CE448F968B5C9CA6C1B82B47 SWAP4 POP PUSH2 0x24A7 SWAP1 PUSH2 0x24A2 PUSH2 0x135A PUSH2 0x249A PUSH2 0x24AD SWAP6 SWAP9 PUSH2 0x245B PUSH2 0x2452 PUSH2 0x24C2 SWAP10 SWAP13 PUSH2 0x3654 JUMP JUMPDEST PUSH1 0x8 DUP4 ADD PUSH2 0x170D JUMP JUMPDEST PUSH2 0x2470 PUSH1 0x6 PUSH2 0x2469 DUP8 PUSH2 0xDE3 JUMP JUMPDEST SWAP3 ADD PUSH2 0xDE3 JUMP JUMPDEST SWAP1 PUSH2 0x247A PUSH1 0x40 MLOAD SWAP1 JUMP JUMPDEST SWAP4 DUP5 SWAP3 PUSH1 0x20 DUP5 ADD SWAP3 DUP14 DUP5 PUSH1 0x20 SWAP4 SWAP3 PUSH2 0x18AF DUP6 DUP4 PUSH2 0x18AF DUP3 SWAP6 PUSH2 0x594 SWAP8 SWAP1 MSTORE JUMP JUMPDEST PUSH2 0x136E PUSH2 0x2306 JUMP JUMPDEST PUSH2 0xDE3 JUMP JUMPDEST SWAP4 PUSH2 0xE27 JUMP JUMPDEST SWAP3 PUSH2 0x24B7 PUSH1 0x40 MLOAD SWAP1 JUMP JUMPDEST SWAP2 DUP3 SWAP2 TIMESTAMP SWAP1 DUP4 PUSH2 0xAC4 JUMP JUMPDEST SUB SWAP1 LOG2 JUMP JUMPDEST PUSH2 0x2BE SWAP1 PUSH2 0x225E JUMP JUMPDEST PUSH2 0x24D8 PUSH2 0x3324 JUMP JUMPDEST PUSH2 0x2BE PUSH2 0x2BE PUSH2 0x3812 JUMP JUMPDEST PUSH2 0x2BE PUSH2 0x24D0 JUMP JUMPDEST SWAP1 PUSH2 0x345 SWAP3 SWAP2 PUSH2 0x24F9 PUSH2 0x3324 JUMP JUMPDEST PUSH2 0x2654 JUMP JUMPDEST SWAP1 PUSH2 0x1100 PUSH2 0x345 PUSH2 0xE4B SWAP3 PUSH2 0x3AA JUMP JUMPDEST PUSH1 0x8 PUSH2 0x25D5 PUSH2 0x120 PUSH2 0x2BE SWAP5 PUSH2 0x2528 PUSH2 0x1120 PUSH1 0x0 DUP4 ADD MLOAD SWAP1 JUMP JUMPDEST PUSH2 0x253F PUSH2 0x2536 PUSH1 0x20 DUP4 ADD MLOAD SWAP1 JUMP JUMPDEST PUSH1 0x1 DUP8 ADD PUSH2 0xE34 JUMP JUMPDEST PUSH2 0x2556 PUSH2 0x254D PUSH1 0x40 DUP4 ADD MLOAD SWAP1 JUMP JUMPDEST PUSH1 0x2 DUP8 ADD PUSH2 0xE34 JUMP JUMPDEST PUSH2 0x2564 PUSH2 0x1162 PUSH1 0x60 DUP4 ADD MLOAD SWAP1 JUMP JUMPDEST PUSH2 0x258E PUSH1 0x4 DUP7 ADD PUSH2 0x2581 PUSH2 0x257B PUSH1 0x80 DUP6 ADD MLOAD ISZERO ISZERO SWAP1 JUMP JUMPDEST DUP3 PUSH2 0x10F0 JUMP JUMPDEST PUSH1 0xA0 DUP4 ADD MLOAD ISZERO ISZERO SWAP1 PUSH2 0x21E6 JUMP JUMPDEST PUSH2 0x25A5 PUSH2 0x259C PUSH1 0xC0 DUP4 ADD MLOAD SWAP1 JUMP JUMPDEST PUSH1 0x5 DUP8 ADD PUSH2 0xE34 JUMP JUMPDEST PUSH2 0x25BC PUSH2 0x25B3 PUSH1 0xE0 DUP4 ADD MLOAD SWAP1 JUMP JUMPDEST PUSH1 0x6 DUP8 ADD PUSH2 0xE34 JUMP JUMPDEST PUSH2 0x119B PUSH2 0x25CC PUSH2 0x100 DUP4 ADD PUSH2 0x171B JUMP JUMPDEST PUSH1 0x7 DUP8 ADD PUSH2 0x24FE JUMP JUMPDEST SWAP2 ADD PUSH2 0x170D JUMP JUMPDEST SWAP1 PUSH2 0x2BE SWAP2 PUSH2 0x250E JUMP JUMPDEST PUSH2 0x25F2 PUSH2 0x2BA SWAP2 PUSH2 0x3AA JUMP JUMPDEST PUSH1 0xF8 SHL SWAP1 JUMP JUMPDEST ADD DUP1 SWAP3 PUSH2 0x25E6 JUMP JUMPDEST PUSH2 0x260A PUSH1 0x16 PUSH2 0x11CD JUMP JUMPDEST PUSH22 0x1593D5125391D7D4D154D4D253D397D0D49150551151 PUSH1 0x52 SHL PUSH1 0x20 DUP3 ADD MSTORE SWAP1 JUMP JUMPDEST PUSH2 0x345 PUSH2 0x2600 JUMP JUMPDEST PUSH1 0x40 SWAP1 PUSH2 0xAD7 PUSH2 0x2BE SWAP5 SWAP7 SWAP6 SWAP4 SWAP7 PUSH2 0x12CB PUSH1 0x60 DUP5 ADD SWAP9 PUSH1 0x0 DUP6 ADD SWAP1 PUSH2 0x3B3 JUMP JUMPDEST POP SWAP1 PUSH31 0x914BB2A5E0AC4484C74B57EC82229700DA233D0EED407C4CFF3EB82AAC23BF PUSH2 0x2700 PUSH2 0x278C PUSH2 0x2686 PUSH1 0xB PUSH2 0xDE3 JUMP JUMPDEST SWAP5 PUSH2 0x269A PUSH2 0x2693 DUP8 PUSH2 0xE03 JUMP JUMPDEST PUSH1 0xB PUSH2 0xE34 JUMP JUMPDEST PUSH2 0x2743 DUP7 PUSH2 0x272D PUSH2 0x271B PUSH2 0x26AE DUP6 TIMESTAMP PUSH2 0x18A2 JUMP JUMPDEST PUSH2 0x2707 PUSH2 0x26CE PUSH2 0x26BE DUP9 TIMESTAMP PUSH2 0x18A2 JUMP JUMPDEST PUSH2 0x26C8 PUSH1 0x13 PUSH2 0xDE3 JUMP JUMPDEST SWAP1 PUSH2 0x18A2 JUMP JUMPDEST PUSH1 0x0 SWAP10 DUP11 SWAP4 PUSH2 0x26EE PUSH2 0x26DF DUP7 PUSH2 0xE27 JUMP JUMPDEST SWAP9 PUSH2 0x26E8 PUSH2 0x15FD JUMP JUMPDEST SWAP14 DUP15 ADD MSTORE JUMP JUMPDEST PUSH2 0x26F9 TIMESTAMP PUSH1 0x20 DUP15 ADD MSTORE JUMP JUMPDEST PUSH1 0x40 DUP13 ADD MSTORE JUMP JUMPDEST PUSH1 0x60 DUP11 ADD MSTORE JUMP JUMPDEST PUSH1 0x1 PUSH1 0x80 DUP10 ADD MSTORE DUP1 ISZERO ISZERO PUSH1 0xA0 DUP10 ADD MSTORE PUSH2 0xE27 JUMP JUMPDEST PUSH2 0x2726 DUP2 PUSH1 0xC0 DUP10 ADD MSTORE JUMP JUMPDEST PUSH1 0xE0 DUP8 ADD MSTORE JUMP JUMPDEST PUSH2 0x273B DUP8 PUSH2 0x100 DUP8 ADD PUSH2 0x1612 JUMP JUMPDEST PUSH2 0x120 DUP6 ADD MSTORE JUMP JUMPDEST PUSH2 0x2757 DUP4 PUSH2 0x2752 DUP9 PUSH1 0x5 PUSH2 0xF0D JUMP JUMPDEST PUSH2 0x25DC JUMP JUMPDEST PUSH2 0x2784 PUSH2 0x2763 PUSH1 0x40 MLOAD SWAP1 JUMP JUMPDEST PUSH1 0x20 DUP1 DUP3 ADD DUP10 DUP2 MSTORE SWAP2 SWAP4 DUP5 SWAP3 SWAP2 PUSH2 0x135A SWAP2 PUSH2 0x594 PUSH1 0x1 DUP13 PUSH2 0x18AF DUP6 DUP9 PUSH2 0x25F8 JUMP JUMPDEST PUSH2 0x136E PUSH2 0x262C JUMP JUMPDEST PUSH2 0x27A2 PUSH1 0x40 PUSH2 0x279C PUSH1 0x20 DUP5 ADD MLOAD SWAP1 JUMP JUMPDEST SWAP3 ADD MLOAD SWAP1 JUMP JUMPDEST SWAP3 PUSH2 0x1391 PUSH2 0x27AF DUP7 PUSH2 0xE27 JUMP JUMPDEST SWAP5 PUSH2 0x27B9 PUSH1 0x40 MLOAD SWAP1 JUMP JUMPDEST SWAP4 DUP5 SWAP4 DUP5 PUSH2 0x2634 JUMP JUMPDEST PUSH2 0x345 SWAP2 SWAP1 PUSH1 0x0 PUSH2 0x24EB JUMP JUMPDEST PUSH2 0x27D6 PUSH2 0x15FD JUMP JUMPDEST SWAP1 PUSH1 0x0 DUP3 MSTORE PUSH1 0x20 DUP1 DUP1 DUP1 DUP1 DUP1 DUP1 DUP1 DUP1 DUP1 DUP12 ADD PUSH1 0x0 DUP2 MSTORE ADD PUSH1 0x60 PUSH2 0x1B5E JUMP JUMPDEST PUSH2 0x345 PUSH2 0x27CE JUMP JUMPDEST SWAP1 PUSH2 0x280B PUSH2 0x16C7 PUSH2 0x8A0 DUP5 SLOAD SWAP1 JUMP JUMPDEST SWAP1 PUSH1 0x0 JUMPDEST DUP2 DUP2 LT PUSH2 0x281C JUMPI POP POP POP SWAP1 JUMP JUMPDEST SWAP1 SWAP2 SWAP3 PUSH2 0x2840 PUSH2 0x2839 PUSH1 0x1 SWAP3 PUSH2 0x2831 DUP8 PUSH2 0xDE3 JUMP JUMPDEST DUP2 MSTORE PUSH1 0x20 ADD SWAP1 JUMP JUMPDEST SWAP5 PUSH1 0x1 ADD SWAP1 JUMP JUMPDEST SWAP3 SWAP2 ADD PUSH2 0x280F JUMP JUMPDEST SWAP1 PUSH2 0x345 SWAP2 PUSH2 0x27FC JUMP JUMPDEST SWAP1 PUSH2 0x2BE PUSH2 0x20E0 SWAP3 PUSH2 0x2863 PUSH1 0x40 MLOAD SWAP1 JUMP JUMPDEST SWAP4 DUP5 DUP1 SWAP3 PUSH2 0x2848 JUMP JUMPDEST SWAP1 PUSH2 0x2BE PUSH2 0x291E PUSH1 0x8 PUSH2 0x287D PUSH2 0x15FD JUMP JUMPDEST SWAP5 PUSH2 0x2890 PUSH2 0x288A DUP3 PUSH2 0x22B8 JUMP JUMPDEST DUP8 PUSH2 0x1608 JUMP JUMPDEST PUSH2 0x289F PUSH2 0x1BD6 PUSH1 0x1 DUP4 ADD PUSH2 0xDE3 JUMP JUMPDEST PUSH2 0x28AE PUSH2 0x1BEC PUSH1 0x2 DUP4 ADD PUSH2 0x2852 JUMP JUMPDEST PUSH2 0x28BD PUSH2 0x1C02 PUSH1 0x3 DUP4 ADD PUSH2 0xDE3 JUMP JUMPDEST PUSH2 0x28CC PUSH2 0x2141 PUSH1 0x4 DUP4 ADD PUSH2 0xDE3 JUMP JUMPDEST PUSH2 0x28E2 PUSH2 0x28DB PUSH1 0x5 DUP4 ADD PUSH2 0xDE3 JUMP JUMPDEST PUSH1 0xA0 DUP9 ADD MSTORE JUMP JUMPDEST PUSH2 0x28F1 PUSH2 0x1C48 PUSH1 0x6 DUP4 ADD PUSH2 0xDE3 JUMP JUMPDEST PUSH2 0x2900 PUSH2 0x1C5E PUSH1 0x7 DUP4 ADD PUSH2 0xDE3 JUMP JUMPDEST PUSH2 0x2918 PUSH2 0x290E DUP4 DUP4 ADD PUSH2 0x13AE JUMP JUMPDEST ISZERO ISZERO PUSH2 0x100 DUP9 ADD MSTORE JUMP JUMPDEST ADD PUSH2 0x1B9B JUMP JUMPDEST PUSH2 0x120 DUP5 ADD PUSH2 0x1612 JUMP JUMPDEST PUSH2 0x345 SWAP1 PUSH2 0x286C JUMP JUMPDEST PUSH2 0x2948 PUSH2 0x345 SWAP2 PUSH2 0x2940 PUSH2 0x27F4 JUMP JUMPDEST POP PUSH1 0x4 PUSH2 0xF0D JUMP JUMPDEST PUSH2 0x2928 JUMP JUMPDEST PUSH2 0x345 PUSH1 0x2 PUSH2 0x13AE JUMP JUMPDEST PUSH2 0x295F PUSH2 0x3324 JUMP JUMPDEST PUSH2 0x2BE PUSH2 0x297D JUMP JUMPDEST PUSH2 0x4B4 PUSH2 0x345 PUSH2 0x345 SWAP3 SWAP1 JUMP JUMPDEST PUSH2 0x345 SWAP1 PUSH2 0x2967 JUMP JUMPDEST PUSH2 0x2BE PUSH2 0x298A PUSH1 0x0 PUSH2 0x2974 JUMP JUMPDEST PUSH2 0x381A JUMP JUMPDEST PUSH2 0x2BE PUSH2 0x2957 JUMP JUMPDEST PUSH2 0x345 PUSH1 0xA0 PUSH2 0xE8C JUMP JUMPDEST PUSH2 0x29A9 PUSH2 0x2997 JUMP JUMPDEST SWAP1 PUSH1 0x0 DUP3 MSTORE PUSH1 0x20 DUP1 DUP1 DUP1 DUP1 DUP7 ADD PUSH1 0x0 DUP2 MSTORE ADD PUSH1 0x60 DUP2 MSTORE ADD PUSH1 0x0 DUP2 MSTORE ADD PUSH1 0x60 SWAP1 MSTORE POP JUMP JUMPDEST PUSH2 0x345 PUSH2 0x29A1 JUMP JUMPDEST SWAP1 PUSH2 0xF17 JUMP JUMPDEST SWAP1 PUSH2 0x29E9 PUSH2 0x16C7 PUSH2 0x8A0 DUP5 SLOAD SWAP1 JUMP JUMPDEST SWAP1 PUSH1 0x0 JUMPDEST DUP2 DUP2 LT PUSH2 0x29FA JUMPI POP POP POP SWAP1 JUMP JUMPDEST SWAP1 SWAP2 SWAP3 PUSH2 0x2A0F PUSH2 0x2839 PUSH1 0x1 SWAP3 PUSH2 0x2831 DUP8 PUSH2 0xDE3 JUMP JUMPDEST SWAP3 SWAP2 ADD PUSH2 0x29ED JUMP JUMPDEST SWAP1 PUSH2 0x345 SWAP2 PUSH2 0x29DA JUMP JUMPDEST SWAP1 PUSH2 0x2BE PUSH2 0x20E0 SWAP3 PUSH2 0x2A32 PUSH1 0x40 MLOAD SWAP1 JUMP JUMPDEST SWAP4 DUP5 DUP1 SWAP3 PUSH2 0x2A17 JUMP JUMPDEST SWAP1 PUSH2 0x2BE PUSH2 0x2A95 PUSH1 0x4 PUSH2 0x2A4C PUSH2 0x2997 JUMP JUMPDEST SWAP5 PUSH2 0x2A59 PUSH2 0x1BC3 DUP3 PUSH2 0xDE3 JUMP JUMPDEST PUSH2 0x2A71 PUSH2 0x2A68 PUSH1 0x1 DUP4 ADD PUSH2 0x22B8 JUMP JUMPDEST PUSH1 0x20 DUP9 ADD PUSH2 0x1608 JUMP JUMPDEST PUSH2 0x2A80 PUSH2 0x1BEC PUSH1 0x2 DUP4 ADD PUSH2 0x20C6 JUMP JUMPDEST PUSH2 0x2A8F PUSH2 0x1C02 PUSH1 0x3 DUP4 ADD PUSH2 0xDE3 JUMP JUMPDEST ADD PUSH2 0x2A21 JUMP JUMPDEST PUSH1 0x80 DUP5 ADD MSTORE JUMP JUMPDEST PUSH2 0x345 SWAP1 PUSH2 0x2A3B JUMP JUMPDEST PUSH2 0x2ABC PUSH2 0x345 SWAP2 PUSH2 0x2AB4 PUSH2 0x29CC JUMP JUMPDEST POP PUSH1 0x8 PUSH2 0x29D4 JUMP JUMPDEST PUSH2 0x2A9C JUMP JUMPDEST PUSH2 0x1CAC PUSH2 0x2AD0 SWAP2 PUSH2 0x1CA4 PUSH1 0x0 SWAP1 JUMP JUMPDEST SWAP1 PUSH2 0x345 PUSH1 0xE0 PUSH2 0x2AE1 PUSH1 0xC0 DUP6 ADD MLOAD SWAP1 JUMP JUMPDEST SWAP4 ADD MLOAD SWAP1 JUMP JUMPDEST PUSH2 0x2AEF PUSH2 0x3324 JUMP JUMPDEST PUSH2 0x2BE PUSH2 0x2BE PUSH2 0x38AE JUMP JUMPDEST PUSH2 0x2BE PUSH2 0x2AE7 JUMP JUMPDEST PUSH2 0x345 PUSH1 0x0 PUSH2 0x22B8 JUMP JUMPDEST ISZERO PUSH2 0x2B13 JUMPI JUMP JUMPDEST PUSH1 0x40 MLOAD PUSH3 0x461BCD PUSH1 0xE5 SHL DUP2 MSTORE PUSH1 0x20 PUSH1 0x4 DUP3 ADD MSTORE PUSH1 0xD PUSH1 0x24 DUP3 ADD MSTORE PUSH13 0x4E6F7420796F757220766F7465 PUSH1 0x98 SHL PUSH1 0x44 DUP3 ADD MSTORE PUSH1 0x64 SWAP1 REVERT JUMPDEST ISZERO PUSH2 0x2B4F JUMPI JUMP JUMPDEST PUSH1 0x40 MLOAD PUSH3 0x461BCD PUSH1 0xE5 SHL DUP2 MSTORE PUSH1 0x20 PUSH1 0x4 DUP3 ADD MSTORE PUSH1 0x15 PUSH1 0x24 DUP3 ADD MSTORE PUSH21 0x159BDD1948185B1C9958591E481C995D99585B1959 PUSH1 0x5A SHL PUSH1 0x44 DUP3 ADD MSTORE PUSH1 0x64 SWAP1 REVERT JUMPDEST ISZERO PUSH2 0x2B93 JUMPI JUMP JUMPDEST PUSH1 0x40 MLOAD PUSH3 0x461BCD PUSH1 0xE5 SHL DUP2 MSTORE PUSH1 0x20 PUSH1 0x4 DUP3 ADD MSTORE PUSH1 0x11 PUSH1 0x24 DUP3 ADD MSTORE PUSH17 0x4E6F7420612064697265637420766F7465 PUSH1 0x78 SHL PUSH1 0x44 DUP3 ADD MSTORE PUSH1 0x64 SWAP1 REVERT JUMPDEST ISZERO PUSH2 0x2BD3 JUMPI JUMP JUMPDEST PUSH1 0x40 MLOAD PUSH3 0x461BCD PUSH1 0xE5 SHL DUP2 MSTORE PUSH1 0x20 PUSH1 0x4 DUP3 ADD MSTORE PUSH1 0x12 PUSH1 0x24 DUP3 ADD MSTORE PUSH18 0x125B9D985B1A590818DBDB5B5A5D1B595B9D PUSH1 0x72 SHL PUSH1 0x44 DUP3 ADD MSTORE PUSH1 0x64 SWAP1 REVERT JUMPDEST PUSH2 0x2C17 PUSH1 0xD PUSH2 0x11CD JUMP JUMPDEST PUSH13 0x1593D51157D491559150531151 PUSH1 0x9A SHL PUSH1 0x20 DUP3 ADD MSTORE SWAP1 JUMP JUMPDEST PUSH2 0x345 PUSH2 0x2C0D JUMP JUMPDEST PUSH2 0x135A PUSH2 0x2D24 PUSH2 0x2D2C SWAP5 SWAP4 PUSH2 0x24A2 SWAP4 PUSH2 0x2CDB PUSH1 0x1 PUSH2 0x2C5A PUSH2 0x345 DUP5 PUSH1 0x4 PUSH2 0xF0D JUMP JUMPDEST SWAP8 PUSH2 0x2C7F PUSH2 0x2C67 DUP11 PUSH2 0x22B8 JUMP JUMPDEST PUSH2 0x2C79 PUSH2 0x2C73 CALLER PUSH2 0x4B4 JUMP JUMPDEST SWAP2 PUSH2 0x4B4 JUMP JUMPDEST EQ PUSH2 0x2B0C JUMP JUMPDEST PUSH2 0x1ECB PUSH2 0x2CD6 PUSH1 0x8 DUP12 ADD SWAP3 PUSH2 0x2C9E PUSH2 0x2C99 PUSH2 0x1DE2 DUP7 PUSH2 0x13AE JUMP JUMPDEST PUSH2 0x2B48 JUMP JUMPDEST PUSH2 0x2CC3 PUSH2 0x2CAA DUP6 PUSH2 0x1B9B JUMP JUMPDEST PUSH2 0x2CBD PUSH2 0x2CB7 PUSH1 0x0 PUSH2 0x3A0 JUMP JUMPDEST SWAP2 PUSH2 0x3A0 JUMP JUMPDEST EQ PUSH2 0x2B8C JUMP JUMPDEST PUSH2 0x2CCF PUSH1 0x3 DUP14 ADD PUSH2 0xDE3 JUMP JUMPDEST SWAP1 DUP9 PUSH2 0x38B6 JUMP JUMPDEST PUSH2 0x2BCC JUMP JUMPDEST PUSH2 0x2D06 PUSH1 0x1 PUSH2 0x2CEC PUSH1 0x6 DUP10 ADD PUSH2 0xDE3 JUMP JUMPDEST SWAP8 ADD SWAP7 PUSH2 0x1F0D PUSH1 0x3 PUSH2 0x1F13 PUSH2 0x2D00 DUP12 PUSH2 0xDE3 JUMP JUMPDEST DUP3 PUSH2 0xF0D JUMP JUMPDEST PUSH1 0x40 MLOAD JUMPDEST SWAP4 DUP5 SWAP3 PUSH1 0x20 DUP5 ADD SWAP3 DUP4 PUSH1 0x20 DUP2 PUSH2 0x18AF PUSH2 0x594 SWAP4 DUP4 SWAP7 SWAP6 SWAP1 MSTORE JUMP JUMPDEST PUSH2 0x136E PUSH2 0x2C30 JUMP JUMPDEST PUSH2 0x2D38 PUSH2 0x1F60 CALLER PUSH2 0x4F4 JUMP JUMPDEST SWAP1 PUSH32 0xF65A04BE847D83385F9A7ABCF32CFB35055023A4AFFCC7EAA319160746F44528 PUSH2 0x2D63 PUSH1 0x40 MLOAD SWAP1 JUMP JUMPDEST TIMESTAMP DUP2 MSTORE DUP1 PUSH1 0x20 DUP2 ADD JUMPDEST SUB SWAP1 LOG3 JUMP JUMPDEST PUSH2 0x345 SWAP2 PUSH2 0x1DD8 PUSH2 0x1DDD SWAP3 PUSH2 0x2D84 PUSH1 0x0 SWAP1 JUMP JUMPDEST POP PUSH1 0x6 PUSH2 0x1518 JUMP JUMPDEST PUSH2 0x345 SWAP1 PUSH2 0x26C8 PUSH1 0x4 PUSH2 0x1C7E PUSH1 0x3 SWAP4 PUSH2 0x23B0 DUP6 PUSH2 0x1C7E DUP4 DUP3 PUSH2 0xF0D JUMP JUMPDEST SWAP1 PUSH2 0x345 SWAP4 SWAP3 SWAP2 PUSH2 0x2DC3 PUSH2 0x141F PUSH1 0x4 PUSH2 0x1419 DUP6 PUSH1 0x5 PUSH2 0xF0D JUMP JUMPDEST SWAP1 PUSH2 0x345 SWAP4 SWAP3 SWAP2 PUSH2 0x2DDD PUSH2 0x1484 PUSH1 0x5 PUSH2 0x1419 DUP7 PUSH1 0x3 PUSH2 0xF0D JUMP JUMPDEST SWAP1 PUSH2 0x345 SWAP4 SWAP3 SWAP2 PUSH2 0x2DF1 PUSH2 0x345 PUSH1 0x10 PUSH2 0xDE3 JUMP JUMPDEST DUP5 LT ISZERO DUP1 PUSH2 0x2E08 JUMPI JUMPDEST PUSH2 0x2E03 SWAP1 PUSH2 0x148E JUMP JUMPDEST PUSH2 0x3078 JUMP JUMPDEST POP PUSH2 0x2E03 PUSH2 0x2E19 PUSH2 0x345 PUSH1 0x11 PUSH2 0xDE3 JUMP JUMPDEST DUP6 GT ISZERO SWAP1 POP PUSH2 0x2DFA JUMP JUMPDEST ISZERO PUSH2 0x2E2A JUMPI JUMP JUMPDEST PUSH1 0x40 MLOAD PUSH3 0x461BCD PUSH1 0xE5 SHL DUP2 MSTORE PUSH1 0x20 PUSH1 0x4 DUP3 ADD MSTORE PUSH1 0x19 PUSH1 0x24 DUP3 ADD MSTORE PUSH32 0x4C69717569642064656D6F63726163792064697361626C656400000000000000 PUSH1 0x44 DUP3 ADD MSTORE PUSH1 0x64 SWAP1 REVERT JUMPDEST SWAP1 POP MLOAD SWAP1 PUSH2 0x2BE DUP3 PUSH2 0xBE8 JUMP JUMPDEST SWAP1 POP MLOAD SWAP1 PUSH2 0x2BE DUP3 PUSH2 0x2F3 JUMP JUMPDEST SWAP1 SWAP3 SWAP2 SWAP3 PUSH2 0x2E99 PUSH2 0xEE3 DUP3 PUSH2 0x15B0 JUMP JUMPDEST SWAP4 DUP2 DUP6 MSTORE PUSH1 0x20 DUP1 DUP7 ADD SWAP3 MUL DUP4 ADD SWAP3 DUP2 DUP5 GT PUSH2 0x237 JUMPI SWAP2 JUMPDEST DUP4 DUP4 LT PUSH2 0x2EBD JUMPI POP POP POP POP JUMP JUMPDEST PUSH1 0x20 DUP1 SWAP2 PUSH2 0x2ECB DUP5 DUP7 PUSH2 0x2E6F JUMP JUMPDEST DUP2 MSTORE ADD SWAP3 ADD SWAP2 PUSH2 0x2EB0 JUMP JUMPDEST SWAP1 DUP1 PUSH1 0x1F DUP4 ADD SLT ISZERO PUSH2 0x237 JUMPI DUP2 MLOAD PUSH2 0x345 SWAP3 PUSH1 0x20 ADD PUSH2 0x2E89 JUMP JUMPDEST SWAP1 POP MLOAD SWAP1 PUSH2 0x2BE DUP3 PUSH2 0x6B0 JUMP JUMPDEST SWAP2 SWAP1 SWAP2 PUSH2 0x120 DUP2 DUP5 SUB SLT PUSH2 0x237 JUMPI PUSH2 0x2F16 PUSH2 0x120 PUSH2 0xE8C JUMP JUMPDEST SWAP3 PUSH2 0x2F21 DUP2 DUP4 PUSH2 0x2E6F JUMP JUMPDEST DUP5 MSTORE PUSH2 0x2F30 DUP2 PUSH1 0x20 DUP5 ADD PUSH2 0x2E7C JUMP JUMPDEST PUSH1 0x20 DUP6 ADD MSTORE PUSH2 0x2F42 DUP2 PUSH1 0x40 DUP5 ADD PUSH2 0x2E7C JUMP JUMPDEST PUSH1 0x40 DUP6 ADD MSTORE PUSH2 0x2F54 DUP2 PUSH1 0x60 DUP5 ADD PUSH2 0x2E7C JUMP JUMPDEST PUSH1 0x60 DUP6 ADD MSTORE PUSH2 0x2F66 DUP2 PUSH1 0x80 DUP5 ADD PUSH2 0x2E6F JUMP JUMPDEST PUSH1 0x80 DUP6 ADD MSTORE PUSH1 0xA0 DUP3 ADD MLOAD SWAP1 PUSH8 0xFFFFFFFFFFFFFFFF DUP3 GT PUSH2 0x237 JUMPI PUSH2 0x2F8F DUP2 PUSH2 0x2FC3 SWAP4 DUP6 ADD PUSH2 0x2ED6 JUMP JUMPDEST PUSH1 0xA0 DUP7 ADD MSTORE PUSH2 0x2FA1 DUP2 PUSH1 0xC0 DUP6 ADD PUSH2 0x2EF0 JUMP JUMPDEST PUSH1 0xC0 DUP7 ADD MSTORE PUSH2 0x2FB3 DUP2 PUSH1 0xE0 DUP6 ADD PUSH2 0x2E7C JUMP JUMPDEST PUSH1 0xE0 DUP7 ADD MSTORE PUSH2 0x100 DUP1 SWAP4 ADD PUSH2 0x2E7C JUMP JUMPDEST SWAP1 DUP4 ADD MSTORE JUMP JUMPDEST SWAP1 PUSH1 0x20 DUP3 DUP3 SUB SLT PUSH2 0x237 JUMPI DUP2 MLOAD PUSH8 0xFFFFFFFFFFFFFFFF DUP2 GT PUSH2 0x237 JUMPI PUSH2 0x345 SWAP3 ADD PUSH2 0x2EFD JUMP JUMPDEST PUSH1 0x40 MLOAD RETURNDATASIZE PUSH1 0x0 DUP3 RETURNDATACOPY RETURNDATASIZE SWAP1 REVERT JUMPDEST ISZERO PUSH2 0x3002 JUMPI JUMP JUMPDEST PUSH1 0x40 MLOAD PUSH3 0x461BCD PUSH1 0xE5 SHL DUP2 MSTORE PUSH1 0x20 PUSH1 0x4 DUP3 ADD MSTORE PUSH1 0x19 PUSH1 0x24 DUP3 ADD MSTORE PUSH32 0x496E73756666696369656E7420766F74696E6720706F77657200000000000000 PUSH1 0x44 DUP3 ADD MSTORE PUSH1 0x64 SWAP1 REVERT JUMPDEST PUSH2 0x3051 PUSH1 0x13 PUSH2 0x11CD JUMP JUMPDEST PUSH19 0x1111531151D055115117D593D51157D0D054D5 PUSH1 0x6A SHL PUSH1 0x20 DUP3 ADD MSTORE SWAP1 JUMP JUMPDEST PUSH2 0x345 PUSH2 0x3047 JUMP JUMPDEST POP PUSH2 0x308B PUSH2 0x3086 PUSH1 0x14 PUSH2 0x1B9B JUMP JUMPDEST PUSH2 0x2E23 JUMP JUMPDEST PUSH1 0x6 SWAP3 PUSH2 0x30A5 PUSH2 0x1DE6 PUSH2 0x1DE2 PUSH2 0x1DDD DUP6 PUSH2 0x1DD8 CALLER DUP11 PUSH2 0x1518 JUMP JUMPDEST PUSH2 0x30B7 PUSH2 0x30B2 PUSH1 0xE PUSH2 0x22B8 JUMP JUMPDEST PUSH2 0x4F4 JUMP JUMPDEST SWAP1 PUSH1 0x0 PUSH2 0x30C3 PUSH1 0x40 MLOAD SWAP1 JUMP JUMPDEST SWAP3 DUP4 SWAP1 PUSH4 0x1A9EA1F3 PUSH1 0xE3 SHL DUP3 MSTORE DUP2 DUP1 PUSH2 0x30DF CALLER PUSH1 0x4 DUP4 ADD PUSH2 0xB6F JUMP JUMPDEST SUB SWAP2 GAS STATICCALL SWAP1 DUP2 ISZERO PUSH2 0x324B JUMPI PUSH2 0x31E6 SWAP4 PUSH2 0x311E PUSH2 0x310C PUSH1 0x60 PUSH2 0x31DE SWAP6 PUSH2 0x135A SWAP8 PUSH1 0x0 SWAP2 PUSH2 0x322A JUMPI JUMPDEST POP ADD MLOAD SWAP1 JUMP JUMPDEST DUP4 SWAP1 PUSH2 0x3117 JUMP JUMPDEST SWAP2 SWAP1 JUMP JUMPDEST LT ISZERO PUSH2 0x2FFB JUMP JUMPDEST PUSH2 0x1F23 PUSH2 0x312B PUSH1 0xA PUSH2 0xDE3 JUMP JUMPDEST SWAP8 PUSH2 0x3138 PUSH2 0x1E05 DUP11 PUSH2 0xE03 JUMP JUMPDEST PUSH2 0x3197 DUP9 PUSH2 0x317D PUSH1 0x0 PUSH2 0x3172 PUSH2 0x3150 PUSH2 0x1E24 DUP4 PUSH2 0xE27 JUMP JUMPDEST PUSH2 0x315C PUSH2 0x1E35 DUP5 PUSH2 0xE27 JUMP JUMPDEST PUSH2 0x3167 DUP2 PUSH1 0x60 DUP8 ADD MSTORE JUMP JUMPDEST PUSH2 0x1E72 DUP2 PUSH1 0x80 DUP8 ADD MSTORE JUMP JUMPDEST PUSH2 0x1E84 DUP9 PUSH1 0xC0 DUP6 ADD MSTORE JUMP JUMPDEST PUSH2 0x318C PUSH1 0x1 PUSH2 0x120 DUP4 ADD PUSH2 0x1612 JUMP JUMPDEST PUSH2 0x1EB3 DUP12 PUSH1 0x4 PUSH2 0xF0D JUMP JUMPDEST PUSH2 0x31AA PUSH1 0x1 PUSH2 0x1ECB DUP6 PUSH2 0x1DD8 CALLER DUP7 PUSH2 0x1518 JUMP JUMPDEST PUSH2 0x31BC DUP10 PUSH2 0x1EE2 PUSH2 0x345 CALLER PUSH1 0x7 PUSH2 0x1518 JUMP JUMPDEST PUSH2 0x31D0 DUP4 PUSH1 0x5 PUSH2 0x1DD8 DUP2 PUSH2 0x1EFB DUP5 DUP3 PUSH2 0xF0D JUMP JUMPDEST ADD PUSH2 0x1F0D DUP5 PUSH2 0x1F1E DUP4 PUSH2 0xDE3 JUMP JUMPDEST PUSH2 0x136E PUSH2 0x3070 JUMP JUMPDEST PUSH2 0x31F2 PUSH2 0x1F60 CALLER PUSH2 0x4F4 JUMP JUMPDEST SWAP1 PUSH32 0x2C9DEB38F462962EADBD85A9D3A4120503EE091F1582EAAA10AA8C6797651D29 PUSH2 0x321D PUSH1 0x40 MLOAD SWAP1 JUMP JUMPDEST DUP1 PUSH2 0x1F9E TIMESTAMP PUSH1 0x1 DUP4 PUSH2 0x18DC JUMP JUMPDEST PUSH2 0x3245 SWAP2 RETURNDATASIZE DUP1 SWAP2 DUP4 RETURNDATACOPY PUSH2 0x323D DUP2 DUP4 PUSH2 0xE65 JUMP JUMPDEST DUP2 ADD SWAP1 PUSH2 0x2FC9 JUMP JUMPDEST CODESIZE PUSH2 0x3106 JUMP JUMPDEST PUSH2 0x2FEF JUMP JUMPDEST PUSH2 0x345 SWAP3 SWAP2 SWAP1 PUSH1 0x0 PUSH2 0x2DA9 JUMP JUMPDEST SWAP1 PUSH2 0x2BE SWAP4 SWAP3 SWAP2 PUSH2 0x326C PUSH2 0x3324 JUMP JUMPDEST SWAP2 PUSH2 0x328A PUSH2 0x3291 SWAP3 PUSH2 0x3283 PUSH2 0x2BE SWAP7 SWAP6 PUSH1 0x10 PUSH2 0xE34 JUMP JUMPDEST PUSH1 0x11 PUSH2 0xE34 JUMP JUMPDEST PUSH1 0x12 PUSH2 0xE34 JUMP JUMPDEST PUSH1 0x13 PUSH2 0xE34 JUMP JUMPDEST SWAP1 PUSH2 0x2BE SWAP4 SWAP3 SWAP2 PUSH2 0x325D JUMP JUMPDEST PUSH2 0x345 SWAP1 PUSH2 0x2852 JUMP JUMPDEST PUSH2 0x32C4 PUSH2 0x345 SWAP2 PUSH2 0x32BC PUSH1 0x60 SWAP1 JUMP JUMPDEST POP PUSH1 0x7 PUSH2 0x1518 JUMP JUMPDEST PUSH2 0x32A4 JUMP JUMPDEST PUSH2 0x2BE SWAP1 PUSH2 0x32D5 PUSH2 0x3324 JUMP JUMPDEST PUSH1 0x0 PUSH2 0x32E0 DUP2 PUSH2 0x2974 JUMP JUMPDEST PUSH2 0x32E9 DUP2 PUSH2 0x4B4 JUMP JUMPDEST PUSH2 0x32F2 DUP5 PUSH2 0x4B4 JUMP JUMPDEST EQ PUSH2 0x3302 JUMPI POP POP PUSH2 0x2BE SWAP1 PUSH2 0x381A JUMP JUMPDEST PUSH4 0x1E4FBDF7 PUSH1 0xE0 SHL DUP3 MSTORE DUP2 SWAP1 PUSH2 0x13FA SWAP1 PUSH1 0x4 DUP4 ADD PUSH2 0xB6F JUMP JUMPDEST PUSH2 0x2BE SWAP1 PUSH2 0x32C9 JUMP JUMPDEST PUSH2 0x332C PUSH2 0x2B02 JUMP JUMPDEST CALLER SWAP1 PUSH2 0x333A PUSH2 0x2C73 DUP4 PUSH2 0x4B4 JUMP JUMPDEST SUB PUSH2 0x3342 JUMPI POP JUMP JUMPDEST PUSH4 0x118CDAA7 PUSH1 0xE0 SHL PUSH1 0x0 SWAP1 DUP2 MSTORE SWAP1 PUSH2 0x335B SWAP1 PUSH1 0x4 PUSH2 0xB6F JUMP JUMPDEST SUB PUSH1 0x0 REVERT JUMPDEST PUSH2 0x594 PUSH2 0x3378 SWAP3 PUSH1 0x20 SWAP3 PUSH2 0x3372 DUP2 MLOAD SWAP1 JUMP JUMPDEST SWAP5 DUP6 SWAP3 SWAP1 JUMP JUMPDEST SWAP4 DUP5 SWAP2 ADD PUSH2 0x53D JUMP JUMPDEST SWAP3 PUSH2 0x18AF PUSH2 0x11DA PUSH2 0x594 SWAP5 PUSH2 0x339A PUSH1 0x20 SWAP9 SWAP8 DUP10 SWAP7 PUSH2 0x3360 JUMP JUMPDEST SWAP1 PUSH2 0x3360 JUMP JUMPDEST SWAP2 SWAP1 PUSH2 0xF8A PUSH2 0x345 PUSH2 0xE4B SWAP4 SWAP1 JUMP JUMPDEST PUSH2 0x2BE SWAP2 PUSH1 0x0 SWAP2 PUSH2 0x33A0 JUMP JUMPDEST DUP2 DUP2 LT PUSH2 0x33C6 JUMPI POP POP JUMP JUMPDEST DUP1 PUSH2 0x33D4 PUSH1 0x0 PUSH1 0x1 SWAP4 PUSH2 0x33AF JUMP JUMPDEST ADD PUSH2 0x33BB JUMP JUMPDEST SWAP2 SWAP1 SWAP2 DUP3 DUP3 LT PUSH2 0x33E9 JUMPI POP POP POP JUMP JUMPDEST PUSH2 0x2BE SWAP3 SWAP2 PUSH2 0x33F7 SWAP1 PUSH2 0x1665 JUMP JUMPDEST SWAP2 DUP3 ADD SWAP2 ADD PUSH2 0x33BB JUMP JUMPDEST SWAP1 PUSH1 0x1 PUSH1 0x40 SHL DUP2 GT PUSH2 0xE87 JUMPI DUP2 PUSH2 0x3419 PUSH2 0x2BE SWAP4 SLOAD SWAP1 JUMP JUMPDEST SWAP1 DUP3 DUP2 SSTORE PUSH2 0x33DA JUMP JUMPDEST DUP2 MLOAD SWAP2 PUSH8 0xFFFFFFFFFFFFFFFF DUP4 GT PUSH2 0xE87 JUMPI PUSH2 0x3447 PUSH2 0x16C7 PUSH1 0x1 SWAP3 PUSH2 0x16C1 DUP7 DUP7 PUSH2 0x3401 JUMP JUMPDEST SWAP3 DIV SWAP2 PUSH1 0x0 JUMPDEST DUP4 DUP2 LT PUSH2 0x345A JUMPI POP POP POP POP JUMP JUMPDEST PUSH1 0x1 SWAP1 PUSH1 0x20 PUSH2 0x346A PUSH2 0x345 DUP7 MLOAD SWAP1 JUMP JUMPDEST SWAP5 ADD SWAP4 DUP2 DUP5 ADD SSTORE ADD PUSH2 0x344D JUMP JUMPDEST SWAP1 PUSH2 0x2BE SWAP2 PUSH2 0x3422 JUMP JUMPDEST PUSH1 0x4 PUSH2 0x34D4 PUSH1 0x80 PUSH2 0x2BE SWAP5 PUSH2 0x34A0 PUSH2 0x349A PUSH1 0x0 DUP4 ADD MLOAD SWAP1 JUMP JUMPDEST DUP7 PUSH2 0x170D JUMP JUMPDEST PUSH2 0x34B8 PUSH2 0x34AF PUSH1 0x20 DUP4 ADD PUSH2 0x161C JUMP JUMPDEST PUSH1 0x1 DUP8 ADD PUSH2 0x1635 JUMP JUMPDEST PUSH2 0x34C6 PUSH2 0x114B PUSH1 0x40 DUP4 ADD MLOAD SWAP1 JUMP JUMPDEST PUSH2 0x119B PUSH2 0x1162 PUSH1 0x60 DUP4 ADD MLOAD SWAP1 JUMP JUMPDEST SWAP2 ADD PUSH2 0x3477 JUMP JUMPDEST SWAP1 PUSH2 0x2BE SWAP2 PUSH2 0x3481 JUMP JUMPDEST SWAP3 SWAP2 PUSH1 0x20 PUSH2 0x1260 PUSH2 0x2BE SWAP4 PUSH1 0x40 DUP8 ADD SWAP1 DUP8 DUP3 SUB PUSH1 0x0 DUP10 ADD MSTORE PUSH2 0x560 JUMP JUMPDEST SWAP1 PUSH2 0x135A PUSH2 0x3532 PUSH2 0x35AC SWAP3 PUSH2 0x3517 PUSH1 0xC PUSH2 0xDE3 JUMP JUMPDEST SWAP1 PUSH2 0x3521 PUSH1 0x40 MLOAD SWAP1 JUMP JUMPDEST SWAP4 DUP5 SWAP3 PUSH1 0x20 DUP5 ADD SWAP3 TIMESTAMP SWAP1 DUP10 DUP6 PUSH2 0x3381 JUMP JUMPDEST PUSH2 0x353D PUSH2 0x23EC DUP3 MLOAD SWAP1 JUMP JUMPDEST KECCAK256 PUSH2 0x3595 PUSH2 0x354E PUSH2 0x1E24 PUSH1 0x0 PUSH2 0xE27 JUMP JUMPDEST PUSH2 0x3585 PUSH2 0x3559 PUSH2 0x2997 JUMP JUMPDEST SWAP2 PUSH2 0x3562 DUP6 DUP5 MSTORE JUMP JUMPDEST PUSH2 0x356F CALLER PUSH1 0x20 DUP6 ADD PUSH2 0x1608 JUMP JUMPDEST PUSH2 0x357A DUP8 PUSH1 0x40 DUP6 ADD MSTORE JUMP JUMPDEST PUSH2 0x12FE TIMESTAMP PUSH1 0x60 DUP6 ADD MSTORE JUMP JUMPDEST PUSH2 0x3590 DUP4 PUSH1 0x8 PUSH2 0x29D4 JUMP JUMPDEST PUSH2 0x34DB JUMP JUMPDEST PUSH2 0x345 PUSH2 0x35A5 PUSH2 0x1F08 PUSH1 0xC PUSH2 0xDE3 JUMP JUMPDEST PUSH1 0xC PUSH2 0xE34 JUMP JUMPDEST PUSH32 0xF6D3F32241786CAD73E665A475DD59E4AFF37EE43093B5504C05D73D3806F9EF PUSH2 0x2D6C PUSH2 0x35D9 CALLER PUSH2 0x4F4 JUMP JUMPDEST SWAP4 PUSH2 0x35E3 PUSH1 0x40 MLOAD SWAP1 JUMP JUMPDEST SWAP2 DUP3 SWAP2 TIMESTAMP SWAP1 DUP4 PUSH2 0x34E5 JUMP JUMPDEST ISZERO PUSH2 0x35F5 JUMPI JUMP JUMPDEST PUSH1 0x40 MLOAD PUSH3 0x461BCD PUSH1 0xE5 SHL DUP2 MSTORE PUSH1 0x20 PUSH1 0x4 DUP3 ADD MSTORE PUSH1 0x12 PUSH1 0x24 DUP3 ADD MSTORE PUSH18 0x456D707479206C6561766573206172726179 PUSH1 0x70 SHL PUSH1 0x44 DUP3 ADD MSTORE PUSH1 0x64 SWAP1 REVERT JUMPDEST PUSH4 0x4E487B71 PUSH1 0xE0 SHL PUSH1 0x0 MSTORE PUSH1 0x12 PUSH1 0x4 MSTORE PUSH1 0x24 PUSH1 0x0 REVERT JUMPDEST DUP2 ISZERO PUSH2 0x364F JUMPI DIV SWAP1 JUMP JUMPDEST PUSH2 0x362F JUMP JUMPDEST SWAP1 PUSH2 0x3673 PUSH2 0x3660 DUP4 MLOAD SWAP1 JUMP JUMPDEST PUSH2 0x366D PUSH2 0x3113 PUSH1 0x0 PUSH2 0xE27 JUMP JUMPDEST GT PUSH2 0x35EE JUMP JUMPDEST DUP2 MLOAD SWAP2 PUSH1 0x1 SWAP3 PUSH2 0x3685 PUSH2 0x3113 DUP6 PUSH2 0xE27 JUMP JUMPDEST EQ PUSH2 0x37B2 JUMPI PUSH2 0x369E PUSH2 0x3695 DUP3 MLOAD SWAP1 JUMP JUMPDEST PUSH2 0x26C8 DUP6 PUSH2 0xE27 JUMP JUMPDEST SWAP3 PUSH2 0x36B7 PUSH2 0x1E24 PUSH1 0x2 SWAP6 PUSH2 0x36B1 DUP8 PUSH2 0xE27 JUMP JUMPDEST SWAP1 PUSH2 0x3645 JUMP JUMPDEST SWAP2 DUP2 PUSH2 0x36C3 PUSH1 0x0 PUSH2 0xE27 JUMP JUMPDEST SWAP1 JUMPDEST PUSH2 0x36D8 JUMPI JUMPDEST POP POP POP PUSH2 0x345 SWAP2 SWAP3 POP PUSH2 0x38E9 JUMP JUMPDEST PUSH2 0x36E3 PUSH2 0x345 DUP4 MLOAD SWAP1 JUMP JUMPDEST DUP2 LT ISZERO PUSH2 0x37AD JUMPI SWAP1 PUSH2 0x3782 DUP4 SWAP3 PUSH2 0x3702 PUSH2 0x36FC DUP6 PUSH2 0xE27 JUMP JUMPDEST DUP3 PUSH2 0x18A2 JUMP JUMPDEST PUSH2 0x3710 PUSH2 0x3113 PUSH2 0x345 DUP7 MLOAD SWAP1 JUMP JUMPDEST LT ISZERO PUSH2 0x3789 JUMPI PUSH2 0x3779 PUSH2 0x135A PUSH2 0x3758 PUSH2 0x3730 PUSH2 0x372C DUP6 DUP9 PUSH2 0x201E JUMP JUMPDEST MLOAD SWAP1 JUMP JUMPDEST PUSH2 0x374E PUSH2 0x372C PUSH2 0x3748 PUSH2 0x3742 DUP12 PUSH2 0xE27 JUMP JUMPDEST DUP9 PUSH2 0x18A2 JUMP JUMPDEST DUP10 PUSH2 0x201E JUMP JUMPDEST SWAP1 PUSH2 0x2D0A PUSH1 0x40 MLOAD SWAP1 JUMP JUMPDEST PUSH2 0x3763 PUSH2 0x23EC DUP3 MLOAD SWAP1 JUMP JUMPDEST KECCAK256 PUSH2 0x23FE PUSH2 0x3748 PUSH2 0x3773 DUP13 PUSH2 0xE27 JUMP JUMPDEST DUP6 PUSH2 0x3645 JUMP JUMPDEST PUSH2 0x26C8 DUP9 PUSH2 0xE27 JUMP JUMPDEST SWAP1 SWAP2 PUSH2 0x36C5 JUMP JUMPDEST PUSH2 0x37A8 PUSH2 0x3799 PUSH2 0x372C DUP4 DUP7 PUSH2 0x201E JUMP JUMPDEST PUSH2 0x23FE PUSH2 0x3748 PUSH2 0x3773 DUP13 PUSH2 0xE27 JUMP JUMPDEST PUSH2 0x3779 JUMP JUMPDEST PUSH2 0x36CA JUMP JUMPDEST PUSH2 0x345 SWAP2 SWAP3 POP PUSH2 0x372C SWAP1 PUSH2 0x37C6 PUSH1 0x0 PUSH2 0xE27 JUMP JUMPDEST SWAP1 PUSH2 0x201E JUMP JUMPDEST PUSH2 0x37D4 PUSH2 0x396A JUMP JUMPDEST PUSH2 0x2BE PUSH2 0x37E3 PUSH1 0x0 PUSH1 0x2 PUSH2 0x10F0 JUMP JUMPDEST PUSH32 0x5DB9EE0A495BF2E6FF9C91A7834C1BA4FDD244A5E8AA4E537BD38AEAE4B073AA PUSH2 0x380D CALLER PUSH2 0xB9A JUMP JUMPDEST SUB SWAP1 LOG1 JUMP JUMPDEST PUSH2 0x2BE PUSH2 0x37CC JUMP JUMPDEST PUSH2 0x383B PUSH2 0x3835 PUSH2 0x382A PUSH1 0x0 PUSH2 0x22B8 JUMP JUMPDEST PUSH2 0x30B2 DUP5 PUSH1 0x0 PUSH2 0x1635 JUMP JUMPDEST SWAP2 PUSH2 0x4F4 JUMP JUMPDEST SWAP1 PUSH32 0x8BE0079C531659141344CD1FD0A4F28419497F9722A3DAAFE3B4186F6B6457E0 PUSH2 0x3866 PUSH1 0x40 MLOAD SWAP1 JUMP JUMPDEST DUP1 DUP1 PUSH2 0x2D6C JUMP JUMPDEST PUSH2 0x3875 PUSH2 0x398D JUMP JUMPDEST PUSH2 0x2BE PUSH2 0x3884 PUSH1 0x1 PUSH1 0x2 PUSH2 0x10F0 JUMP JUMPDEST PUSH32 0x62E78CEA01BEE320CD4E420270B5EA74000D11B0C9F74754EBDBFC544B05A258 PUSH2 0x380D CALLER PUSH2 0xB9A JUMP JUMPDEST PUSH2 0x2BE PUSH2 0x386D JUMP JUMPDEST PUSH2 0x135A PUSH2 0x38D5 PUSH2 0x38E5 SWAP4 PUSH2 0x3113 SWAP4 PUSH2 0x38CC PUSH1 0x0 SWAP1 JUMP JUMPDEST POP PUSH1 0x40 MLOAD PUSH2 0x2D0A JUMP JUMPDEST PUSH2 0x38E0 PUSH2 0x23EC DUP3 MLOAD SWAP1 JUMP JUMPDEST KECCAK256 SWAP3 SWAP1 JUMP JUMPDEST EQ SWAP1 JUMP JUMPDEST SWAP1 DUP2 MLOAD SWAP2 PUSH1 0x1 SWAP3 PUSH2 0x38FC PUSH2 0x3113 DUP6 PUSH2 0xE27 JUMP JUMPDEST EQ PUSH2 0x37B2 JUMPI PUSH2 0x390C PUSH2 0x3695 DUP3 MLOAD SWAP1 JUMP JUMPDEST SWAP3 PUSH2 0x391F PUSH2 0x1E24 PUSH1 0x2 SWAP6 PUSH2 0x36B1 DUP8 PUSH2 0xE27 JUMP JUMPDEST SWAP2 DUP2 PUSH2 0x392B PUSH1 0x0 PUSH2 0xE27 JUMP JUMPDEST SWAP1 JUMPDEST PUSH2 0x393F JUMPI POP POP POP PUSH2 0x345 SWAP2 SWAP3 POP PUSH2 0x38E9 JUMP JUMPDEST PUSH2 0x394A PUSH2 0x345 DUP4 MLOAD SWAP1 JUMP JUMPDEST DUP2 LT ISZERO PUSH2 0x37AD JUMPI SWAP1 PUSH2 0x3963 DUP4 SWAP3 PUSH2 0x3702 PUSH2 0x36FC DUP6 PUSH2 0xE27 JUMP JUMPDEST SWAP1 SWAP2 PUSH2 0x392D JUMP JUMPDEST PUSH2 0x3975 PUSH2 0x1DE2 PUSH2 0x294D JUMP JUMPDEST PUSH2 0x397B JUMPI JUMP JUMPDEST PUSH4 0x8DFC202B PUSH1 0xE0 SHL PUSH1 0x0 SWAP1 DUP2 MSTORE PUSH1 0x4 SWAP1 REVERT JUMPDEST PUSH2 0x3995 PUSH2 0x294D JUMP JUMPDEST PUSH2 0x399B JUMPI JUMP JUMPDEST PUSH4 0xD93C0665 PUSH1 0xE0 SHL PUSH1 0x0 SWAP1 DUP2 MSTORE PUSH1 0x4 SWAP1 REVERT INVALID LOG2 PUSH5 0x6970667358 0x22 SLT KECCAK256 RETURNDATACOPY LOG3 0x25 TLOAD PUSH15 0x3C6CA3C3AE5ED666A3157D36341E81 SWAP14 0xCA BLOCKHASH INVALID DUP3 0xE6 0xAC 0xEA TSTORE SWAP10 0xB7 0x4F PUSH5 0x736F6C6343 STOP ADDMOD SHR STOP CALLER "},"methodIdentifiers":{"castDelegatedVote(uint256,uint256,uint256)":"b4483aa7","castVote(uint256,uint256,bytes32,uint256)":"1119501e","castZKVote(uint256,uint256,bytes32,uint256)":"2966d67a","commitmentPeriod()":"8a3c5f9b","createVotingSession(uint256,uint8)":"42ab9786","endVotingSession(uint256)":"35bb3d30","getAllCandidates()":"2e6997fe","getAuditTrail(bytes32)":"73a8ce8b","getCandidate(uint256)":"35b8e820","getCandidateTotalVotes(uint256)":"abdd80a3","getSessionTotals(uint256)":"7c25e889","getVote(uint256)":"5a55c1f0","getVoterVotes(address)":"cf042511","getVotingSession(uint256)":"1943c90b","hasVoterVoted(address,uint256)":"9b541f76","liquidDemocracy()":"7dabdd99","liquidDemocracyEnabled()":"5414e58e","maxVotingPower()":"9ef0fb85","minVotingPower()":"36fffde0","owner()":"8da5cb5b","pause()":"8456cb59","paused()":"5c975abb","registerCandidate(string,string)":"0dbce4dd","renounceOwnership()":"715018a6","revealPeriod()":"f9604681","revealVote(uint256,bytes32,bytes32)":"8ed1fde7","setFeatures(bool,bool,bool)":"33845e52","transferOwnership(address)":"f2fde38b","unpause()":"3f4ba83a","updateVotingParameters(uint256,uint256,uint256,uint256)":"bac7c890","voteMixing()":"4650baa1","voteMixingEnabled()":"c7a800af","zkProofVerifier()":"2beb449e","zkProofsEnabled()":"dd304e3e"}}}}}