{"contracts/BlocPol.sol":{"BlocPol":{"abi":[{"inputs":[],"stateMutability":"nonpayable","type":"constructor"},{"anonymous":false,"inputs":[{"indexed":true,"internalType":"uint256","name":"candidateId","type":"uint256"},{"indexed":false,"internalType":"string","name":"name","type":"string"},{"indexed":false,"internalType":"string","name":"ipfsHash","type":"string"}],"name":"CandidateRegistered","type":"event"},{"anonymous":false,"inputs":[{"indexed":true,"internalType":"address","name":"voter","type":"address"},{"indexed":true,"internalType":"uint256","name":"candidateId","type":"uint256"},{"indexed":false,"internalType":"bytes32","name":"voteHash","type":"bytes32"},{"indexed":false,"internalType":"bytes32","name":"txHash","type":"bytes32"}],"name":"VoteCast","type":"event"},{"anonymous":false,"inputs":[{"indexed":false,"internalType":"uint256","name":"startTime","type":"uint256"},{"indexed":false,"internalType":"uint256","name":"endTime","type":"uint256"}],"name":"VotingSessionStarted","type":"event"},{"anonymous":false,"inputs":[{"indexed":false,"internalType":"uint256","name":"stopTime","type":"uint256"}],"name":"VotingSessionStopped","type":"event"},{"inputs":[],"name":"admin","outputs":[{"internalType":"address","name":"","type":"address"}],"stateMutability":"view","type":"function"},{"inputs":[],"name":"deploymentTimestamp","outputs":[{"internalType":"uint256","name":"","type":"uint256"}],"stateMutability":"view","type":"function"},{"inputs":[],"name":"getAllVotes","outputs":[{"internalType":"uint256[]","name":"","type":"uint256[]"}],"stateMutability":"view","type":"function"},{"inputs":[{"internalType":"uint256","name":"candidateId","type":"uint256"}],"name":"getCandidate","outputs":[{"components":[{"internalType":"uint256","name":"id","type":"uint256"},{"internalType":"string","name":"name","type":"string"},{"internalType":"string","name":"ipfsHash","type":"string"},{"internalType":"uint256","name":"voteCount","type":"uint256"}],"internalType":"struct BlocPol.Candidate","name":"","type":"tuple"}],"stateMutability":"view","type":"function"},{"inputs":[],"name":"getCandidates","outputs":[{"components":[{"internalType":"uint256","name":"id","type":"uint256"},{"internalType":"string","name":"name","type":"string"},{"internalType":"string","name":"ipfsHash","type":"string"},{"internalType":"uint256","name":"voteCount","type":"uint256"}],"internalType":"struct BlocPol.Candidate[]","name":"","type":"tuple[]"}],"stateMutability":"view","type":"function"},{"inputs":[],"name":"getDeploymentTimestamp","outputs":[{"internalType":"uint256","name":"","type":"uint256"}],"stateMutability":"view","type":"function"},{"inputs":[{"internalType":"uint256","name":"candidateId","type":"uint256"}],"name":"getTotalVotes","outputs":[{"internalType":"uint256","name":"","type":"uint256"}],"stateMutability":"view","type":"function"},{"inputs":[{"internalType":"address","name":"voter","type":"address"}],"name":"getVoteHash","outputs":[{"internalType":"bytes32","name":"","type":"bytes32"}],"stateMutability":"view","type":"function"},{"inputs":[{"internalType":"address","name":"voter","type":"address"}],"name":"getVoteTxHash","outputs":[{"internalType":"bytes32","name":"","type":"bytes32"}],"stateMutability":"view","type":"function"},{"inputs":[{"internalType":"address","name":"voter","type":"address"}],"name":"getVotedCandidate","outputs":[{"internalType":"uint256","name":"","type":"uint256"}],"stateMutability":"view","type":"function"},{"inputs":[{"internalType":"address","name":"addr","type":"address"}],"name":"hasAddressVoted","outputs":[{"internalType":"bool","name":"","type":"bool"}],"stateMutability":"view","type":"function"},{"inputs":[],"name":"isVotingActive","outputs":[{"internalType":"bool","name":"","type":"bool"}],"stateMutability":"view","type":"function"},{"inputs":[{"internalType":"string","name":"name","type":"string"},{"internalType":"string","name":"ipfsHash","type":"string"}],"name":"registerCandidate","outputs":[],"stateMutability":"nonpayable","type":"function"},{"inputs":[{"internalType":"uint256","name":"durationSeconds","type":"uint256"}],"name":"startVotingSession","outputs":[],"stateMutability":"nonpayable","type":"function"},{"inputs":[],"name":"stopVotingSession","outputs":[],"stateMutability":"nonpayable","type":"function"},{"inputs":[{"internalType":"uint256","name":"candidateId","type":"uint256"}],"name":"vote","outputs":[],"stateMutability":"nonpayable","type":"function"},{"inputs":[],"name":"votingActive","outputs":[{"internalType":"bool","name":"","type":"bool"}],"stateMutability":"view","type":"function"},{"inputs":[],"name":"votingEndTime","outputs":[{"internalType":"uint256","name":"","type":"uint256"}],"stateMutability":"view","type":"function"},{"inputs":[],"name":"votingStartTime","outputs":[{"internalType":"uint256","name":"","type":"uint256"}],"stateMutability":"view","type":"function"}],"evm":{"bytecode":{"linkReferences":{},"object":"608060405234601f57600e60a3565b6040516116336100b8823961163390f35b600080fd5b906001600160a01b03905b9181191691161790565b604b90604e906001600160a01b031682565b90565b6001600160a01b031690565b604b906039565b604b90605a565b906074604b607a926061565b82546024565b9055565b9060001990602f565b604b604b604b9290565b90609d604b607a926087565b8254607e565b60ac3360006068565b60b54260016091565b56fe6080604052600436101561001257600080fd5b60003560e01c80630121b93f1461014257806306a49fce1461013d5780630dbce4dd1461013857806317a0ad8e146101335780631ea736e01461012e5780632019a608146101295780632ce35e111461012457806335b8e8201461011f578063408e27271461011a57806347cf6f7614610115578063851b6ef214610110578063959812f81461010b57806396a379d8146101065780639980a55a14610101578063bfc12c05146100fc578063e061a858146100f7578063e3e6ca7d146100f2578063edaa5dfc146100ed5763f851a4400361014757610698565b610653565b610638565b61061d565b610602565b6105de565b6105c3565b6105a8565b610545565b6104c3565b610496565b610449565b61041d565b610402565b6103cb565b610391565b610375565b6102d0565b61017b565b600080fd5b805b0361014757565b905035906101628261014c565b565b906020828203126101475761017891610155565b90565b346101475761019361018e366004610164565b610b60565b60405180805b0390f35b600091031261014757565b9052565b60005b8381106101bf5750506000910152565b81810151838201526020016101af565b6101f06101f9602093610203936101e4815190565b80835293849260200190565b958691016101ac565b601f01601f191690565b0190565b80518252906101789060608061024161022f60808501602088015186820360208801526101cf565b604087015185820360408701526101cf565b940151910152565b9061017891610207565b9061026961025f835190565b8083529160200190565b908161027b6020830284019460200190565b926000915b83831061028f57505050505090565b909192939460206102b26102ab83856001950387528951610249565b9760200190565b9301930191939290610280565b602080825261017892910190610253565b34610147576102e036600461019d565b6101996102eb610dcd565b604051918291826102bf565b909182601f830112156101475781359167ffffffffffffffff831161014757602001926001830284011161014757565b909160408284031261014757813567ffffffffffffffff811161014757836103509184016102f7565b929093602082013567ffffffffffffffff81116101475761037192016102f7565b9091565b3461014757610193610388366004610327565b92919091611260565b34610147576103a136600461019d565b610193611320565b610178916008021c81565b9061017891546103a9565b610178600060046103b4565b34610147576103db36600461019d565b6101996103e66103bf565b6040519182918290815260200190565b610178600060036103b4565b346101475761041236600461019d565b6101996103e66103f6565b34610147576101996103e6610433366004610164565b611328565b602080825261017892910190610207565b346101475761019961046461045f366004610164565b611341565b60405191829182610438565b610178916008021c5b60ff1690565b906101789154610470565b6101786000600261047f565b34610147576104a636600461019d565b6101996104b161048a565b60405191829182901515815260200190565b34610147576104d336600461019d565b6101996104b1611350565b906104fe6104f76104ed845190565b8084529260200190565b9260200190565b9060005b81811061050f5750505090565b90919261052c6105256001928651815260200190565b9460200190565b929101610502565b6020808252610178929101906104de565b346101475761055536600461019d565b6101996105606113b4565b60405191829182610534565b6001600160a01b031690565b6001600160a01b03811661014e565b9050359061016282610578565b906020828203126101475761017891610587565b34610147576101996103e66105be366004610594565b611465565b34610147576105d336600461019d565b6101996103e6611497565b34610147576101936105f1366004610164565b61158d565b610178600060016103b4565b346101475761061236600461019d565b6101996103e66105f6565b34610147576101996103e6610633366004610594565b611596565b34610147576101996104b161064e366004610594565b6115be565b34610147576101996103e6610669366004610594565b6115d5565b610178916008021c6001600160a01b031690565b90610178915461066e565b610178600080610682565b34610147576106a836600461019d565b6101996106b361068d565b604051918291826001600160a01b03909116815260200190565b61017890610479565b61017890546106cd565b156106e757565b60405162461bcd60e51b8152602060048201526014602482015273566f74696e67206973206e6f742061637469766560601b6044820152606490fd5b6101789081565b6101789054610723565b1561073b57565b60405162461bcd60e51b815260206004820152601c60248201527f566f74696e67206e6f7420696e20616c6c6f77656420706572696f64000000006044820152606490fd5b6101629061079661079160026106d6565b6106e0565b6107a3610178600361072a565b421015806107ba575b6107b590610734565b610858565b506107b56107cb610178600461072a565b42111590506107ac565b6101789061056c906001600160a01b031682565b610178906107d5565b610178906107e9565b90610805906107f2565b600052602052604060002090565b1561081a57565b60405162461bcd60e51b8152602060048201526016602482015275165bdd481a185d9948185b1c9958591e481d9bdd195960521b6044820152606490fd5b6101629061087e6108796108756108703360086107fb565b6106d6565b1590565b610813565b610a08565b6101786101786101789290565b9061080590610883565b156108a157565b60405162461bcd60e51b8152602060048201526011602482015270496e76616c69642063616e64696461746560781b6044820152606490fd5b634e487b7160e01b600052601160045260246000fd5b60001981146108ff5760010190565b6108da565b90600019905b9181191691161790565b9061092461017861092b92610883565b8254610904565b9055565b9060ff9061090a565b9061094861017861092b92151590565b825461092f565b6101a8906001600160a01b031660601b90565b6020939261097a60148361097a88956102039761094f565b01918252565b634e487b7160e01b600052604160045260246000fd5b90601f01601f1916810190811067ffffffffffffffff8211176109b857604052565b610980565b9061092461017861092b9290565b919082039182116108ff57565b9261097a60206102039461097a60148861097a859b9a869961094f565b9081526040810192916101629160200152565b610a28610a216000610a1b846006610890565b0161072a565b821461089a565b610a506003610a38836006610890565b01610a4a610a458261072a565b6108f0565b90610914565b610a656001610a603360086107fb565b610938565b610a7981610a743360096107fb565b610914565b604051610a9c8160208101610a9042863384610962565b90810382520382610996565b610aae610aa7825190565b9160200190565b2090610ac482610abf33600a6107fb565b6109bd565b7feffd419499491389e01fe2774ed0a6fddd60460399033fda8e42ce83081db172610af8610af26001610883565b436109cb565b610b18610b0460405190565b8092610a90602083019140438833856109d8565b610b23610aa7825190565b20610b3381610abf33600b6107fb565b610b45610b3f336107f2565b93610883565b93610b5b610b5260405190565b928392836109f5565b0390a3565b61016290610780565b90610162610b7660405190565b9283610996565b67ffffffffffffffff81116109b85760208091020190565b90610ba7610ba283610b7d565b610b69565b918252565b6101786080610b69565b610bbe610bac565b60008082526060602083018190526040830181905282015290565b610178610bb6565b60005b828110610bf057505050565b602090610bfb610bd9565b8184015201610be4565b90610162610c1b610c1584610b95565b93610b7d565b601f190160208401610be1565b634e487b7160e01b600052603260045260246000fd5b8054821015610c6157610c58600191600052602060002090565b91020190600090565b610c28565b90610c6f825190565b811015610c61576020809102010190565b634e487b7160e01b600052602260045260246000fd5b9060016002830492168015610cb6575b6020831014610cb157565b610c80565b91607f1691610ca6565b80546000939291610cdd610cd383610c96565b8085529360200190565b9160018116908115610d2f5750600114610cf657505050565b610d099192939450600052602060002090565b916000925b818410610d1b5750500190565b805484840152602090930192600101610d0e565b92949550505060ff1916825215156020020190565b9061017891610cc0565b90610162610d6892610d5f60405190565b93848092610d44565b0383610996565b90610162610dbd6003610d80610bac565b94610d91610d8d8261072a565b8752565b610da7610da060018301610d4e565b6020880152565b610a1b610db660028301610d4e565b6040880152565b6060840152565b61017890610d6f565b6007610ddf610dda825490565b610c05565b90610dea6000610883565b610df5610178835490565b811015610e4757610e4290610e26610e216006610e1b610e158588610c3e565b906103b4565b90610890565b610dc4565b610e308286610c66565b52610e3b8185610c66565b5060010190565b610dea565b505090565b6101789061056c565b6101789054610e4c565b15610e6657565b60405162461bcd60e51b815260206004820152602260248201527f4f6e6c792061646d696e2063616e20706572666f726d2074686973206163746960448201526137b760f11b6064820152608490fd5b90610162939291610ed4610ecd61056c6000610e55565b3314610e5f565b611193565b67ffffffffffffffff81116109b857602090601f01601f19160190565b90826000939282370152565b90929192610f12610ba282610ed9565b938185528183011161014757610162916020850190610ef6565b610178913691610f02565b9160001960089290920291821b911b61090a565b9190610f5c61017861092b93610883565b908354610f37565b61016291600091610f4b565b818110610f7b575050565b80610f896000600193610f64565b01610f70565b9190601f8111610f9e57505050565b610fb061016293600052602060002090565b906020601f840181900483019310610fd2575b6020601f909101040190610f70565b9091508190610fc3565b90610fe5815190565b9067ffffffffffffffff82116109b857611009826110038554610c96565b85610f8f565b602090601f83116001146110445761092b929160009183611039575b5050600019600883021c1916906002021790565b015190503880611025565b601f1983169161105985600052602060002090565b9260005b8181106110975750916002939185600196941061107e575b50505002019055565b01516000196008601f8516021c19169055388080611075565b9193602060018192878701518155019501920161105d565b9061016291610fdc565b600361110b6060610162946110d86110d2600083015190565b86610914565b6110ef6110e6602083015190565b600187016110af565b6111066110fd604083015190565b600287016110af565b015190565b9101610914565b90610162916110b9565b90815491680100000000000000008310156109b8578261114491600161016295018155610c3e565b90610f4b565b91906101f981611161816102039560209181520190565b8095610ef6565b92906111859061017895936040860191868303600088015261114a565b92602081850391015261114a565b61125b7f0ec1a365aeeec255796bf50d7a2a8f24d0d5f5c6ada0167b6c647428d916458293946112486111c6600561072a565b6111d96111d2826108f0565b6005610914565b6112386111e4610bac565b6111ec838252565b6112006111f98989610f2c565b6020830152565b61121461120d868c610f2c565b6040830152565b6112286112216000610883565b6060830152565b611233836006610890565b611112565b61124381600761111c565b610883565b9561125260405190565b94859485611168565b0390a2565b90610162939291610eb6565b61127c610ecd61056c6000610e55565b6101626112c4565b1561128b57565b60405162461bcd60e51b8152602060048201526011602482015270566f74696e67206e6f742061637469766560781b6044820152606490fd5b6112d66112d160026106d6565b611284565b6112e260006002610938565b6112ed426004610914565b7f74fd836262d1ad6bbd13b40f5a80a5415f4d2db6ee1d7d8f9c9bb515d9f04e0161131b6103e6600461072a565b0390a1565b61016261126c565b6003610a1b61017892611339600090565b506006610890565b610e2161017891611339610bd9565b61135a60026106d6565b8061137c575b806113685790565b50611376610178600461072a565b42111590565b5061138a610178600361072a565b421015611360565b369037565b906101626113a7610c1584610b95565b601f190160208401611392565b60076113c66113c1825490565b611397565b906113d16000610883565b6113dc610178835490565b811015610e47576114149061140e6114016003610a1b6006610e1b610e15878a610c3e565b61140b8387610c66565b52565b60010190565b6113d1565b1561142057565b60405162461bcd60e51b815260206004820152601e60248201527f4e6f20766f746520666f756e6420666f722074686973206164647265737300006044820152606490fd5b61149261017891611474600090565b5061148b6114866108708360086107fb565b611419565b600a6107fb565b61072a565b610178600161072a565b610162906114b5610ecd61056c6000610e55565b61150b565b156114c157565b60405162461bcd60e51b8152602060048201526015602482015274566f74696e6720616c72656164792061637469766560581b6044820152606490fd5b919082018092116108ff57565b61154461154b9161152761152261087560026106d6565b6114ba565b61153360016002610938565b61153e426003610914565b426114fe565b6004610914565b7fe280a408633821740a429fb671e01cacf8d1d70d5c2735f4f94ec0edef4ea6de611576600361072a565b611580600461072a565b9061131b610b5260405190565b610162906114a1565b611492610178916115a5600090565b506115b76114866108708360086107fb565b600b6107fb565b610870610178916115cd600090565b5060086107fb565b611492610178916115e4600090565b506115f66114866108708360086107fb565b60096107fb56fea26469706673582212203ac7354326c6376c01f7d51946388e080a41417150ff6a7bf4094c5da4f5727064736f6c634300081c0033","opcodes":"PUSH1 0x80 PUSH1 0x40 MSTORE CALLVALUE PUSH1 0x1F JUMPI PUSH1 0xE PUSH1 0xA3 JUMP JUMPDEST PUSH1 0x40 MLOAD PUSH2 0x1633 PUSH2 0xB8 DUP3 CODECOPY PUSH2 0x1633 SWAP1 RETURN JUMPDEST PUSH1 0x0 DUP1 REVERT JUMPDEST SWAP1 PUSH1 0x1 PUSH1 0x1 PUSH1 0xA0 SHL SUB SWAP1 JUMPDEST SWAP2 DUP2 NOT AND SWAP2 AND OR SWAP1 JUMP JUMPDEST PUSH1 0x4B SWAP1 PUSH1 0x4E SWAP1 PUSH1 0x1 PUSH1 0x1 PUSH1 0xA0 SHL SUB AND DUP3 JUMP JUMPDEST SWAP1 JUMP JUMPDEST PUSH1 0x1 PUSH1 0x1 PUSH1 0xA0 SHL SUB AND SWAP1 JUMP JUMPDEST PUSH1 0x4B SWAP1 PUSH1 0x39 JUMP JUMPDEST PUSH1 0x4B SWAP1 PUSH1 0x5A JUMP JUMPDEST SWAP1 PUSH1 0x74 PUSH1 0x4B PUSH1 0x7A SWAP3 PUSH1 0x61 JUMP JUMPDEST DUP3 SLOAD PUSH1 0x24 JUMP JUMPDEST SWAP1 SSTORE JUMP JUMPDEST SWAP1 PUSH1 0x0 NOT SWAP1 PUSH1 0x2F JUMP JUMPDEST PUSH1 0x4B PUSH1 0x4B PUSH1 0x4B SWAP3 SWAP1 JUMP JUMPDEST SWAP1 PUSH1 0x9D PUSH1 0x4B PUSH1 0x7A SWAP3 PUSH1 0x87 JUMP JUMPDEST DUP3 SLOAD PUSH1 0x7E JUMP JUMPDEST PUSH1 0xAC CALLER PUSH1 0x0 PUSH1 0x68 JUMP JUMPDEST PUSH1 0xB5 TIMESTAMP PUSH1 0x1 PUSH1 0x91 JUMP JUMPDEST JUMP INVALID PUSH1 0x80 PUSH1 0x40 MSTORE PUSH1 0x4 CALLDATASIZE LT ISZERO PUSH2 0x12 JUMPI PUSH1 0x0 DUP1 REVERT JUMPDEST PUSH1 0x0 CALLDATALOAD PUSH1 0xE0 SHR DUP1 PUSH4 0x121B93F EQ PUSH2 0x142 JUMPI DUP1 PUSH4 0x6A49FCE EQ PUSH2 0x13D JUMPI DUP1 PUSH4 0xDBCE4DD EQ PUSH2 0x138 JUMPI DUP1 PUSH4 0x17A0AD8E EQ PUSH2 0x133 JUMPI DUP1 PUSH4 0x1EA736E0 EQ PUSH2 0x12E JUMPI DUP1 PUSH4 0x2019A608 EQ PUSH2 0x129 JUMPI DUP1 PUSH4 0x2CE35E11 EQ PUSH2 0x124 JUMPI DUP1 PUSH4 0x35B8E820 EQ PUSH2 0x11F JUMPI DUP1 PUSH4 0x408E2727 EQ PUSH2 0x11A JUMPI DUP1 PUSH4 0x47CF6F76 EQ PUSH2 0x115 JUMPI DUP1 PUSH4 0x851B6EF2 EQ PUSH2 0x110 JUMPI DUP1 PUSH4 0x959812F8 EQ PUSH2 0x10B JUMPI DUP1 PUSH4 0x96A379D8 EQ PUSH2 0x106 JUMPI DUP1 PUSH4 0x9980A55A EQ PUSH2 0x101 JUMPI DUP1 PUSH4 0xBFC12C05 EQ PUSH2 0xFC JUMPI DUP1 PUSH4 0xE061A858 EQ PUSH2 0xF7 JUMPI DUP1 PUSH4 0xE3E6CA7D EQ PUSH2 0xF2 JUMPI DUP1 PUSH4 0xEDAA5DFC EQ PUSH2 0xED JUMPI PUSH4 0xF851A440 SUB PUSH2 0x147 JUMPI PUSH2 0x698 JUMP JUMPDEST PUSH2 0x653 JUMP JUMPDEST PUSH2 0x638 JUMP JUMPDEST PUSH2 0x61D JUMP JUMPDEST PUSH2 0x602 JUMP JUMPDEST PUSH2 0x5DE JUMP JUMPDEST PUSH2 0x5C3 JUMP JUMPDEST PUSH2 0x5A8 JUMP JUMPDEST PUSH2 0x545 JUMP JUMPDEST PUSH2 0x4C3 JUMP JUMPDEST PUSH2 0x496 JUMP JUMPDEST PUSH2 0x449 JUMP JUMPDEST PUSH2 0x41D JUMP JUMPDEST PUSH2 0x402 JUMP JUMPDEST PUSH2 0x3CB JUMP JUMPDEST PUSH2 0x391 JUMP JUMPDEST PUSH2 0x375 JUMP JUMPDEST PUSH2 0x2D0 JUMP JUMPDEST PUSH2 0x17B JUMP JUMPDEST PUSH1 0x0 DUP1 REVERT JUMPDEST DUP1 JUMPDEST SUB PUSH2 0x147 JUMPI JUMP JUMPDEST SWAP1 POP CALLDATALOAD SWAP1 PUSH2 0x162 DUP3 PUSH2 0x14C JUMP JUMPDEST JUMP JUMPDEST SWAP1 PUSH1 0x20 DUP3 DUP3 SUB SLT PUSH2 0x147 JUMPI PUSH2 0x178 SWAP2 PUSH2 0x155 JUMP JUMPDEST SWAP1 JUMP JUMPDEST CALLVALUE PUSH2 0x147 JUMPI PUSH2 0x193 PUSH2 0x18E CALLDATASIZE PUSH1 0x4 PUSH2 0x164 JUMP JUMPDEST PUSH2 0xB60 JUMP JUMPDEST PUSH1 0x40 MLOAD DUP1 DUP1 JUMPDEST SUB SWAP1 RETURN JUMPDEST PUSH1 0x0 SWAP2 SUB SLT PUSH2 0x147 JUMPI JUMP JUMPDEST SWAP1 MSTORE JUMP JUMPDEST PUSH1 0x0 JUMPDEST DUP4 DUP2 LT PUSH2 0x1BF JUMPI POP POP PUSH1 0x0 SWAP2 ADD MSTORE JUMP JUMPDEST DUP2 DUP2 ADD MLOAD DUP4 DUP3 ADD MSTORE PUSH1 0x20 ADD PUSH2 0x1AF JUMP JUMPDEST PUSH2 0x1F0 PUSH2 0x1F9 PUSH1 0x20 SWAP4 PUSH2 0x203 SWAP4 PUSH2 0x1E4 DUP2 MLOAD SWAP1 JUMP JUMPDEST DUP1 DUP4 MSTORE SWAP4 DUP5 SWAP3 PUSH1 0x20 ADD SWAP1 JUMP JUMPDEST SWAP6 DUP7 SWAP2 ADD PUSH2 0x1AC JUMP JUMPDEST PUSH1 0x1F ADD PUSH1 0x1F NOT AND SWAP1 JUMP JUMPDEST ADD SWAP1 JUMP JUMPDEST DUP1 MLOAD DUP3 MSTORE SWAP1 PUSH2 0x178 SWAP1 PUSH1 0x60 DUP1 PUSH2 0x241 PUSH2 0x22F PUSH1 0x80 DUP6 ADD PUSH1 0x20 DUP9 ADD MLOAD DUP7 DUP3 SUB PUSH1 0x20 DUP9 ADD MSTORE PUSH2 0x1CF JUMP JUMPDEST PUSH1 0x40 DUP8 ADD MLOAD DUP6 DUP3 SUB PUSH1 0x40 DUP8 ADD MSTORE PUSH2 0x1CF JUMP JUMPDEST SWAP5 ADD MLOAD SWAP2 ADD MSTORE JUMP JUMPDEST SWAP1 PUSH2 0x178 SWAP2 PUSH2 0x207 JUMP JUMPDEST SWAP1 PUSH2 0x269 PUSH2 0x25F DUP4 MLOAD SWAP1 JUMP JUMPDEST DUP1 DUP4 MSTORE SWAP2 PUSH1 0x20 ADD SWAP1 JUMP JUMPDEST SWAP1 DUP2 PUSH2 0x27B PUSH1 0x20 DUP4 MUL DUP5 ADD SWAP5 PUSH1 0x20 ADD SWAP1 JUMP JUMPDEST SWAP3 PUSH1 0x0 SWAP2 JUMPDEST DUP4 DUP4 LT PUSH2 0x28F JUMPI POP POP POP POP POP SWAP1 JUMP JUMPDEST SWAP1 SWAP2 SWAP3 SWAP4 SWAP5 PUSH1 0x20 PUSH2 0x2B2 PUSH2 0x2AB DUP4 DUP6 PUSH1 0x1 SWAP6 SUB DUP8 MSTORE DUP10 MLOAD PUSH2 0x249 JUMP JUMPDEST SWAP8 PUSH1 0x20 ADD SWAP1 JUMP JUMPDEST SWAP4 ADD SWAP4 ADD SWAP2 SWAP4 SWAP3 SWAP1 PUSH2 0x280 JUMP JUMPDEST PUSH1 0x20 DUP1 DUP3 MSTORE PUSH2 0x178 SWAP3 SWAP2 ADD SWAP1 PUSH2 0x253 JUMP JUMPDEST CALLVALUE PUSH2 0x147 JUMPI PUSH2 0x2E0 CALLDATASIZE PUSH1 0x4 PUSH2 0x19D JUMP JUMPDEST PUSH2 0x199 PUSH2 0x2EB PUSH2 0xDCD JUMP JUMPDEST PUSH1 0x40 MLOAD SWAP2 DUP3 SWAP2 DUP3 PUSH2 0x2BF JUMP JUMPDEST SWAP1 SWAP2 DUP3 PUSH1 0x1F DUP4 ADD SLT ISZERO PUSH2 0x147 JUMPI DUP2 CALLDATALOAD SWAP2 PUSH8 0xFFFFFFFFFFFFFFFF DUP4 GT PUSH2 0x147 JUMPI PUSH1 0x20 ADD SWAP3 PUSH1 0x1 DUP4 MUL DUP5 ADD GT PUSH2 0x147 JUMPI JUMP JUMPDEST SWAP1 SWAP2 PUSH1 0x40 DUP3 DUP5 SUB SLT PUSH2 0x147 JUMPI DUP2 CALLDATALOAD PUSH8 0xFFFFFFFFFFFFFFFF DUP2 GT PUSH2 0x147 JUMPI DUP4 PUSH2 0x350 SWAP2 DUP5 ADD PUSH2 0x2F7 JUMP JUMPDEST SWAP3 SWAP1 SWAP4 PUSH1 0x20 DUP3 ADD CALLDATALOAD PUSH8 0xFFFFFFFFFFFFFFFF DUP2 GT PUSH2 0x147 JUMPI PUSH2 0x371 SWAP3 ADD PUSH2 0x2F7 JUMP JUMPDEST SWAP1 SWAP2 JUMP JUMPDEST CALLVALUE PUSH2 0x147 JUMPI PUSH2 0x193 PUSH2 0x388 CALLDATASIZE PUSH1 0x4 PUSH2 0x327 JUMP JUMPDEST SWAP3 SWAP2 SWAP1 SWAP2 PUSH2 0x1260 JUMP JUMPDEST CALLVALUE PUSH2 0x147 JUMPI PUSH2 0x3A1 CALLDATASIZE PUSH1 0x4 PUSH2 0x19D JUMP JUMPDEST PUSH2 0x193 PUSH2 0x1320 JUMP JUMPDEST PUSH2 0x178 SWAP2 PUSH1 0x8 MUL SHR DUP2 JUMP JUMPDEST SWAP1 PUSH2 0x178 SWAP2 SLOAD PUSH2 0x3A9 JUMP JUMPDEST PUSH2 0x178 PUSH1 0x0 PUSH1 0x4 PUSH2 0x3B4 JUMP JUMPDEST CALLVALUE PUSH2 0x147 JUMPI PUSH2 0x3DB CALLDATASIZE PUSH1 0x4 PUSH2 0x19D JUMP JUMPDEST PUSH2 0x199 PUSH2 0x3E6 PUSH2 0x3BF JUMP JUMPDEST PUSH1 0x40 MLOAD SWAP2 DUP3 SWAP2 DUP3 SWAP1 DUP2 MSTORE PUSH1 0x20 ADD SWAP1 JUMP JUMPDEST PUSH2 0x178 PUSH1 0x0 PUSH1 0x3 PUSH2 0x3B4 JUMP JUMPDEST CALLVALUE PUSH2 0x147 JUMPI PUSH2 0x412 CALLDATASIZE PUSH1 0x4 PUSH2 0x19D JUMP JUMPDEST PUSH2 0x199 PUSH2 0x3E6 PUSH2 0x3F6 JUMP JUMPDEST CALLVALUE PUSH2 0x147 JUMPI PUSH2 0x199 PUSH2 0x3E6 PUSH2 0x433 CALLDATASIZE PUSH1 0x4 PUSH2 0x164 JUMP JUMPDEST PUSH2 0x1328 JUMP JUMPDEST PUSH1 0x20 DUP1 DUP3 MSTORE PUSH2 0x178 SWAP3 SWAP2 ADD SWAP1 PUSH2 0x207 JUMP JUMPDEST CALLVALUE PUSH2 0x147 JUMPI PUSH2 0x199 PUSH2 0x464 PUSH2 0x45F CALLDATASIZE PUSH1 0x4 PUSH2 0x164 JUMP JUMPDEST PUSH2 0x1341 JUMP JUMPDEST PUSH1 0x40 MLOAD SWAP2 DUP3 SWAP2 DUP3 PUSH2 0x438 JUMP JUMPDEST PUSH2 0x178 SWAP2 PUSH1 0x8 MUL SHR JUMPDEST PUSH1 0xFF AND SWAP1 JUMP JUMPDEST SWAP1 PUSH2 0x178 SWAP2 SLOAD PUSH2 0x470 JUMP JUMPDEST PUSH2 0x178 PUSH1 0x0 PUSH1 0x2 PUSH2 0x47F JUMP JUMPDEST CALLVALUE PUSH2 0x147 JUMPI PUSH2 0x4A6 CALLDATASIZE PUSH1 0x4 PUSH2 0x19D JUMP JUMPDEST PUSH2 0x199 PUSH2 0x4B1 PUSH2 0x48A JUMP JUMPDEST PUSH1 0x40 MLOAD SWAP2 DUP3 SWAP2 DUP3 SWAP1 ISZERO ISZERO DUP2 MSTORE PUSH1 0x20 ADD SWAP1 JUMP JUMPDEST CALLVALUE PUSH2 0x147 JUMPI PUSH2 0x4D3 CALLDATASIZE PUSH1 0x4 PUSH2 0x19D JUMP JUMPDEST PUSH2 0x199 PUSH2 0x4B1 PUSH2 0x1350 JUMP JUMPDEST SWAP1 PUSH2 0x4FE PUSH2 0x4F7 PUSH2 0x4ED DUP5 MLOAD SWAP1 JUMP JUMPDEST DUP1 DUP5 MSTORE SWAP3 PUSH1 0x20 ADD SWAP1 JUMP JUMPDEST SWAP3 PUSH1 0x20 ADD SWAP1 JUMP JUMPDEST SWAP1 PUSH1 0x0 JUMPDEST DUP2 DUP2 LT PUSH2 0x50F JUMPI POP POP POP SWAP1 JUMP JUMPDEST SWAP1 SWAP2 SWAP3 PUSH2 0x52C PUSH2 0x525 PUSH1 0x1 SWAP3 DUP7 MLOAD DUP2 MSTORE PUSH1 0x20 ADD SWAP1 JUMP JUMPDEST SWAP5 PUSH1 0x20 ADD SWAP1 JUMP JUMPDEST SWAP3 SWAP2 ADD PUSH2 0x502 JUMP JUMPDEST PUSH1 0x20 DUP1 DUP3 MSTORE PUSH2 0x178 SWAP3 SWAP2 ADD SWAP1 PUSH2 0x4DE JUMP JUMPDEST CALLVALUE PUSH2 0x147 JUMPI PUSH2 0x555 CALLDATASIZE PUSH1 0x4 PUSH2 0x19D JUMP JUMPDEST PUSH2 0x199 PUSH2 0x560 PUSH2 0x13B4 JUMP JUMPDEST PUSH1 0x40 MLOAD SWAP2 DUP3 SWAP2 DUP3 PUSH2 0x534 JUMP JUMPDEST PUSH1 0x1 PUSH1 0x1 PUSH1 0xA0 SHL SUB AND SWAP1 JUMP JUMPDEST PUSH1 0x1 PUSH1 0x1 PUSH1 0xA0 SHL SUB DUP2 AND PUSH2 0x14E JUMP JUMPDEST SWAP1 POP CALLDATALOAD SWAP1 PUSH2 0x162 DUP3 PUSH2 0x578 JUMP JUMPDEST SWAP1 PUSH1 0x20 DUP3 DUP3 SUB SLT PUSH2 0x147 JUMPI PUSH2 0x178 SWAP2 PUSH2 0x587 JUMP JUMPDEST CALLVALUE PUSH2 0x147 JUMPI PUSH2 0x199 PUSH2 0x3E6 PUSH2 0x5BE CALLDATASIZE PUSH1 0x4 PUSH2 0x594 JUMP JUMPDEST PUSH2 0x1465 JUMP JUMPDEST CALLVALUE PUSH2 0x147 JUMPI PUSH2 0x5D3 CALLDATASIZE PUSH1 0x4 PUSH2 0x19D JUMP JUMPDEST PUSH2 0x199 PUSH2 0x3E6 PUSH2 0x1497 JUMP JUMPDEST CALLVALUE PUSH2 0x147 JUMPI PUSH2 0x193 PUSH2 0x5F1 CALLDATASIZE PUSH1 0x4 PUSH2 0x164 JUMP JUMPDEST PUSH2 0x158D JUMP JUMPDEST PUSH2 0x178 PUSH1 0x0 PUSH1 0x1 PUSH2 0x3B4 JUMP JUMPDEST CALLVALUE PUSH2 0x147 JUMPI PUSH2 0x612 CALLDATASIZE PUSH1 0x4 PUSH2 0x19D JUMP JUMPDEST PUSH2 0x199 PUSH2 0x3E6 PUSH2 0x5F6 JUMP JUMPDEST CALLVALUE PUSH2 0x147 JUMPI PUSH2 0x199 PUSH2 0x3E6 PUSH2 0x633 CALLDATASIZE PUSH1 0x4 PUSH2 0x594 JUMP JUMPDEST PUSH2 0x1596 JUMP JUMPDEST CALLVALUE PUSH2 0x147 JUMPI PUSH2 0x199 PUSH2 0x4B1 PUSH2 0x64E CALLDATASIZE PUSH1 0x4 PUSH2 0x594 JUMP JUMPDEST PUSH2 0x15BE JUMP JUMPDEST CALLVALUE PUSH2 0x147 JUMPI PUSH2 0x199 PUSH2 0x3E6 PUSH2 0x669 CALLDATASIZE PUSH1 0x4 PUSH2 0x594 JUMP JUMPDEST PUSH2 0x15D5 JUMP JUMPDEST PUSH2 0x178 SWAP2 PUSH1 0x8 MUL SHR PUSH1 0x1 PUSH1 0x1 PUSH1 0xA0 SHL SUB AND SWAP1 JUMP JUMPDEST SWAP1 PUSH2 0x178 SWAP2 SLOAD PUSH2 0x66E JUMP JUMPDEST PUSH2 0x178 PUSH1 0x0 DUP1 PUSH2 0x682 JUMP JUMPDEST CALLVALUE PUSH2 0x147 JUMPI PUSH2 0x6A8 CALLDATASIZE PUSH1 0x4 PUSH2 0x19D JUMP JUMPDEST PUSH2 0x199 PUSH2 0x6B3 PUSH2 0x68D JUMP JUMPDEST PUSH1 0x40 MLOAD SWAP2 DUP3 SWAP2 DUP3 PUSH1 0x1 PUSH1 0x1 PUSH1 0xA0 SHL SUB SWAP1 SWAP2 AND DUP2 MSTORE PUSH1 0x20 ADD SWAP1 JUMP JUMPDEST PUSH2 0x178 SWAP1 PUSH2 0x479 JUMP JUMPDEST PUSH2 0x178 SWAP1 SLOAD PUSH2 0x6CD JUMP JUMPDEST ISZERO PUSH2 0x6E7 JUMPI JUMP JUMPDEST PUSH1 0x40 MLOAD PUSH3 0x461BCD PUSH1 0xE5 SHL DUP2 MSTORE PUSH1 0x20 PUSH1 0x4 DUP3 ADD MSTORE PUSH1 0x14 PUSH1 0x24 DUP3 ADD MSTORE PUSH20 0x566F74696E67206973206E6F7420616374697665 PUSH1 0x60 SHL PUSH1 0x44 DUP3 ADD MSTORE PUSH1 0x64 SWAP1 REVERT JUMPDEST PUSH2 0x178 SWAP1 DUP2 JUMP JUMPDEST PUSH2 0x178 SWAP1 SLOAD PUSH2 0x723 JUMP JUMPDEST ISZERO PUSH2 0x73B JUMPI JUMP JUMPDEST PUSH1 0x40 MLOAD PUSH3 0x461BCD PUSH1 0xE5 SHL DUP2 MSTORE PUSH1 0x20 PUSH1 0x4 DUP3 ADD MSTORE PUSH1 0x1C PUSH1 0x24 DUP3 ADD MSTORE PUSH32 0x566F74696E67206E6F7420696E20616C6C6F77656420706572696F6400000000 PUSH1 0x44 DUP3 ADD MSTORE PUSH1 0x64 SWAP1 REVERT JUMPDEST PUSH2 0x162 SWAP1 PUSH2 0x796 PUSH2 0x791 PUSH1 0x2 PUSH2 0x6D6 JUMP JUMPDEST PUSH2 0x6E0 JUMP JUMPDEST PUSH2 0x7A3 PUSH2 0x178 PUSH1 0x3 PUSH2 0x72A JUMP JUMPDEST TIMESTAMP LT ISZERO DUP1 PUSH2 0x7BA JUMPI JUMPDEST PUSH2 0x7B5 SWAP1 PUSH2 0x734 JUMP JUMPDEST PUSH2 0x858 JUMP JUMPDEST POP PUSH2 0x7B5 PUSH2 0x7CB PUSH2 0x178 PUSH1 0x4 PUSH2 0x72A JUMP JUMPDEST TIMESTAMP GT ISZERO SWAP1 POP PUSH2 0x7AC JUMP JUMPDEST PUSH2 0x178 SWAP1 PUSH2 0x56C SWAP1 PUSH1 0x1 PUSH1 0x1 PUSH1 0xA0 SHL SUB AND DUP3 JUMP JUMPDEST PUSH2 0x178 SWAP1 PUSH2 0x7D5 JUMP JUMPDEST PUSH2 0x178 SWAP1 PUSH2 0x7E9 JUMP JUMPDEST SWAP1 PUSH2 0x805 SWAP1 PUSH2 0x7F2 JUMP JUMPDEST PUSH1 0x0 MSTORE PUSH1 0x20 MSTORE PUSH1 0x40 PUSH1 0x0 KECCAK256 SWAP1 JUMP JUMPDEST ISZERO PUSH2 0x81A JUMPI JUMP JUMPDEST PUSH1 0x40 MLOAD PUSH3 0x461BCD PUSH1 0xE5 SHL DUP2 MSTORE PUSH1 0x20 PUSH1 0x4 DUP3 ADD MSTORE PUSH1 0x16 PUSH1 0x24 DUP3 ADD MSTORE PUSH22 0x165BDD481A185D9948185B1C9958591E481D9BDD1959 PUSH1 0x52 SHL PUSH1 0x44 DUP3 ADD MSTORE PUSH1 0x64 SWAP1 REVERT JUMPDEST PUSH2 0x162 SWAP1 PUSH2 0x87E PUSH2 0x879 PUSH2 0x875 PUSH2 0x870 CALLER PUSH1 0x8 PUSH2 0x7FB JUMP JUMPDEST PUSH2 0x6D6 JUMP JUMPDEST ISZERO SWAP1 JUMP JUMPDEST PUSH2 0x813 JUMP JUMPDEST PUSH2 0xA08 JUMP JUMPDEST PUSH2 0x178 PUSH2 0x178 PUSH2 0x178 SWAP3 SWAP1 JUMP JUMPDEST SWAP1 PUSH2 0x805 SWAP1 PUSH2 0x883 JUMP JUMPDEST ISZERO PUSH2 0x8A1 JUMPI JUMP JUMPDEST PUSH1 0x40 MLOAD PUSH3 0x461BCD PUSH1 0xE5 SHL DUP2 MSTORE PUSH1 0x20 PUSH1 0x4 DUP3 ADD MSTORE PUSH1 0x11 PUSH1 0x24 DUP3 ADD MSTORE PUSH17 0x496E76616C69642063616E646964617465 PUSH1 0x78 SHL PUSH1 0x44 DUP3 ADD MSTORE PUSH1 0x64 SWAP1 REVERT JUMPDEST PUSH4 0x4E487B71 PUSH1 0xE0 SHL PUSH1 0x0 MSTORE PUSH1 0x11 PUSH1 0x4 MSTORE PUSH1 0x24 PUSH1 0x0 REVERT JUMPDEST PUSH1 0x0 NOT DUP2 EQ PUSH2 0x8FF JUMPI PUSH1 0x1 ADD SWAP1 JUMP JUMPDEST PUSH2 0x8DA JUMP JUMPDEST SWAP1 PUSH1 0x0 NOT SWAP1 JUMPDEST SWAP2 DUP2 NOT AND SWAP2 AND OR SWAP1 JUMP JUMPDEST SWAP1 PUSH2 0x924 PUSH2 0x178 PUSH2 0x92B SWAP3 PUSH2 0x883 JUMP JUMPDEST DUP3 SLOAD PUSH2 0x904 JUMP JUMPDEST SWAP1 SSTORE JUMP JUMPDEST SWAP1 PUSH1 0xFF SWAP1 PUSH2 0x90A JUMP JUMPDEST SWAP1 PUSH2 0x948 PUSH2 0x178 PUSH2 0x92B SWAP3 ISZERO ISZERO SWAP1 JUMP JUMPDEST DUP3 SLOAD PUSH2 0x92F JUMP JUMPDEST PUSH2 0x1A8 SWAP1 PUSH1 0x1 PUSH1 0x1 PUSH1 0xA0 SHL SUB AND PUSH1 0x60 SHL SWAP1 JUMP JUMPDEST PUSH1 0x20 SWAP4 SWAP3 PUSH2 0x97A PUSH1 0x14 DUP4 PUSH2 0x97A DUP9 SWAP6 PUSH2 0x203 SWAP8 PUSH2 0x94F JUMP JUMPDEST ADD SWAP2 DUP3 MSTORE JUMP JUMPDEST PUSH4 0x4E487B71 PUSH1 0xE0 SHL PUSH1 0x0 MSTORE PUSH1 0x41 PUSH1 0x4 MSTORE PUSH1 0x24 PUSH1 0x0 REVERT JUMPDEST SWAP1 PUSH1 0x1F ADD PUSH1 0x1F NOT AND DUP2 ADD SWAP1 DUP2 LT PUSH8 0xFFFFFFFFFFFFFFFF DUP3 GT OR PUSH2 0x9B8 JUMPI PUSH1 0x40 MSTORE JUMP JUMPDEST PUSH2 0x980 JUMP JUMPDEST SWAP1 PUSH2 0x924 PUSH2 0x178 PUSH2 0x92B SWAP3 SWAP1 JUMP JUMPDEST SWAP2 SWAP1 DUP3 SUB SWAP2 DUP3 GT PUSH2 0x8FF JUMPI JUMP JUMPDEST SWAP3 PUSH2 0x97A PUSH1 0x20 PUSH2 0x203 SWAP5 PUSH2 0x97A PUSH1 0x14 DUP9 PUSH2 0x97A DUP6 SWAP12 SWAP11 DUP7 SWAP10 PUSH2 0x94F JUMP JUMPDEST SWAP1 DUP2 MSTORE PUSH1 0x40 DUP2 ADD SWAP3 SWAP2 PUSH2 0x162 SWAP2 PUSH1 0x20 ADD MSTORE JUMP JUMPDEST PUSH2 0xA28 PUSH2 0xA21 PUSH1 0x0 PUSH2 0xA1B DUP5 PUSH1 0x6 PUSH2 0x890 JUMP JUMPDEST ADD PUSH2 0x72A JUMP JUMPDEST DUP3 EQ PUSH2 0x89A JUMP JUMPDEST PUSH2 0xA50 PUSH1 0x3 PUSH2 0xA38 DUP4 PUSH1 0x6 PUSH2 0x890 JUMP JUMPDEST ADD PUSH2 0xA4A PUSH2 0xA45 DUP3 PUSH2 0x72A JUMP JUMPDEST PUSH2 0x8F0 JUMP JUMPDEST SWAP1 PUSH2 0x914 JUMP JUMPDEST PUSH2 0xA65 PUSH1 0x1 PUSH2 0xA60 CALLER PUSH1 0x8 PUSH2 0x7FB JUMP JUMPDEST PUSH2 0x938 JUMP JUMPDEST PUSH2 0xA79 DUP2 PUSH2 0xA74 CALLER PUSH1 0x9 PUSH2 0x7FB JUMP JUMPDEST PUSH2 0x914 JUMP JUMPDEST PUSH1 0x40 MLOAD PUSH2 0xA9C DUP2 PUSH1 0x20 DUP2 ADD PUSH2 0xA90 TIMESTAMP DUP7 CALLER DUP5 PUSH2 0x962 JUMP JUMPDEST SWAP1 DUP2 SUB DUP3 MSTORE SUB DUP3 PUSH2 0x996 JUMP JUMPDEST PUSH2 0xAAE PUSH2 0xAA7 DUP3 MLOAD SWAP1 JUMP JUMPDEST SWAP2 PUSH1 0x20 ADD SWAP1 JUMP JUMPDEST KECCAK256 SWAP1 PUSH2 0xAC4 DUP3 PUSH2 0xABF CALLER PUSH1 0xA PUSH2 0x7FB JUMP JUMPDEST PUSH2 0x9BD JUMP JUMPDEST PUSH32 0xEFFD419499491389E01FE2774ED0A6FDDD60460399033FDA8E42CE83081DB172 PUSH2 0xAF8 PUSH2 0xAF2 PUSH1 0x1 PUSH2 0x883 JUMP JUMPDEST NUMBER PUSH2 0x9CB JUMP JUMPDEST PUSH2 0xB18 PUSH2 0xB04 PUSH1 0x40 MLOAD SWAP1 JUMP JUMPDEST DUP1 SWAP3 PUSH2 0xA90 PUSH1 0x20 DUP4 ADD SWAP2 BLOCKHASH NUMBER DUP9 CALLER DUP6 PUSH2 0x9D8 JUMP JUMPDEST PUSH2 0xB23 PUSH2 0xAA7 DUP3 MLOAD SWAP1 JUMP JUMPDEST KECCAK256 PUSH2 0xB33 DUP2 PUSH2 0xABF CALLER PUSH1 0xB PUSH2 0x7FB JUMP JUMPDEST PUSH2 0xB45 PUSH2 0xB3F CALLER PUSH2 0x7F2 JUMP JUMPDEST SWAP4 PUSH2 0x883 JUMP JUMPDEST SWAP4 PUSH2 0xB5B PUSH2 0xB52 PUSH1 0x40 MLOAD SWAP1 JUMP JUMPDEST SWAP3 DUP4 SWAP3 DUP4 PUSH2 0x9F5 JUMP JUMPDEST SUB SWAP1 LOG3 JUMP JUMPDEST PUSH2 0x162 SWAP1 PUSH2 0x780 JUMP JUMPDEST SWAP1 PUSH2 0x162 PUSH2 0xB76 PUSH1 0x40 MLOAD SWAP1 JUMP JUMPDEST SWAP3 DUP4 PUSH2 0x996 JUMP JUMPDEST PUSH8 0xFFFFFFFFFFFFFFFF DUP2 GT PUSH2 0x9B8 JUMPI PUSH1 0x20 DUP1 SWAP2 MUL ADD SWAP1 JUMP JUMPDEST SWAP1 PUSH2 0xBA7 PUSH2 0xBA2 DUP4 PUSH2 0xB7D JUMP JUMPDEST PUSH2 0xB69 JUMP JUMPDEST SWAP2 DUP3 MSTORE JUMP JUMPDEST PUSH2 0x178 PUSH1 0x80 PUSH2 0xB69 JUMP JUMPDEST PUSH2 0xBBE PUSH2 0xBAC JUMP JUMPDEST PUSH1 0x0 DUP1 DUP3 MSTORE PUSH1 0x60 PUSH1 0x20 DUP4 ADD DUP2 SWAP1 MSTORE PUSH1 0x40 DUP4 ADD DUP2 SWAP1 MSTORE DUP3 ADD MSTORE SWAP1 JUMP JUMPDEST PUSH2 0x178 PUSH2 0xBB6 JUMP JUMPDEST PUSH1 0x0 JUMPDEST DUP3 DUP2 LT PUSH2 0xBF0 JUMPI POP POP POP JUMP JUMPDEST PUSH1 0x20 SWAP1 PUSH2 0xBFB PUSH2 0xBD9 JUMP JUMPDEST DUP2 DUP5 ADD MSTORE ADD PUSH2 0xBE4 JUMP JUMPDEST SWAP1 PUSH2 0x162 PUSH2 0xC1B PUSH2 0xC15 DUP5 PUSH2 0xB95 JUMP JUMPDEST SWAP4 PUSH2 0xB7D JUMP JUMPDEST PUSH1 0x1F NOT ADD PUSH1 0x20 DUP5 ADD PUSH2 0xBE1 JUMP JUMPDEST PUSH4 0x4E487B71 PUSH1 0xE0 SHL PUSH1 0x0 MSTORE PUSH1 0x32 PUSH1 0x4 MSTORE PUSH1 0x24 PUSH1 0x0 REVERT JUMPDEST DUP1 SLOAD DUP3 LT ISZERO PUSH2 0xC61 JUMPI PUSH2 0xC58 PUSH1 0x1 SWAP2 PUSH1 0x0 MSTORE PUSH1 0x20 PUSH1 0x0 KECCAK256 SWAP1 JUMP JUMPDEST SWAP2 MUL ADD SWAP1 PUSH1 0x0 SWAP1 JUMP JUMPDEST PUSH2 0xC28 JUMP JUMPDEST SWAP1 PUSH2 0xC6F DUP3 MLOAD SWAP1 JUMP JUMPDEST DUP2 LT ISZERO PUSH2 0xC61 JUMPI PUSH1 0x20 DUP1 SWAP2 MUL ADD ADD SWAP1 JUMP JUMPDEST PUSH4 0x4E487B71 PUSH1 0xE0 SHL PUSH1 0x0 MSTORE PUSH1 0x22 PUSH1 0x4 MSTORE PUSH1 0x24 PUSH1 0x0 REVERT JUMPDEST SWAP1 PUSH1 0x1 PUSH1 0x2 DUP4 DIV SWAP3 AND DUP1 ISZERO PUSH2 0xCB6 JUMPI JUMPDEST PUSH1 0x20 DUP4 LT EQ PUSH2 0xCB1 JUMPI JUMP JUMPDEST PUSH2 0xC80 JUMP JUMPDEST SWAP2 PUSH1 0x7F AND SWAP2 PUSH2 0xCA6 JUMP JUMPDEST DUP1 SLOAD PUSH1 0x0 SWAP4 SWAP3 SWAP2 PUSH2 0xCDD PUSH2 0xCD3 DUP4 PUSH2 0xC96 JUMP JUMPDEST DUP1 DUP6 MSTORE SWAP4 PUSH1 0x20 ADD SWAP1 JUMP JUMPDEST SWAP2 PUSH1 0x1 DUP2 AND SWAP1 DUP2 ISZERO PUSH2 0xD2F JUMPI POP PUSH1 0x1 EQ PUSH2 0xCF6 JUMPI POP POP POP JUMP JUMPDEST PUSH2 0xD09 SWAP2 SWAP3 SWAP4 SWAP5 POP PUSH1 0x0 MSTORE PUSH1 0x20 PUSH1 0x0 KECCAK256 SWAP1 JUMP JUMPDEST SWAP2 PUSH1 0x0 SWAP3 JUMPDEST DUP2 DUP5 LT PUSH2 0xD1B JUMPI POP POP ADD SWAP1 JUMP JUMPDEST DUP1 SLOAD DUP5 DUP5 ADD MSTORE PUSH1 0x20 SWAP1 SWAP4 ADD SWAP3 PUSH1 0x1 ADD PUSH2 0xD0E JUMP JUMPDEST SWAP3 SWAP5 SWAP6 POP POP POP PUSH1 0xFF NOT AND DUP3 MSTORE ISZERO ISZERO PUSH1 0x20 MUL ADD SWAP1 JUMP JUMPDEST SWAP1 PUSH2 0x178 SWAP2 PUSH2 0xCC0 JUMP JUMPDEST SWAP1 PUSH2 0x162 PUSH2 0xD68 SWAP3 PUSH2 0xD5F PUSH1 0x40 MLOAD SWAP1 JUMP JUMPDEST SWAP4 DUP5 DUP1 SWAP3 PUSH2 0xD44 JUMP JUMPDEST SUB DUP4 PUSH2 0x996 JUMP JUMPDEST SWAP1 PUSH2 0x162 PUSH2 0xDBD PUSH1 0x3 PUSH2 0xD80 PUSH2 0xBAC JUMP JUMPDEST SWAP5 PUSH2 0xD91 PUSH2 0xD8D DUP3 PUSH2 0x72A JUMP JUMPDEST DUP8 MSTORE JUMP JUMPDEST PUSH2 0xDA7 PUSH2 0xDA0 PUSH1 0x1 DUP4 ADD PUSH2 0xD4E JUMP JUMPDEST PUSH1 0x20 DUP9 ADD MSTORE JUMP JUMPDEST PUSH2 0xA1B PUSH2 0xDB6 PUSH1 0x2 DUP4 ADD PUSH2 0xD4E JUMP JUMPDEST PUSH1 0x40 DUP9 ADD MSTORE JUMP JUMPDEST PUSH1 0x60 DUP5 ADD MSTORE JUMP JUMPDEST PUSH2 0x178 SWAP1 PUSH2 0xD6F JUMP JUMPDEST PUSH1 0x7 PUSH2 0xDDF PUSH2 0xDDA DUP3 SLOAD SWAP1 JUMP JUMPDEST PUSH2 0xC05 JUMP JUMPDEST SWAP1 PUSH2 0xDEA PUSH1 0x0 PUSH2 0x883 JUMP JUMPDEST PUSH2 0xDF5 PUSH2 0x178 DUP4 SLOAD SWAP1 JUMP JUMPDEST DUP2 LT ISZERO PUSH2 0xE47 JUMPI PUSH2 0xE42 SWAP1 PUSH2 0xE26 PUSH2 0xE21 PUSH1 0x6 PUSH2 0xE1B PUSH2 0xE15 DUP6 DUP9 PUSH2 0xC3E JUMP JUMPDEST SWAP1 PUSH2 0x3B4 JUMP JUMPDEST SWAP1 PUSH2 0x890 JUMP JUMPDEST PUSH2 0xDC4 JUMP JUMPDEST PUSH2 0xE30 DUP3 DUP7 PUSH2 0xC66 JUMP JUMPDEST MSTORE PUSH2 0xE3B DUP2 DUP6 PUSH2 0xC66 JUMP JUMPDEST POP PUSH1 0x1 ADD SWAP1 JUMP JUMPDEST PUSH2 0xDEA JUMP JUMPDEST POP POP SWAP1 JUMP JUMPDEST PUSH2 0x178 SWAP1 PUSH2 0x56C JUMP JUMPDEST PUSH2 0x178 SWAP1 SLOAD PUSH2 0xE4C JUMP JUMPDEST ISZERO PUSH2 0xE66 JUMPI JUMP JUMPDEST PUSH1 0x40 MLOAD PUSH3 0x461BCD PUSH1 0xE5 SHL DUP2 MSTORE PUSH1 0x20 PUSH1 0x4 DUP3 ADD MSTORE PUSH1 0x22 PUSH1 0x24 DUP3 ADD MSTORE PUSH32 0x4F6E6C792061646D696E2063616E20706572666F726D20746869732061637469 PUSH1 0x44 DUP3 ADD MSTORE PUSH2 0x37B7 PUSH1 0xF1 SHL PUSH1 0x64 DUP3 ADD MSTORE PUSH1 0x84 SWAP1 REVERT JUMPDEST SWAP1 PUSH2 0x162 SWAP4 SWAP3 SWAP2 PUSH2 0xED4 PUSH2 0xECD PUSH2 0x56C PUSH1 0x0 PUSH2 0xE55 JUMP JUMPDEST CALLER EQ PUSH2 0xE5F JUMP JUMPDEST PUSH2 0x1193 JUMP JUMPDEST PUSH8 0xFFFFFFFFFFFFFFFF DUP2 GT PUSH2 0x9B8 JUMPI PUSH1 0x20 SWAP1 PUSH1 0x1F ADD PUSH1 0x1F NOT AND ADD SWAP1 JUMP JUMPDEST SWAP1 DUP3 PUSH1 0x0 SWAP4 SWAP3 DUP3 CALLDATACOPY ADD MSTORE JUMP JUMPDEST SWAP1 SWAP3 SWAP2 SWAP3 PUSH2 0xF12 PUSH2 0xBA2 DUP3 PUSH2 0xED9 JUMP JUMPDEST SWAP4 DUP2 DUP6 MSTORE DUP2 DUP4 ADD GT PUSH2 0x147 JUMPI PUSH2 0x162 SWAP2 PUSH1 0x20 DUP6 ADD SWAP1 PUSH2 0xEF6 JUMP JUMPDEST PUSH2 0x178 SWAP2 CALLDATASIZE SWAP2 PUSH2 0xF02 JUMP JUMPDEST SWAP2 PUSH1 0x0 NOT PUSH1 0x8 SWAP3 SWAP1 SWAP3 MUL SWAP2 DUP3 SHL SWAP2 SHL PUSH2 0x90A JUMP JUMPDEST SWAP2 SWAP1 PUSH2 0xF5C PUSH2 0x178 PUSH2 0x92B SWAP4 PUSH2 0x883 JUMP JUMPDEST SWAP1 DUP4 SLOAD PUSH2 0xF37 JUMP JUMPDEST PUSH2 0x162 SWAP2 PUSH1 0x0 SWAP2 PUSH2 0xF4B JUMP JUMPDEST DUP2 DUP2 LT PUSH2 0xF7B JUMPI POP POP JUMP JUMPDEST DUP1 PUSH2 0xF89 PUSH1 0x0 PUSH1 0x1 SWAP4 PUSH2 0xF64 JUMP JUMPDEST ADD PUSH2 0xF70 JUMP JUMPDEST SWAP2 SWAP1 PUSH1 0x1F DUP2 GT PUSH2 0xF9E JUMPI POP POP POP JUMP JUMPDEST PUSH2 0xFB0 PUSH2 0x162 SWAP4 PUSH1 0x0 MSTORE PUSH1 0x20 PUSH1 0x0 KECCAK256 SWAP1 JUMP JUMPDEST SWAP1 PUSH1 0x20 PUSH1 0x1F DUP5 ADD DUP2 SWAP1 DIV DUP4 ADD SWAP4 LT PUSH2 0xFD2 JUMPI JUMPDEST PUSH1 0x20 PUSH1 0x1F SWAP1 SWAP2 ADD DIV ADD SWAP1 PUSH2 0xF70 JUMP JUMPDEST SWAP1 SWAP2 POP DUP2 SWAP1 PUSH2 0xFC3 JUMP JUMPDEST SWAP1 PUSH2 0xFE5 DUP2 MLOAD SWAP1 JUMP JUMPDEST SWAP1 PUSH8 0xFFFFFFFFFFFFFFFF DUP3 GT PUSH2 0x9B8 JUMPI PUSH2 0x1009 DUP3 PUSH2 0x1003 DUP6 SLOAD PUSH2 0xC96 JUMP JUMPDEST DUP6 PUSH2 0xF8F JUMP JUMPDEST PUSH1 0x20 SWAP1 PUSH1 0x1F DUP4 GT PUSH1 0x1 EQ PUSH2 0x1044 JUMPI PUSH2 0x92B SWAP3 SWAP2 PUSH1 0x0 SWAP2 DUP4 PUSH2 0x1039 JUMPI JUMPDEST POP POP PUSH1 0x0 NOT PUSH1 0x8 DUP4 MUL SHR NOT AND SWAP1 PUSH1 0x2 MUL OR SWAP1 JUMP JUMPDEST ADD MLOAD SWAP1 POP CODESIZE DUP1 PUSH2 0x1025 JUMP JUMPDEST PUSH1 0x1F NOT DUP4 AND SWAP2 PUSH2 0x1059 DUP6 PUSH1 0x0 MSTORE PUSH1 0x20 PUSH1 0x0 KECCAK256 SWAP1 JUMP JUMPDEST SWAP3 PUSH1 0x0 JUMPDEST DUP2 DUP2 LT PUSH2 0x1097 JUMPI POP SWAP2 PUSH1 0x2 SWAP4 SWAP2 DUP6 PUSH1 0x1 SWAP7 SWAP5 LT PUSH2 0x107E JUMPI JUMPDEST POP POP POP MUL ADD SWAP1 SSTORE JUMP JUMPDEST ADD MLOAD PUSH1 0x0 NOT PUSH1 0x8 PUSH1 0x1F DUP6 AND MUL SHR NOT AND SWAP1 SSTORE CODESIZE DUP1 DUP1 PUSH2 0x1075 JUMP JUMPDEST SWAP2 SWAP4 PUSH1 0x20 PUSH1 0x1 DUP2 SWAP3 DUP8 DUP8 ADD MLOAD DUP2 SSTORE ADD SWAP6 ADD SWAP3 ADD PUSH2 0x105D JUMP JUMPDEST SWAP1 PUSH2 0x162 SWAP2 PUSH2 0xFDC JUMP JUMPDEST PUSH1 0x3 PUSH2 0x110B PUSH1 0x60 PUSH2 0x162 SWAP5 PUSH2 0x10D8 PUSH2 0x10D2 PUSH1 0x0 DUP4 ADD MLOAD SWAP1 JUMP JUMPDEST DUP7 PUSH2 0x914 JUMP JUMPDEST PUSH2 0x10EF PUSH2 0x10E6 PUSH1 0x20 DUP4 ADD MLOAD SWAP1 JUMP JUMPDEST PUSH1 0x1 DUP8 ADD PUSH2 0x10AF JUMP JUMPDEST PUSH2 0x1106 PUSH2 0x10FD PUSH1 0x40 DUP4 ADD MLOAD SWAP1 JUMP JUMPDEST PUSH1 0x2 DUP8 ADD PUSH2 0x10AF JUMP JUMPDEST ADD MLOAD SWAP1 JUMP JUMPDEST SWAP2 ADD PUSH2 0x914 JUMP JUMPDEST SWAP1 PUSH2 0x162 SWAP2 PUSH2 0x10B9 JUMP JUMPDEST SWAP1 DUP2 SLOAD SWAP2 PUSH9 0x10000000000000000 DUP4 LT ISZERO PUSH2 0x9B8 JUMPI DUP3 PUSH2 0x1144 SWAP2 PUSH1 0x1 PUSH2 0x162 SWAP6 ADD DUP2 SSTORE PUSH2 0xC3E JUMP JUMPDEST SWAP1 PUSH2 0xF4B JUMP JUMPDEST SWAP2 SWAP1 PUSH2 0x1F9 DUP2 PUSH2 0x1161 DUP2 PUSH2 0x203 SWAP6 PUSH1 0x20 SWAP2 DUP2 MSTORE ADD SWAP1 JUMP JUMPDEST DUP1 SWAP6 PUSH2 0xEF6 JUMP JUMPDEST SWAP3 SWAP1 PUSH2 0x1185 SWAP1 PUSH2 0x178 SWAP6 SWAP4 PUSH1 0x40 DUP7 ADD SWAP2 DUP7 DUP4 SUB PUSH1 0x0 DUP9 ADD MSTORE PUSH2 0x114A JUMP JUMPDEST SWAP3 PUSH1 0x20 DUP2 DUP6 SUB SWAP2 ADD MSTORE PUSH2 0x114A JUMP JUMPDEST PUSH2 0x125B PUSH32 0xEC1A365AEEEC255796BF50D7A2A8F24D0D5F5C6ADA0167B6C647428D9164582 SWAP4 SWAP5 PUSH2 0x1248 PUSH2 0x11C6 PUSH1 0x5 PUSH2 0x72A JUMP JUMPDEST PUSH2 0x11D9 PUSH2 0x11D2 DUP3 PUSH2 0x8F0 JUMP JUMPDEST PUSH1 0x5 PUSH2 0x914 JUMP JUMPDEST PUSH2 0x1238 PUSH2 0x11E4 PUSH2 0xBAC JUMP JUMPDEST PUSH2 0x11EC DUP4 DUP3 MSTORE JUMP JUMPDEST PUSH2 0x1200 PUSH2 0x11F9 DUP10 DUP10 PUSH2 0xF2C JUMP JUMPDEST PUSH1 0x20 DUP4 ADD MSTORE JUMP JUMPDEST PUSH2 0x1214 PUSH2 0x120D DUP7 DUP13 PUSH2 0xF2C JUMP JUMPDEST PUSH1 0x40 DUP4 ADD MSTORE JUMP JUMPDEST PUSH2 0x1228 PUSH2 0x1221 PUSH1 0x0 PUSH2 0x883 JUMP JUMPDEST PUSH1 0x60 DUP4 ADD MSTORE JUMP JUMPDEST PUSH2 0x1233 DUP4 PUSH1 0x6 PUSH2 0x890 JUMP JUMPDEST PUSH2 0x1112 JUMP JUMPDEST PUSH2 0x1243 DUP2 PUSH1 0x7 PUSH2 0x111C JUMP JUMPDEST PUSH2 0x883 JUMP JUMPDEST SWAP6 PUSH2 0x1252 PUSH1 0x40 MLOAD SWAP1 JUMP JUMPDEST SWAP5 DUP6 SWAP5 DUP6 PUSH2 0x1168 JUMP JUMPDEST SUB SWAP1 LOG2 JUMP JUMPDEST SWAP1 PUSH2 0x162 SWAP4 SWAP3 SWAP2 PUSH2 0xEB6 JUMP JUMPDEST PUSH2 0x127C PUSH2 0xECD PUSH2 0x56C PUSH1 0x0 PUSH2 0xE55 JUMP JUMPDEST PUSH2 0x162 PUSH2 0x12C4 JUMP JUMPDEST ISZERO PUSH2 0x128B JUMPI JUMP JUMPDEST PUSH1 0x40 MLOAD PUSH3 0x461BCD PUSH1 0xE5 SHL DUP2 MSTORE PUSH1 0x20 PUSH1 0x4 DUP3 ADD MSTORE PUSH1 0x11 PUSH1 0x24 DUP3 ADD MSTORE PUSH17 0x566F74696E67206E6F7420616374697665 PUSH1 0x78 SHL PUSH1 0x44 DUP3 ADD MSTORE PUSH1 0x64 SWAP1 REVERT JUMPDEST PUSH2 0x12D6 PUSH2 0x12D1 PUSH1 0x2 PUSH2 0x6D6 JUMP JUMPDEST PUSH2 0x1284 JUMP JUMPDEST PUSH2 0x12E2 PUSH1 0x0 PUSH1 0x2 PUSH2 0x938 JUMP JUMPDEST PUSH2 0x12ED TIMESTAMP PUSH1 0x4 PUSH2 0x914 JUMP JUMPDEST PUSH32 0x74FD836262D1AD6BBD13B40F5A80A5415F4D2DB6EE1D7D8F9C9BB515D9F04E01 PUSH2 0x131B PUSH2 0x3E6 PUSH1 0x4 PUSH2 0x72A JUMP JUMPDEST SUB SWAP1 LOG1 JUMP JUMPDEST PUSH2 0x162 PUSH2 0x126C JUMP JUMPDEST PUSH1 0x3 PUSH2 0xA1B PUSH2 0x178 SWAP3 PUSH2 0x1339 PUSH1 0x0 SWAP1 JUMP JUMPDEST POP PUSH1 0x6 PUSH2 0x890 JUMP JUMPDEST PUSH2 0xE21 PUSH2 0x178 SWAP2 PUSH2 0x1339 PUSH2 0xBD9 JUMP JUMPDEST PUSH2 0x135A PUSH1 0x2 PUSH2 0x6D6 JUMP JUMPDEST DUP1 PUSH2 0x137C JUMPI JUMPDEST DUP1 PUSH2 0x1368 JUMPI SWAP1 JUMP JUMPDEST POP PUSH2 0x1376 PUSH2 0x178 PUSH1 0x4 PUSH2 0x72A JUMP JUMPDEST TIMESTAMP GT ISZERO SWAP1 JUMP JUMPDEST POP PUSH2 0x138A PUSH2 0x178 PUSH1 0x3 PUSH2 0x72A JUMP JUMPDEST TIMESTAMP LT ISZERO PUSH2 0x1360 JUMP JUMPDEST CALLDATASIZE SWAP1 CALLDATACOPY JUMP JUMPDEST SWAP1 PUSH2 0x162 PUSH2 0x13A7 PUSH2 0xC15 DUP5 PUSH2 0xB95 JUMP JUMPDEST PUSH1 0x1F NOT ADD PUSH1 0x20 DUP5 ADD PUSH2 0x1392 JUMP JUMPDEST PUSH1 0x7 PUSH2 0x13C6 PUSH2 0x13C1 DUP3 SLOAD SWAP1 JUMP JUMPDEST PUSH2 0x1397 JUMP JUMPDEST SWAP1 PUSH2 0x13D1 PUSH1 0x0 PUSH2 0x883 JUMP JUMPDEST PUSH2 0x13DC PUSH2 0x178 DUP4 SLOAD SWAP1 JUMP JUMPDEST DUP2 LT ISZERO PUSH2 0xE47 JUMPI PUSH2 0x1414 SWAP1 PUSH2 0x140E PUSH2 0x1401 PUSH1 0x3 PUSH2 0xA1B PUSH1 0x6 PUSH2 0xE1B PUSH2 0xE15 DUP8 DUP11 PUSH2 0xC3E JUMP JUMPDEST PUSH2 0x140B DUP4 DUP8 PUSH2 0xC66 JUMP JUMPDEST MSTORE JUMP JUMPDEST PUSH1 0x1 ADD SWAP1 JUMP JUMPDEST PUSH2 0x13D1 JUMP JUMPDEST ISZERO PUSH2 0x1420 JUMPI JUMP JUMPDEST PUSH1 0x40 MLOAD PUSH3 0x461BCD PUSH1 0xE5 SHL DUP2 MSTORE PUSH1 0x20 PUSH1 0x4 DUP3 ADD MSTORE PUSH1 0x1E PUSH1 0x24 DUP3 ADD MSTORE PUSH32 0x4E6F20766F746520666F756E6420666F72207468697320616464726573730000 PUSH1 0x44 DUP3 ADD MSTORE PUSH1 0x64 SWAP1 REVERT JUMPDEST PUSH2 0x1492 PUSH2 0x178 SWAP2 PUSH2 0x1474 PUSH1 0x0 SWAP1 JUMP JUMPDEST POP PUSH2 0x148B PUSH2 0x1486 PUSH2 0x870 DUP4 PUSH1 0x8 PUSH2 0x7FB JUMP JUMPDEST PUSH2 0x1419 JUMP JUMPDEST PUSH1 0xA PUSH2 0x7FB JUMP JUMPDEST PUSH2 0x72A JUMP JUMPDEST PUSH2 0x178 PUSH1 0x1 PUSH2 0x72A JUMP JUMPDEST PUSH2 0x162 SWAP1 PUSH2 0x14B5 PUSH2 0xECD PUSH2 0x56C PUSH1 0x0 PUSH2 0xE55 JUMP JUMPDEST PUSH2 0x150B JUMP JUMPDEST ISZERO PUSH2 0x14C1 JUMPI JUMP JUMPDEST PUSH1 0x40 MLOAD PUSH3 0x461BCD PUSH1 0xE5 SHL DUP2 MSTORE PUSH1 0x20 PUSH1 0x4 DUP3 ADD MSTORE PUSH1 0x15 PUSH1 0x24 DUP3 ADD MSTORE PUSH21 0x566F74696E6720616C726561647920616374697665 PUSH1 0x58 SHL PUSH1 0x44 DUP3 ADD MSTORE PUSH1 0x64 SWAP1 REVERT JUMPDEST SWAP2 SWAP1 DUP3 ADD DUP1 SWAP3 GT PUSH2 0x8FF JUMPI JUMP JUMPDEST PUSH2 0x1544 PUSH2 0x154B SWAP2 PUSH2 0x1527 PUSH2 0x1522 PUSH2 0x875 PUSH1 0x2 PUSH2 0x6D6 JUMP JUMPDEST PUSH2 0x14BA JUMP JUMPDEST PUSH2 0x1533 PUSH1 0x1 PUSH1 0x2 PUSH2 0x938 JUMP JUMPDEST PUSH2 0x153E TIMESTAMP PUSH1 0x3 PUSH2 0x914 JUMP JUMPDEST TIMESTAMP PUSH2 0x14FE JUMP JUMPDEST PUSH1 0x4 PUSH2 0x914 JUMP JUMPDEST PUSH32 0xE280A408633821740A429FB671E01CACF8D1D70D5C2735F4F94EC0EDEF4EA6DE PUSH2 0x1576 PUSH1 0x3 PUSH2 0x72A JUMP JUMPDEST PUSH2 0x1580 PUSH1 0x4 PUSH2 0x72A JUMP JUMPDEST SWAP1 PUSH2 0x131B PUSH2 0xB52 PUSH1 0x40 MLOAD SWAP1 JUMP JUMPDEST PUSH2 0x162 SWAP1 PUSH2 0x14A1 JUMP JUMPDEST PUSH2 0x1492 PUSH2 0x178 SWAP2 PUSH2 0x15A5 PUSH1 0x0 SWAP1 JUMP JUMPDEST POP PUSH2 0x15B7 PUSH2 0x1486 PUSH2 0x870 DUP4 PUSH1 0x8 PUSH2 0x7FB JUMP JUMPDEST PUSH1 0xB PUSH2 0x7FB JUMP JUMPDEST PUSH2 0x870 PUSH2 0x178 SWAP2 PUSH2 0x15CD PUSH1 0x0 SWAP1 JUMP JUMPDEST POP PUSH1 0x8 PUSH2 0x7FB JUMP JUMPDEST PUSH2 0x1492 PUSH2 0x178 SWAP2 PUSH2 0x15E4 PUSH1 0x0 SWAP1 JUMP JUMPDEST POP PUSH2 0x15F6 PUSH2 0x1486 PUSH2 0x870 DUP4 PUSH1 0x8 PUSH2 0x7FB JUMP JUMPDEST PUSH1 0x9 PUSH2 0x7FB JUMP INVALID LOG2 PUSH5 0x6970667358 0x22 SLT KECCAK256 GASPRICE 0xC7 CALLDATALOAD NUMBER 0x26 0xC6 CALLDATACOPY PUSH13 0x1F7D51946388E080A41417150 SELFDESTRUCT PUSH11 0x7BF4094C5DA4F572706473 PUSH16 0x6C634300081C00330000000000000000 "},"methodIdentifiers":{"admin()":"f851a440","deploymentTimestamp()":"bfc12c05","getAllVotes()":"851b6ef2","getCandidate(uint256)":"35b8e820","getCandidates()":"06a49fce","getDeploymentTimestamp()":"96a379d8","getTotalVotes(uint256)":"2ce35e11","getVoteHash(address)":"959812f8","getVoteTxHash(address)":"e061a858","getVotedCandidate(address)":"edaa5dfc","hasAddressVoted(address)":"e3e6ca7d","isVotingActive()":"47cf6f76","registerCandidate(string,string)":"0dbce4dd","startVotingSession(uint256)":"9980a55a","stopVotingSession()":"17a0ad8e","vote(uint256)":"0121b93f","votingActive()":"408e2727","votingEndTime()":"1ea736e0","votingStartTime()":"2019a608"}}}}}