{"contracts/VoteMixing.sol":{"VoteMixing":{"abi":[{"inputs":[{"internalType":"uint256","name":"_minParticipants","type":"uint256"},{"internalType":"uint256","name":"_maxParticipants","type":"uint256"},{"internalType":"uint256","name":"_mixingDuration","type":"uint256"},{"internalType":"uint256","name":"_revealDelay","type":"uint256"}],"stateMutability":"nonpayable","type":"constructor"},{"inputs":[{"internalType":"address","name":"owner","type":"address"}],"name":"OwnableInvalidOwner","type":"error"},{"inputs":[{"internalType":"address","name":"account","type":"address"}],"name":"OwnableUnauthorizedAccount","type":"error"},{"inputs":[],"name":"ReentrancyGuardReentrantCall","type":"error"},{"anonymous":false,"inputs":[{"indexed":true,"internalType":"uint256","name":"roundId","type":"uint256"},{"indexed":false,"internalType":"uint256","name":"participantCount","type":"uint256"},{"indexed":false,"internalType":"bytes32","name":"merkleRoot","type":"bytes32"},{"indexed":false,"internalType":"uint256","name":"timestamp","type":"uint256"}],"name":"MixingRoundCompleted","type":"event"},{"anonymous":false,"inputs":[{"indexed":true,"internalType":"uint256","name":"roundId","type":"uint256"},{"indexed":false,"internalType":"uint256","name":"startTime","type":"uint256"},{"indexed":false,"internalType":"uint256","name":"endTime","type":"uint256"},{"indexed":false,"internalType":"uint256","name":"minParticipants","type":"uint256"}],"name":"MixingRoundCreated","type":"event"},{"anonymous":false,"inputs":[{"indexed":true,"internalType":"uint256","name":"roundId","type":"uint256"},{"indexed":false,"internalType":"uint256","name":"totalVotes","type":"uint256"},{"indexed":false,"internalType":"uint256","name":"timestamp","type":"uint256"}],"name":"MixingRoundRevealed","type":"event"},{"anonymous":false,"inputs":[{"indexed":true,"internalType":"address","name":"previousOwner","type":"address"},{"indexed":true,"internalType":"address","name":"newOwner","type":"address"}],"name":"OwnershipTransferred","type":"event"},{"anonymous":false,"inputs":[{"indexed":true,"internalType":"uint256","name":"roundId","type":"uint256"},{"indexed":true,"internalType":"address","name":"voter","type":"address"},{"indexed":false,"internalType":"bytes32","name":"originalVote","type":"bytes32"},{"indexed":false,"internalType":"bytes32","name":"mixedVote","type":"bytes32"},{"indexed":false,"internalType":"uint256","name":"timestamp","type":"uint256"}],"name":"VoteRevealed","type":"event"},{"anonymous":false,"inputs":[{"indexed":true,"internalType":"uint256","name":"roundId","type":"uint256"},{"indexed":true,"internalType":"address","name":"voter","type":"address"},{"indexed":false,"internalType":"bytes32","name":"mixedVote","type":"bytes32"},{"indexed":false,"internalType":"uint256","name":"mixIndex","type":"uint256"},{"indexed":false,"internalType":"uint256","name":"timestamp","type":"uint256"}],"name":"VoteSubmitted","type":"event"},{"inputs":[{"internalType":"uint256","name":"roundId","type":"uint256"}],"name":"completeMixingRound","outputs":[],"stateMutability":"nonpayable","type":"function"},{"inputs":[{"internalType":"bytes32","name":"originalVote","type":"bytes32"},{"internalType":"bytes32","name":"mixedVote","type":"bytes32"},{"internalType":"bytes32","name":"randomness","type":"bytes32"},{"internalType":"uint256","name":"mixIndex","type":"uint256"}],"name":"createMixingProof","outputs":[{"components":[{"internalType":"bytes32","name":"originalVote","type":"bytes32"},{"internalType":"bytes32","name":"mixedVote","type":"bytes32"},{"internalType":"bytes32","name":"randomness","type":"bytes32"},{"internalType":"uint256","name":"mixIndex","type":"uint256"},{"internalType":"bytes32[]","name":"merkleProof","type":"bytes32[]"}],"internalType":"struct VoteMixing.MixingProof","name":"proof","type":"tuple"}],"stateMutability":"pure","type":"function"},{"inputs":[],"name":"createMixingRound","outputs":[{"internalType":"uint256","name":"roundId","type":"uint256"}],"stateMutability":"nonpayable","type":"function"},{"inputs":[{"internalType":"uint256","name":"roundId","type":"uint256"}],"name":"emergencyInvalidateRound","outputs":[],"stateMutability":"nonpayable","type":"function"},{"inputs":[{"internalType":"bytes32","name":"seed","type":"bytes32"}],"name":"generateMixIndex","outputs":[{"internalType":"uint256","name":"mixIndex","type":"uint256"}],"stateMutability":"view","type":"function"},{"inputs":[{"internalType":"bytes32","name":"mixedVote","type":"bytes32"}],"name":"getMixedVote","outputs":[{"components":[{"internalType":"bytes32","name":"originalVote","type":"bytes32"},{"internalType":"bytes32","name":"mixedVote","type":"bytes32"},{"internalType":"bytes32","name":"randomness","type":"bytes32"},{"internalType":"uint256","name":"mixIndex","type":"uint256"},{"internalType":"uint256","name":"timestamp","type":"uint256"},{"internalType":"bool","name":"isRevealed","type":"bool"},{"internalType":"address","name":"voter","type":"address"}],"internalType":"struct VoteMixing.MixedVote","name":"","type":"tuple"}],"stateMutability":"view","type":"function"},{"inputs":[],"name":"getMixingParameters","outputs":[{"internalType":"uint256","name":"minParticipants","type":"uint256"},{"internalType":"uint256","name":"maxParticipants","type":"uint256"},{"internalType":"uint256","name":"mixingDuration","type":"uint256"},{"internalType":"uint256","name":"revealDelay","type":"uint256"}],"stateMutability":"view","type":"function"},{"inputs":[{"internalType":"uint256","name":"roundId","type":"uint256"}],"name":"getMixingRound","outputs":[{"components":[{"internalType":"uint256","name":"roundId","type":"uint256"},{"internalType":"bytes32[]","name":"mixedVotes","type":"bytes32[]"},{"internalType":"bytes32[]","name":"randomness","type":"bytes32[]"},{"internalType":"uint256[]","name":"mixIndices","type":"uint256[]"},{"internalType":"uint256","name":"startTime","type":"uint256"},{"internalType":"uint256","name":"endTime","type":"uint256"},{"internalType":"uint256","name":"revealTime","type":"uint256"},{"internalType":"bool","name":"isActive","type":"bool"},{"internalType":"bool","name":"isRevealed","type":"bool"},{"internalType":"uint256","name":"participantCount","type":"uint256"},{"internalType":"bytes32","name":"merkleRoot","type":"bytes32"}],"internalType":"struct VoteMixing.MixingRound","name":"","type":"tuple"}],"stateMutability":"view","type":"function"},{"inputs":[{"internalType":"uint256","name":"roundId","type":"uint256"}],"name":"getRoundMixedVotes","outputs":[{"internalType":"bytes32[]","name":"","type":"bytes32[]"}],"stateMutability":"view","type":"function"},{"inputs":[{"internalType":"uint256","name":"roundId","type":"uint256"}],"name":"getRoundParticipants","outputs":[{"internalType":"address[]","name":"","type":"address[]"}],"stateMutability":"view","type":"function"},{"inputs":[],"name":"getTotalRounds","outputs":[{"internalType":"uint256","name":"","type":"uint256"}],"stateMutability":"view","type":"function"},{"inputs":[{"internalType":"address","name":"voter","type":"address"}],"name":"getVoterRounds","outputs":[{"internalType":"uint256[]","name":"","type":"uint256[]"}],"stateMutability":"view","type":"function"},{"inputs":[{"internalType":"uint256","name":"roundId","type":"uint256"},{"internalType":"address","name":"voter","type":"address"}],"name":"hasVoterParticipated","outputs":[{"internalType":"bool","name":"","type":"bool"}],"stateMutability":"view","type":"function"},{"inputs":[],"name":"mixingEnabled","outputs":[{"internalType":"bool","name":"","type":"bool"}],"stateMutability":"view","type":"function"},{"inputs":[],"name":"owner","outputs":[{"internalType":"address","name":"","type":"address"}],"stateMutability":"view","type":"function"},{"inputs":[],"name":"renounceOwnership","outputs":[],"stateMutability":"nonpayable","type":"function"},{"inputs":[{"internalType":"uint256","name":"roundId","type":"uint256"}],"name":"revealMixingRound","outputs":[{"internalType":"uint256","name":"revealedCount","type":"uint256"}],"stateMutability":"nonpayable","type":"function"},{"inputs":[{"internalType":"uint256","name":"roundId","type":"uint256"},{"internalType":"bytes32","name":"mixedVote","type":"bytes32"},{"internalType":"bytes32","name":"originalVote","type":"bytes32"},{"internalType":"bytes32","name":"randomness","type":"bytes32"},{"internalType":"uint256","name":"mixIndex","type":"uint256"}],"name":"revealVote","outputs":[],"stateMutability":"nonpayable","type":"function"},{"inputs":[{"internalType":"bool","name":"enabled","type":"bool"}],"name":"setMixingEnabled","outputs":[],"stateMutability":"nonpayable","type":"function"},{"inputs":[{"internalType":"uint256","name":"roundId","type":"uint256"},{"internalType":"bytes32","name":"originalVote","type":"bytes32"},{"internalType":"bytes32","name":"randomness","type":"bytes32"},{"internalType":"uint256","name":"mixIndex","type":"uint256"}],"name":"submitVote","outputs":[{"internalType":"bytes32","name":"mixedVote","type":"bytes32"}],"stateMutability":"nonpayable","type":"function"},{"inputs":[{"internalType":"address","name":"newOwner","type":"address"}],"name":"transferOwnership","outputs":[],"stateMutability":"nonpayable","type":"function"},{"inputs":[{"internalType":"uint256","name":"_minParticipants","type":"uint256"},{"internalType":"uint256","name":"_maxParticipants","type":"uint256"},{"internalType":"uint256","name":"_mixingDuration","type":"uint256"},{"internalType":"uint256","name":"_revealDelay","type":"uint256"}],"name":"updateMixingParameters","outputs":[],"stateMutability":"nonpayable","type":"function"},{"inputs":[{"internalType":"uint256","name":"roundId","type":"uint256"},{"internalType":"bytes32","name":"mixedVote","type":"bytes32"},{"internalType":"bytes32[]","name":"proof","type":"bytes32[]"}],"name":"verifyVoteInclusion","outputs":[{"internalType":"bool","name":"","type":"bool"}],"stateMutability":"view","type":"function"}],"evm":{"bytecode":{"linkReferences":{},"object":"60806040523461002e5761001d6100146100ca565b92919091610146565b6040516126da61030082396126da90f35b600080fd5b634e487b7160e01b600052604160045260246000fd5b90601f01601f191681019081106001600160401b0382111761006a57604052565b610033565b9061008361007c60405190565b9283610049565b565b90505190565b60808183031261002e5761009f8282610085565b926100c76100b08460208501610085565b9360606100c08260408701610085565b9401610085565b90565b6100e86129da803803806100dd8161006f565b92833981019061008b565b90919293565b90600019905b9181191691161790565b6100c76100c76100c79290565b9061011b6100c7610122926100fe565b82546100ee565b9055565b9060ff906100f4565b9061013f6100c761012292151590565b8254610126565b9161016d6101749261016661017b969561015f336101a5565b600861010b565b600961010b565b600a61010b565b600b61010b565b61018f61018860006100fe565b600761010b565b6100836001600c61012f565b6100c760016100fe565b6101ae906101ff565b6100836101b961019b565b600161010b565b6101cd6100c76100c79290565b6001600160a01b031690565b6100c7906101c0565b6101eb906101cd565b9052565b60208101929161008391906101e2565b600061020a816101d9565b610213816101cd565b61021c846101cd565b1461022c575050610083906102a8565b631e4fbdf760e01b8252819061024590600483016101ef565b0390fd5b6100c7906101cd565b6100c79054610249565b906001600160a01b03906100f4565b6100c7906101cd906001600160a01b031682565b6100c79061026b565b6100c79061027f565b906102a16100c761012292610288565b825461025c565b6102ce6102c86102b86000610252565b6102c3846000610291565b610288565b91610288565b907f8be0079c531659141344cd1fd0a4f28419497f9722a3daafe3b4186f6b6457e06102f960405190565b600090a356fe6080604052600436101561001257600080fd5b60003560e01c806304dca6fa146101825780630a232e671461017d57806310956f271461017857806316a7b4fa1461017357806318ce408f1461016e5780631ad1ec22146101695780632e1ddd081461016457806337305df51461015f57806345cba1141461015a57806347ebc739146101555780635b7f1e5d14610150578063715018a61461014b57806384b3f4cc146101465780638cf723b8146101415780638da5cb5b1461013c57806393bfe13e14610137578063b120a58a14610132578063cb5a974a1461012d578063cc5dd32614610128578063cfe1622314610123578063d73705e51461011e578063e514ef2e146101195763f2fde38b03610187576109b4565b610989565b6108fe565b6108ae565b61081c565b6107dd565b610779565b610752565b6106a7565b61068b565b610622565b6105e4565b6105cc565b61057c565b610515565b6104ee565b61047b565b610460565b610439565b610393565b61035d565b610336565b6101bb565b600080fd5b805b0361018757565b905035906101a28261018c565b565b90602082820312610187576101b891610195565b90565b34610187576101d36101ce3660046101a4565b610db9565b60405180805b0390f35b0190565b906102016101fa6101f0845190565b8084529260200190565b9260200190565b9060005b8181106102125750505090565b90919261022f6102286001928651815260200190565b9460200190565b929101610205565b906102466101fa6101f0845190565b9060005b8181106102575750505090565b90919261026d6102286001928651815260200190565b92910161024a565b80518252906101b890610140806102c66102b46102a26101608601602089015187820360208901526101e1565b604088015186820360408801526101e1565b60608701518582036060870152610237565b946102d660808201516080860152565b6102e560a082015160a0860152565b6102f460c082015160c0860152565b60e0818101511515908501526101008181015115159085015261031e610120820151610120860152565b0151910152565b60208082526101b892910190610275565b34610187576101d961035161034c3660046101a4565b611024565b60405191829182610325565b34610187576101d96103786103733660046101a4565b611073565b6040519182918290815260200190565b600091031261018757565b34610187576103a3366004610388565b6101d96103786115ba565b6001600160a01b031690565b6001600160a01b03811661018e565b905035906101a2826103ba565b90602082820312610187576101b8916103c9565b906103f96101fa6101f0845190565b9060005b81811061040a5750505090565b9091926104206102286001928651815260200190565b9291016103fd565b60208082526101b8929101906103ea565b34610187576101d961045461044f3660046103d6565b6115fd565b60405191829182610428565b3461018757610470366004610388565b6101d9610378611619565b34610187576101d96103786104913660046101a4565b611780565b906104a56101fa6101f0845190565b9060005b8181106104b65750505090565b9091926104d561022860019286516001600160a01b0316815260200190565b9291016104a9565b60208082526101b892910190610496565b34610187576101d96105096105043660046101a4565b611819565b604051918291826104dd565b34610187576101d36105283660046101a4565b611871565b9061053c6101fa6101f0845190565b9060005b81811061054d5750505090565b9091926105636102286001928651815260200190565b929101610540565b60208082526101b89291019061052d565b34610187576101d96105976105923660046101a4565b611883565b6040519182918261056b565b80151561018e565b905035906101a2826105a3565b90602082820312610187576101b8916105ab565b34610187576101d36105df3660046105b8565b6118b1565b34610187576105f4366004610388565b6101d36118f2565b6101b8916008021c5b60ff1690565b906101b891546105fc565b6101b86000600c61060b565b3461018757610632366004610388565b6101d961063d610616565b60405191829182901515815260200190565b608081830312610187576106638282610195565b926101b86106748460208501610195565b9360606106848260408701610195565b9401610195565b34610187576101d361069e36600461064f565b92919091611935565b34610187576106b7366004610388565b6101d96106c2611941565b604051918291826001600160a01b03909116815260200190565b805182526101a2919060c09081906106f960208201516020860152565b61070860408201516040860152565b61071760608201516060860152565b61072660808201516080860152565b60a08181015115159085015201516001600160a01b0316910152565b60e0810192916101a291906106dc565b34610187576101d961076d6107683660046101a4565b611a27565b60405191829182610742565b34610187576101d961037861078f36600461064f565b92919091611eb0565b919060a083820312610187576107ae8184610195565b926107bc8260208301610195565b926101b86107cd8460408501610195565b9360806106848260608701610195565b34610187576101d36107f0366004610798565b93929092612044565b9190604083820312610187576101b89060206108158286610195565b94016103c9565b34610187576101d961063d6108323660046107f9565b90612051565b909182601f830112156101875781359167ffffffffffffffff831161018757602001926020830284011161018757565b916060838303126101875761087d8284610195565b9261088b8360208301610195565b92604082013567ffffffffffffffff8111610187576108aa9201610838565b9091565b34610187576101d961063d6108c4366004610868565b929190916120c6565b6108fa6101a2946108f36060949897956108ec608086019a6000870152565b6020850152565b6040830152565b0152565b346101875761090e366004610388565b6101d9600080808061092294929460405190565b948594856108cd565b805182526101b89160a081019160809061094a60208201516020850152565b61095960408201516040850152565b61096860608201516060850152565b01519060808184039101526101e1565b60208082526101b89291019061092b565b34610187576101d96109a861099f36600461064f565b92919091612120565b60405191829182610978565b34610187576101d36109c73660046103d6565b6121ca565b6101a2906109d86121d3565b610c6b565b6101b86101b86101b89290565b906109f4906109dd565b600052602052604060002090565b6101b890610605565b6101b89054610a02565b15610a1c57565b60405162461bcd60e51b815260206004820152601060248201526f526f756e64206e6f742061637469766560801b6044820152606490fd5b6101b89081565b6101b89054610a54565b15610a6c57565b60405162461bcd60e51b815260206004820152600f60248201526e149bdd5b99081b9bdd08195b991959608a1b6044820152606490fd5b15610aaa57565b60405162461bcd60e51b815260206004820152601960248201527f496e73756666696369656e74207061727469636970616e7473000000000000006044820152606490fd5b9060ff905b9181191691161790565b90610b0e6101b8610b1592151590565b8254610aef565b9055565b634e487b7160e01b600052604160045260246000fd5b90601f01601f1916810190811067ffffffffffffffff821117610b5157604052565b610b19565b906101a2610b6360405190565b9283610b2f565b67ffffffffffffffff8111610b515760208091020190565b90610b94610b8f83610b6a565b610b56565b918252565b369037565b906101a2610bb4610bae84610b82565b93610b6a565b601f190160208401610b99565b634e487b7160e01b600052603260045260246000fd5b8054821015610bfa57610bf1600191600052602060002090565b91020190600090565b610bc1565b6101b8916008021c81565b906101b89154610bff565b90610c1e825190565b811015610bfa576020809102010190565b9060001990610af4565b90610c476101b8610b159290565b8254610c2f565b9081526060810193926101a29290916040916108fa906020830152565b610c796101b88260026109ea565b906007820192610c90610c8b85610a0b565b610a15565b610caa610ca26101b860058601610a5b565b421015610a65565b610ce060006008850195610cdb610cc088610a5b565b610cd4610cd06101b86008610a5b565b9190565b1015610aa3565b610afe565b6001830190610cf5610cf0835490565b610b9e565b92610d0060006109dd565b610d0b6101b8855490565b811015610d445780610d39610d2c610d26610d3f9488610bd7565b90610c0a565b610d368389610c15565b52565b60010190565b610d00565b5093915093610d96610d90610d9c92610d8b6009610d827f702ca2b43eb700bf6c35cd0fd463096f3f976f36abf9a0640b9111d2774e909598612261565b96019586610c39565b610a5b565b92610a5b565b936109dd565b92610db4610da960405190565b928392429184610c4e565b0390a2565b6101a2906109cc565b6101b8610160610b56565b610dd5610dc2565b90600082526020808080808080808080808c01606081520160608152016060815201600081520160005b81520160008152016000815201600081520160008152016000905250565b6101b8610dcd565b90610e40610e346101f0845490565b92600052602060002090565b9060005b818110610e515750505090565b909192610e75610e6e600192610e6687610a5b565b815260200190565b9460010190565b929101610e44565b906101b891610e25565b906101a2610ea192610e9860405190565b93848092610e7d565b0383610b2f565b90610eb7610e346101f0845490565b9060005b818110610ec85750505090565b909192610edd610e6e600192610e6687610a5b565b929101610ebb565b906101b891610ea8565b906101a2610ea192610f0060405190565b93848092610ee5565b6101b89060081c610605565b6101b89054610f09565b906101a26110136009610f30610dc2565b94610f41610f3d82610a5b565b8752565b610f57610f5060018301610e87565b6020880152565b610f6d610f6660028301610e87565b6040880152565b610f83610f7c60038301610eef565b6060880152565b610f99610f9260048301610a5b565b6080880152565b610faf610fa860058301610a5b565b60a0880152565b610fc5610fbe60068301610a5b565b60c0880152565b610fdd610fd460078301610a0b565b151560e0880152565b610ff6610fec60078301610f15565b1515610100880152565b61100d61100560088301610a5b565b610120880152565b01610a5b565b610140840152565b6101b890610f1f565b61103b6101b891611033610e1d565b5060026109ea565b61101b565b6101b8906109dd565b6109dd565b634e487b7160e01b600052601260045260246000fd5b811561106e570690565b61104e565b61109061108b6101b892611085600090565b50612419565b611040565b61109a6009610a5b565b90611064565b6101b8906110ac6121d3565b611454565b156110b857565b60405162461bcd60e51b815260206004820152600f60248201526e135a5e1a5b99c8191a5cd8589b1959608a1b6044820152606490fd5b634e487b7160e01b600052601160045260246000fd5b60001981146111145760010190565b6110ef565b90610c476101b8610b15926109dd565b9190611134565b9290565b820180921161111457565b9160001960089290920291821b911b610af4565b91906111626101b8610b159390565b90835461113f565b6101a291600091611153565b818110611181575050565b8061118f600060019361116a565b01611176565b9190918282106111a457505050565b6101a292916111ba905b91600052602060002090565b9182019101611176565b90600160401b8111610b5157816111dc6101a2935490565b90828155611195565b81519167ffffffffffffffff8311610b5157611210610e3460019261120a86866111c4565b60200190565b92049160005b8381106112235750505050565b60019060206112336101b8865190565b9401938184015501611216565b906101a2916111e5565b91906111626101b8610b15936109dd565b6101a29160009161124a565b818110611272575050565b80611280600060019361125b565b01611267565b91909182821061129557505050565b6101a292916112a3906111ae565b9182019101611267565b90600160401b8111610b5157816112c56101a2935490565b90828155611286565b81519167ffffffffffffffff8311610b51576112f3610e3460019261120a86866112ad565b92049160005b8381106113065750505050565b60019060206113166101b8865190565b94019381840155016112f9565b906101a2916112ce565b9061ff009060081b610af4565b9061134a6101b8610b1592151590565b825461132d565b60096114436101406101a29461137161136b600083015190565b86611119565b61138861137f602083015190565b60018701611240565b61139f611396604083015190565b60028701611240565b6113b66113ad606083015190565b60038701611323565b6113cd6113c4608083015190565b60048701611119565b6113e46113db60a083015190565b60058701611119565b6113fb6113f260c083015190565b60068701611119565b6114266007860161141861141260e0850151151590565b82610afe565b61010083015115159061133a565b61143e61143561012083015190565b60088701611119565b015190565b9101610c39565b906101a291611351565b5061145f600c610a0b565b611468906110b1565b6114726007610a5b565b61147b81611105565b611486906007611119565b6000611491816109dd565b9061149b82610b9e565b916114a581610b9e565b916114af82610b9e565b6114b9600a610a5b565b6114c39042611129565b6114cd600a610a5b565b6114d79042611129565b6114e1600b610a5b565b6114ea91611129565b916114f4846109dd565b956114fd610dc2565b976115088a878b0152565b602089015260408801526060870152611522426080880152565b60a086015260c0850152600160e08501521515610100840152610120830152610140820152806115538360026109ea565b9061155d9161144a565b608081015160a0909101516115726008610a5b565b9061157c846109dd565b9261158660405190565b9283926115939284610c4e565b037f87a3241a0380a7685f0cfd2544c5d771c51dc926dd74d20d81ee1aea62fbfb5591a290565b6101b860006110a0565b6101b8906103ae906001600160a01b031682565b6101b8906115c4565b6101b8906115d8565b906109f4906115e1565b6101b890610eef565b6116146101b89161160c606090565b5060046115ea565b6115f4565b6101b86007610a5b565b906101b8916116306121d3565b611681565b1561163c57565b60405162461bcd60e51b815260206004820152601760248201527f52657665616c2074696d65206e6f7420726561636865640000000000000000006044820152606490fd5b906101b8916116a461169c6101b8600661100d8660026109ea565b421015611635565b611701565b156116b057565b60405162461bcd60e51b8152602060048201526016602482015275149bdd5b9908185b1c9958591e481c995d99585b195960521b6044820152606490fd5b9081526040810192916101a29160200152565b5061174461173e60086117186101b88560026109ea565b61100d60016007830161173961173461173083610f15565b1590565b6116a9565b61133a565b916109dd565b7fd48fe253bdb396c73bc32f7b556a42456788b817d0254dd2469873141ca91c2461176e60405190565b8061177a4286836116ee565b0390a290565b6101b8906000611623565b6101b8906103ae565b6101b8905461178b565b906117ad610e346101f0845490565b9060005b8181106117be5750505090565b9091926117e4610e6e6001926117d387611794565b6001600160a01b0316815260200190565b9291016117b1565b906101b89161179e565b906101a2610ea19261180760405190565b938480926117ec565b6101b8906117f6565b6118306101b891611828606090565b5060056109ea565b611810565b6101a2906118416121d3565b6000600761186b6101a293611864610c8b8461185e8460026109ea565b01610a0b565b60026109ea565b01610afe565b6101a290611835565b6101b890610e87565b60016118946101b892611033606090565b0161187a565b6101a2906118a66121d3565b6101a290600c610afe565b6101a29061189a565b6118c26121d3565b6101a26118e0565b6103ae6101b86101b89290565b6101b8906118ca565b6101a26118ed60006118d7565b612496565b6101a26118ba565b906101a29392916119096121d3565b9161192761192e926119206101a296956008611119565b6009611119565b600a611119565b600b611119565b906101a29392916118fa565b6101b86000611794565b6101b860e0610b56565b61195d61194b565b9060008252602080808080808088016000610dff565b6101b8611955565b906109f4565b6101b89060081c6103ae565b6101b89054611981565b906101a2611a0e60056119a861194b565b946119b5610f3d82610a5b565b6119c4610f5060018301610a5b565b6119d3610f6660028301610a5b565b6119e2610f7c60038301610a5b565b6119f1610f9260048301610a5b565b611a086119ff838301610a0b565b151560a0880152565b0161198d565b6001600160a01b031660c0840152565b6101b890611997565b611a3e6101b891611a36611973565b50600361197b565b611a1e565b906101b894939291611a5e610c8b600761185e8560026109ea565b611aaf565b15611a6a57565b60405162461bcd60e51b815260206004820152601760248201527f52616e646f6d6e65737320616c726561647920757365640000000000000000006044820152606490fd5b906101b894939291611ad5611ad0611730611acb87600661197b565b610a0b565b611a63565b611d19565b15611ae157565b60405162461bcd60e51b815260206004820152600b60248201526a149bdd5b9908195b99195960aa1b6044820152606490fd5b15611b1b57565b60405162461bcd60e51b815260206004820152600a602482015269149bdd5b9908199d5b1b60b21b6044820152606490fd5b15611b5457565b60405162461bcd60e51b8152602060048201526014602482015273105b1c9958591e481c185c9d1a58da5c185d195960621b6044820152606490fd5b90610100600160a81b039060081b610af4565b90611bb36101b8610b15926115e1565b8254611b90565b90611c5c60c060056101a294611bda611bd4600087015190565b82610c39565b611bf1611be8602087015190565b60018301610c39565b611c08611bff604087015190565b60028301610c39565b611c1f611c16606087015190565b60038301611119565b611c36611c2d608087015190565b60048301611119565b0192611c4e611c4860a0830151151590565b85610afe565b01516001600160a01b031690565b90611ba3565b906101a291611bba565b90815491600160401b831015610b515782611c8f9160016101a295018155610bd7565b90611153565b90815491600160401b831015610b515782611cb89160016101a295018155610bd7565b9061124a565b916001600160a01b0360089290920291821b911b610af4565b9190611ce86101b8610b15936115e1565b908354611cbe565b90815491600160401b831015610b515782611d139160016101a295018155610bd7565b90611cd7565b50909291611d288260026109ea565b611d3460058201610a5b565b421115611d4090611ada565b836008820191611d4f83610a5b565b611d596009610a5b565b11611d6390611b14565b611d6d3386612051565b15611d7790611b4d565b611d828285896124ee565b96611d8b61194b565b908152611d99886020830152565b611da4856040830152565b611daf836060830152565b611dba426080830152565b600060a08201523360c0820152611dd288600361197b565b90611ddc91611c62565b611de98760018301611c6c565b611df68460028301611c6c565b60030190611e0391611c95565b611e0c81610a5b565b611e1590611105565b611e1e91611119565b611e298260056109ea565b33611e3391611cf0565b81611e3f3360046115ea565b90611e4991611c95565b611e5490600661197b565b6001611e5f91610afe565b611e68906109dd565b611e71336115e1565b91611e7b60405190565b809142611e89918784610c4e565b037f57ad1338c773df8ab4b3a0b286cae4e4f6d36473d7e7a1f0b3f1b4de474cd37b91a390565b6101b8939291906000611a43565b906101a294939291611edc61169c6101b8600661100d8560026109ea565b611f9e565b15611ee857565b60405162461bcd60e51b815260206004820152600d60248201526c4e6f7420796f757220766f746560981b6044820152606490fd5b15611f2457565b60405162461bcd60e51b8152602060048201526015602482015274159bdd1948185b1c9958591e481c995d99585b1959605a1b6044820152606490fd5b15611f6857565b60405162461bcd60e51b815260206004820152600e60248201526d125b9d985b1a59081c995d99585b60921b6044820152606490fd5b61104960017f517de2d19cd96b554768be894916ac969b1449096e6033efc0d82d10a2cec88c9495610cdb61202161202896996005611fe16101b88d600361197b565b0193612007611fef8661198d565b612001335b916001600160a01b031690565b14611ee1565b61201b61201661173087610a0b565b611f1d565b8a6124ee565b8914611f61565b91612032336115e1565b9361203f610da960405190565b0390a3565b906101a294939291611ebe565b61183061206091611828600090565b9061206b60006109dd565b6120766101b8845190565b8110156120be5761209761208a8285610c15565b516001600160a01b031690565b6120a96001600160a01b038416611ff4565b146120b65760010161206b565b505050600190565b505050600090565b916120dd600961100d6101b8969495611033600090565b92612570565b6101b860a0610b56565b6120f56120e3565b906000825260208080808086016000815201600081520160008152016060905250565b6101b86120ed565b9261216b906121646101b894612134612118565b5061215d612145610cf060006109dd565b956121566121516120e3565b998a52565b6020890152565b6040870152565b6060850152565b6080830152565b6101a29061217e6121d3565b6000612189816118d7565b6001600160a01b0381166001600160a01b038416146121ad5750506101a290612496565b631e4fbdf760e01b82526001600160a01b03166004820152602490fd5b6101a290612172565b6121db611941565b33906121e682611ff4565b036121ee5750565b63118cdaa760e01b60009081526001600160a01b039091166004526024036000fd5b1561221757565b60405162461bcd60e51b8152602060048201526012602482015271456d707479206c656176657320617272617960701b6044820152606490fd5b811561106e570490565b01918252565b9061228061226d835190565b61227a610cd060006109dd565b11612210565b815191600192612292610cd0856109dd565b146123f2576122b16122a2825190565b6122ab856109dd565b90611129565b926122ca610cf06002956122c4876109dd565b90612251565b91816122d660006109dd565b905b6122eb575b5050506101b891925061258d565b6122f66101b8835190565b8110156123ed57906123c2839261231561230f856109dd565b82611129565b612323610cd06101b8865190565b10156123c9576123b961238561239161234361233f8588610c15565b5190565b61236161233f61235b6123558b6109dd565b88611129565b89610c15565b9061236b60405190565b93849260208401928360208161225b6101dd938396959052565b90810382520382610b2f565b6123a361239c825190565b9160200190565b20610d3661235b6123b38c6109dd565b85612251565b6122ab886109dd565b90916122d8565b6123e86123d961233f8386610c15565b610d3661235b6123b38c6109dd565b6123b9565b6122dd565b6101b891925061233f9061240660006109dd565b90610c15565b9190820391821161111457565b61246161238591612428600090565b5061243c61243660016109dd565b4361240c565b6040519040602080830191825291948593919290916101dd824461225b824282828b82565b61246c61239c825190565b2090565b906001600160a01b0390610af4565b9061248f6101b8610b15926115e1565b8254612470565b6124bc6124b66124a66000611794565b6124b184600061247f565b6115e1565b916115e1565b907f8be0079c531659141344cd1fd0a4f28419497f9722a3daafe3b4186f6b6457e06124e760405190565b808061203f565b9161250890612385926124ff600090565b5060405161236b565b61251361239c825190565b201890565b90929192612528610b8f82610b6a565b938185526020808601920283019281841161018757915b83831061254c5750505050565b6020809161255a8486610195565b81520192019161253f565b6101b8913691612518565b91612588906101b89492612582600090565b50612565565b61260e565b908151916001926125a0610cd0856109dd565b146123f2576125b06122a2825190565b926125c3610cf06002956122c4876109dd565b91816125cf60006109dd565b905b6125e3575050506101b891925061258d565b6125ee6101b8835190565b8110156123ed5790612607839261231561230f856109dd565b90916125d1565b6111306126289293610cd092612622600090565b5061262c565b1490565b61263660006109dd565b915b6126436101b8835190565b8310156126715761266461266b9161265e61233f8686610c15565b90612677565b9260010190565b91612638565b91505090565b8181101561269257906101b891600052602052604060002090565b6101b89160005260205260406000209056fea264697066735822122010065fea38109b7bc05423a17dcf9b6cdf9202dd1bd4a57162b2160da40d401764736f6c634300081c0033","opcodes":"PUSH1 0x80 PUSH1 0x40 MSTORE CALLVALUE PUSH2 0x2E JUMPI PUSH2 0x1D PUSH2 0x14 PUSH2 0xCA JUMP JUMPDEST SWAP3 SWAP2 SWAP1 SWAP2 PUSH2 0x146 JUMP JUMPDEST PUSH1 0x40 MLOAD PUSH2 0x26DA PUSH2 0x300 DUP3 CODECOPY PUSH2 0x26DA SWAP1 RETURN JUMPDEST PUSH1 0x0 DUP1 REVERT JUMPDEST PUSH4 0x4E487B71 PUSH1 0xE0 SHL PUSH1 0x0 MSTORE PUSH1 0x41 PUSH1 0x4 MSTORE PUSH1 0x24 PUSH1 0x0 REVERT JUMPDEST SWAP1 PUSH1 0x1F ADD PUSH1 0x1F NOT AND DUP2 ADD SWAP1 DUP2 LT PUSH1 0x1 PUSH1 0x1 PUSH1 0x40 SHL SUB DUP3 GT OR PUSH2 0x6A JUMPI PUSH1 0x40 MSTORE JUMP JUMPDEST PUSH2 0x33 JUMP JUMPDEST SWAP1 PUSH2 0x83 PUSH2 0x7C PUSH1 0x40 MLOAD SWAP1 JUMP JUMPDEST SWAP3 DUP4 PUSH2 0x49 JUMP JUMPDEST JUMP JUMPDEST SWAP1 POP MLOAD SWAP1 JUMP JUMPDEST PUSH1 0x80 DUP2 DUP4 SUB SLT PUSH2 0x2E JUMPI PUSH2 0x9F DUP3 DUP3 PUSH2 0x85 JUMP JUMPDEST SWAP3 PUSH2 0xC7 PUSH2 0xB0 DUP5 PUSH1 0x20 DUP6 ADD PUSH2 0x85 JUMP JUMPDEST SWAP4 PUSH1 0x60 PUSH2 0xC0 DUP3 PUSH1 0x40 DUP8 ADD PUSH2 0x85 JUMP JUMPDEST SWAP5 ADD PUSH2 0x85 JUMP JUMPDEST SWAP1 JUMP JUMPDEST PUSH2 0xE8 PUSH2 0x29DA DUP1 CODESIZE SUB DUP1 PUSH2 0xDD DUP2 PUSH2 0x6F JUMP JUMPDEST SWAP3 DUP4 CODECOPY DUP2 ADD SWAP1 PUSH2 0x8B JUMP JUMPDEST SWAP1 SWAP2 SWAP3 SWAP4 JUMP JUMPDEST SWAP1 PUSH1 0x0 NOT SWAP1 JUMPDEST SWAP2 DUP2 NOT AND SWAP2 AND OR SWAP1 JUMP JUMPDEST PUSH2 0xC7 PUSH2 0xC7 PUSH2 0xC7 SWAP3 SWAP1 JUMP JUMPDEST SWAP1 PUSH2 0x11B PUSH2 0xC7 PUSH2 0x122 SWAP3 PUSH2 0xFE JUMP JUMPDEST DUP3 SLOAD PUSH2 0xEE JUMP JUMPDEST SWAP1 SSTORE JUMP JUMPDEST SWAP1 PUSH1 0xFF SWAP1 PUSH2 0xF4 JUMP JUMPDEST SWAP1 PUSH2 0x13F PUSH2 0xC7 PUSH2 0x122 SWAP3 ISZERO ISZERO SWAP1 JUMP JUMPDEST DUP3 SLOAD PUSH2 0x126 JUMP JUMPDEST SWAP2 PUSH2 0x16D PUSH2 0x174 SWAP3 PUSH2 0x166 PUSH2 0x17B SWAP7 SWAP6 PUSH2 0x15F CALLER PUSH2 0x1A5 JUMP JUMPDEST PUSH1 0x8 PUSH2 0x10B JUMP JUMPDEST PUSH1 0x9 PUSH2 0x10B JUMP JUMPDEST PUSH1 0xA PUSH2 0x10B JUMP JUMPDEST PUSH1 0xB PUSH2 0x10B JUMP JUMPDEST PUSH2 0x18F PUSH2 0x188 PUSH1 0x0 PUSH2 0xFE JUMP JUMPDEST PUSH1 0x7 PUSH2 0x10B JUMP JUMPDEST PUSH2 0x83 PUSH1 0x1 PUSH1 0xC PUSH2 0x12F JUMP JUMPDEST PUSH2 0xC7 PUSH1 0x1 PUSH2 0xFE JUMP JUMPDEST PUSH2 0x1AE SWAP1 PUSH2 0x1FF JUMP JUMPDEST PUSH2 0x83 PUSH2 0x1B9 PUSH2 0x19B JUMP JUMPDEST PUSH1 0x1 PUSH2 0x10B JUMP JUMPDEST PUSH2 0x1CD PUSH2 0xC7 PUSH2 0xC7 SWAP3 SWAP1 JUMP JUMPDEST PUSH1 0x1 PUSH1 0x1 PUSH1 0xA0 SHL SUB AND SWAP1 JUMP JUMPDEST PUSH2 0xC7 SWAP1 PUSH2 0x1C0 JUMP JUMPDEST PUSH2 0x1EB SWAP1 PUSH2 0x1CD JUMP JUMPDEST SWAP1 MSTORE JUMP JUMPDEST PUSH1 0x20 DUP2 ADD SWAP3 SWAP2 PUSH2 0x83 SWAP2 SWAP1 PUSH2 0x1E2 JUMP JUMPDEST PUSH1 0x0 PUSH2 0x20A DUP2 PUSH2 0x1D9 JUMP JUMPDEST PUSH2 0x213 DUP2 PUSH2 0x1CD JUMP JUMPDEST PUSH2 0x21C DUP5 PUSH2 0x1CD JUMP JUMPDEST EQ PUSH2 0x22C JUMPI POP POP PUSH2 0x83 SWAP1 PUSH2 0x2A8 JUMP JUMPDEST PUSH4 0x1E4FBDF7 PUSH1 0xE0 SHL DUP3 MSTORE DUP2 SWAP1 PUSH2 0x245 SWAP1 PUSH1 0x4 DUP4 ADD PUSH2 0x1EF JUMP JUMPDEST SUB SWAP1 REVERT JUMPDEST PUSH2 0xC7 SWAP1 PUSH2 0x1CD JUMP JUMPDEST PUSH2 0xC7 SWAP1 SLOAD PUSH2 0x249 JUMP JUMPDEST SWAP1 PUSH1 0x1 PUSH1 0x1 PUSH1 0xA0 SHL SUB SWAP1 PUSH2 0xF4 JUMP JUMPDEST PUSH2 0xC7 SWAP1 PUSH2 0x1CD SWAP1 PUSH1 0x1 PUSH1 0x1 PUSH1 0xA0 SHL SUB AND DUP3 JUMP JUMPDEST PUSH2 0xC7 SWAP1 PUSH2 0x26B JUMP JUMPDEST PUSH2 0xC7 SWAP1 PUSH2 0x27F JUMP JUMPDEST SWAP1 PUSH2 0x2A1 PUSH2 0xC7 PUSH2 0x122 SWAP3 PUSH2 0x288 JUMP JUMPDEST DUP3 SLOAD PUSH2 0x25C JUMP JUMPDEST PUSH2 0x2CE PUSH2 0x2C8 PUSH2 0x2B8 PUSH1 0x0 PUSH2 0x252 JUMP JUMPDEST PUSH2 0x2C3 DUP5 PUSH1 0x0 PUSH2 0x291 JUMP JUMPDEST PUSH2 0x288 JUMP JUMPDEST SWAP2 PUSH2 0x288 JUMP JUMPDEST SWAP1 PUSH32 0x8BE0079C531659141344CD1FD0A4F28419497F9722A3DAAFE3B4186F6B6457E0 PUSH2 0x2F9 PUSH1 0x40 MLOAD SWAP1 JUMP JUMPDEST PUSH1 0x0 SWAP1 LOG3 JUMP INVALID PUSH1 0x80 PUSH1 0x40 MSTORE PUSH1 0x4 CALLDATASIZE LT ISZERO PUSH2 0x12 JUMPI PUSH1 0x0 DUP1 REVERT JUMPDEST PUSH1 0x0 CALLDATALOAD PUSH1 0xE0 SHR DUP1 PUSH4 0x4DCA6FA EQ PUSH2 0x182 JUMPI DUP1 PUSH4 0xA232E67 EQ PUSH2 0x17D JUMPI DUP1 PUSH4 0x10956F27 EQ PUSH2 0x178 JUMPI DUP1 PUSH4 0x16A7B4FA EQ PUSH2 0x173 JUMPI DUP1 PUSH4 0x18CE408F EQ PUSH2 0x16E JUMPI DUP1 PUSH4 0x1AD1EC22 EQ PUSH2 0x169 JUMPI DUP1 PUSH4 0x2E1DDD08 EQ PUSH2 0x164 JUMPI DUP1 PUSH4 0x37305DF5 EQ PUSH2 0x15F JUMPI DUP1 PUSH4 0x45CBA114 EQ PUSH2 0x15A JUMPI DUP1 PUSH4 0x47EBC739 EQ PUSH2 0x155 JUMPI DUP1 PUSH4 0x5B7F1E5D EQ PUSH2 0x150 JUMPI DUP1 PUSH4 0x715018A6 EQ PUSH2 0x14B JUMPI DUP1 PUSH4 0x84B3F4CC EQ PUSH2 0x146 JUMPI DUP1 PUSH4 0x8CF723B8 EQ PUSH2 0x141 JUMPI DUP1 PUSH4 0x8DA5CB5B EQ PUSH2 0x13C JUMPI DUP1 PUSH4 0x93BFE13E EQ PUSH2 0x137 JUMPI DUP1 PUSH4 0xB120A58A EQ PUSH2 0x132 JUMPI DUP1 PUSH4 0xCB5A974A EQ PUSH2 0x12D JUMPI DUP1 PUSH4 0xCC5DD326 EQ PUSH2 0x128 JUMPI DUP1 PUSH4 0xCFE16223 EQ PUSH2 0x123 JUMPI DUP1 PUSH4 0xD73705E5 EQ PUSH2 0x11E JUMPI DUP1 PUSH4 0xE514EF2E EQ PUSH2 0x119 JUMPI PUSH4 0xF2FDE38B SUB PUSH2 0x187 JUMPI PUSH2 0x9B4 JUMP JUMPDEST PUSH2 0x989 JUMP JUMPDEST PUSH2 0x8FE JUMP JUMPDEST PUSH2 0x8AE JUMP JUMPDEST PUSH2 0x81C JUMP JUMPDEST PUSH2 0x7DD JUMP JUMPDEST PUSH2 0x779 JUMP JUMPDEST PUSH2 0x752 JUMP JUMPDEST PUSH2 0x6A7 JUMP JUMPDEST PUSH2 0x68B JUMP JUMPDEST PUSH2 0x622 JUMP JUMPDEST PUSH2 0x5E4 JUMP JUMPDEST PUSH2 0x5CC JUMP JUMPDEST PUSH2 0x57C JUMP JUMPDEST PUSH2 0x515 JUMP JUMPDEST PUSH2 0x4EE JUMP JUMPDEST PUSH2 0x47B JUMP JUMPDEST PUSH2 0x460 JUMP JUMPDEST PUSH2 0x439 JUMP JUMPDEST PUSH2 0x393 JUMP JUMPDEST PUSH2 0x35D JUMP JUMPDEST PUSH2 0x336 JUMP JUMPDEST PUSH2 0x1BB JUMP JUMPDEST PUSH1 0x0 DUP1 REVERT JUMPDEST DUP1 JUMPDEST SUB PUSH2 0x187 JUMPI JUMP JUMPDEST SWAP1 POP CALLDATALOAD SWAP1 PUSH2 0x1A2 DUP3 PUSH2 0x18C JUMP JUMPDEST JUMP JUMPDEST SWAP1 PUSH1 0x20 DUP3 DUP3 SUB SLT PUSH2 0x187 JUMPI PUSH2 0x1B8 SWAP2 PUSH2 0x195 JUMP JUMPDEST SWAP1 JUMP JUMPDEST CALLVALUE PUSH2 0x187 JUMPI PUSH2 0x1D3 PUSH2 0x1CE CALLDATASIZE PUSH1 0x4 PUSH2 0x1A4 JUMP JUMPDEST PUSH2 0xDB9 JUMP JUMPDEST PUSH1 0x40 MLOAD DUP1 DUP1 JUMPDEST SUB SWAP1 RETURN JUMPDEST ADD SWAP1 JUMP JUMPDEST SWAP1 PUSH2 0x201 PUSH2 0x1FA PUSH2 0x1F0 DUP5 MLOAD SWAP1 JUMP JUMPDEST DUP1 DUP5 MSTORE SWAP3 PUSH1 0x20 ADD SWAP1 JUMP JUMPDEST SWAP3 PUSH1 0x20 ADD SWAP1 JUMP JUMPDEST SWAP1 PUSH1 0x0 JUMPDEST DUP2 DUP2 LT PUSH2 0x212 JUMPI POP POP POP SWAP1 JUMP JUMPDEST SWAP1 SWAP2 SWAP3 PUSH2 0x22F PUSH2 0x228 PUSH1 0x1 SWAP3 DUP7 MLOAD DUP2 MSTORE PUSH1 0x20 ADD SWAP1 JUMP JUMPDEST SWAP5 PUSH1 0x20 ADD SWAP1 JUMP JUMPDEST SWAP3 SWAP2 ADD PUSH2 0x205 JUMP JUMPDEST SWAP1 PUSH2 0x246 PUSH2 0x1FA PUSH2 0x1F0 DUP5 MLOAD SWAP1 JUMP JUMPDEST SWAP1 PUSH1 0x0 JUMPDEST DUP2 DUP2 LT PUSH2 0x257 JUMPI POP POP POP SWAP1 JUMP JUMPDEST SWAP1 SWAP2 SWAP3 PUSH2 0x26D PUSH2 0x228 PUSH1 0x1 SWAP3 DUP7 MLOAD DUP2 MSTORE PUSH1 0x20 ADD SWAP1 JUMP JUMPDEST SWAP3 SWAP2 ADD PUSH2 0x24A JUMP JUMPDEST DUP1 MLOAD DUP3 MSTORE SWAP1 PUSH2 0x1B8 SWAP1 PUSH2 0x140 DUP1 PUSH2 0x2C6 PUSH2 0x2B4 PUSH2 0x2A2 PUSH2 0x160 DUP7 ADD PUSH1 0x20 DUP10 ADD MLOAD DUP8 DUP3 SUB PUSH1 0x20 DUP10 ADD MSTORE PUSH2 0x1E1 JUMP JUMPDEST PUSH1 0x40 DUP9 ADD MLOAD DUP7 DUP3 SUB PUSH1 0x40 DUP9 ADD MSTORE PUSH2 0x1E1 JUMP JUMPDEST PUSH1 0x60 DUP8 ADD MLOAD DUP6 DUP3 SUB PUSH1 0x60 DUP8 ADD MSTORE PUSH2 0x237 JUMP JUMPDEST SWAP5 PUSH2 0x2D6 PUSH1 0x80 DUP3 ADD MLOAD PUSH1 0x80 DUP7 ADD MSTORE JUMP JUMPDEST PUSH2 0x2E5 PUSH1 0xA0 DUP3 ADD MLOAD PUSH1 0xA0 DUP7 ADD MSTORE JUMP JUMPDEST PUSH2 0x2F4 PUSH1 0xC0 DUP3 ADD MLOAD PUSH1 0xC0 DUP7 ADD MSTORE JUMP JUMPDEST PUSH1 0xE0 DUP2 DUP2 ADD MLOAD ISZERO ISZERO SWAP1 DUP6 ADD MSTORE PUSH2 0x100 DUP2 DUP2 ADD MLOAD ISZERO ISZERO SWAP1 DUP6 ADD MSTORE PUSH2 0x31E PUSH2 0x120 DUP3 ADD MLOAD PUSH2 0x120 DUP7 ADD MSTORE JUMP JUMPDEST ADD MLOAD SWAP2 ADD MSTORE JUMP JUMPDEST PUSH1 0x20 DUP1 DUP3 MSTORE PUSH2 0x1B8 SWAP3 SWAP2 ADD SWAP1 PUSH2 0x275 JUMP JUMPDEST CALLVALUE PUSH2 0x187 JUMPI PUSH2 0x1D9 PUSH2 0x351 PUSH2 0x34C CALLDATASIZE PUSH1 0x4 PUSH2 0x1A4 JUMP JUMPDEST PUSH2 0x1024 JUMP JUMPDEST PUSH1 0x40 MLOAD SWAP2 DUP3 SWAP2 DUP3 PUSH2 0x325 JUMP JUMPDEST CALLVALUE PUSH2 0x187 JUMPI PUSH2 0x1D9 PUSH2 0x378 PUSH2 0x373 CALLDATASIZE PUSH1 0x4 PUSH2 0x1A4 JUMP JUMPDEST PUSH2 0x1073 JUMP JUMPDEST PUSH1 0x40 MLOAD SWAP2 DUP3 SWAP2 DUP3 SWAP1 DUP2 MSTORE PUSH1 0x20 ADD SWAP1 JUMP JUMPDEST PUSH1 0x0 SWAP2 SUB SLT PUSH2 0x187 JUMPI JUMP JUMPDEST CALLVALUE PUSH2 0x187 JUMPI PUSH2 0x3A3 CALLDATASIZE PUSH1 0x4 PUSH2 0x388 JUMP JUMPDEST PUSH2 0x1D9 PUSH2 0x378 PUSH2 0x15BA JUMP JUMPDEST PUSH1 0x1 PUSH1 0x1 PUSH1 0xA0 SHL SUB AND SWAP1 JUMP JUMPDEST PUSH1 0x1 PUSH1 0x1 PUSH1 0xA0 SHL SUB DUP2 AND PUSH2 0x18E JUMP JUMPDEST SWAP1 POP CALLDATALOAD SWAP1 PUSH2 0x1A2 DUP3 PUSH2 0x3BA JUMP JUMPDEST SWAP1 PUSH1 0x20 DUP3 DUP3 SUB SLT PUSH2 0x187 JUMPI PUSH2 0x1B8 SWAP2 PUSH2 0x3C9 JUMP JUMPDEST SWAP1 PUSH2 0x3F9 PUSH2 0x1FA PUSH2 0x1F0 DUP5 MLOAD SWAP1 JUMP JUMPDEST SWAP1 PUSH1 0x0 JUMPDEST DUP2 DUP2 LT PUSH2 0x40A JUMPI POP POP POP SWAP1 JUMP JUMPDEST SWAP1 SWAP2 SWAP3 PUSH2 0x420 PUSH2 0x228 PUSH1 0x1 SWAP3 DUP7 MLOAD DUP2 MSTORE PUSH1 0x20 ADD SWAP1 JUMP JUMPDEST SWAP3 SWAP2 ADD PUSH2 0x3FD JUMP JUMPDEST PUSH1 0x20 DUP1 DUP3 MSTORE PUSH2 0x1B8 SWAP3 SWAP2 ADD SWAP1 PUSH2 0x3EA JUMP JUMPDEST CALLVALUE PUSH2 0x187 JUMPI PUSH2 0x1D9 PUSH2 0x454 PUSH2 0x44F CALLDATASIZE PUSH1 0x4 PUSH2 0x3D6 JUMP JUMPDEST PUSH2 0x15FD JUMP JUMPDEST PUSH1 0x40 MLOAD SWAP2 DUP3 SWAP2 DUP3 PUSH2 0x428 JUMP JUMPDEST CALLVALUE PUSH2 0x187 JUMPI PUSH2 0x470 CALLDATASIZE PUSH1 0x4 PUSH2 0x388 JUMP JUMPDEST PUSH2 0x1D9 PUSH2 0x378 PUSH2 0x1619 JUMP JUMPDEST CALLVALUE PUSH2 0x187 JUMPI PUSH2 0x1D9 PUSH2 0x378 PUSH2 0x491 CALLDATASIZE PUSH1 0x4 PUSH2 0x1A4 JUMP JUMPDEST PUSH2 0x1780 JUMP JUMPDEST SWAP1 PUSH2 0x4A5 PUSH2 0x1FA PUSH2 0x1F0 DUP5 MLOAD SWAP1 JUMP JUMPDEST SWAP1 PUSH1 0x0 JUMPDEST DUP2 DUP2 LT PUSH2 0x4B6 JUMPI POP POP POP SWAP1 JUMP JUMPDEST SWAP1 SWAP2 SWAP3 PUSH2 0x4D5 PUSH2 0x228 PUSH1 0x1 SWAP3 DUP7 MLOAD PUSH1 0x1 PUSH1 0x1 PUSH1 0xA0 SHL SUB AND DUP2 MSTORE PUSH1 0x20 ADD SWAP1 JUMP JUMPDEST SWAP3 SWAP2 ADD PUSH2 0x4A9 JUMP JUMPDEST PUSH1 0x20 DUP1 DUP3 MSTORE PUSH2 0x1B8 SWAP3 SWAP2 ADD SWAP1 PUSH2 0x496 JUMP JUMPDEST CALLVALUE PUSH2 0x187 JUMPI PUSH2 0x1D9 PUSH2 0x509 PUSH2 0x504 CALLDATASIZE PUSH1 0x4 PUSH2 0x1A4 JUMP JUMPDEST PUSH2 0x1819 JUMP JUMPDEST PUSH1 0x40 MLOAD SWAP2 DUP3 SWAP2 DUP3 PUSH2 0x4DD JUMP JUMPDEST CALLVALUE PUSH2 0x187 JUMPI PUSH2 0x1D3 PUSH2 0x528 CALLDATASIZE PUSH1 0x4 PUSH2 0x1A4 JUMP JUMPDEST PUSH2 0x1871 JUMP JUMPDEST SWAP1 PUSH2 0x53C PUSH2 0x1FA PUSH2 0x1F0 DUP5 MLOAD SWAP1 JUMP JUMPDEST SWAP1 PUSH1 0x0 JUMPDEST DUP2 DUP2 LT PUSH2 0x54D JUMPI POP POP POP SWAP1 JUMP JUMPDEST SWAP1 SWAP2 SWAP3 PUSH2 0x563 PUSH2 0x228 PUSH1 0x1 SWAP3 DUP7 MLOAD DUP2 MSTORE PUSH1 0x20 ADD SWAP1 JUMP JUMPDEST SWAP3 SWAP2 ADD PUSH2 0x540 JUMP JUMPDEST PUSH1 0x20 DUP1 DUP3 MSTORE PUSH2 0x1B8 SWAP3 SWAP2 ADD SWAP1 PUSH2 0x52D JUMP JUMPDEST CALLVALUE PUSH2 0x187 JUMPI PUSH2 0x1D9 PUSH2 0x597 PUSH2 0x592 CALLDATASIZE PUSH1 0x4 PUSH2 0x1A4 JUMP JUMPDEST PUSH2 0x1883 JUMP JUMPDEST PUSH1 0x40 MLOAD SWAP2 DUP3 SWAP2 DUP3 PUSH2 0x56B JUMP JUMPDEST DUP1 ISZERO ISZERO PUSH2 0x18E JUMP JUMPDEST SWAP1 POP CALLDATALOAD SWAP1 PUSH2 0x1A2 DUP3 PUSH2 0x5A3 JUMP JUMPDEST SWAP1 PUSH1 0x20 DUP3 DUP3 SUB SLT PUSH2 0x187 JUMPI PUSH2 0x1B8 SWAP2 PUSH2 0x5AB JUMP JUMPDEST CALLVALUE PUSH2 0x187 JUMPI PUSH2 0x1D3 PUSH2 0x5DF CALLDATASIZE PUSH1 0x4 PUSH2 0x5B8 JUMP JUMPDEST PUSH2 0x18B1 JUMP JUMPDEST CALLVALUE PUSH2 0x187 JUMPI PUSH2 0x5F4 CALLDATASIZE PUSH1 0x4 PUSH2 0x388 JUMP JUMPDEST PUSH2 0x1D3 PUSH2 0x18F2 JUMP JUMPDEST PUSH2 0x1B8 SWAP2 PUSH1 0x8 MUL SHR JUMPDEST PUSH1 0xFF AND SWAP1 JUMP JUMPDEST SWAP1 PUSH2 0x1B8 SWAP2 SLOAD PUSH2 0x5FC JUMP JUMPDEST PUSH2 0x1B8 PUSH1 0x0 PUSH1 0xC PUSH2 0x60B JUMP JUMPDEST CALLVALUE PUSH2 0x187 JUMPI PUSH2 0x632 CALLDATASIZE PUSH1 0x4 PUSH2 0x388 JUMP JUMPDEST PUSH2 0x1D9 PUSH2 0x63D PUSH2 0x616 JUMP JUMPDEST PUSH1 0x40 MLOAD SWAP2 DUP3 SWAP2 DUP3 SWAP1 ISZERO ISZERO DUP2 MSTORE PUSH1 0x20 ADD SWAP1 JUMP JUMPDEST PUSH1 0x80 DUP2 DUP4 SUB SLT PUSH2 0x187 JUMPI PUSH2 0x663 DUP3 DUP3 PUSH2 0x195 JUMP JUMPDEST SWAP3 PUSH2 0x1B8 PUSH2 0x674 DUP5 PUSH1 0x20 DUP6 ADD PUSH2 0x195 JUMP JUMPDEST SWAP4 PUSH1 0x60 PUSH2 0x684 DUP3 PUSH1 0x40 DUP8 ADD PUSH2 0x195 JUMP JUMPDEST SWAP5 ADD PUSH2 0x195 JUMP JUMPDEST CALLVALUE PUSH2 0x187 JUMPI PUSH2 0x1D3 PUSH2 0x69E CALLDATASIZE PUSH1 0x4 PUSH2 0x64F JUMP JUMPDEST SWAP3 SWAP2 SWAP1 SWAP2 PUSH2 0x1935 JUMP JUMPDEST CALLVALUE PUSH2 0x187 JUMPI PUSH2 0x6B7 CALLDATASIZE PUSH1 0x4 PUSH2 0x388 JUMP JUMPDEST PUSH2 0x1D9 PUSH2 0x6C2 PUSH2 0x1941 JUMP JUMPDEST PUSH1 0x40 MLOAD SWAP2 DUP3 SWAP2 DUP3 PUSH1 0x1 PUSH1 0x1 PUSH1 0xA0 SHL SUB SWAP1 SWAP2 AND DUP2 MSTORE PUSH1 0x20 ADD SWAP1 JUMP JUMPDEST DUP1 MLOAD DUP3 MSTORE PUSH2 0x1A2 SWAP2 SWAP1 PUSH1 0xC0 SWAP1 DUP2 SWAP1 PUSH2 0x6F9 PUSH1 0x20 DUP3 ADD MLOAD PUSH1 0x20 DUP7 ADD MSTORE JUMP JUMPDEST PUSH2 0x708 PUSH1 0x40 DUP3 ADD MLOAD PUSH1 0x40 DUP7 ADD MSTORE JUMP JUMPDEST PUSH2 0x717 PUSH1 0x60 DUP3 ADD MLOAD PUSH1 0x60 DUP7 ADD MSTORE JUMP JUMPDEST PUSH2 0x726 PUSH1 0x80 DUP3 ADD MLOAD PUSH1 0x80 DUP7 ADD MSTORE JUMP JUMPDEST PUSH1 0xA0 DUP2 DUP2 ADD MLOAD ISZERO ISZERO SWAP1 DUP6 ADD MSTORE ADD MLOAD PUSH1 0x1 PUSH1 0x1 PUSH1 0xA0 SHL SUB AND SWAP2 ADD MSTORE JUMP JUMPDEST PUSH1 0xE0 DUP2 ADD SWAP3 SWAP2 PUSH2 0x1A2 SWAP2 SWAP1 PUSH2 0x6DC JUMP JUMPDEST CALLVALUE PUSH2 0x187 JUMPI PUSH2 0x1D9 PUSH2 0x76D PUSH2 0x768 CALLDATASIZE PUSH1 0x4 PUSH2 0x1A4 JUMP JUMPDEST PUSH2 0x1A27 JUMP JUMPDEST PUSH1 0x40 MLOAD SWAP2 DUP3 SWAP2 DUP3 PUSH2 0x742 JUMP JUMPDEST CALLVALUE PUSH2 0x187 JUMPI PUSH2 0x1D9 PUSH2 0x378 PUSH2 0x78F CALLDATASIZE PUSH1 0x4 PUSH2 0x64F JUMP JUMPDEST SWAP3 SWAP2 SWAP1 SWAP2 PUSH2 0x1EB0 JUMP JUMPDEST SWAP2 SWAP1 PUSH1 0xA0 DUP4 DUP3 SUB SLT PUSH2 0x187 JUMPI PUSH2 0x7AE DUP2 DUP5 PUSH2 0x195 JUMP JUMPDEST SWAP3 PUSH2 0x7BC DUP3 PUSH1 0x20 DUP4 ADD PUSH2 0x195 JUMP JUMPDEST SWAP3 PUSH2 0x1B8 PUSH2 0x7CD DUP5 PUSH1 0x40 DUP6 ADD PUSH2 0x195 JUMP JUMPDEST SWAP4 PUSH1 0x80 PUSH2 0x684 DUP3 PUSH1 0x60 DUP8 ADD PUSH2 0x195 JUMP JUMPDEST CALLVALUE PUSH2 0x187 JUMPI PUSH2 0x1D3 PUSH2 0x7F0 CALLDATASIZE PUSH1 0x4 PUSH2 0x798 JUMP JUMPDEST SWAP4 SWAP3 SWAP1 SWAP3 PUSH2 0x2044 JUMP JUMPDEST SWAP2 SWAP1 PUSH1 0x40 DUP4 DUP3 SUB SLT PUSH2 0x187 JUMPI PUSH2 0x1B8 SWAP1 PUSH1 0x20 PUSH2 0x815 DUP3 DUP7 PUSH2 0x195 JUMP JUMPDEST SWAP5 ADD PUSH2 0x3C9 JUMP JUMPDEST CALLVALUE PUSH2 0x187 JUMPI PUSH2 0x1D9 PUSH2 0x63D PUSH2 0x832 CALLDATASIZE PUSH1 0x4 PUSH2 0x7F9 JUMP JUMPDEST SWAP1 PUSH2 0x2051 JUMP JUMPDEST SWAP1 SWAP2 DUP3 PUSH1 0x1F DUP4 ADD SLT ISZERO PUSH2 0x187 JUMPI DUP2 CALLDATALOAD SWAP2 PUSH8 0xFFFFFFFFFFFFFFFF DUP4 GT PUSH2 0x187 JUMPI PUSH1 0x20 ADD SWAP3 PUSH1 0x20 DUP4 MUL DUP5 ADD GT PUSH2 0x187 JUMPI JUMP JUMPDEST SWAP2 PUSH1 0x60 DUP4 DUP4 SUB SLT PUSH2 0x187 JUMPI PUSH2 0x87D DUP3 DUP5 PUSH2 0x195 JUMP JUMPDEST SWAP3 PUSH2 0x88B DUP4 PUSH1 0x20 DUP4 ADD PUSH2 0x195 JUMP JUMPDEST SWAP3 PUSH1 0x40 DUP3 ADD CALLDATALOAD PUSH8 0xFFFFFFFFFFFFFFFF DUP2 GT PUSH2 0x187 JUMPI PUSH2 0x8AA SWAP3 ADD PUSH2 0x838 JUMP JUMPDEST SWAP1 SWAP2 JUMP JUMPDEST CALLVALUE PUSH2 0x187 JUMPI PUSH2 0x1D9 PUSH2 0x63D PUSH2 0x8C4 CALLDATASIZE PUSH1 0x4 PUSH2 0x868 JUMP JUMPDEST SWAP3 SWAP2 SWAP1 SWAP2 PUSH2 0x20C6 JUMP JUMPDEST PUSH2 0x8FA PUSH2 0x1A2 SWAP5 PUSH2 0x8F3 PUSH1 0x60 SWAP5 SWAP9 SWAP8 SWAP6 PUSH2 0x8EC PUSH1 0x80 DUP7 ADD SWAP11 PUSH1 0x0 DUP8 ADD MSTORE JUMP JUMPDEST PUSH1 0x20 DUP6 ADD MSTORE JUMP JUMPDEST PUSH1 0x40 DUP4 ADD MSTORE JUMP JUMPDEST ADD MSTORE JUMP JUMPDEST CALLVALUE PUSH2 0x187 JUMPI PUSH2 0x90E CALLDATASIZE PUSH1 0x4 PUSH2 0x388 JUMP JUMPDEST PUSH2 0x1D9 PUSH1 0x0 DUP1 DUP1 DUP1 PUSH2 0x922 SWAP5 SWAP3 SWAP5 PUSH1 0x40 MLOAD SWAP1 JUMP JUMPDEST SWAP5 DUP6 SWAP5 DUP6 PUSH2 0x8CD JUMP JUMPDEST DUP1 MLOAD DUP3 MSTORE PUSH2 0x1B8 SWAP2 PUSH1 0xA0 DUP2 ADD SWAP2 PUSH1 0x80 SWAP1 PUSH2 0x94A PUSH1 0x20 DUP3 ADD MLOAD PUSH1 0x20 DUP6 ADD MSTORE JUMP JUMPDEST PUSH2 0x959 PUSH1 0x40 DUP3 ADD MLOAD PUSH1 0x40 DUP6 ADD MSTORE JUMP JUMPDEST PUSH2 0x968 PUSH1 0x60 DUP3 ADD MLOAD PUSH1 0x60 DUP6 ADD MSTORE JUMP JUMPDEST ADD MLOAD SWAP1 PUSH1 0x80 DUP2 DUP5 SUB SWAP2 ADD MSTORE PUSH2 0x1E1 JUMP JUMPDEST PUSH1 0x20 DUP1 DUP3 MSTORE PUSH2 0x1B8 SWAP3 SWAP2 ADD SWAP1 PUSH2 0x92B JUMP JUMPDEST CALLVALUE PUSH2 0x187 JUMPI PUSH2 0x1D9 PUSH2 0x9A8 PUSH2 0x99F CALLDATASIZE PUSH1 0x4 PUSH2 0x64F JUMP JUMPDEST SWAP3 SWAP2 SWAP1 SWAP2 PUSH2 0x2120 JUMP JUMPDEST PUSH1 0x40 MLOAD SWAP2 DUP3 SWAP2 DUP3 PUSH2 0x978 JUMP JUMPDEST CALLVALUE PUSH2 0x187 JUMPI PUSH2 0x1D3 PUSH2 0x9C7 CALLDATASIZE PUSH1 0x4 PUSH2 0x3D6 JUMP JUMPDEST PUSH2 0x21CA JUMP JUMPDEST PUSH2 0x1A2 SWAP1 PUSH2 0x9D8 PUSH2 0x21D3 JUMP JUMPDEST PUSH2 0xC6B JUMP JUMPDEST PUSH2 0x1B8 PUSH2 0x1B8 PUSH2 0x1B8 SWAP3 SWAP1 JUMP JUMPDEST SWAP1 PUSH2 0x9F4 SWAP1 PUSH2 0x9DD JUMP JUMPDEST PUSH1 0x0 MSTORE PUSH1 0x20 MSTORE PUSH1 0x40 PUSH1 0x0 KECCAK256 SWAP1 JUMP JUMPDEST PUSH2 0x1B8 SWAP1 PUSH2 0x605 JUMP JUMPDEST PUSH2 0x1B8 SWAP1 SLOAD PUSH2 0xA02 JUMP JUMPDEST ISZERO PUSH2 0xA1C JUMPI JUMP JUMPDEST PUSH1 0x40 MLOAD PUSH3 0x461BCD PUSH1 0xE5 SHL DUP2 MSTORE PUSH1 0x20 PUSH1 0x4 DUP3 ADD MSTORE PUSH1 0x10 PUSH1 0x24 DUP3 ADD MSTORE PUSH16 0x526F756E64206E6F7420616374697665 PUSH1 0x80 SHL PUSH1 0x44 DUP3 ADD MSTORE PUSH1 0x64 SWAP1 REVERT JUMPDEST PUSH2 0x1B8 SWAP1 DUP2 JUMP JUMPDEST PUSH2 0x1B8 SWAP1 SLOAD PUSH2 0xA54 JUMP JUMPDEST ISZERO PUSH2 0xA6C JUMPI JUMP JUMPDEST PUSH1 0x40 MLOAD PUSH3 0x461BCD PUSH1 0xE5 SHL DUP2 MSTORE PUSH1 0x20 PUSH1 0x4 DUP3 ADD MSTORE PUSH1 0xF PUSH1 0x24 DUP3 ADD MSTORE PUSH15 0x149BDD5B99081B9BDD08195B991959 PUSH1 0x8A SHL PUSH1 0x44 DUP3 ADD MSTORE PUSH1 0x64 SWAP1 REVERT JUMPDEST ISZERO PUSH2 0xAAA JUMPI JUMP JUMPDEST PUSH1 0x40 MLOAD PUSH3 0x461BCD PUSH1 0xE5 SHL DUP2 MSTORE PUSH1 0x20 PUSH1 0x4 DUP3 ADD MSTORE PUSH1 0x19 PUSH1 0x24 DUP3 ADD MSTORE PUSH32 0x496E73756666696369656E74207061727469636970616E747300000000000000 PUSH1 0x44 DUP3 ADD MSTORE PUSH1 0x64 SWAP1 REVERT JUMPDEST SWAP1 PUSH1 0xFF SWAP1 JUMPDEST SWAP2 DUP2 NOT AND SWAP2 AND OR SWAP1 JUMP JUMPDEST SWAP1 PUSH2 0xB0E PUSH2 0x1B8 PUSH2 0xB15 SWAP3 ISZERO ISZERO SWAP1 JUMP JUMPDEST DUP3 SLOAD PUSH2 0xAEF JUMP JUMPDEST SWAP1 SSTORE JUMP JUMPDEST PUSH4 0x4E487B71 PUSH1 0xE0 SHL PUSH1 0x0 MSTORE PUSH1 0x41 PUSH1 0x4 MSTORE PUSH1 0x24 PUSH1 0x0 REVERT JUMPDEST SWAP1 PUSH1 0x1F ADD PUSH1 0x1F NOT AND DUP2 ADD SWAP1 DUP2 LT PUSH8 0xFFFFFFFFFFFFFFFF DUP3 GT OR PUSH2 0xB51 JUMPI PUSH1 0x40 MSTORE JUMP JUMPDEST PUSH2 0xB19 JUMP JUMPDEST SWAP1 PUSH2 0x1A2 PUSH2 0xB63 PUSH1 0x40 MLOAD SWAP1 JUMP JUMPDEST SWAP3 DUP4 PUSH2 0xB2F JUMP JUMPDEST PUSH8 0xFFFFFFFFFFFFFFFF DUP2 GT PUSH2 0xB51 JUMPI PUSH1 0x20 DUP1 SWAP2 MUL ADD SWAP1 JUMP JUMPDEST SWAP1 PUSH2 0xB94 PUSH2 0xB8F DUP4 PUSH2 0xB6A JUMP JUMPDEST PUSH2 0xB56 JUMP JUMPDEST SWAP2 DUP3 MSTORE JUMP JUMPDEST CALLDATASIZE SWAP1 CALLDATACOPY JUMP JUMPDEST SWAP1 PUSH2 0x1A2 PUSH2 0xBB4 PUSH2 0xBAE DUP5 PUSH2 0xB82 JUMP JUMPDEST SWAP4 PUSH2 0xB6A JUMP JUMPDEST PUSH1 0x1F NOT ADD PUSH1 0x20 DUP5 ADD PUSH2 0xB99 JUMP JUMPDEST PUSH4 0x4E487B71 PUSH1 0xE0 SHL PUSH1 0x0 MSTORE PUSH1 0x32 PUSH1 0x4 MSTORE PUSH1 0x24 PUSH1 0x0 REVERT JUMPDEST DUP1 SLOAD DUP3 LT ISZERO PUSH2 0xBFA JUMPI PUSH2 0xBF1 PUSH1 0x1 SWAP2 PUSH1 0x0 MSTORE PUSH1 0x20 PUSH1 0x0 KECCAK256 SWAP1 JUMP JUMPDEST SWAP2 MUL ADD SWAP1 PUSH1 0x0 SWAP1 JUMP JUMPDEST PUSH2 0xBC1 JUMP JUMPDEST PUSH2 0x1B8 SWAP2 PUSH1 0x8 MUL SHR DUP2 JUMP JUMPDEST SWAP1 PUSH2 0x1B8 SWAP2 SLOAD PUSH2 0xBFF JUMP JUMPDEST SWAP1 PUSH2 0xC1E DUP3 MLOAD SWAP1 JUMP JUMPDEST DUP2 LT ISZERO PUSH2 0xBFA JUMPI PUSH1 0x20 DUP1 SWAP2 MUL ADD ADD SWAP1 JUMP JUMPDEST SWAP1 PUSH1 0x0 NOT SWAP1 PUSH2 0xAF4 JUMP JUMPDEST SWAP1 PUSH2 0xC47 PUSH2 0x1B8 PUSH2 0xB15 SWAP3 SWAP1 JUMP JUMPDEST DUP3 SLOAD PUSH2 0xC2F JUMP JUMPDEST SWAP1 DUP2 MSTORE PUSH1 0x60 DUP2 ADD SWAP4 SWAP3 PUSH2 0x1A2 SWAP3 SWAP1 SWAP2 PUSH1 0x40 SWAP2 PUSH2 0x8FA SWAP1 PUSH1 0x20 DUP4 ADD MSTORE JUMP JUMPDEST PUSH2 0xC79 PUSH2 0x1B8 DUP3 PUSH1 0x2 PUSH2 0x9EA JUMP JUMPDEST SWAP1 PUSH1 0x7 DUP3 ADD SWAP3 PUSH2 0xC90 PUSH2 0xC8B DUP6 PUSH2 0xA0B JUMP JUMPDEST PUSH2 0xA15 JUMP JUMPDEST PUSH2 0xCAA PUSH2 0xCA2 PUSH2 0x1B8 PUSH1 0x5 DUP7 ADD PUSH2 0xA5B JUMP JUMPDEST TIMESTAMP LT ISZERO PUSH2 0xA65 JUMP JUMPDEST PUSH2 0xCE0 PUSH1 0x0 PUSH1 0x8 DUP6 ADD SWAP6 PUSH2 0xCDB PUSH2 0xCC0 DUP9 PUSH2 0xA5B JUMP JUMPDEST PUSH2 0xCD4 PUSH2 0xCD0 PUSH2 0x1B8 PUSH1 0x8 PUSH2 0xA5B JUMP JUMPDEST SWAP2 SWAP1 JUMP JUMPDEST LT ISZERO PUSH2 0xAA3 JUMP JUMPDEST PUSH2 0xAFE JUMP JUMPDEST PUSH1 0x1 DUP4 ADD SWAP1 PUSH2 0xCF5 PUSH2 0xCF0 DUP4 SLOAD SWAP1 JUMP JUMPDEST PUSH2 0xB9E JUMP JUMPDEST SWAP3 PUSH2 0xD00 PUSH1 0x0 PUSH2 0x9DD JUMP JUMPDEST PUSH2 0xD0B PUSH2 0x1B8 DUP6 SLOAD SWAP1 JUMP JUMPDEST DUP2 LT ISZERO PUSH2 0xD44 JUMPI DUP1 PUSH2 0xD39 PUSH2 0xD2C PUSH2 0xD26 PUSH2 0xD3F SWAP5 DUP9 PUSH2 0xBD7 JUMP JUMPDEST SWAP1 PUSH2 0xC0A JUMP JUMPDEST PUSH2 0xD36 DUP4 DUP10 PUSH2 0xC15 JUMP JUMPDEST MSTORE JUMP JUMPDEST PUSH1 0x1 ADD SWAP1 JUMP JUMPDEST PUSH2 0xD00 JUMP JUMPDEST POP SWAP4 SWAP2 POP SWAP4 PUSH2 0xD96 PUSH2 0xD90 PUSH2 0xD9C SWAP3 PUSH2 0xD8B PUSH1 0x9 PUSH2 0xD82 PUSH32 0x702CA2B43EB700BF6C35CD0FD463096F3F976F36ABF9A0640B9111D2774E9095 SWAP9 PUSH2 0x2261 JUMP JUMPDEST SWAP7 ADD SWAP6 DUP7 PUSH2 0xC39 JUMP JUMPDEST PUSH2 0xA5B JUMP JUMPDEST SWAP3 PUSH2 0xA5B JUMP JUMPDEST SWAP4 PUSH2 0x9DD JUMP JUMPDEST SWAP3 PUSH2 0xDB4 PUSH2 0xDA9 PUSH1 0x40 MLOAD SWAP1 JUMP JUMPDEST SWAP3 DUP4 SWAP3 TIMESTAMP SWAP2 DUP5 PUSH2 0xC4E JUMP JUMPDEST SUB SWAP1 LOG2 JUMP JUMPDEST PUSH2 0x1A2 SWAP1 PUSH2 0x9CC JUMP JUMPDEST PUSH2 0x1B8 PUSH2 0x160 PUSH2 0xB56 JUMP JUMPDEST PUSH2 0xDD5 PUSH2 0xDC2 JUMP JUMPDEST SWAP1 PUSH1 0x0 DUP3 MSTORE PUSH1 0x20 DUP1 DUP1 DUP1 DUP1 DUP1 DUP1 DUP1 DUP1 DUP1 DUP1 DUP13 ADD PUSH1 0x60 DUP2 MSTORE ADD PUSH1 0x60 DUP2 MSTORE ADD PUSH1 0x60 DUP2 MSTORE ADD PUSH1 0x0 DUP2 MSTORE ADD PUSH1 0x0 JUMPDEST DUP2 MSTORE ADD PUSH1 0x0 DUP2 MSTORE ADD PUSH1 0x0 DUP2 MSTORE ADD PUSH1 0x0 DUP2 MSTORE ADD PUSH1 0x0 DUP2 MSTORE ADD PUSH1 0x0 SWAP1 MSTORE POP JUMP JUMPDEST PUSH2 0x1B8 PUSH2 0xDCD JUMP JUMPDEST SWAP1 PUSH2 0xE40 PUSH2 0xE34 PUSH2 0x1F0 DUP5 SLOAD SWAP1 JUMP JUMPDEST SWAP3 PUSH1 0x0 MSTORE PUSH1 0x20 PUSH1 0x0 KECCAK256 SWAP1 JUMP JUMPDEST SWAP1 PUSH1 0x0 JUMPDEST DUP2 DUP2 LT PUSH2 0xE51 JUMPI POP POP POP SWAP1 JUMP JUMPDEST SWAP1 SWAP2 SWAP3 PUSH2 0xE75 PUSH2 0xE6E PUSH1 0x1 SWAP3 PUSH2 0xE66 DUP8 PUSH2 0xA5B JUMP JUMPDEST DUP2 MSTORE PUSH1 0x20 ADD SWAP1 JUMP JUMPDEST SWAP5 PUSH1 0x1 ADD SWAP1 JUMP JUMPDEST SWAP3 SWAP2 ADD PUSH2 0xE44 JUMP JUMPDEST SWAP1 PUSH2 0x1B8 SWAP2 PUSH2 0xE25 JUMP JUMPDEST SWAP1 PUSH2 0x1A2 PUSH2 0xEA1 SWAP3 PUSH2 0xE98 PUSH1 0x40 MLOAD SWAP1 JUMP JUMPDEST SWAP4 DUP5 DUP1 SWAP3 PUSH2 0xE7D JUMP JUMPDEST SUB DUP4 PUSH2 0xB2F JUMP JUMPDEST SWAP1 PUSH2 0xEB7 PUSH2 0xE34 PUSH2 0x1F0 DUP5 SLOAD SWAP1 JUMP JUMPDEST SWAP1 PUSH1 0x0 JUMPDEST DUP2 DUP2 LT PUSH2 0xEC8 JUMPI POP POP POP SWAP1 JUMP JUMPDEST SWAP1 SWAP2 SWAP3 PUSH2 0xEDD PUSH2 0xE6E PUSH1 0x1 SWAP3 PUSH2 0xE66 DUP8 PUSH2 0xA5B JUMP JUMPDEST SWAP3 SWAP2 ADD PUSH2 0xEBB JUMP JUMPDEST SWAP1 PUSH2 0x1B8 SWAP2 PUSH2 0xEA8 JUMP JUMPDEST SWAP1 PUSH2 0x1A2 PUSH2 0xEA1 SWAP3 PUSH2 0xF00 PUSH1 0x40 MLOAD SWAP1 JUMP JUMPDEST SWAP4 DUP5 DUP1 SWAP3 PUSH2 0xEE5 JUMP JUMPDEST PUSH2 0x1B8 SWAP1 PUSH1 0x8 SHR PUSH2 0x605 JUMP JUMPDEST PUSH2 0x1B8 SWAP1 SLOAD PUSH2 0xF09 JUMP JUMPDEST SWAP1 PUSH2 0x1A2 PUSH2 0x1013 PUSH1 0x9 PUSH2 0xF30 PUSH2 0xDC2 JUMP JUMPDEST SWAP5 PUSH2 0xF41 PUSH2 0xF3D DUP3 PUSH2 0xA5B JUMP JUMPDEST DUP8 MSTORE JUMP JUMPDEST PUSH2 0xF57 PUSH2 0xF50 PUSH1 0x1 DUP4 ADD PUSH2 0xE87 JUMP JUMPDEST PUSH1 0x20 DUP9 ADD MSTORE JUMP JUMPDEST PUSH2 0xF6D PUSH2 0xF66 PUSH1 0x2 DUP4 ADD PUSH2 0xE87 JUMP JUMPDEST PUSH1 0x40 DUP9 ADD MSTORE JUMP JUMPDEST PUSH2 0xF83 PUSH2 0xF7C PUSH1 0x3 DUP4 ADD PUSH2 0xEEF JUMP JUMPDEST PUSH1 0x60 DUP9 ADD MSTORE JUMP JUMPDEST PUSH2 0xF99 PUSH2 0xF92 PUSH1 0x4 DUP4 ADD PUSH2 0xA5B JUMP JUMPDEST PUSH1 0x80 DUP9 ADD MSTORE JUMP JUMPDEST PUSH2 0xFAF PUSH2 0xFA8 PUSH1 0x5 DUP4 ADD PUSH2 0xA5B JUMP JUMPDEST PUSH1 0xA0 DUP9 ADD MSTORE JUMP JUMPDEST PUSH2 0xFC5 PUSH2 0xFBE PUSH1 0x6 DUP4 ADD PUSH2 0xA5B JUMP JUMPDEST PUSH1 0xC0 DUP9 ADD MSTORE JUMP JUMPDEST PUSH2 0xFDD PUSH2 0xFD4 PUSH1 0x7 DUP4 ADD PUSH2 0xA0B JUMP JUMPDEST ISZERO ISZERO PUSH1 0xE0 DUP9 ADD MSTORE JUMP JUMPDEST PUSH2 0xFF6 PUSH2 0xFEC PUSH1 0x7 DUP4 ADD PUSH2 0xF15 JUMP JUMPDEST ISZERO ISZERO PUSH2 0x100 DUP9 ADD MSTORE JUMP JUMPDEST PUSH2 0x100D PUSH2 0x1005 PUSH1 0x8 DUP4 ADD PUSH2 0xA5B JUMP JUMPDEST PUSH2 0x120 DUP9 ADD MSTORE JUMP JUMPDEST ADD PUSH2 0xA5B JUMP JUMPDEST PUSH2 0x140 DUP5 ADD MSTORE JUMP JUMPDEST PUSH2 0x1B8 SWAP1 PUSH2 0xF1F JUMP JUMPDEST PUSH2 0x103B PUSH2 0x1B8 SWAP2 PUSH2 0x1033 PUSH2 0xE1D JUMP JUMPDEST POP PUSH1 0x2 PUSH2 0x9EA JUMP JUMPDEST PUSH2 0x101B JUMP JUMPDEST PUSH2 0x1B8 SWAP1 PUSH2 0x9DD JUMP JUMPDEST PUSH2 0x9DD JUMP JUMPDEST PUSH4 0x4E487B71 PUSH1 0xE0 SHL PUSH1 0x0 MSTORE PUSH1 0x12 PUSH1 0x4 MSTORE PUSH1 0x24 PUSH1 0x0 REVERT JUMPDEST DUP2 ISZERO PUSH2 0x106E JUMPI MOD SWAP1 JUMP JUMPDEST PUSH2 0x104E JUMP JUMPDEST PUSH2 0x1090 PUSH2 0x108B PUSH2 0x1B8 SWAP3 PUSH2 0x1085 PUSH1 0x0 SWAP1 JUMP JUMPDEST POP PUSH2 0x2419 JUMP JUMPDEST PUSH2 0x1040 JUMP JUMPDEST PUSH2 0x109A PUSH1 0x9 PUSH2 0xA5B JUMP JUMPDEST SWAP1 PUSH2 0x1064 JUMP JUMPDEST PUSH2 0x1B8 SWAP1 PUSH2 0x10AC PUSH2 0x21D3 JUMP JUMPDEST PUSH2 0x1454 JUMP JUMPDEST ISZERO PUSH2 0x10B8 JUMPI JUMP JUMPDEST PUSH1 0x40 MLOAD PUSH3 0x461BCD PUSH1 0xE5 SHL DUP2 MSTORE PUSH1 0x20 PUSH1 0x4 DUP3 ADD MSTORE PUSH1 0xF PUSH1 0x24 DUP3 ADD MSTORE PUSH15 0x135A5E1A5B99C8191A5CD8589B1959 PUSH1 0x8A SHL PUSH1 0x44 DUP3 ADD MSTORE PUSH1 0x64 SWAP1 REVERT JUMPDEST PUSH4 0x4E487B71 PUSH1 0xE0 SHL PUSH1 0x0 MSTORE PUSH1 0x11 PUSH1 0x4 MSTORE PUSH1 0x24 PUSH1 0x0 REVERT JUMPDEST PUSH1 0x0 NOT DUP2 EQ PUSH2 0x1114 JUMPI PUSH1 0x1 ADD SWAP1 JUMP JUMPDEST PUSH2 0x10EF JUMP JUMPDEST SWAP1 PUSH2 0xC47 PUSH2 0x1B8 PUSH2 0xB15 SWAP3 PUSH2 0x9DD JUMP JUMPDEST SWAP2 SWAP1 PUSH2 0x1134 JUMP JUMPDEST SWAP3 SWAP1 JUMP JUMPDEST DUP3 ADD DUP1 SWAP3 GT PUSH2 0x1114 JUMPI JUMP JUMPDEST SWAP2 PUSH1 0x0 NOT PUSH1 0x8 SWAP3 SWAP1 SWAP3 MUL SWAP2 DUP3 SHL SWAP2 SHL PUSH2 0xAF4 JUMP JUMPDEST SWAP2 SWAP1 PUSH2 0x1162 PUSH2 0x1B8 PUSH2 0xB15 SWAP4 SWAP1 JUMP JUMPDEST SWAP1 DUP4 SLOAD PUSH2 0x113F JUMP JUMPDEST PUSH2 0x1A2 SWAP2 PUSH1 0x0 SWAP2 PUSH2 0x1153 JUMP JUMPDEST DUP2 DUP2 LT PUSH2 0x1181 JUMPI POP POP JUMP JUMPDEST DUP1 PUSH2 0x118F PUSH1 0x0 PUSH1 0x1 SWAP4 PUSH2 0x116A JUMP JUMPDEST ADD PUSH2 0x1176 JUMP JUMPDEST SWAP2 SWAP1 SWAP2 DUP3 DUP3 LT PUSH2 0x11A4 JUMPI POP POP POP JUMP JUMPDEST PUSH2 0x1A2 SWAP3 SWAP2 PUSH2 0x11BA SWAP1 JUMPDEST SWAP2 PUSH1 0x0 MSTORE PUSH1 0x20 PUSH1 0x0 KECCAK256 SWAP1 JUMP JUMPDEST SWAP2 DUP3 ADD SWAP2 ADD PUSH2 0x1176 JUMP JUMPDEST SWAP1 PUSH1 0x1 PUSH1 0x40 SHL DUP2 GT PUSH2 0xB51 JUMPI DUP2 PUSH2 0x11DC PUSH2 0x1A2 SWAP4 SLOAD SWAP1 JUMP JUMPDEST SWAP1 DUP3 DUP2 SSTORE PUSH2 0x1195 JUMP JUMPDEST DUP2 MLOAD SWAP2 PUSH8 0xFFFFFFFFFFFFFFFF DUP4 GT PUSH2 0xB51 JUMPI PUSH2 0x1210 PUSH2 0xE34 PUSH1 0x1 SWAP3 PUSH2 0x120A DUP7 DUP7 PUSH2 0x11C4 JUMP JUMPDEST PUSH1 0x20 ADD SWAP1 JUMP JUMPDEST SWAP3 DIV SWAP2 PUSH1 0x0 JUMPDEST DUP4 DUP2 LT PUSH2 0x1223 JUMPI POP POP POP POP JUMP JUMPDEST PUSH1 0x1 SWAP1 PUSH1 0x20 PUSH2 0x1233 PUSH2 0x1B8 DUP7 MLOAD SWAP1 JUMP JUMPDEST SWAP5 ADD SWAP4 DUP2 DUP5 ADD SSTORE ADD PUSH2 0x1216 JUMP JUMPDEST SWAP1 PUSH2 0x1A2 SWAP2 PUSH2 0x11E5 JUMP JUMPDEST SWAP2 SWAP1 PUSH2 0x1162 PUSH2 0x1B8 PUSH2 0xB15 SWAP4 PUSH2 0x9DD JUMP JUMPDEST PUSH2 0x1A2 SWAP2 PUSH1 0x0 SWAP2 PUSH2 0x124A JUMP JUMPDEST DUP2 DUP2 LT PUSH2 0x1272 JUMPI POP POP JUMP JUMPDEST DUP1 PUSH2 0x1280 PUSH1 0x0 PUSH1 0x1 SWAP4 PUSH2 0x125B JUMP JUMPDEST ADD PUSH2 0x1267 JUMP JUMPDEST SWAP2 SWAP1 SWAP2 DUP3 DUP3 LT PUSH2 0x1295 JUMPI POP POP POP JUMP JUMPDEST PUSH2 0x1A2 SWAP3 SWAP2 PUSH2 0x12A3 SWAP1 PUSH2 0x11AE JUMP JUMPDEST SWAP2 DUP3 ADD SWAP2 ADD PUSH2 0x1267 JUMP JUMPDEST SWAP1 PUSH1 0x1 PUSH1 0x40 SHL DUP2 GT PUSH2 0xB51 JUMPI DUP2 PUSH2 0x12C5 PUSH2 0x1A2 SWAP4 SLOAD SWAP1 JUMP JUMPDEST SWAP1 DUP3 DUP2 SSTORE PUSH2 0x1286 JUMP JUMPDEST DUP2 MLOAD SWAP2 PUSH8 0xFFFFFFFFFFFFFFFF DUP4 GT PUSH2 0xB51 JUMPI PUSH2 0x12F3 PUSH2 0xE34 PUSH1 0x1 SWAP3 PUSH2 0x120A DUP7 DUP7 PUSH2 0x12AD JUMP JUMPDEST SWAP3 DIV SWAP2 PUSH1 0x0 JUMPDEST DUP4 DUP2 LT PUSH2 0x1306 JUMPI POP POP POP POP JUMP JUMPDEST PUSH1 0x1 SWAP1 PUSH1 0x20 PUSH2 0x1316 PUSH2 0x1B8 DUP7 MLOAD SWAP1 JUMP JUMPDEST SWAP5 ADD SWAP4 DUP2 DUP5 ADD SSTORE ADD PUSH2 0x12F9 JUMP JUMPDEST SWAP1 PUSH2 0x1A2 SWAP2 PUSH2 0x12CE JUMP JUMPDEST SWAP1 PUSH2 0xFF00 SWAP1 PUSH1 0x8 SHL PUSH2 0xAF4 JUMP JUMPDEST SWAP1 PUSH2 0x134A PUSH2 0x1B8 PUSH2 0xB15 SWAP3 ISZERO ISZERO SWAP1 JUMP JUMPDEST DUP3 SLOAD PUSH2 0x132D JUMP JUMPDEST PUSH1 0x9 PUSH2 0x1443 PUSH2 0x140 PUSH2 0x1A2 SWAP5 PUSH2 0x1371 PUSH2 0x136B PUSH1 0x0 DUP4 ADD MLOAD SWAP1 JUMP JUMPDEST DUP7 PUSH2 0x1119 JUMP JUMPDEST PUSH2 0x1388 PUSH2 0x137F PUSH1 0x20 DUP4 ADD MLOAD SWAP1 JUMP JUMPDEST PUSH1 0x1 DUP8 ADD PUSH2 0x1240 JUMP JUMPDEST PUSH2 0x139F PUSH2 0x1396 PUSH1 0x40 DUP4 ADD MLOAD SWAP1 JUMP JUMPDEST PUSH1 0x2 DUP8 ADD PUSH2 0x1240 JUMP JUMPDEST PUSH2 0x13B6 PUSH2 0x13AD PUSH1 0x60 DUP4 ADD MLOAD SWAP1 JUMP JUMPDEST PUSH1 0x3 DUP8 ADD PUSH2 0x1323 JUMP JUMPDEST PUSH2 0x13CD PUSH2 0x13C4 PUSH1 0x80 DUP4 ADD MLOAD SWAP1 JUMP JUMPDEST PUSH1 0x4 DUP8 ADD PUSH2 0x1119 JUMP JUMPDEST PUSH2 0x13E4 PUSH2 0x13DB PUSH1 0xA0 DUP4 ADD MLOAD SWAP1 JUMP JUMPDEST PUSH1 0x5 DUP8 ADD PUSH2 0x1119 JUMP JUMPDEST PUSH2 0x13FB PUSH2 0x13F2 PUSH1 0xC0 DUP4 ADD MLOAD SWAP1 JUMP JUMPDEST PUSH1 0x6 DUP8 ADD PUSH2 0x1119 JUMP JUMPDEST PUSH2 0x1426 PUSH1 0x7 DUP7 ADD PUSH2 0x1418 PUSH2 0x1412 PUSH1 0xE0 DUP6 ADD MLOAD ISZERO ISZERO SWAP1 JUMP JUMPDEST DUP3 PUSH2 0xAFE JUMP JUMPDEST PUSH2 0x100 DUP4 ADD MLOAD ISZERO ISZERO SWAP1 PUSH2 0x133A JUMP JUMPDEST PUSH2 0x143E PUSH2 0x1435 PUSH2 0x120 DUP4 ADD MLOAD SWAP1 JUMP JUMPDEST PUSH1 0x8 DUP8 ADD PUSH2 0x1119 JUMP JUMPDEST ADD MLOAD SWAP1 JUMP JUMPDEST SWAP2 ADD PUSH2 0xC39 JUMP JUMPDEST SWAP1 PUSH2 0x1A2 SWAP2 PUSH2 0x1351 JUMP JUMPDEST POP PUSH2 0x145F PUSH1 0xC PUSH2 0xA0B JUMP JUMPDEST PUSH2 0x1468 SWAP1 PUSH2 0x10B1 JUMP JUMPDEST PUSH2 0x1472 PUSH1 0x7 PUSH2 0xA5B JUMP JUMPDEST PUSH2 0x147B DUP2 PUSH2 0x1105 JUMP JUMPDEST PUSH2 0x1486 SWAP1 PUSH1 0x7 PUSH2 0x1119 JUMP JUMPDEST PUSH1 0x0 PUSH2 0x1491 DUP2 PUSH2 0x9DD JUMP JUMPDEST SWAP1 PUSH2 0x149B DUP3 PUSH2 0xB9E JUMP JUMPDEST SWAP2 PUSH2 0x14A5 DUP2 PUSH2 0xB9E JUMP JUMPDEST SWAP2 PUSH2 0x14AF DUP3 PUSH2 0xB9E JUMP JUMPDEST PUSH2 0x14B9 PUSH1 0xA PUSH2 0xA5B JUMP JUMPDEST PUSH2 0x14C3 SWAP1 TIMESTAMP PUSH2 0x1129 JUMP JUMPDEST PUSH2 0x14CD PUSH1 0xA PUSH2 0xA5B JUMP JUMPDEST PUSH2 0x14D7 SWAP1 TIMESTAMP PUSH2 0x1129 JUMP JUMPDEST PUSH2 0x14E1 PUSH1 0xB PUSH2 0xA5B JUMP JUMPDEST PUSH2 0x14EA SWAP2 PUSH2 0x1129 JUMP JUMPDEST SWAP2 PUSH2 0x14F4 DUP5 PUSH2 0x9DD JUMP JUMPDEST SWAP6 PUSH2 0x14FD PUSH2 0xDC2 JUMP JUMPDEST SWAP8 PUSH2 0x1508 DUP11 DUP8 DUP12 ADD MSTORE JUMP JUMPDEST PUSH1 0x20 DUP10 ADD MSTORE PUSH1 0x40 DUP9 ADD MSTORE PUSH1 0x60 DUP8 ADD MSTORE PUSH2 0x1522 TIMESTAMP PUSH1 0x80 DUP9 ADD MSTORE JUMP JUMPDEST PUSH1 0xA0 DUP7 ADD MSTORE PUSH1 0xC0 DUP6 ADD MSTORE PUSH1 0x1 PUSH1 0xE0 DUP6 ADD MSTORE ISZERO ISZERO PUSH2 0x100 DUP5 ADD MSTORE PUSH2 0x120 DUP4 ADD MSTORE PUSH2 0x140 DUP3 ADD MSTORE DUP1 PUSH2 0x1553 DUP4 PUSH1 0x2 PUSH2 0x9EA JUMP JUMPDEST SWAP1 PUSH2 0x155D SWAP2 PUSH2 0x144A JUMP JUMPDEST PUSH1 0x80 DUP2 ADD MLOAD PUSH1 0xA0 SWAP1 SWAP2 ADD MLOAD PUSH2 0x1572 PUSH1 0x8 PUSH2 0xA5B JUMP JUMPDEST SWAP1 PUSH2 0x157C DUP5 PUSH2 0x9DD JUMP JUMPDEST SWAP3 PUSH2 0x1586 PUSH1 0x40 MLOAD SWAP1 JUMP JUMPDEST SWAP3 DUP4 SWAP3 PUSH2 0x1593 SWAP3 DUP5 PUSH2 0xC4E JUMP JUMPDEST SUB PUSH32 0x87A3241A0380A7685F0CFD2544C5D771C51DC926DD74D20D81EE1AEA62FBFB55 SWAP2 LOG2 SWAP1 JUMP JUMPDEST PUSH2 0x1B8 PUSH1 0x0 PUSH2 0x10A0 JUMP JUMPDEST PUSH2 0x1B8 SWAP1 PUSH2 0x3AE SWAP1 PUSH1 0x1 PUSH1 0x1 PUSH1 0xA0 SHL SUB AND DUP3 JUMP JUMPDEST PUSH2 0x1B8 SWAP1 PUSH2 0x15C4 JUMP JUMPDEST PUSH2 0x1B8 SWAP1 PUSH2 0x15D8 JUMP JUMPDEST SWAP1 PUSH2 0x9F4 SWAP1 PUSH2 0x15E1 JUMP JUMPDEST PUSH2 0x1B8 SWAP1 PUSH2 0xEEF JUMP JUMPDEST PUSH2 0x1614 PUSH2 0x1B8 SWAP2 PUSH2 0x160C PUSH1 0x60 SWAP1 JUMP JUMPDEST POP PUSH1 0x4 PUSH2 0x15EA JUMP JUMPDEST PUSH2 0x15F4 JUMP JUMPDEST PUSH2 0x1B8 PUSH1 0x7 PUSH2 0xA5B JUMP JUMPDEST SWAP1 PUSH2 0x1B8 SWAP2 PUSH2 0x1630 PUSH2 0x21D3 JUMP JUMPDEST PUSH2 0x1681 JUMP JUMPDEST ISZERO PUSH2 0x163C JUMPI JUMP JUMPDEST PUSH1 0x40 MLOAD PUSH3 0x461BCD PUSH1 0xE5 SHL DUP2 MSTORE PUSH1 0x20 PUSH1 0x4 DUP3 ADD MSTORE PUSH1 0x17 PUSH1 0x24 DUP3 ADD MSTORE PUSH32 0x52657665616C2074696D65206E6F742072656163686564000000000000000000 PUSH1 0x44 DUP3 ADD MSTORE PUSH1 0x64 SWAP1 REVERT JUMPDEST SWAP1 PUSH2 0x1B8 SWAP2 PUSH2 0x16A4 PUSH2 0x169C PUSH2 0x1B8 PUSH1 0x6 PUSH2 0x100D DUP7 PUSH1 0x2 PUSH2 0x9EA JUMP JUMPDEST TIMESTAMP LT ISZERO PUSH2 0x1635 JUMP JUMPDEST PUSH2 0x1701 JUMP JUMPDEST ISZERO PUSH2 0x16B0 JUMPI JUMP JUMPDEST PUSH1 0x40 MLOAD PUSH3 0x461BCD PUSH1 0xE5 SHL DUP2 MSTORE PUSH1 0x20 PUSH1 0x4 DUP3 ADD MSTORE PUSH1 0x16 PUSH1 0x24 DUP3 ADD MSTORE PUSH22 0x149BDD5B9908185B1C9958591E481C995D99585B1959 PUSH1 0x52 SHL PUSH1 0x44 DUP3 ADD MSTORE PUSH1 0x64 SWAP1 REVERT JUMPDEST SWAP1 DUP2 MSTORE PUSH1 0x40 DUP2 ADD SWAP3 SWAP2 PUSH2 0x1A2 SWAP2 PUSH1 0x20 ADD MSTORE JUMP JUMPDEST POP PUSH2 0x1744 PUSH2 0x173E PUSH1 0x8 PUSH2 0x1718 PUSH2 0x1B8 DUP6 PUSH1 0x2 PUSH2 0x9EA JUMP JUMPDEST PUSH2 0x100D PUSH1 0x1 PUSH1 0x7 DUP4 ADD PUSH2 0x1739 PUSH2 0x1734 PUSH2 0x1730 DUP4 PUSH2 0xF15 JUMP JUMPDEST ISZERO SWAP1 JUMP JUMPDEST PUSH2 0x16A9 JUMP JUMPDEST PUSH2 0x133A JUMP JUMPDEST SWAP2 PUSH2 0x9DD JUMP JUMPDEST PUSH32 0xD48FE253BDB396C73BC32F7B556A42456788B817D0254DD2469873141CA91C24 PUSH2 0x176E PUSH1 0x40 MLOAD SWAP1 JUMP JUMPDEST DUP1 PUSH2 0x177A TIMESTAMP DUP7 DUP4 PUSH2 0x16EE JUMP JUMPDEST SUB SWAP1 LOG2 SWAP1 JUMP JUMPDEST PUSH2 0x1B8 SWAP1 PUSH1 0x0 PUSH2 0x1623 JUMP JUMPDEST PUSH2 0x1B8 SWAP1 PUSH2 0x3AE JUMP JUMPDEST PUSH2 0x1B8 SWAP1 SLOAD PUSH2 0x178B JUMP JUMPDEST SWAP1 PUSH2 0x17AD PUSH2 0xE34 PUSH2 0x1F0 DUP5 SLOAD SWAP1 JUMP JUMPDEST SWAP1 PUSH1 0x0 JUMPDEST DUP2 DUP2 LT PUSH2 0x17BE JUMPI POP POP POP SWAP1 JUMP JUMPDEST SWAP1 SWAP2 SWAP3 PUSH2 0x17E4 PUSH2 0xE6E PUSH1 0x1 SWAP3 PUSH2 0x17D3 DUP8 PUSH2 0x1794 JUMP JUMPDEST PUSH1 0x1 PUSH1 0x1 PUSH1 0xA0 SHL SUB AND DUP2 MSTORE PUSH1 0x20 ADD SWAP1 JUMP JUMPDEST SWAP3 SWAP2 ADD PUSH2 0x17B1 JUMP JUMPDEST SWAP1 PUSH2 0x1B8 SWAP2 PUSH2 0x179E JUMP JUMPDEST SWAP1 PUSH2 0x1A2 PUSH2 0xEA1 SWAP3 PUSH2 0x1807 PUSH1 0x40 MLOAD SWAP1 JUMP JUMPDEST SWAP4 DUP5 DUP1 SWAP3 PUSH2 0x17EC JUMP JUMPDEST PUSH2 0x1B8 SWAP1 PUSH2 0x17F6 JUMP JUMPDEST PUSH2 0x1830 PUSH2 0x1B8 SWAP2 PUSH2 0x1828 PUSH1 0x60 SWAP1 JUMP JUMPDEST POP PUSH1 0x5 PUSH2 0x9EA JUMP JUMPDEST PUSH2 0x1810 JUMP JUMPDEST PUSH2 0x1A2 SWAP1 PUSH2 0x1841 PUSH2 0x21D3 JUMP JUMPDEST PUSH1 0x0 PUSH1 0x7 PUSH2 0x186B PUSH2 0x1A2 SWAP4 PUSH2 0x1864 PUSH2 0xC8B DUP5 PUSH2 0x185E DUP5 PUSH1 0x2 PUSH2 0x9EA JUMP JUMPDEST ADD PUSH2 0xA0B JUMP JUMPDEST PUSH1 0x2 PUSH2 0x9EA JUMP JUMPDEST ADD PUSH2 0xAFE JUMP JUMPDEST PUSH2 0x1A2 SWAP1 PUSH2 0x1835 JUMP JUMPDEST PUSH2 0x1B8 SWAP1 PUSH2 0xE87 JUMP JUMPDEST PUSH1 0x1 PUSH2 0x1894 PUSH2 0x1B8 SWAP3 PUSH2 0x1033 PUSH1 0x60 SWAP1 JUMP JUMPDEST ADD PUSH2 0x187A JUMP JUMPDEST PUSH2 0x1A2 SWAP1 PUSH2 0x18A6 PUSH2 0x21D3 JUMP JUMPDEST PUSH2 0x1A2 SWAP1 PUSH1 0xC PUSH2 0xAFE JUMP JUMPDEST PUSH2 0x1A2 SWAP1 PUSH2 0x189A JUMP JUMPDEST PUSH2 0x18C2 PUSH2 0x21D3 JUMP JUMPDEST PUSH2 0x1A2 PUSH2 0x18E0 JUMP JUMPDEST PUSH2 0x3AE PUSH2 0x1B8 PUSH2 0x1B8 SWAP3 SWAP1 JUMP JUMPDEST PUSH2 0x1B8 SWAP1 PUSH2 0x18CA JUMP JUMPDEST PUSH2 0x1A2 PUSH2 0x18ED PUSH1 0x0 PUSH2 0x18D7 JUMP JUMPDEST PUSH2 0x2496 JUMP JUMPDEST PUSH2 0x1A2 PUSH2 0x18BA JUMP JUMPDEST SWAP1 PUSH2 0x1A2 SWAP4 SWAP3 SWAP2 PUSH2 0x1909 PUSH2 0x21D3 JUMP JUMPDEST SWAP2 PUSH2 0x1927 PUSH2 0x192E SWAP3 PUSH2 0x1920 PUSH2 0x1A2 SWAP7 SWAP6 PUSH1 0x8 PUSH2 0x1119 JUMP JUMPDEST PUSH1 0x9 PUSH2 0x1119 JUMP JUMPDEST PUSH1 0xA PUSH2 0x1119 JUMP JUMPDEST PUSH1 0xB PUSH2 0x1119 JUMP JUMPDEST SWAP1 PUSH2 0x1A2 SWAP4 SWAP3 SWAP2 PUSH2 0x18FA JUMP JUMPDEST PUSH2 0x1B8 PUSH1 0x0 PUSH2 0x1794 JUMP JUMPDEST PUSH2 0x1B8 PUSH1 0xE0 PUSH2 0xB56 JUMP JUMPDEST PUSH2 0x195D PUSH2 0x194B JUMP JUMPDEST SWAP1 PUSH1 0x0 DUP3 MSTORE PUSH1 0x20 DUP1 DUP1 DUP1 DUP1 DUP1 DUP1 DUP9 ADD PUSH1 0x0 PUSH2 0xDFF JUMP JUMPDEST PUSH2 0x1B8 PUSH2 0x1955 JUMP JUMPDEST SWAP1 PUSH2 0x9F4 JUMP JUMPDEST PUSH2 0x1B8 SWAP1 PUSH1 0x8 SHR PUSH2 0x3AE JUMP JUMPDEST PUSH2 0x1B8 SWAP1 SLOAD PUSH2 0x1981 JUMP JUMPDEST SWAP1 PUSH2 0x1A2 PUSH2 0x1A0E PUSH1 0x5 PUSH2 0x19A8 PUSH2 0x194B JUMP JUMPDEST SWAP5 PUSH2 0x19B5 PUSH2 0xF3D DUP3 PUSH2 0xA5B JUMP JUMPDEST PUSH2 0x19C4 PUSH2 0xF50 PUSH1 0x1 DUP4 ADD PUSH2 0xA5B JUMP JUMPDEST PUSH2 0x19D3 PUSH2 0xF66 PUSH1 0x2 DUP4 ADD PUSH2 0xA5B JUMP JUMPDEST PUSH2 0x19E2 PUSH2 0xF7C PUSH1 0x3 DUP4 ADD PUSH2 0xA5B JUMP JUMPDEST PUSH2 0x19F1 PUSH2 0xF92 PUSH1 0x4 DUP4 ADD PUSH2 0xA5B JUMP JUMPDEST PUSH2 0x1A08 PUSH2 0x19FF DUP4 DUP4 ADD PUSH2 0xA0B JUMP JUMPDEST ISZERO ISZERO PUSH1 0xA0 DUP9 ADD MSTORE JUMP JUMPDEST ADD PUSH2 0x198D JUMP JUMPDEST PUSH1 0x1 PUSH1 0x1 PUSH1 0xA0 SHL SUB AND PUSH1 0xC0 DUP5 ADD MSTORE JUMP JUMPDEST PUSH2 0x1B8 SWAP1 PUSH2 0x1997 JUMP JUMPDEST PUSH2 0x1A3E PUSH2 0x1B8 SWAP2 PUSH2 0x1A36 PUSH2 0x1973 JUMP JUMPDEST POP PUSH1 0x3 PUSH2 0x197B JUMP JUMPDEST PUSH2 0x1A1E JUMP JUMPDEST SWAP1 PUSH2 0x1B8 SWAP5 SWAP4 SWAP3 SWAP2 PUSH2 0x1A5E PUSH2 0xC8B PUSH1 0x7 PUSH2 0x185E DUP6 PUSH1 0x2 PUSH2 0x9EA JUMP JUMPDEST PUSH2 0x1AAF JUMP JUMPDEST ISZERO PUSH2 0x1A6A JUMPI JUMP JUMPDEST PUSH1 0x40 MLOAD PUSH3 0x461BCD PUSH1 0xE5 SHL DUP2 MSTORE PUSH1 0x20 PUSH1 0x4 DUP3 ADD MSTORE PUSH1 0x17 PUSH1 0x24 DUP3 ADD MSTORE PUSH32 0x52616E646F6D6E65737320616C72656164792075736564000000000000000000 PUSH1 0x44 DUP3 ADD MSTORE PUSH1 0x64 SWAP1 REVERT JUMPDEST SWAP1 PUSH2 0x1B8 SWAP5 SWAP4 SWAP3 SWAP2 PUSH2 0x1AD5 PUSH2 0x1AD0 PUSH2 0x1730 PUSH2 0x1ACB DUP8 PUSH1 0x6 PUSH2 0x197B JUMP JUMPDEST PUSH2 0xA0B JUMP JUMPDEST PUSH2 0x1A63 JUMP JUMPDEST PUSH2 0x1D19 JUMP JUMPDEST ISZERO PUSH2 0x1AE1 JUMPI JUMP JUMPDEST PUSH1 0x40 MLOAD PUSH3 0x461BCD PUSH1 0xE5 SHL DUP2 MSTORE PUSH1 0x20 PUSH1 0x4 DUP3 ADD MSTORE PUSH1 0xB PUSH1 0x24 DUP3 ADD MSTORE PUSH11 0x149BDD5B9908195B991959 PUSH1 0xAA SHL PUSH1 0x44 DUP3 ADD MSTORE PUSH1 0x64 SWAP1 REVERT JUMPDEST ISZERO PUSH2 0x1B1B JUMPI JUMP JUMPDEST PUSH1 0x40 MLOAD PUSH3 0x461BCD PUSH1 0xE5 SHL DUP2 MSTORE PUSH1 0x20 PUSH1 0x4 DUP3 ADD MSTORE PUSH1 0xA PUSH1 0x24 DUP3 ADD MSTORE PUSH10 0x149BDD5B9908199D5B1B PUSH1 0xB2 SHL PUSH1 0x44 DUP3 ADD MSTORE PUSH1 0x64 SWAP1 REVERT JUMPDEST ISZERO PUSH2 0x1B54 JUMPI JUMP JUMPDEST PUSH1 0x40 MLOAD PUSH3 0x461BCD PUSH1 0xE5 SHL DUP2 MSTORE PUSH1 0x20 PUSH1 0x4 DUP3 ADD MSTORE PUSH1 0x14 PUSH1 0x24 DUP3 ADD MSTORE PUSH20 0x105B1C9958591E481C185C9D1A58DA5C185D1959 PUSH1 0x62 SHL PUSH1 0x44 DUP3 ADD MSTORE PUSH1 0x64 SWAP1 REVERT JUMPDEST SWAP1 PUSH2 0x100 PUSH1 0x1 PUSH1 0xA8 SHL SUB SWAP1 PUSH1 0x8 SHL PUSH2 0xAF4 JUMP JUMPDEST SWAP1 PUSH2 0x1BB3 PUSH2 0x1B8 PUSH2 0xB15 SWAP3 PUSH2 0x15E1 JUMP JUMPDEST DUP3 SLOAD PUSH2 0x1B90 JUMP JUMPDEST SWAP1 PUSH2 0x1C5C PUSH1 0xC0 PUSH1 0x5 PUSH2 0x1A2 SWAP5 PUSH2 0x1BDA PUSH2 0x1BD4 PUSH1 0x0 DUP8 ADD MLOAD SWAP1 JUMP JUMPDEST DUP3 PUSH2 0xC39 JUMP JUMPDEST PUSH2 0x1BF1 PUSH2 0x1BE8 PUSH1 0x20 DUP8 ADD MLOAD SWAP1 JUMP JUMPDEST PUSH1 0x1 DUP4 ADD PUSH2 0xC39 JUMP JUMPDEST PUSH2 0x1C08 PUSH2 0x1BFF PUSH1 0x40 DUP8 ADD MLOAD SWAP1 JUMP JUMPDEST PUSH1 0x2 DUP4 ADD PUSH2 0xC39 JUMP JUMPDEST PUSH2 0x1C1F PUSH2 0x1C16 PUSH1 0x60 DUP8 ADD MLOAD SWAP1 JUMP JUMPDEST PUSH1 0x3 DUP4 ADD PUSH2 0x1119 JUMP JUMPDEST PUSH2 0x1C36 PUSH2 0x1C2D PUSH1 0x80 DUP8 ADD MLOAD SWAP1 JUMP JUMPDEST PUSH1 0x4 DUP4 ADD PUSH2 0x1119 JUMP JUMPDEST ADD SWAP3 PUSH2 0x1C4E PUSH2 0x1C48 PUSH1 0xA0 DUP4 ADD MLOAD ISZERO ISZERO SWAP1 JUMP JUMPDEST DUP6 PUSH2 0xAFE JUMP JUMPDEST ADD MLOAD PUSH1 0x1 PUSH1 0x1 PUSH1 0xA0 SHL SUB AND SWAP1 JUMP JUMPDEST SWAP1 PUSH2 0x1BA3 JUMP JUMPDEST SWAP1 PUSH2 0x1A2 SWAP2 PUSH2 0x1BBA JUMP JUMPDEST SWAP1 DUP2 SLOAD SWAP2 PUSH1 0x1 PUSH1 0x40 SHL DUP4 LT ISZERO PUSH2 0xB51 JUMPI DUP3 PUSH2 0x1C8F SWAP2 PUSH1 0x1 PUSH2 0x1A2 SWAP6 ADD DUP2 SSTORE PUSH2 0xBD7 JUMP JUMPDEST SWAP1 PUSH2 0x1153 JUMP JUMPDEST SWAP1 DUP2 SLOAD SWAP2 PUSH1 0x1 PUSH1 0x40 SHL DUP4 LT ISZERO PUSH2 0xB51 JUMPI DUP3 PUSH2 0x1CB8 SWAP2 PUSH1 0x1 PUSH2 0x1A2 SWAP6 ADD DUP2 SSTORE PUSH2 0xBD7 JUMP JUMPDEST SWAP1 PUSH2 0x124A JUMP JUMPDEST SWAP2 PUSH1 0x1 PUSH1 0x1 PUSH1 0xA0 SHL SUB PUSH1 0x8 SWAP3 SWAP1 SWAP3 MUL SWAP2 DUP3 SHL SWAP2 SHL PUSH2 0xAF4 JUMP JUMPDEST SWAP2 SWAP1 PUSH2 0x1CE8 PUSH2 0x1B8 PUSH2 0xB15 SWAP4 PUSH2 0x15E1 JUMP JUMPDEST SWAP1 DUP4 SLOAD PUSH2 0x1CBE JUMP JUMPDEST SWAP1 DUP2 SLOAD SWAP2 PUSH1 0x1 PUSH1 0x40 SHL DUP4 LT ISZERO PUSH2 0xB51 JUMPI DUP3 PUSH2 0x1D13 SWAP2 PUSH1 0x1 PUSH2 0x1A2 SWAP6 ADD DUP2 SSTORE PUSH2 0xBD7 JUMP JUMPDEST SWAP1 PUSH2 0x1CD7 JUMP JUMPDEST POP SWAP1 SWAP3 SWAP2 PUSH2 0x1D28 DUP3 PUSH1 0x2 PUSH2 0x9EA JUMP JUMPDEST PUSH2 0x1D34 PUSH1 0x5 DUP3 ADD PUSH2 0xA5B JUMP JUMPDEST TIMESTAMP GT ISZERO PUSH2 0x1D40 SWAP1 PUSH2 0x1ADA JUMP JUMPDEST DUP4 PUSH1 0x8 DUP3 ADD SWAP2 PUSH2 0x1D4F DUP4 PUSH2 0xA5B JUMP JUMPDEST PUSH2 0x1D59 PUSH1 0x9 PUSH2 0xA5B JUMP JUMPDEST GT PUSH2 0x1D63 SWAP1 PUSH2 0x1B14 JUMP JUMPDEST PUSH2 0x1D6D CALLER DUP7 PUSH2 0x2051 JUMP JUMPDEST ISZERO PUSH2 0x1D77 SWAP1 PUSH2 0x1B4D JUMP JUMPDEST PUSH2 0x1D82 DUP3 DUP6 DUP10 PUSH2 0x24EE JUMP JUMPDEST SWAP7 PUSH2 0x1D8B PUSH2 0x194B JUMP JUMPDEST SWAP1 DUP2 MSTORE PUSH2 0x1D99 DUP9 PUSH1 0x20 DUP4 ADD MSTORE JUMP JUMPDEST PUSH2 0x1DA4 DUP6 PUSH1 0x40 DUP4 ADD MSTORE JUMP JUMPDEST PUSH2 0x1DAF DUP4 PUSH1 0x60 DUP4 ADD MSTORE JUMP JUMPDEST PUSH2 0x1DBA TIMESTAMP PUSH1 0x80 DUP4 ADD MSTORE JUMP JUMPDEST PUSH1 0x0 PUSH1 0xA0 DUP3 ADD MSTORE CALLER PUSH1 0xC0 DUP3 ADD MSTORE PUSH2 0x1DD2 DUP9 PUSH1 0x3 PUSH2 0x197B JUMP JUMPDEST SWAP1 PUSH2 0x1DDC SWAP2 PUSH2 0x1C62 JUMP JUMPDEST PUSH2 0x1DE9 DUP8 PUSH1 0x1 DUP4 ADD PUSH2 0x1C6C JUMP JUMPDEST PUSH2 0x1DF6 DUP5 PUSH1 0x2 DUP4 ADD PUSH2 0x1C6C JUMP JUMPDEST PUSH1 0x3 ADD SWAP1 PUSH2 0x1E03 SWAP2 PUSH2 0x1C95 JUMP JUMPDEST PUSH2 0x1E0C DUP2 PUSH2 0xA5B JUMP JUMPDEST PUSH2 0x1E15 SWAP1 PUSH2 0x1105 JUMP JUMPDEST PUSH2 0x1E1E SWAP2 PUSH2 0x1119 JUMP JUMPDEST PUSH2 0x1E29 DUP3 PUSH1 0x5 PUSH2 0x9EA JUMP JUMPDEST CALLER PUSH2 0x1E33 SWAP2 PUSH2 0x1CF0 JUMP JUMPDEST DUP2 PUSH2 0x1E3F CALLER PUSH1 0x4 PUSH2 0x15EA JUMP JUMPDEST SWAP1 PUSH2 0x1E49 SWAP2 PUSH2 0x1C95 JUMP JUMPDEST PUSH2 0x1E54 SWAP1 PUSH1 0x6 PUSH2 0x197B JUMP JUMPDEST PUSH1 0x1 PUSH2 0x1E5F SWAP2 PUSH2 0xAFE JUMP JUMPDEST PUSH2 0x1E68 SWAP1 PUSH2 0x9DD JUMP JUMPDEST PUSH2 0x1E71 CALLER PUSH2 0x15E1 JUMP JUMPDEST SWAP2 PUSH2 0x1E7B PUSH1 0x40 MLOAD SWAP1 JUMP JUMPDEST DUP1 SWAP2 TIMESTAMP PUSH2 0x1E89 SWAP2 DUP8 DUP5 PUSH2 0xC4E JUMP JUMPDEST SUB PUSH32 0x57AD1338C773DF8AB4B3A0B286CAE4E4F6D36473D7E7A1F0B3F1B4DE474CD37B SWAP2 LOG3 SWAP1 JUMP JUMPDEST PUSH2 0x1B8 SWAP4 SWAP3 SWAP2 SWAP1 PUSH1 0x0 PUSH2 0x1A43 JUMP JUMPDEST SWAP1 PUSH2 0x1A2 SWAP5 SWAP4 SWAP3 SWAP2 PUSH2 0x1EDC PUSH2 0x169C PUSH2 0x1B8 PUSH1 0x6 PUSH2 0x100D DUP6 PUSH1 0x2 PUSH2 0x9EA JUMP JUMPDEST PUSH2 0x1F9E JUMP JUMPDEST ISZERO PUSH2 0x1EE8 JUMPI JUMP JUMPDEST PUSH1 0x40 MLOAD PUSH3 0x461BCD PUSH1 0xE5 SHL DUP2 MSTORE PUSH1 0x20 PUSH1 0x4 DUP3 ADD MSTORE PUSH1 0xD PUSH1 0x24 DUP3 ADD MSTORE PUSH13 0x4E6F7420796F757220766F7465 PUSH1 0x98 SHL PUSH1 0x44 DUP3 ADD MSTORE PUSH1 0x64 SWAP1 REVERT JUMPDEST ISZERO PUSH2 0x1F24 JUMPI JUMP JUMPDEST PUSH1 0x40 MLOAD PUSH3 0x461BCD PUSH1 0xE5 SHL DUP2 MSTORE PUSH1 0x20 PUSH1 0x4 DUP3 ADD MSTORE PUSH1 0x15 PUSH1 0x24 DUP3 ADD MSTORE PUSH21 0x159BDD1948185B1C9958591E481C995D99585B1959 PUSH1 0x5A SHL PUSH1 0x44 DUP3 ADD MSTORE PUSH1 0x64 SWAP1 REVERT JUMPDEST ISZERO PUSH2 0x1F68 JUMPI JUMP JUMPDEST PUSH1 0x40 MLOAD PUSH3 0x461BCD PUSH1 0xE5 SHL DUP2 MSTORE PUSH1 0x20 PUSH1 0x4 DUP3 ADD MSTORE PUSH1 0xE PUSH1 0x24 DUP3 ADD MSTORE PUSH14 0x125B9D985B1A59081C995D99585B PUSH1 0x92 SHL PUSH1 0x44 DUP3 ADD MSTORE PUSH1 0x64 SWAP1 REVERT JUMPDEST PUSH2 0x1049 PUSH1 0x1 PUSH32 0x517DE2D19CD96B554768BE894916AC969B1449096E6033EFC0D82D10A2CEC88C SWAP5 SWAP6 PUSH2 0xCDB PUSH2 0x2021 PUSH2 0x2028 SWAP7 SWAP10 PUSH1 0x5 PUSH2 0x1FE1 PUSH2 0x1B8 DUP14 PUSH1 0x3 PUSH2 0x197B JUMP JUMPDEST ADD SWAP4 PUSH2 0x2007 PUSH2 0x1FEF DUP7 PUSH2 0x198D JUMP JUMPDEST PUSH2 0x2001 CALLER JUMPDEST SWAP2 PUSH1 0x1 PUSH1 0x1 PUSH1 0xA0 SHL SUB AND SWAP1 JUMP JUMPDEST EQ PUSH2 0x1EE1 JUMP JUMPDEST PUSH2 0x201B PUSH2 0x2016 PUSH2 0x1730 DUP8 PUSH2 0xA0B JUMP JUMPDEST PUSH2 0x1F1D JUMP JUMPDEST DUP11 PUSH2 0x24EE JUMP JUMPDEST DUP10 EQ PUSH2 0x1F61 JUMP JUMPDEST SWAP2 PUSH2 0x2032 CALLER PUSH2 0x15E1 JUMP JUMPDEST SWAP4 PUSH2 0x203F PUSH2 0xDA9 PUSH1 0x40 MLOAD SWAP1 JUMP JUMPDEST SUB SWAP1 LOG3 JUMP JUMPDEST SWAP1 PUSH2 0x1A2 SWAP5 SWAP4 SWAP3 SWAP2 PUSH2 0x1EBE JUMP JUMPDEST PUSH2 0x1830 PUSH2 0x2060 SWAP2 PUSH2 0x1828 PUSH1 0x0 SWAP1 JUMP JUMPDEST SWAP1 PUSH2 0x206B PUSH1 0x0 PUSH2 0x9DD JUMP JUMPDEST PUSH2 0x2076 PUSH2 0x1B8 DUP5 MLOAD SWAP1 JUMP JUMPDEST DUP2 LT ISZERO PUSH2 0x20BE JUMPI PUSH2 0x2097 PUSH2 0x208A DUP3 DUP6 PUSH2 0xC15 JUMP JUMPDEST MLOAD PUSH1 0x1 PUSH1 0x1 PUSH1 0xA0 SHL SUB AND SWAP1 JUMP JUMPDEST PUSH2 0x20A9 PUSH1 0x1 PUSH1 0x1 PUSH1 0xA0 SHL SUB DUP5 AND PUSH2 0x1FF4 JUMP JUMPDEST EQ PUSH2 0x20B6 JUMPI PUSH1 0x1 ADD PUSH2 0x206B JUMP JUMPDEST POP POP POP PUSH1 0x1 SWAP1 JUMP JUMPDEST POP POP POP PUSH1 0x0 SWAP1 JUMP JUMPDEST SWAP2 PUSH2 0x20DD PUSH1 0x9 PUSH2 0x100D PUSH2 0x1B8 SWAP7 SWAP5 SWAP6 PUSH2 0x1033 PUSH1 0x0 SWAP1 JUMP JUMPDEST SWAP3 PUSH2 0x2570 JUMP JUMPDEST PUSH2 0x1B8 PUSH1 0xA0 PUSH2 0xB56 JUMP JUMPDEST PUSH2 0x20F5 PUSH2 0x20E3 JUMP JUMPDEST SWAP1 PUSH1 0x0 DUP3 MSTORE PUSH1 0x20 DUP1 DUP1 DUP1 DUP1 DUP7 ADD PUSH1 0x0 DUP2 MSTORE ADD PUSH1 0x0 DUP2 MSTORE ADD PUSH1 0x0 DUP2 MSTORE ADD PUSH1 0x60 SWAP1 MSTORE POP JUMP JUMPDEST PUSH2 0x1B8 PUSH2 0x20ED JUMP JUMPDEST SWAP3 PUSH2 0x216B SWAP1 PUSH2 0x2164 PUSH2 0x1B8 SWAP5 PUSH2 0x2134 PUSH2 0x2118 JUMP JUMPDEST POP PUSH2 0x215D PUSH2 0x2145 PUSH2 0xCF0 PUSH1 0x0 PUSH2 0x9DD JUMP JUMPDEST SWAP6 PUSH2 0x2156 PUSH2 0x2151 PUSH2 0x20E3 JUMP JUMPDEST SWAP10 DUP11 MSTORE JUMP JUMPDEST PUSH1 0x20 DUP10 ADD MSTORE JUMP JUMPDEST PUSH1 0x40 DUP8 ADD MSTORE JUMP JUMPDEST PUSH1 0x60 DUP6 ADD MSTORE JUMP JUMPDEST PUSH1 0x80 DUP4 ADD MSTORE JUMP JUMPDEST PUSH2 0x1A2 SWAP1 PUSH2 0x217E PUSH2 0x21D3 JUMP JUMPDEST PUSH1 0x0 PUSH2 0x2189 DUP2 PUSH2 0x18D7 JUMP JUMPDEST PUSH1 0x1 PUSH1 0x1 PUSH1 0xA0 SHL SUB DUP2 AND PUSH1 0x1 PUSH1 0x1 PUSH1 0xA0 SHL SUB DUP5 AND EQ PUSH2 0x21AD JUMPI POP POP PUSH2 0x1A2 SWAP1 PUSH2 0x2496 JUMP JUMPDEST PUSH4 0x1E4FBDF7 PUSH1 0xE0 SHL DUP3 MSTORE PUSH1 0x1 PUSH1 0x1 PUSH1 0xA0 SHL SUB AND PUSH1 0x4 DUP3 ADD MSTORE PUSH1 0x24 SWAP1 REVERT JUMPDEST PUSH2 0x1A2 SWAP1 PUSH2 0x2172 JUMP JUMPDEST PUSH2 0x21DB PUSH2 0x1941 JUMP JUMPDEST CALLER SWAP1 PUSH2 0x21E6 DUP3 PUSH2 0x1FF4 JUMP JUMPDEST SUB PUSH2 0x21EE JUMPI POP JUMP JUMPDEST PUSH4 0x118CDAA7 PUSH1 0xE0 SHL PUSH1 0x0 SWAP1 DUP2 MSTORE PUSH1 0x1 PUSH1 0x1 PUSH1 0xA0 SHL SUB SWAP1 SWAP2 AND PUSH1 0x4 MSTORE PUSH1 0x24 SUB PUSH1 0x0 REVERT JUMPDEST ISZERO PUSH2 0x2217 JUMPI JUMP JUMPDEST PUSH1 0x40 MLOAD PUSH3 0x461BCD PUSH1 0xE5 SHL DUP2 MSTORE PUSH1 0x20 PUSH1 0x4 DUP3 ADD MSTORE PUSH1 0x12 PUSH1 0x24 DUP3 ADD MSTORE PUSH18 0x456D707479206C6561766573206172726179 PUSH1 0x70 SHL PUSH1 0x44 DUP3 ADD MSTORE PUSH1 0x64 SWAP1 REVERT JUMPDEST DUP2 ISZERO PUSH2 0x106E JUMPI DIV SWAP1 JUMP JUMPDEST ADD SWAP2 DUP3 MSTORE JUMP JUMPDEST SWAP1 PUSH2 0x2280 PUSH2 0x226D DUP4 MLOAD SWAP1 JUMP JUMPDEST PUSH2 0x227A PUSH2 0xCD0 PUSH1 0x0 PUSH2 0x9DD JUMP JUMPDEST GT PUSH2 0x2210 JUMP JUMPDEST DUP2 MLOAD SWAP2 PUSH1 0x1 SWAP3 PUSH2 0x2292 PUSH2 0xCD0 DUP6 PUSH2 0x9DD JUMP JUMPDEST EQ PUSH2 0x23F2 JUMPI PUSH2 0x22B1 PUSH2 0x22A2 DUP3 MLOAD SWAP1 JUMP JUMPDEST PUSH2 0x22AB DUP6 PUSH2 0x9DD JUMP JUMPDEST SWAP1 PUSH2 0x1129 JUMP JUMPDEST SWAP3 PUSH2 0x22CA PUSH2 0xCF0 PUSH1 0x2 SWAP6 PUSH2 0x22C4 DUP8 PUSH2 0x9DD JUMP JUMPDEST SWAP1 PUSH2 0x2251 JUMP JUMPDEST SWAP2 DUP2 PUSH2 0x22D6 PUSH1 0x0 PUSH2 0x9DD JUMP JUMPDEST SWAP1 JUMPDEST PUSH2 0x22EB JUMPI JUMPDEST POP POP POP PUSH2 0x1B8 SWAP2 SWAP3 POP PUSH2 0x258D JUMP JUMPDEST PUSH2 0x22F6 PUSH2 0x1B8 DUP4 MLOAD SWAP1 JUMP JUMPDEST DUP2 LT ISZERO PUSH2 0x23ED JUMPI SWAP1 PUSH2 0x23C2 DUP4 SWAP3 PUSH2 0x2315 PUSH2 0x230F DUP6 PUSH2 0x9DD JUMP JUMPDEST DUP3 PUSH2 0x1129 JUMP JUMPDEST PUSH2 0x2323 PUSH2 0xCD0 PUSH2 0x1B8 DUP7 MLOAD SWAP1 JUMP JUMPDEST LT ISZERO PUSH2 0x23C9 JUMPI PUSH2 0x23B9 PUSH2 0x2385 PUSH2 0x2391 PUSH2 0x2343 PUSH2 0x233F DUP6 DUP9 PUSH2 0xC15 JUMP JUMPDEST MLOAD SWAP1 JUMP JUMPDEST PUSH2 0x2361 PUSH2 0x233F PUSH2 0x235B PUSH2 0x2355 DUP12 PUSH2 0x9DD JUMP JUMPDEST DUP9 PUSH2 0x1129 JUMP JUMPDEST DUP10 PUSH2 0xC15 JUMP JUMPDEST SWAP1 PUSH2 0x236B PUSH1 0x40 MLOAD SWAP1 JUMP JUMPDEST SWAP4 DUP5 SWAP3 PUSH1 0x20 DUP5 ADD SWAP3 DUP4 PUSH1 0x20 DUP2 PUSH2 0x225B PUSH2 0x1DD SWAP4 DUP4 SWAP7 SWAP6 SWAP1 MSTORE JUMP JUMPDEST SWAP1 DUP2 SUB DUP3 MSTORE SUB DUP3 PUSH2 0xB2F JUMP JUMPDEST PUSH2 0x23A3 PUSH2 0x239C DUP3 MLOAD SWAP1 JUMP JUMPDEST SWAP2 PUSH1 0x20 ADD SWAP1 JUMP JUMPDEST KECCAK256 PUSH2 0xD36 PUSH2 0x235B PUSH2 0x23B3 DUP13 PUSH2 0x9DD JUMP JUMPDEST DUP6 PUSH2 0x2251 JUMP JUMPDEST PUSH2 0x22AB DUP9 PUSH2 0x9DD JUMP JUMPDEST SWAP1 SWAP2 PUSH2 0x22D8 JUMP JUMPDEST PUSH2 0x23E8 PUSH2 0x23D9 PUSH2 0x233F DUP4 DUP7 PUSH2 0xC15 JUMP JUMPDEST PUSH2 0xD36 PUSH2 0x235B PUSH2 0x23B3 DUP13 PUSH2 0x9DD JUMP JUMPDEST PUSH2 0x23B9 JUMP JUMPDEST PUSH2 0x22DD JUMP JUMPDEST PUSH2 0x1B8 SWAP2 SWAP3 POP PUSH2 0x233F SWAP1 PUSH2 0x2406 PUSH1 0x0 PUSH2 0x9DD JUMP JUMPDEST SWAP1 PUSH2 0xC15 JUMP JUMPDEST SWAP2 SWAP1 DUP3 SUB SWAP2 DUP3 GT PUSH2 0x1114 JUMPI JUMP JUMPDEST PUSH2 0x2461 PUSH2 0x2385 SWAP2 PUSH2 0x2428 PUSH1 0x0 SWAP1 JUMP JUMPDEST POP PUSH2 0x243C PUSH2 0x2436 PUSH1 0x1 PUSH2 0x9DD JUMP JUMPDEST NUMBER PUSH2 0x240C JUMP JUMPDEST PUSH1 0x40 MLOAD SWAP1 BLOCKHASH PUSH1 0x20 DUP1 DUP4 ADD SWAP2 DUP3 MSTORE SWAP2 SWAP5 DUP6 SWAP4 SWAP2 SWAP3 SWAP1 SWAP2 PUSH2 0x1DD DUP3 PREVRANDAO PUSH2 0x225B DUP3 TIMESTAMP DUP3 DUP3 DUP12 DUP3 JUMP JUMPDEST PUSH2 0x246C PUSH2 0x239C DUP3 MLOAD SWAP1 JUMP JUMPDEST KECCAK256 SWAP1 JUMP JUMPDEST SWAP1 PUSH1 0x1 PUSH1 0x1 PUSH1 0xA0 SHL SUB SWAP1 PUSH2 0xAF4 JUMP JUMPDEST SWAP1 PUSH2 0x248F PUSH2 0x1B8 PUSH2 0xB15 SWAP3 PUSH2 0x15E1 JUMP JUMPDEST DUP3 SLOAD PUSH2 0x2470 JUMP JUMPDEST PUSH2 0x24BC PUSH2 0x24B6 PUSH2 0x24A6 PUSH1 0x0 PUSH2 0x1794 JUMP JUMPDEST PUSH2 0x24B1 DUP5 PUSH1 0x0 PUSH2 0x247F JUMP JUMPDEST PUSH2 0x15E1 JUMP JUMPDEST SWAP2 PUSH2 0x15E1 JUMP JUMPDEST SWAP1 PUSH32 0x8BE0079C531659141344CD1FD0A4F28419497F9722A3DAAFE3B4186F6B6457E0 PUSH2 0x24E7 PUSH1 0x40 MLOAD SWAP1 JUMP JUMPDEST DUP1 DUP1 PUSH2 0x203F JUMP JUMPDEST SWAP2 PUSH2 0x2508 SWAP1 PUSH2 0x2385 SWAP3 PUSH2 0x24FF PUSH1 0x0 SWAP1 JUMP JUMPDEST POP PUSH1 0x40 MLOAD PUSH2 0x236B JUMP JUMPDEST PUSH2 0x2513 PUSH2 0x239C DUP3 MLOAD SWAP1 JUMP JUMPDEST KECCAK256 XOR SWAP1 JUMP JUMPDEST SWAP1 SWAP3 SWAP2 SWAP3 PUSH2 0x2528 PUSH2 0xB8F DUP3 PUSH2 0xB6A JUMP JUMPDEST SWAP4 DUP2 DUP6 MSTORE PUSH1 0x20 DUP1 DUP7 ADD SWAP3 MUL DUP4 ADD SWAP3 DUP2 DUP5 GT PUSH2 0x187 JUMPI SWAP2 JUMPDEST DUP4 DUP4 LT PUSH2 0x254C JUMPI POP POP POP POP JUMP JUMPDEST PUSH1 0x20 DUP1 SWAP2 PUSH2 0x255A DUP5 DUP7 PUSH2 0x195 JUMP JUMPDEST DUP2 MSTORE ADD SWAP3 ADD SWAP2 PUSH2 0x253F JUMP JUMPDEST PUSH2 0x1B8 SWAP2 CALLDATASIZE SWAP2 PUSH2 0x2518 JUMP JUMPDEST SWAP2 PUSH2 0x2588 SWAP1 PUSH2 0x1B8 SWAP5 SWAP3 PUSH2 0x2582 PUSH1 0x0 SWAP1 JUMP JUMPDEST POP PUSH2 0x2565 JUMP JUMPDEST PUSH2 0x260E JUMP JUMPDEST SWAP1 DUP2 MLOAD SWAP2 PUSH1 0x1 SWAP3 PUSH2 0x25A0 PUSH2 0xCD0 DUP6 PUSH2 0x9DD JUMP JUMPDEST EQ PUSH2 0x23F2 JUMPI PUSH2 0x25B0 PUSH2 0x22A2 DUP3 MLOAD SWAP1 JUMP JUMPDEST SWAP3 PUSH2 0x25C3 PUSH2 0xCF0 PUSH1 0x2 SWAP6 PUSH2 0x22C4 DUP8 PUSH2 0x9DD JUMP JUMPDEST SWAP2 DUP2 PUSH2 0x25CF PUSH1 0x0 PUSH2 0x9DD JUMP JUMPDEST SWAP1 JUMPDEST PUSH2 0x25E3 JUMPI POP POP POP PUSH2 0x1B8 SWAP2 SWAP3 POP PUSH2 0x258D JUMP JUMPDEST PUSH2 0x25EE PUSH2 0x1B8 DUP4 MLOAD SWAP1 JUMP JUMPDEST DUP2 LT ISZERO PUSH2 0x23ED JUMPI SWAP1 PUSH2 0x2607 DUP4 SWAP3 PUSH2 0x2315 PUSH2 0x230F DUP6 PUSH2 0x9DD JUMP JUMPDEST SWAP1 SWAP2 PUSH2 0x25D1 JUMP JUMPDEST PUSH2 0x1130 PUSH2 0x2628 SWAP3 SWAP4 PUSH2 0xCD0 SWAP3 PUSH2 0x2622 PUSH1 0x0 SWAP1 JUMP JUMPDEST POP PUSH2 0x262C JUMP JUMPDEST EQ SWAP1 JUMP JUMPDEST PUSH2 0x2636 PUSH1 0x0 PUSH2 0x9DD JUMP JUMPDEST SWAP2 JUMPDEST PUSH2 0x2643 PUSH2 0x1B8 DUP4 MLOAD SWAP1 JUMP JUMPDEST DUP4 LT ISZERO PUSH2 0x2671 JUMPI PUSH2 0x2664 PUSH2 0x266B SWAP2 PUSH2 0x265E PUSH2 0x233F DUP7 DUP7 PUSH2 0xC15 JUMP JUMPDEST SWAP1 PUSH2 0x2677 JUMP JUMPDEST SWAP3 PUSH1 0x1 ADD SWAP1 JUMP JUMPDEST SWAP2 PUSH2 0x2638 JUMP JUMPDEST SWAP2 POP POP SWAP1 JUMP JUMPDEST DUP2 DUP2 LT ISZERO PUSH2 0x2692 JUMPI SWAP1 PUSH2 0x1B8 SWAP2 PUSH1 0x0 MSTORE PUSH1 0x20 MSTORE PUSH1 0x40 PUSH1 0x0 KECCAK256 SWAP1 JUMP JUMPDEST PUSH2 0x1B8 SWAP2 PUSH1 0x0 MSTORE PUSH1 0x20 MSTORE PUSH1 0x40 PUSH1 0x0 KECCAK256 SWAP1 JUMP INVALID LOG2 PUSH5 0x6970667358 0x22 SLT KECCAK256 LT MOD PUSH0 0xEA CODESIZE LT SWAP12 PUSH28 0xC05423A17DCF9B6CDF9202DD1BD4A57162B2160DA40D401764736F6C PUSH4 0x4300081C STOP CALLER "},"methodIdentifiers":{"completeMixingRound(uint256)":"04dca6fa","createMixingProof(bytes32,bytes32,bytes32,uint256)":"e514ef2e","createMixingRound()":"16a7b4fa","emergencyInvalidateRound(uint256)":"45cba114","generateMixIndex(bytes32)":"10956f27","getMixedVote(bytes32)":"93bfe13e","getMixingParameters()":"d73705e5","getMixingRound(uint256)":"0a232e67","getRoundMixedVotes(uint256)":"47ebc739","getRoundParticipants(uint256)":"37305df5","getTotalRounds()":"1ad1ec22","getVoterRounds(address)":"18ce408f","hasVoterParticipated(uint256,address)":"cc5dd326","mixingEnabled()":"84b3f4cc","owner()":"8da5cb5b","renounceOwnership()":"715018a6","revealMixingRound(uint256)":"2e1ddd08","revealVote(uint256,bytes32,bytes32,bytes32,uint256)":"cb5a974a","setMixingEnabled(bool)":"5b7f1e5d","submitVote(uint256,bytes32,bytes32,uint256)":"b120a58a","transferOwnership(address)":"f2fde38b","updateMixingParameters(uint256,uint256,uint256,uint256)":"8cf723b8","verifyVoteInclusion(uint256,bytes32,bytes32[])":"cfe16223"}}}}}