{"contracts/ZKProofVerifier.sol":{"ZKProofVerifier":{"abi":[{"inputs":[{"internalType":"uint256","name":"_verificationThreshold","type":"uint256"}],"stateMutability":"nonpayable","type":"constructor"},{"inputs":[{"internalType":"address","name":"owner","type":"address"}],"name":"OwnableInvalidOwner","type":"error"},{"inputs":[{"internalType":"address","name":"account","type":"address"}],"name":"OwnableUnauthorizedAccount","type":"error"},{"anonymous":false,"inputs":[{"indexed":true,"internalType":"bytes32","name":"nullifier","type":"bytes32"},{"indexed":true,"internalType":"bytes32","name":"proofHash","type":"bytes32"},{"indexed":false,"internalType":"uint256","name":"timestamp","type":"uint256"}],"name":"NullifierUsed","type":"event"},{"anonymous":false,"inputs":[{"indexed":true,"internalType":"address","name":"previousOwner","type":"address"},{"indexed":true,"internalType":"address","name":"newOwner","type":"address"}],"name":"OwnershipTransferred","type":"event"},{"anonymous":false,"inputs":[{"indexed":true,"internalType":"address","name":"voter","type":"address"},{"indexed":true,"internalType":"bytes32","name":"voteHash","type":"bytes32"},{"indexed":false,"internalType":"bytes32","name":"proofHash","type":"bytes32"},{"indexed":false,"internalType":"uint256","name":"timestamp","type":"uint256"}],"name":"VoteProofSubmitted","type":"event"},{"anonymous":false,"inputs":[{"indexed":true,"internalType":"bytes32","name":"proofHash","type":"bytes32"},{"indexed":true,"internalType":"bytes32","name":"nullifierHash","type":"bytes32"},{"indexed":false,"internalType":"bytes32","name":"commitmentHash","type":"bytes32"},{"indexed":false,"internalType":"uint256","name":"timestamp","type":"uint256"}],"name":"ZKProofCreated","type":"event"},{"anonymous":false,"inputs":[{"indexed":true,"internalType":"bytes32","name":"proofHash","type":"bytes32"},{"indexed":false,"internalType":"bool","name":"isValid","type":"bool"},{"indexed":false,"internalType":"uint256","name":"timestamp","type":"uint256"}],"name":"ZKProofVerified","type":"event"},{"inputs":[{"internalType":"bytes32[]","name":"proofHashes","type":"bytes32[]"},{"internalType":"bytes32[]","name":"voteHashes","type":"bytes32[]"},{"internalType":"bytes32[]","name":"nullifiers","type":"bytes32[]"},{"internalType":"bytes32[]","name":"secrets","type":"bytes32[]"}],"name":"batchVerifyProofs","outputs":[{"internalType":"uint256","name":"validCount","type":"uint256"}],"stateMutability":"nonpayable","type":"function"},{"inputs":[{"internalType":"bytes32","name":"voteHash","type":"bytes32"},{"internalType":"bytes32","name":"nullifier","type":"bytes32"},{"internalType":"bytes32","name":"secret","type":"bytes32"},{"internalType":"bytes32","name":"commitmentHash","type":"bytes32"}],"name":"createZKProof","outputs":[{"internalType":"bytes32","name":"proofHash","type":"bytes32"}],"stateMutability":"nonpayable","type":"function"},{"inputs":[{"internalType":"bytes32","name":"proofHash","type":"bytes32"}],"name":"emergencyInvalidateProof","outputs":[],"stateMutability":"nonpayable","type":"function"},{"inputs":[],"name":"getMerkleRoot","outputs":[{"internalType":"bytes32","name":"","type":"bytes32"}],"stateMutability":"view","type":"function"},{"inputs":[],"name":"getProofCount","outputs":[{"internalType":"uint256","name":"","type":"uint256"}],"stateMutability":"view","type":"function"},{"inputs":[{"internalType":"bytes32","name":"proofHash","type":"bytes32"}],"name":"getVoteProof","outputs":[{"components":[{"internalType":"address","name":"voter","type":"address"},{"internalType":"bytes32","name":"voteHash","type":"bytes32"},{"internalType":"bytes32","name":"nullifier","type":"bytes32"},{"internalType":"bytes32","name":"secret","type":"bytes32"},{"components":[{"internalType":"bytes32","name":"publicInputs","type":"bytes32"},{"internalType":"bytes32","name":"nullifierHash","type":"bytes32"},{"internalType":"bytes32","name":"commitmentHash","type":"bytes32"},{"internalType":"bytes32","name":"proofHash","type":"bytes32"},{"internalType":"uint256","name":"timestamp","type":"uint256"},{"internalType":"bool","name":"verified","type":"bool"}],"internalType":"struct ZKProofVerifier.ZKProof","name":"zkProof","type":"tuple"}],"internalType":"struct ZKProofVerifier.VoteProof","name":"","type":"tuple"}],"stateMutability":"view","type":"function"},{"inputs":[{"internalType":"address","name":"voter","type":"address"}],"name":"getVoterProofs","outputs":[{"internalType":"bytes32[]","name":"","type":"bytes32[]"}],"stateMutability":"view","type":"function"},{"inputs":[{"internalType":"bytes32","name":"proofHash","type":"bytes32"}],"name":"getZKProof","outputs":[{"components":[{"internalType":"bytes32","name":"publicInputs","type":"bytes32"},{"internalType":"bytes32","name":"nullifierHash","type":"bytes32"},{"internalType":"bytes32","name":"commitmentHash","type":"bytes32"},{"internalType":"bytes32","name":"proofHash","type":"bytes32"},{"internalType":"uint256","name":"timestamp","type":"uint256"},{"internalType":"bool","name":"verified","type":"bool"}],"internalType":"struct ZKProofVerifier.ZKProof","name":"","type":"tuple"}],"stateMutability":"view","type":"function"},{"inputs":[{"internalType":"bytes32","name":"nullifier","type":"bytes32"}],"name":"isNullifierUsed","outputs":[{"internalType":"bool","name":"","type":"bool"}],"stateMutability":"view","type":"function"},{"inputs":[],"name":"merkleRoot","outputs":[{"internalType":"bytes32","name":"","type":"bytes32"}],"stateMutability":"view","type":"function"},{"inputs":[],"name":"owner","outputs":[{"internalType":"address","name":"","type":"address"}],"stateMutability":"view","type":"function"},{"inputs":[],"name":"proofCounter","outputs":[{"internalType":"uint256","name":"","type":"uint256"}],"stateMutability":"view","type":"function"},{"inputs":[],"name":"renounceOwnership","outputs":[],"stateMutability":"nonpayable","type":"function"},{"inputs":[{"internalType":"bytes32","name":"voteHash","type":"bytes32"},{"internalType":"bytes32","name":"nullifier","type":"bytes32"},{"internalType":"bytes32","name":"secret","type":"bytes32"},{"internalType":"bytes32","name":"commitmentHash","type":"bytes32"}],"name":"submitVoteProof","outputs":[{"internalType":"bytes32","name":"proofHash","type":"bytes32"}],"stateMutability":"nonpayable","type":"function"},{"inputs":[{"internalType":"address","name":"newOwner","type":"address"}],"name":"transferOwnership","outputs":[],"stateMutability":"nonpayable","type":"function"},{"inputs":[{"internalType":"bytes32","name":"newRoot","type":"bytes32"}],"name":"updateMerkleRoot","outputs":[],"stateMutability":"nonpayable","type":"function"},{"inputs":[{"internalType":"uint256","name":"newThreshold","type":"uint256"}],"name":"updateVerificationThreshold","outputs":[],"stateMutability":"nonpayable","type":"function"},{"inputs":[],"name":"verificationThreshold","outputs":[{"internalType":"uint256","name":"","type":"uint256"}],"stateMutability":"view","type":"function"},{"inputs":[{"internalType":"address","name":"voter","type":"address"},{"internalType":"bytes32[]","name":"proof","type":"bytes32[]"}],"name":"verifyVoterInclusion","outputs":[{"internalType":"bool","name":"isValid","type":"bool"}],"stateMutability":"view","type":"function"},{"inputs":[{"internalType":"bytes32","name":"proofHash","type":"bytes32"},{"internalType":"bytes32","name":"voteHash","type":"bytes32"},{"internalType":"bytes32","name":"nullifier","type":"bytes32"},{"internalType":"bytes32","name":"secret","type":"bytes32"}],"name":"verifyZKProof","outputs":[{"internalType":"bool","name":"isValid","type":"bool"}],"stateMutability":"nonpayable","type":"function"}],"evm":{"bytecode":{"linkReferences":{},"object":"60806040523461002a5761001961001461009e565b6100f4565b6040516119c461025c82396119c490f35b600080fd5b634e487b7160e01b600052604160045260246000fd5b90601f01601f191681019081106001600160401b0382111761006657604052565b61002f565b9061007f61007860405190565b9283610045565b565b90505190565b9060208282031261002a5761009b91610081565b90565b61009b611c20803803806100b18161006b565b928339810190610087565b90600019905b9181191691161790565b61009b61009b61009b9290565b906100e961009b6100f0926100cc565b82546100bc565b9055565b610108906101013361015b565b60076100d9565b61007f61011560006100cc565b60056100d9565b61012961009b61009b9290565b6001600160a01b031690565b61009b9061011c565b61014790610129565b9052565b60208101929161007f919061013e565b600061016681610135565b61016f81610129565b61017884610129565b1461018857505061007f90610204565b631e4fbdf760e01b825281906101a1906004830161014b565b0390fd5b61009b90610129565b61009b90546101a5565b906001600160a01b03906100c2565b61009b90610129906001600160a01b031682565b61009b906101c7565b61009b906101db565b906101fd61009b6100f0926101e4565b82546101b8565b61022a61022461021460006101ae565b61021f8460006101ed565b6101e4565b916101e4565b907f8be0079c531659141344cd1fd0a4f28419497f9722a3daafe3b4186f6b6457e061025560405190565b600090a356fe6080604052600436101561001257600080fd5b60003560e01c8063167feb091461015257806322dc7b4c1461014d5780632607788e146101485780632eb4a7ab14610143578063451b923c1461013e5780634783f0ef1461013957806349590657146101345780635089cec21461012f5780635be4ee1b1461012a5780636d9f437014610125578063715018a61461012057806389aa56a41461011b5780638da5cb5b14610116578063a067228e14610111578063c423f9101461010c578063c943394014610107578063d51b456b14610102578063e6ab8c54146100fd578063e81f927b146100f85763f2fde38b03610157576106f0565b6106d1565b6106b5565b610658565b610629565b610604565b610519565b61043d565b61040c565b6103f4565b6103d9565b6103b2565b61039a565b61037f565b610362565b610343565b6102ec565b6102b9565b6101eb565b610192565b600080fd5b600091031261015757565b610172916008021c81565b90565b906101729154610167565b61017260006007610175565b9052565b565b34610157576101a236600461015c565b6101bd6101ad610180565b6040519182918290815260200190565b0390f35b805b0361015757565b90503590610190826101c1565b9060208282031261015757610172916101ca565b34610157576101bd6102066102013660046101d7565b610730565b60405191829182901515815260200190565b6001600160a01b031690565b6101c381610218565b9050359061019082610224565b90602082820312610157576101729161022d565b0190565b9061027261026b610261845190565b8084529260200190565b9260200190565b9060005b8181106102835750505090565b9091926102a06102996001928651815260200190565b9460200190565b929101610276565b602080825261017292910190610252565b34610157576101bd6102d46102cf36600461023a565b610856565b604051918291826102a8565b61017260006006610175565b34610157576102fc36600461015c565b6101bd6101ad6102e0565b6080818303126101575761031b82826101ca565b9261017261032c84602085016101ca565b93606061033c82604087016101ca565b94016101ca565b34610157576101bd6101ad610359366004610307565b92919091610bfc565b346101575761037a6103753660046101d7565b610d72565b604051005b346101575761038f36600461015c565b6101bd6101ad610d7b565b346101575761037a6103ad3660046101d7565b610eb7565b34610157576103c236600461015c565b6101bd6101ad610ec0565b61017260006005610175565b34610157576103e936600461015c565b6101bd6101ad6103cd565b346101575761040436600461015c565b61037a610f02565b346101575761037a61041f3660046101d7565b610f21565b61018c90610218565b6020810192916101909190610424565b346101575761044d36600461015c565b6101bd610458610f3d565b6040519182918261042d565b80518252610190919060a090819061048160208201516020860152565b61049060408201516040860152565b61049f60608201516060860152565b6104ae60808201516080860152565b01511515910152565b90608080610190936104d160008201516000860190610424565b6104e060208201516020860152565b6104ef60408201516040860152565b6104fe60608201516060860152565b0151910190610464565b6101408101929161019091906104b7565b34610157576101bd61053461052f3660046101d7565b611020565b60405191829182610508565b909182601f830112156101575781359167ffffffffffffffff831161015757602001926020830284011161015757565b909160808284031261015757813567ffffffffffffffff81116101575783610599918401610540565b929093602082013567ffffffffffffffff811161015757816105bc918401610540565b929093604082013567ffffffffffffffff811161015757836105df918401610540565b929093606082013567ffffffffffffffff8111610157576106009201610540565b9091565b34610157576101bd6101ad61061a366004610570565b96959095949194939293611287565b34610157576101bd6101ad61063f366004610307565b92919091611487565b60c0810192916101909190610464565b34610157576101bd61067361066e3660046101d7565b6114cd565b60405191829182610648565b91909160408184031261015757610696838261022d565b92602082013567ffffffffffffffff8111610157576106009201610540565b34610157576101bd6102066106cb36600461067f565b9161150a565b34610157576101bd6102066106e7366004610307565b929190916116fd565b346101575761037a61070336600461023a565b61175d565b9061071290610172565b600052602052604060002090565b60ff1690565b6101729054610720565b6107476101729161073f600090565b506002610708565b610726565b61017290610218906001600160a01b031682565b6101729061074c565b61017290610760565b9061071290610769565b6101729081565b610172905461077c565b906107a861079c610261845490565b92600052602060002090565b9060005b8181106107b95750505090565b9091926107dd6107d66001926107ce87610783565b815260200190565b9460010190565b9291016107ac565b906101729161078d565b634e487b7160e01b600052604160045260246000fd5b90601f01601f1916810190811067ffffffffffffffff82111761082757604052565b6107ef565b906101906108469261083d60405190565b938480926107e5565b0383610805565b6101729061082c565b61086d61017291610865606090565b506003610772565b61084d565b90505190610190826101c1565b906020828203126101575761017291610872565b6108c0610190946108b96060949897956108b2608086019a6000870152565b6020850152565b6040830152565b0152565b6040513d6000823e3d90fd5b906101906108dd60405190565b9283610805565b61017260a06108d0565b9061018c90610218565b61017260c06108d0565b9061019061098260056109136108f8565b9461092461092082610783565b8752565b61093a61093360018301610783565b6020880152565b61095061094960028301610783565b6040880152565b61096661095f60038301610783565b6060880152565b61097c61097560048301610783565b6080880152565b01610726565b151560a0840152565b61017290610902565b634e487b7160e01b600052600060045260246000fd5b6101729051610218565b906001600160a01b03905b9181191691161790565b906109d96101726109e092610769565b82546109b4565b9055565b5190565b90600019906109bf565b90610a07610a026109e092610172565b610172565b82546109e8565b6101726101726101729290565b90610a076101726109e092610a0e565b51151590565b9060ff906109bf565b151590565b90610a4f6101726109e092610a3a565b8254610a31565b6005610adc60a061019094610a76610a70600083016109e4565b866109f2565b610a8e610a85602083016109e4565b600187016109f2565b610aa6610a9d604083016109e4565b600287016109f2565b610abe610ab5606083016109e4565b600387016109f2565b610ad6610acd608083016109e4565b60048701610a1b565b01610a2b565b9101610a3f565b9061019091610a56565b6004610b3f608061019094610b0d610b07600083016109aa565b866109c9565b610b1c610a85602083016109e4565b610b2b610a9d604083016109e4565b610b3a610ab5606083016109e4565b015190565b9101610ae3565b9061019091610aed565b634e487b7160e01b600052603260045260246000fd5b8054821015610b8957610b80600191600052602060002090565b91020190600090565b610b50565b9160001960089290920291821b911b6109bf565b9190610bb3610a026109e093610172565b908354610b8e565b90815491680100000000000000008310156108275782610be391600161019095018155610b66565b90610ba2565b9081526040810192916101909160200152565b916020610c3f600095610c0d600090565b50610c1730610769565b90610c2160405190565b97889384928391906303250ce560e61b8352888a8c60048601610893565b03925af1938415610d5657600094610d17575b5090610ca1610c9a610cb193610c95610c6c886001610708565b91610c8e610c786108e4565b96610c8333896108ee565b6109498a60208a0152565b6060860152565b61098b565b6080830152565b610cac846004610708565b610b46565b610cc882610cc3610172336003610772565b610bbb565b610cda610cd433610769565b91610172565b907ff2a38cb36bcfb3c71a301f45f653f09b07e5579c023684ab0cfdf0c1b0baf557610d0560405190565b80610d11428783610be9565b0390a390565b610cb192919450610c9a610d45610ca19260203d602011610d4f575b610d3d8183610805565b81019061087f565b9592935050610c52565b503d610d33565b6108c4565b61019090610d67611766565b6101909060066109f2565b61019090610d5b565b6101726006610783565b61019090610d91611766565b610e6f565b602080825260149082015273141c9bdbd988191bd95cc81b9bdd08195e1a5cdd60621b604082015260600190565b15610dcb57565b60405162461bcd60e51b815280610de460048201610d96565b0390fd5b61019091600091610ba2565b9190610bb36101726109e093610a0e565b61019091600091610df4565b600090600590610e218382610de8565b610e2e8360018301610de8565b610e3b8360028301610de8565b610e488360038301610de8565b610e558360048301610e05565b0155565b90600003610e6a5761019090610e11565b610994565b6000610eb261019092610eab610e916003610e8b846001610708565b01610783565b610ea4610ea061017287610a0e565b9190565b1415610dc4565b6001610708565b610e59565b61019090610d85565b6101726005610783565b610ed2611766565b610190610ef0565b6102186101726101729290565b61017290610eda565b610190610efd6000610ee7565b6117a8565b610190610eca565b61019090610f16611766565b610190906007610a1b565b61019090610f0a565b61017290610218565b6101729054610f2a565b6101726000610f33565b610f4f6108f8565b906000825260208080808080870160008152016000815201600081520160008152016000905250565b905250565b610172610f47565b610f8d6108e4565b90600082526020808080808601600081520160008152016000815201610f78610f7d565b610172610f85565b906101906110106004610fca6108e4565b94610fdd610fd782610f33565b876108ee565b610fec61093360018301610783565b610ffb61094960028301610783565b61100a61095f60038301610783565b01610902565b6080840152565b61017290610fb9565b6110376101729161102f610fb1565b506004610708565b611017565b906101729897969594939291611050611766565b61111f565b60208082526018908201527f4172726179206c656e67746873206d757374206d617463680000000000000000604082015260600190565b1561109357565b60405162461bcd60e51b815280610de460048201611055565b60010190565b9190811015610b89576020020190565b35610172816101c1565b8015156101c3565b90505190610190826110cc565b9060208282031261015757610172916110d4565b634e487b7160e01b600052601160045260246000fd5b600019811461111a5760010190565b6110f5565b979395929691949097966111308690565b98878a14888161127d575b5080611274575b61114b9061108c565b60009a6111586000610a0e565b8b5b811015611264578080808f818c8f8f908e913061117690610769565b97611181918d6110b2565b61118a906110c2565b97611195918d6110b2565b61119e906110c2565b946111a9918d6110b2565b6111b2906110c2565b916111bd918d6110b2565b6111c6906110c2565b926111d060405190565b9586948593849363e81f927b60e01b85526111ee9360048601610893565b03915a94602095f1908115610d56578e91611236575b5061121d575b61121661115a916110ac565b9050611158565b9961121661122d61115a9261110b565b9b91505061120a565b611257915060203d811161125d575b61124f8183610805565b8101906110e1565b38611204565b503d611245565b509a505050505050505050905090565b50848614611142565b869150143861113b565b6101729796959493929190600061103c565b602080825260169082015275139d5b1b1a599a595c88185b1c9958591e481d5cd95960521b604082015260600190565b156112d057565b60405162461bcd60e51b815280610de460048201611299565b906101729493929161130e611309611305610747866002610708565b1590565b6112c9565b61131e565b61024e816020939052565b61143393836114509493611332935061181b565b936113fe602061134160405190565b61135e818381016113528882611313565b90810382520382610805565b611370611369825190565b9160200190565b2061138b61137c6108f8565b91611385868452565b83830152565b611396846040830152565b6113a1886060830152565b6113ac426080830152565b600060a08201526113c7816113c28a6001610708565b610ae3565b6113dc60016113d7876002610708565b610a3f565b6113f86113f16113ec6005610783565b61110b565b6005610a1b565b016109e4565b7f506b43825c1c1ab28dc92516caa81eca0f380417c6e4317931619fbe39f11f1461144861142b88610172565b968793610172565b9361143d60405190565b918291429083610be9565b0390a3610172565b7fafbae02739cd46b44c3f5e55fad3b8aaacf8acef6bb518bd7a737a2e02157d0461147a60405190565b4281528060208101610d11565b6101729392919060006112e9565b90610172916114bd6114ad6003610e8b856001610708565b610ea4610ea06101726000610a0e565b61017291610c9591506001610708565b610172906114d9610f7d565b611495565b60601b90565b610172906114de565b6114f961018c91610218565b6114e4565b61024e816014936114ed565b610172929061152b61151b60405190565b80926113526020830191826114fe565b611536611369825190565b20916115426006610783565b926118be565b90610172949392916115636114ad6003610e8b856001610708565b61161a565b602080825260169082015275141c9bdbd988185b1c9958591e481d995c9a599a595960521b604082015260600190565b1561159f57565b60405162461bcd60e51b815280610de460048201611568565b602080825260139082015272139d5b1b1a599a595c881b9bdd08199bdd5b99606a1b604082015260600190565b156115ec57565b60405162461bcd60e51b815280610de4600482016115b8565b90151581526040810192916101909160200152565b936116659192945060019360056116346101728688610708565b019561164a61164561130589610726565b611598565b61166061165b610747846002610708565b6115e5565b61181b565b81149283156116bb576116a07fbd1fe7a887205d9ede817440b4fad4e3d32dfac34d415a05fe22a6d6a68cf20792610a02856116b594610a3f565b926116aa60405190565b918291429083611605565b0390a290565b506116c69150610172565b7fbd1fe7a887205d9ede817440b4fad4e3d32dfac34d415a05fe22a6d6a68cf2076116f060405190565b806116b542600083611605565b610172939291906000611548565b61019090611717611766565b600061172281610ee7565b61172b81610218565b61173484610218565b14611744575050610190906117a8565b631e4fbdf760e01b82528190610de4906004830161042d565b6101909061170b565b61176e610f3d565b339061178261177c83610218565b91610218565b0361178a5750565b63118cdaa760e01b6000908152906117a390600461042d565b036000fd5b6117ce6117c86117b86000610f33565b6117c38460006109c9565b610769565b91610769565b907f8be0079c531659141344cd1fd0a4f28419497f9722a3daafe3b4186f6b6457e06117f960405190565b600090a3565b602093926118158583611815829561024e979052565b01918252565b61183a919061135261182c60405190565b9485936020850193846117ff565b611845611369825190565b2090565b67ffffffffffffffff81116108275760208091020190565b9092919261187661187182611849565b6108d0565b938185526020808601920283019281841161015757915b83831061189a5750505050565b602080916118a884866101ca565b81520192019161188d565b610172913691611861565b916118d69061017294926118d0600090565b506118b3565b6118f06118f49293610ea0926118ea600090565b50611912565b9290565b1490565b90611901825190565b811015610b89576020809102010190565b61191c6000610a0e565b915b611929610172835190565b83101561195b5761194f6119559161194961194486866118f8565b6109e4565b90611961565b926110ac565b9161191e565b91505090565b8181101561197c579061017291600052602052604060002090565b6101729160005260205260406000209056fea264697066735822122062bf991757310df4e45501ca94f832674fd79a66acb8af6a0212e15d145a34f764736f6c634300081c0033","opcodes":"PUSH1 0x80 PUSH1 0x40 MSTORE CALLVALUE PUSH2 0x2A JUMPI PUSH2 0x19 PUSH2 0x14 PUSH2 0x9E JUMP JUMPDEST PUSH2 0xF4 JUMP JUMPDEST PUSH1 0x40 MLOAD PUSH2 0x19C4 PUSH2 0x25C DUP3 CODECOPY PUSH2 0x19C4 SWAP1 RETURN JUMPDEST PUSH1 0x0 DUP1 REVERT JUMPDEST PUSH4 0x4E487B71 PUSH1 0xE0 SHL PUSH1 0x0 MSTORE PUSH1 0x41 PUSH1 0x4 MSTORE PUSH1 0x24 PUSH1 0x0 REVERT JUMPDEST SWAP1 PUSH1 0x1F ADD PUSH1 0x1F NOT AND DUP2 ADD SWAP1 DUP2 LT PUSH1 0x1 PUSH1 0x1 PUSH1 0x40 SHL SUB DUP3 GT OR PUSH2 0x66 JUMPI PUSH1 0x40 MSTORE JUMP JUMPDEST PUSH2 0x2F JUMP JUMPDEST SWAP1 PUSH2 0x7F PUSH2 0x78 PUSH1 0x40 MLOAD SWAP1 JUMP JUMPDEST SWAP3 DUP4 PUSH2 0x45 JUMP JUMPDEST JUMP JUMPDEST SWAP1 POP MLOAD SWAP1 JUMP JUMPDEST SWAP1 PUSH1 0x20 DUP3 DUP3 SUB SLT PUSH2 0x2A JUMPI PUSH2 0x9B SWAP2 PUSH2 0x81 JUMP JUMPDEST SWAP1 JUMP JUMPDEST PUSH2 0x9B PUSH2 0x1C20 DUP1 CODESIZE SUB DUP1 PUSH2 0xB1 DUP2 PUSH2 0x6B JUMP JUMPDEST SWAP3 DUP4 CODECOPY DUP2 ADD SWAP1 PUSH2 0x87 JUMP JUMPDEST SWAP1 PUSH1 0x0 NOT SWAP1 JUMPDEST SWAP2 DUP2 NOT AND SWAP2 AND OR SWAP1 JUMP JUMPDEST PUSH2 0x9B PUSH2 0x9B PUSH2 0x9B SWAP3 SWAP1 JUMP JUMPDEST SWAP1 PUSH2 0xE9 PUSH2 0x9B PUSH2 0xF0 SWAP3 PUSH2 0xCC JUMP JUMPDEST DUP3 SLOAD PUSH2 0xBC JUMP JUMPDEST SWAP1 SSTORE JUMP JUMPDEST PUSH2 0x108 SWAP1 PUSH2 0x101 CALLER PUSH2 0x15B JUMP JUMPDEST PUSH1 0x7 PUSH2 0xD9 JUMP JUMPDEST PUSH2 0x7F PUSH2 0x115 PUSH1 0x0 PUSH2 0xCC JUMP JUMPDEST PUSH1 0x5 PUSH2 0xD9 JUMP JUMPDEST PUSH2 0x129 PUSH2 0x9B PUSH2 0x9B SWAP3 SWAP1 JUMP JUMPDEST PUSH1 0x1 PUSH1 0x1 PUSH1 0xA0 SHL SUB AND SWAP1 JUMP JUMPDEST PUSH2 0x9B SWAP1 PUSH2 0x11C JUMP JUMPDEST PUSH2 0x147 SWAP1 PUSH2 0x129 JUMP JUMPDEST SWAP1 MSTORE JUMP JUMPDEST PUSH1 0x20 DUP2 ADD SWAP3 SWAP2 PUSH2 0x7F SWAP2 SWAP1 PUSH2 0x13E JUMP JUMPDEST PUSH1 0x0 PUSH2 0x166 DUP2 PUSH2 0x135 JUMP JUMPDEST PUSH2 0x16F DUP2 PUSH2 0x129 JUMP JUMPDEST PUSH2 0x178 DUP5 PUSH2 0x129 JUMP JUMPDEST EQ PUSH2 0x188 JUMPI POP POP PUSH2 0x7F SWAP1 PUSH2 0x204 JUMP JUMPDEST PUSH4 0x1E4FBDF7 PUSH1 0xE0 SHL DUP3 MSTORE DUP2 SWAP1 PUSH2 0x1A1 SWAP1 PUSH1 0x4 DUP4 ADD PUSH2 0x14B JUMP JUMPDEST SUB SWAP1 REVERT JUMPDEST PUSH2 0x9B SWAP1 PUSH2 0x129 JUMP JUMPDEST PUSH2 0x9B SWAP1 SLOAD PUSH2 0x1A5 JUMP JUMPDEST SWAP1 PUSH1 0x1 PUSH1 0x1 PUSH1 0xA0 SHL SUB SWAP1 PUSH2 0xC2 JUMP JUMPDEST PUSH2 0x9B SWAP1 PUSH2 0x129 SWAP1 PUSH1 0x1 PUSH1 0x1 PUSH1 0xA0 SHL SUB AND DUP3 JUMP JUMPDEST PUSH2 0x9B SWAP1 PUSH2 0x1C7 JUMP JUMPDEST PUSH2 0x9B SWAP1 PUSH2 0x1DB JUMP JUMPDEST SWAP1 PUSH2 0x1FD PUSH2 0x9B PUSH2 0xF0 SWAP3 PUSH2 0x1E4 JUMP JUMPDEST DUP3 SLOAD PUSH2 0x1B8 JUMP JUMPDEST PUSH2 0x22A PUSH2 0x224 PUSH2 0x214 PUSH1 0x0 PUSH2 0x1AE JUMP JUMPDEST PUSH2 0x21F DUP5 PUSH1 0x0 PUSH2 0x1ED JUMP JUMPDEST PUSH2 0x1E4 JUMP JUMPDEST SWAP2 PUSH2 0x1E4 JUMP JUMPDEST SWAP1 PUSH32 0x8BE0079C531659141344CD1FD0A4F28419497F9722A3DAAFE3B4186F6B6457E0 PUSH2 0x255 PUSH1 0x40 MLOAD SWAP1 JUMP JUMPDEST PUSH1 0x0 SWAP1 LOG3 JUMP INVALID PUSH1 0x80 PUSH1 0x40 MSTORE PUSH1 0x4 CALLDATASIZE LT ISZERO PUSH2 0x12 JUMPI PUSH1 0x0 DUP1 REVERT JUMPDEST PUSH1 0x0 CALLDATALOAD PUSH1 0xE0 SHR DUP1 PUSH4 0x167FEB09 EQ PUSH2 0x152 JUMPI DUP1 PUSH4 0x22DC7B4C EQ PUSH2 0x14D JUMPI DUP1 PUSH4 0x2607788E EQ PUSH2 0x148 JUMPI DUP1 PUSH4 0x2EB4A7AB EQ PUSH2 0x143 JUMPI DUP1 PUSH4 0x451B923C EQ PUSH2 0x13E JUMPI DUP1 PUSH4 0x4783F0EF EQ PUSH2 0x139 JUMPI DUP1 PUSH4 0x49590657 EQ PUSH2 0x134 JUMPI DUP1 PUSH4 0x5089CEC2 EQ PUSH2 0x12F JUMPI DUP1 PUSH4 0x5BE4EE1B EQ PUSH2 0x12A JUMPI DUP1 PUSH4 0x6D9F4370 EQ PUSH2 0x125 JUMPI DUP1 PUSH4 0x715018A6 EQ PUSH2 0x120 JUMPI DUP1 PUSH4 0x89AA56A4 EQ PUSH2 0x11B JUMPI DUP1 PUSH4 0x8DA5CB5B EQ PUSH2 0x116 JUMPI DUP1 PUSH4 0xA067228E EQ PUSH2 0x111 JUMPI DUP1 PUSH4 0xC423F910 EQ PUSH2 0x10C JUMPI DUP1 PUSH4 0xC9433940 EQ PUSH2 0x107 JUMPI DUP1 PUSH4 0xD51B456B EQ PUSH2 0x102 JUMPI DUP1 PUSH4 0xE6AB8C54 EQ PUSH2 0xFD JUMPI DUP1 PUSH4 0xE81F927B EQ PUSH2 0xF8 JUMPI PUSH4 0xF2FDE38B SUB PUSH2 0x157 JUMPI PUSH2 0x6F0 JUMP JUMPDEST PUSH2 0x6D1 JUMP JUMPDEST PUSH2 0x6B5 JUMP JUMPDEST PUSH2 0x658 JUMP JUMPDEST PUSH2 0x629 JUMP JUMPDEST PUSH2 0x604 JUMP JUMPDEST PUSH2 0x519 JUMP JUMPDEST PUSH2 0x43D JUMP JUMPDEST PUSH2 0x40C JUMP JUMPDEST PUSH2 0x3F4 JUMP JUMPDEST PUSH2 0x3D9 JUMP JUMPDEST PUSH2 0x3B2 JUMP JUMPDEST PUSH2 0x39A JUMP JUMPDEST PUSH2 0x37F JUMP JUMPDEST PUSH2 0x362 JUMP JUMPDEST PUSH2 0x343 JUMP JUMPDEST PUSH2 0x2EC JUMP JUMPDEST PUSH2 0x2B9 JUMP JUMPDEST PUSH2 0x1EB JUMP JUMPDEST PUSH2 0x192 JUMP JUMPDEST PUSH1 0x0 DUP1 REVERT JUMPDEST PUSH1 0x0 SWAP2 SUB SLT PUSH2 0x157 JUMPI JUMP JUMPDEST PUSH2 0x172 SWAP2 PUSH1 0x8 MUL SHR DUP2 JUMP JUMPDEST SWAP1 JUMP JUMPDEST SWAP1 PUSH2 0x172 SWAP2 SLOAD PUSH2 0x167 JUMP JUMPDEST PUSH2 0x172 PUSH1 0x0 PUSH1 0x7 PUSH2 0x175 JUMP JUMPDEST SWAP1 MSTORE JUMP JUMPDEST JUMP JUMPDEST CALLVALUE PUSH2 0x157 JUMPI PUSH2 0x1A2 CALLDATASIZE PUSH1 0x4 PUSH2 0x15C JUMP JUMPDEST PUSH2 0x1BD PUSH2 0x1AD PUSH2 0x180 JUMP JUMPDEST PUSH1 0x40 MLOAD SWAP2 DUP3 SWAP2 DUP3 SWAP1 DUP2 MSTORE PUSH1 0x20 ADD SWAP1 JUMP JUMPDEST SUB SWAP1 RETURN JUMPDEST DUP1 JUMPDEST SUB PUSH2 0x157 JUMPI JUMP JUMPDEST SWAP1 POP CALLDATALOAD SWAP1 PUSH2 0x190 DUP3 PUSH2 0x1C1 JUMP JUMPDEST SWAP1 PUSH1 0x20 DUP3 DUP3 SUB SLT PUSH2 0x157 JUMPI PUSH2 0x172 SWAP2 PUSH2 0x1CA JUMP JUMPDEST CALLVALUE PUSH2 0x157 JUMPI PUSH2 0x1BD PUSH2 0x206 PUSH2 0x201 CALLDATASIZE PUSH1 0x4 PUSH2 0x1D7 JUMP JUMPDEST PUSH2 0x730 JUMP JUMPDEST PUSH1 0x40 MLOAD SWAP2 DUP3 SWAP2 DUP3 SWAP1 ISZERO ISZERO DUP2 MSTORE PUSH1 0x20 ADD SWAP1 JUMP JUMPDEST PUSH1 0x1 PUSH1 0x1 PUSH1 0xA0 SHL SUB AND SWAP1 JUMP JUMPDEST PUSH2 0x1C3 DUP2 PUSH2 0x218 JUMP JUMPDEST SWAP1 POP CALLDATALOAD SWAP1 PUSH2 0x190 DUP3 PUSH2 0x224 JUMP JUMPDEST SWAP1 PUSH1 0x20 DUP3 DUP3 SUB SLT PUSH2 0x157 JUMPI PUSH2 0x172 SWAP2 PUSH2 0x22D JUMP JUMPDEST ADD SWAP1 JUMP JUMPDEST SWAP1 PUSH2 0x272 PUSH2 0x26B PUSH2 0x261 DUP5 MLOAD SWAP1 JUMP JUMPDEST DUP1 DUP5 MSTORE SWAP3 PUSH1 0x20 ADD SWAP1 JUMP JUMPDEST SWAP3 PUSH1 0x20 ADD SWAP1 JUMP JUMPDEST SWAP1 PUSH1 0x0 JUMPDEST DUP2 DUP2 LT PUSH2 0x283 JUMPI POP POP POP SWAP1 JUMP JUMPDEST SWAP1 SWAP2 SWAP3 PUSH2 0x2A0 PUSH2 0x299 PUSH1 0x1 SWAP3 DUP7 MLOAD DUP2 MSTORE PUSH1 0x20 ADD SWAP1 JUMP JUMPDEST SWAP5 PUSH1 0x20 ADD SWAP1 JUMP JUMPDEST SWAP3 SWAP2 ADD PUSH2 0x276 JUMP JUMPDEST PUSH1 0x20 DUP1 DUP3 MSTORE PUSH2 0x172 SWAP3 SWAP2 ADD SWAP1 PUSH2 0x252 JUMP JUMPDEST CALLVALUE PUSH2 0x157 JUMPI PUSH2 0x1BD PUSH2 0x2D4 PUSH2 0x2CF CALLDATASIZE PUSH1 0x4 PUSH2 0x23A JUMP JUMPDEST PUSH2 0x856 JUMP JUMPDEST PUSH1 0x40 MLOAD SWAP2 DUP3 SWAP2 DUP3 PUSH2 0x2A8 JUMP JUMPDEST PUSH2 0x172 PUSH1 0x0 PUSH1 0x6 PUSH2 0x175 JUMP JUMPDEST CALLVALUE PUSH2 0x157 JUMPI PUSH2 0x2FC CALLDATASIZE PUSH1 0x4 PUSH2 0x15C JUMP JUMPDEST PUSH2 0x1BD PUSH2 0x1AD PUSH2 0x2E0 JUMP JUMPDEST PUSH1 0x80 DUP2 DUP4 SUB SLT PUSH2 0x157 JUMPI PUSH2 0x31B DUP3 DUP3 PUSH2 0x1CA JUMP JUMPDEST SWAP3 PUSH2 0x172 PUSH2 0x32C DUP5 PUSH1 0x20 DUP6 ADD PUSH2 0x1CA JUMP JUMPDEST SWAP4 PUSH1 0x60 PUSH2 0x33C DUP3 PUSH1 0x40 DUP8 ADD PUSH2 0x1CA JUMP JUMPDEST SWAP5 ADD PUSH2 0x1CA JUMP JUMPDEST CALLVALUE PUSH2 0x157 JUMPI PUSH2 0x1BD PUSH2 0x1AD PUSH2 0x359 CALLDATASIZE PUSH1 0x4 PUSH2 0x307 JUMP JUMPDEST SWAP3 SWAP2 SWAP1 SWAP2 PUSH2 0xBFC JUMP JUMPDEST CALLVALUE PUSH2 0x157 JUMPI PUSH2 0x37A PUSH2 0x375 CALLDATASIZE PUSH1 0x4 PUSH2 0x1D7 JUMP JUMPDEST PUSH2 0xD72 JUMP JUMPDEST PUSH1 0x40 MLOAD STOP JUMPDEST CALLVALUE PUSH2 0x157 JUMPI PUSH2 0x38F CALLDATASIZE PUSH1 0x4 PUSH2 0x15C JUMP JUMPDEST PUSH2 0x1BD PUSH2 0x1AD PUSH2 0xD7B JUMP JUMPDEST CALLVALUE PUSH2 0x157 JUMPI PUSH2 0x37A PUSH2 0x3AD CALLDATASIZE PUSH1 0x4 PUSH2 0x1D7 JUMP JUMPDEST PUSH2 0xEB7 JUMP JUMPDEST CALLVALUE PUSH2 0x157 JUMPI PUSH2 0x3C2 CALLDATASIZE PUSH1 0x4 PUSH2 0x15C JUMP JUMPDEST PUSH2 0x1BD PUSH2 0x1AD PUSH2 0xEC0 JUMP JUMPDEST PUSH2 0x172 PUSH1 0x0 PUSH1 0x5 PUSH2 0x175 JUMP JUMPDEST CALLVALUE PUSH2 0x157 JUMPI PUSH2 0x3E9 CALLDATASIZE PUSH1 0x4 PUSH2 0x15C JUMP JUMPDEST PUSH2 0x1BD PUSH2 0x1AD PUSH2 0x3CD JUMP JUMPDEST CALLVALUE PUSH2 0x157 JUMPI PUSH2 0x404 CALLDATASIZE PUSH1 0x4 PUSH2 0x15C JUMP JUMPDEST PUSH2 0x37A PUSH2 0xF02 JUMP JUMPDEST CALLVALUE PUSH2 0x157 JUMPI PUSH2 0x37A PUSH2 0x41F CALLDATASIZE PUSH1 0x4 PUSH2 0x1D7 JUMP JUMPDEST PUSH2 0xF21 JUMP JUMPDEST PUSH2 0x18C SWAP1 PUSH2 0x218 JUMP JUMPDEST PUSH1 0x20 DUP2 ADD SWAP3 SWAP2 PUSH2 0x190 SWAP2 SWAP1 PUSH2 0x424 JUMP JUMPDEST CALLVALUE PUSH2 0x157 JUMPI PUSH2 0x44D CALLDATASIZE PUSH1 0x4 PUSH2 0x15C JUMP JUMPDEST PUSH2 0x1BD PUSH2 0x458 PUSH2 0xF3D JUMP JUMPDEST PUSH1 0x40 MLOAD SWAP2 DUP3 SWAP2 DUP3 PUSH2 0x42D JUMP JUMPDEST DUP1 MLOAD DUP3 MSTORE PUSH2 0x190 SWAP2 SWAP1 PUSH1 0xA0 SWAP1 DUP2 SWAP1 PUSH2 0x481 PUSH1 0x20 DUP3 ADD MLOAD PUSH1 0x20 DUP7 ADD MSTORE JUMP JUMPDEST PUSH2 0x490 PUSH1 0x40 DUP3 ADD MLOAD PUSH1 0x40 DUP7 ADD MSTORE JUMP JUMPDEST PUSH2 0x49F PUSH1 0x60 DUP3 ADD MLOAD PUSH1 0x60 DUP7 ADD MSTORE JUMP JUMPDEST PUSH2 0x4AE PUSH1 0x80 DUP3 ADD MLOAD PUSH1 0x80 DUP7 ADD MSTORE JUMP JUMPDEST ADD MLOAD ISZERO ISZERO SWAP2 ADD MSTORE JUMP JUMPDEST SWAP1 PUSH1 0x80 DUP1 PUSH2 0x190 SWAP4 PUSH2 0x4D1 PUSH1 0x0 DUP3 ADD MLOAD PUSH1 0x0 DUP7 ADD SWAP1 PUSH2 0x424 JUMP JUMPDEST PUSH2 0x4E0 PUSH1 0x20 DUP3 ADD MLOAD PUSH1 0x20 DUP7 ADD MSTORE JUMP JUMPDEST PUSH2 0x4EF PUSH1 0x40 DUP3 ADD MLOAD PUSH1 0x40 DUP7 ADD MSTORE JUMP JUMPDEST PUSH2 0x4FE PUSH1 0x60 DUP3 ADD MLOAD PUSH1 0x60 DUP7 ADD MSTORE JUMP JUMPDEST ADD MLOAD SWAP2 ADD SWAP1 PUSH2 0x464 JUMP JUMPDEST PUSH2 0x140 DUP2 ADD SWAP3 SWAP2 PUSH2 0x190 SWAP2 SWAP1 PUSH2 0x4B7 JUMP JUMPDEST CALLVALUE PUSH2 0x157 JUMPI PUSH2 0x1BD PUSH2 0x534 PUSH2 0x52F CALLDATASIZE PUSH1 0x4 PUSH2 0x1D7 JUMP JUMPDEST PUSH2 0x1020 JUMP JUMPDEST PUSH1 0x40 MLOAD SWAP2 DUP3 SWAP2 DUP3 PUSH2 0x508 JUMP JUMPDEST SWAP1 SWAP2 DUP3 PUSH1 0x1F DUP4 ADD SLT ISZERO PUSH2 0x157 JUMPI DUP2 CALLDATALOAD SWAP2 PUSH8 0xFFFFFFFFFFFFFFFF DUP4 GT PUSH2 0x157 JUMPI PUSH1 0x20 ADD SWAP3 PUSH1 0x20 DUP4 MUL DUP5 ADD GT PUSH2 0x157 JUMPI JUMP JUMPDEST SWAP1 SWAP2 PUSH1 0x80 DUP3 DUP5 SUB SLT PUSH2 0x157 JUMPI DUP2 CALLDATALOAD PUSH8 0xFFFFFFFFFFFFFFFF DUP2 GT PUSH2 0x157 JUMPI DUP4 PUSH2 0x599 SWAP2 DUP5 ADD PUSH2 0x540 JUMP JUMPDEST SWAP3 SWAP1 SWAP4 PUSH1 0x20 DUP3 ADD CALLDATALOAD PUSH8 0xFFFFFFFFFFFFFFFF DUP2 GT PUSH2 0x157 JUMPI DUP2 PUSH2 0x5BC SWAP2 DUP5 ADD PUSH2 0x540 JUMP JUMPDEST SWAP3 SWAP1 SWAP4 PUSH1 0x40 DUP3 ADD CALLDATALOAD PUSH8 0xFFFFFFFFFFFFFFFF DUP2 GT PUSH2 0x157 JUMPI DUP4 PUSH2 0x5DF SWAP2 DUP5 ADD PUSH2 0x540 JUMP JUMPDEST SWAP3 SWAP1 SWAP4 PUSH1 0x60 DUP3 ADD CALLDATALOAD PUSH8 0xFFFFFFFFFFFFFFFF DUP2 GT PUSH2 0x157 JUMPI PUSH2 0x600 SWAP3 ADD PUSH2 0x540 JUMP JUMPDEST SWAP1 SWAP2 JUMP JUMPDEST CALLVALUE PUSH2 0x157 JUMPI PUSH2 0x1BD PUSH2 0x1AD PUSH2 0x61A CALLDATASIZE PUSH1 0x4 PUSH2 0x570 JUMP JUMPDEST SWAP7 SWAP6 SWAP1 SWAP6 SWAP5 SWAP2 SWAP5 SWAP4 SWAP3 SWAP4 PUSH2 0x1287 JUMP JUMPDEST CALLVALUE PUSH2 0x157 JUMPI PUSH2 0x1BD PUSH2 0x1AD PUSH2 0x63F CALLDATASIZE PUSH1 0x4 PUSH2 0x307 JUMP JUMPDEST SWAP3 SWAP2 SWAP1 SWAP2 PUSH2 0x1487 JUMP JUMPDEST PUSH1 0xC0 DUP2 ADD SWAP3 SWAP2 PUSH2 0x190 SWAP2 SWAP1 PUSH2 0x464 JUMP JUMPDEST CALLVALUE PUSH2 0x157 JUMPI PUSH2 0x1BD PUSH2 0x673 PUSH2 0x66E CALLDATASIZE PUSH1 0x4 PUSH2 0x1D7 JUMP JUMPDEST PUSH2 0x14CD JUMP JUMPDEST PUSH1 0x40 MLOAD SWAP2 DUP3 SWAP2 DUP3 PUSH2 0x648 JUMP JUMPDEST SWAP2 SWAP1 SWAP2 PUSH1 0x40 DUP2 DUP5 SUB SLT PUSH2 0x157 JUMPI PUSH2 0x696 DUP4 DUP3 PUSH2 0x22D JUMP JUMPDEST SWAP3 PUSH1 0x20 DUP3 ADD CALLDATALOAD PUSH8 0xFFFFFFFFFFFFFFFF DUP2 GT PUSH2 0x157 JUMPI PUSH2 0x600 SWAP3 ADD PUSH2 0x540 JUMP JUMPDEST CALLVALUE PUSH2 0x157 JUMPI PUSH2 0x1BD PUSH2 0x206 PUSH2 0x6CB CALLDATASIZE PUSH1 0x4 PUSH2 0x67F JUMP JUMPDEST SWAP2 PUSH2 0x150A JUMP JUMPDEST CALLVALUE PUSH2 0x157 JUMPI PUSH2 0x1BD PUSH2 0x206 PUSH2 0x6E7 CALLDATASIZE PUSH1 0x4 PUSH2 0x307 JUMP JUMPDEST SWAP3 SWAP2 SWAP1 SWAP2 PUSH2 0x16FD JUMP JUMPDEST CALLVALUE PUSH2 0x157 JUMPI PUSH2 0x37A PUSH2 0x703 CALLDATASIZE PUSH1 0x4 PUSH2 0x23A JUMP JUMPDEST PUSH2 0x175D JUMP JUMPDEST SWAP1 PUSH2 0x712 SWAP1 PUSH2 0x172 JUMP JUMPDEST PUSH1 0x0 MSTORE PUSH1 0x20 MSTORE PUSH1 0x40 PUSH1 0x0 KECCAK256 SWAP1 JUMP JUMPDEST PUSH1 0xFF AND SWAP1 JUMP JUMPDEST PUSH2 0x172 SWAP1 SLOAD PUSH2 0x720 JUMP JUMPDEST PUSH2 0x747 PUSH2 0x172 SWAP2 PUSH2 0x73F PUSH1 0x0 SWAP1 JUMP JUMPDEST POP PUSH1 0x2 PUSH2 0x708 JUMP JUMPDEST PUSH2 0x726 JUMP JUMPDEST PUSH2 0x172 SWAP1 PUSH2 0x218 SWAP1 PUSH1 0x1 PUSH1 0x1 PUSH1 0xA0 SHL SUB AND DUP3 JUMP JUMPDEST PUSH2 0x172 SWAP1 PUSH2 0x74C JUMP JUMPDEST PUSH2 0x172 SWAP1 PUSH2 0x760 JUMP JUMPDEST SWAP1 PUSH2 0x712 SWAP1 PUSH2 0x769 JUMP JUMPDEST PUSH2 0x172 SWAP1 DUP2 JUMP JUMPDEST PUSH2 0x172 SWAP1 SLOAD PUSH2 0x77C JUMP JUMPDEST SWAP1 PUSH2 0x7A8 PUSH2 0x79C PUSH2 0x261 DUP5 SLOAD SWAP1 JUMP JUMPDEST SWAP3 PUSH1 0x0 MSTORE PUSH1 0x20 PUSH1 0x0 KECCAK256 SWAP1 JUMP JUMPDEST SWAP1 PUSH1 0x0 JUMPDEST DUP2 DUP2 LT PUSH2 0x7B9 JUMPI POP POP POP SWAP1 JUMP JUMPDEST SWAP1 SWAP2 SWAP3 PUSH2 0x7DD PUSH2 0x7D6 PUSH1 0x1 SWAP3 PUSH2 0x7CE DUP8 PUSH2 0x783 JUMP JUMPDEST DUP2 MSTORE PUSH1 0x20 ADD SWAP1 JUMP JUMPDEST SWAP5 PUSH1 0x1 ADD SWAP1 JUMP JUMPDEST SWAP3 SWAP2 ADD PUSH2 0x7AC JUMP JUMPDEST SWAP1 PUSH2 0x172 SWAP2 PUSH2 0x78D JUMP JUMPDEST PUSH4 0x4E487B71 PUSH1 0xE0 SHL PUSH1 0x0 MSTORE PUSH1 0x41 PUSH1 0x4 MSTORE PUSH1 0x24 PUSH1 0x0 REVERT JUMPDEST SWAP1 PUSH1 0x1F ADD PUSH1 0x1F NOT AND DUP2 ADD SWAP1 DUP2 LT PUSH8 0xFFFFFFFFFFFFFFFF DUP3 GT OR PUSH2 0x827 JUMPI PUSH1 0x40 MSTORE JUMP JUMPDEST PUSH2 0x7EF JUMP JUMPDEST SWAP1 PUSH2 0x190 PUSH2 0x846 SWAP3 PUSH2 0x83D PUSH1 0x40 MLOAD SWAP1 JUMP JUMPDEST SWAP4 DUP5 DUP1 SWAP3 PUSH2 0x7E5 JUMP JUMPDEST SUB DUP4 PUSH2 0x805 JUMP JUMPDEST PUSH2 0x172 SWAP1 PUSH2 0x82C JUMP JUMPDEST PUSH2 0x86D PUSH2 0x172 SWAP2 PUSH2 0x865 PUSH1 0x60 SWAP1 JUMP JUMPDEST POP PUSH1 0x3 PUSH2 0x772 JUMP JUMPDEST PUSH2 0x84D JUMP JUMPDEST SWAP1 POP MLOAD SWAP1 PUSH2 0x190 DUP3 PUSH2 0x1C1 JUMP JUMPDEST SWAP1 PUSH1 0x20 DUP3 DUP3 SUB SLT PUSH2 0x157 JUMPI PUSH2 0x172 SWAP2 PUSH2 0x872 JUMP JUMPDEST PUSH2 0x8C0 PUSH2 0x190 SWAP5 PUSH2 0x8B9 PUSH1 0x60 SWAP5 SWAP9 SWAP8 SWAP6 PUSH2 0x8B2 PUSH1 0x80 DUP7 ADD SWAP11 PUSH1 0x0 DUP8 ADD MSTORE JUMP JUMPDEST PUSH1 0x20 DUP6 ADD MSTORE JUMP JUMPDEST PUSH1 0x40 DUP4 ADD MSTORE JUMP JUMPDEST ADD MSTORE JUMP JUMPDEST PUSH1 0x40 MLOAD RETURNDATASIZE PUSH1 0x0 DUP3 RETURNDATACOPY RETURNDATASIZE SWAP1 REVERT JUMPDEST SWAP1 PUSH2 0x190 PUSH2 0x8DD PUSH1 0x40 MLOAD SWAP1 JUMP JUMPDEST SWAP3 DUP4 PUSH2 0x805 JUMP JUMPDEST PUSH2 0x172 PUSH1 0xA0 PUSH2 0x8D0 JUMP JUMPDEST SWAP1 PUSH2 0x18C SWAP1 PUSH2 0x218 JUMP JUMPDEST PUSH2 0x172 PUSH1 0xC0 PUSH2 0x8D0 JUMP JUMPDEST SWAP1 PUSH2 0x190 PUSH2 0x982 PUSH1 0x5 PUSH2 0x913 PUSH2 0x8F8 JUMP JUMPDEST SWAP5 PUSH2 0x924 PUSH2 0x920 DUP3 PUSH2 0x783 JUMP JUMPDEST DUP8 MSTORE JUMP JUMPDEST PUSH2 0x93A PUSH2 0x933 PUSH1 0x1 DUP4 ADD PUSH2 0x783 JUMP JUMPDEST PUSH1 0x20 DUP9 ADD MSTORE JUMP JUMPDEST PUSH2 0x950 PUSH2 0x949 PUSH1 0x2 DUP4 ADD PUSH2 0x783 JUMP JUMPDEST PUSH1 0x40 DUP9 ADD MSTORE JUMP JUMPDEST PUSH2 0x966 PUSH2 0x95F PUSH1 0x3 DUP4 ADD PUSH2 0x783 JUMP JUMPDEST PUSH1 0x60 DUP9 ADD MSTORE JUMP JUMPDEST PUSH2 0x97C PUSH2 0x975 PUSH1 0x4 DUP4 ADD PUSH2 0x783 JUMP JUMPDEST PUSH1 0x80 DUP9 ADD MSTORE JUMP JUMPDEST ADD PUSH2 0x726 JUMP JUMPDEST ISZERO ISZERO PUSH1 0xA0 DUP5 ADD MSTORE JUMP JUMPDEST PUSH2 0x172 SWAP1 PUSH2 0x902 JUMP JUMPDEST PUSH4 0x4E487B71 PUSH1 0xE0 SHL PUSH1 0x0 MSTORE PUSH1 0x0 PUSH1 0x4 MSTORE PUSH1 0x24 PUSH1 0x0 REVERT JUMPDEST PUSH2 0x172 SWAP1 MLOAD PUSH2 0x218 JUMP JUMPDEST SWAP1 PUSH1 0x1 PUSH1 0x1 PUSH1 0xA0 SHL SUB SWAP1 JUMPDEST SWAP2 DUP2 NOT AND SWAP2 AND OR SWAP1 JUMP JUMPDEST SWAP1 PUSH2 0x9D9 PUSH2 0x172 PUSH2 0x9E0 SWAP3 PUSH2 0x769 JUMP JUMPDEST DUP3 SLOAD PUSH2 0x9B4 JUMP JUMPDEST SWAP1 SSTORE JUMP JUMPDEST MLOAD SWAP1 JUMP JUMPDEST SWAP1 PUSH1 0x0 NOT SWAP1 PUSH2 0x9BF JUMP JUMPDEST SWAP1 PUSH2 0xA07 PUSH2 0xA02 PUSH2 0x9E0 SWAP3 PUSH2 0x172 JUMP JUMPDEST PUSH2 0x172 JUMP JUMPDEST DUP3 SLOAD PUSH2 0x9E8 JUMP JUMPDEST PUSH2 0x172 PUSH2 0x172 PUSH2 0x172 SWAP3 SWAP1 JUMP JUMPDEST SWAP1 PUSH2 0xA07 PUSH2 0x172 PUSH2 0x9E0 SWAP3 PUSH2 0xA0E JUMP JUMPDEST MLOAD ISZERO ISZERO SWAP1 JUMP JUMPDEST SWAP1 PUSH1 0xFF SWAP1 PUSH2 0x9BF JUMP JUMPDEST ISZERO ISZERO SWAP1 JUMP JUMPDEST SWAP1 PUSH2 0xA4F PUSH2 0x172 PUSH2 0x9E0 SWAP3 PUSH2 0xA3A JUMP JUMPDEST DUP3 SLOAD PUSH2 0xA31 JUMP JUMPDEST PUSH1 0x5 PUSH2 0xADC PUSH1 0xA0 PUSH2 0x190 SWAP5 PUSH2 0xA76 PUSH2 0xA70 PUSH1 0x0 DUP4 ADD PUSH2 0x9E4 JUMP JUMPDEST DUP7 PUSH2 0x9F2 JUMP JUMPDEST PUSH2 0xA8E PUSH2 0xA85 PUSH1 0x20 DUP4 ADD PUSH2 0x9E4 JUMP JUMPDEST PUSH1 0x1 DUP8 ADD PUSH2 0x9F2 JUMP JUMPDEST PUSH2 0xAA6 PUSH2 0xA9D PUSH1 0x40 DUP4 ADD PUSH2 0x9E4 JUMP JUMPDEST PUSH1 0x2 DUP8 ADD PUSH2 0x9F2 JUMP JUMPDEST PUSH2 0xABE PUSH2 0xAB5 PUSH1 0x60 DUP4 ADD PUSH2 0x9E4 JUMP JUMPDEST PUSH1 0x3 DUP8 ADD PUSH2 0x9F2 JUMP JUMPDEST PUSH2 0xAD6 PUSH2 0xACD PUSH1 0x80 DUP4 ADD PUSH2 0x9E4 JUMP JUMPDEST PUSH1 0x4 DUP8 ADD PUSH2 0xA1B JUMP JUMPDEST ADD PUSH2 0xA2B JUMP JUMPDEST SWAP2 ADD PUSH2 0xA3F JUMP JUMPDEST SWAP1 PUSH2 0x190 SWAP2 PUSH2 0xA56 JUMP JUMPDEST PUSH1 0x4 PUSH2 0xB3F PUSH1 0x80 PUSH2 0x190 SWAP5 PUSH2 0xB0D PUSH2 0xB07 PUSH1 0x0 DUP4 ADD PUSH2 0x9AA JUMP JUMPDEST DUP7 PUSH2 0x9C9 JUMP JUMPDEST PUSH2 0xB1C PUSH2 0xA85 PUSH1 0x20 DUP4 ADD PUSH2 0x9E4 JUMP JUMPDEST PUSH2 0xB2B PUSH2 0xA9D PUSH1 0x40 DUP4 ADD PUSH2 0x9E4 JUMP JUMPDEST PUSH2 0xB3A PUSH2 0xAB5 PUSH1 0x60 DUP4 ADD PUSH2 0x9E4 JUMP JUMPDEST ADD MLOAD SWAP1 JUMP JUMPDEST SWAP2 ADD PUSH2 0xAE3 JUMP JUMPDEST SWAP1 PUSH2 0x190 SWAP2 PUSH2 0xAED JUMP JUMPDEST PUSH4 0x4E487B71 PUSH1 0xE0 SHL PUSH1 0x0 MSTORE PUSH1 0x32 PUSH1 0x4 MSTORE PUSH1 0x24 PUSH1 0x0 REVERT JUMPDEST DUP1 SLOAD DUP3 LT ISZERO PUSH2 0xB89 JUMPI PUSH2 0xB80 PUSH1 0x1 SWAP2 PUSH1 0x0 MSTORE PUSH1 0x20 PUSH1 0x0 KECCAK256 SWAP1 JUMP JUMPDEST SWAP2 MUL ADD SWAP1 PUSH1 0x0 SWAP1 JUMP JUMPDEST PUSH2 0xB50 JUMP JUMPDEST SWAP2 PUSH1 0x0 NOT PUSH1 0x8 SWAP3 SWAP1 SWAP3 MUL SWAP2 DUP3 SHL SWAP2 SHL PUSH2 0x9BF JUMP JUMPDEST SWAP2 SWAP1 PUSH2 0xBB3 PUSH2 0xA02 PUSH2 0x9E0 SWAP4 PUSH2 0x172 JUMP JUMPDEST SWAP1 DUP4 SLOAD PUSH2 0xB8E JUMP JUMPDEST SWAP1 DUP2 SLOAD SWAP2 PUSH9 0x10000000000000000 DUP4 LT ISZERO PUSH2 0x827 JUMPI DUP3 PUSH2 0xBE3 SWAP2 PUSH1 0x1 PUSH2 0x190 SWAP6 ADD DUP2 SSTORE PUSH2 0xB66 JUMP JUMPDEST SWAP1 PUSH2 0xBA2 JUMP JUMPDEST SWAP1 DUP2 MSTORE PUSH1 0x40 DUP2 ADD SWAP3 SWAP2 PUSH2 0x190 SWAP2 PUSH1 0x20 ADD MSTORE JUMP JUMPDEST SWAP2 PUSH1 0x20 PUSH2 0xC3F PUSH1 0x0 SWAP6 PUSH2 0xC0D PUSH1 0x0 SWAP1 JUMP JUMPDEST POP PUSH2 0xC17 ADDRESS PUSH2 0x769 JUMP JUMPDEST SWAP1 PUSH2 0xC21 PUSH1 0x40 MLOAD SWAP1 JUMP JUMPDEST SWAP8 DUP9 SWAP4 DUP5 SWAP3 DUP4 SWAP2 SWAP1 PUSH4 0x3250CE5 PUSH1 0xE6 SHL DUP4 MSTORE DUP9 DUP11 DUP13 PUSH1 0x4 DUP7 ADD PUSH2 0x893 JUMP JUMPDEST SUB SWAP3 GAS CALL SWAP4 DUP5 ISZERO PUSH2 0xD56 JUMPI PUSH1 0x0 SWAP5 PUSH2 0xD17 JUMPI JUMPDEST POP SWAP1 PUSH2 0xCA1 PUSH2 0xC9A PUSH2 0xCB1 SWAP4 PUSH2 0xC95 PUSH2 0xC6C DUP9 PUSH1 0x1 PUSH2 0x708 JUMP JUMPDEST SWAP2 PUSH2 0xC8E PUSH2 0xC78 PUSH2 0x8E4 JUMP JUMPDEST SWAP7 PUSH2 0xC83 CALLER DUP10 PUSH2 0x8EE JUMP JUMPDEST PUSH2 0x949 DUP11 PUSH1 0x20 DUP11 ADD MSTORE JUMP JUMPDEST PUSH1 0x60 DUP7 ADD MSTORE JUMP JUMPDEST PUSH2 0x98B JUMP JUMPDEST PUSH1 0x80 DUP4 ADD MSTORE JUMP JUMPDEST PUSH2 0xCAC DUP5 PUSH1 0x4 PUSH2 0x708 JUMP JUMPDEST PUSH2 0xB46 JUMP JUMPDEST PUSH2 0xCC8 DUP3 PUSH2 0xCC3 PUSH2 0x172 CALLER PUSH1 0x3 PUSH2 0x772 JUMP JUMPDEST PUSH2 0xBBB JUMP JUMPDEST PUSH2 0xCDA PUSH2 0xCD4 CALLER PUSH2 0x769 JUMP JUMPDEST SWAP2 PUSH2 0x172 JUMP JUMPDEST SWAP1 PUSH32 0xF2A38CB36BCFB3C71A301F45F653F09B07E5579C023684AB0CFDF0C1B0BAF557 PUSH2 0xD05 PUSH1 0x40 MLOAD SWAP1 JUMP JUMPDEST DUP1 PUSH2 0xD11 TIMESTAMP DUP8 DUP4 PUSH2 0xBE9 JUMP JUMPDEST SUB SWAP1 LOG3 SWAP1 JUMP JUMPDEST PUSH2 0xCB1 SWAP3 SWAP2 SWAP5 POP PUSH2 0xC9A PUSH2 0xD45 PUSH2 0xCA1 SWAP3 PUSH1 0x20 RETURNDATASIZE PUSH1 0x20 GT PUSH2 0xD4F JUMPI JUMPDEST PUSH2 0xD3D DUP2 DUP4 PUSH2 0x805 JUMP JUMPDEST DUP2 ADD SWAP1 PUSH2 0x87F JUMP JUMPDEST SWAP6 SWAP3 SWAP4 POP POP PUSH2 0xC52 JUMP JUMPDEST POP RETURNDATASIZE PUSH2 0xD33 JUMP JUMPDEST PUSH2 0x8C4 JUMP JUMPDEST PUSH2 0x190 SWAP1 PUSH2 0xD67 PUSH2 0x1766 JUMP JUMPDEST PUSH2 0x190 SWAP1 PUSH1 0x6 PUSH2 0x9F2 JUMP JUMPDEST PUSH2 0x190 SWAP1 PUSH2 0xD5B JUMP JUMPDEST PUSH2 0x172 PUSH1 0x6 PUSH2 0x783 JUMP JUMPDEST PUSH2 0x190 SWAP1 PUSH2 0xD91 PUSH2 0x1766 JUMP JUMPDEST PUSH2 0xE6F JUMP JUMPDEST PUSH1 0x20 DUP1 DUP3 MSTORE PUSH1 0x14 SWAP1 DUP3 ADD MSTORE PUSH20 0x141C9BDBD988191BD95CC81B9BDD08195E1A5CDD PUSH1 0x62 SHL PUSH1 0x40 DUP3 ADD MSTORE PUSH1 0x60 ADD SWAP1 JUMP JUMPDEST ISZERO PUSH2 0xDCB JUMPI JUMP JUMPDEST PUSH1 0x40 MLOAD PUSH3 0x461BCD PUSH1 0xE5 SHL DUP2 MSTORE DUP1 PUSH2 0xDE4 PUSH1 0x4 DUP3 ADD PUSH2 0xD96 JUMP JUMPDEST SUB SWAP1 REVERT JUMPDEST PUSH2 0x190 SWAP2 PUSH1 0x0 SWAP2 PUSH2 0xBA2 JUMP JUMPDEST SWAP2 SWAP1 PUSH2 0xBB3 PUSH2 0x172 PUSH2 0x9E0 SWAP4 PUSH2 0xA0E JUMP JUMPDEST PUSH2 0x190 SWAP2 PUSH1 0x0 SWAP2 PUSH2 0xDF4 JUMP JUMPDEST PUSH1 0x0 SWAP1 PUSH1 0x5 SWAP1 PUSH2 0xE21 DUP4 DUP3 PUSH2 0xDE8 JUMP JUMPDEST PUSH2 0xE2E DUP4 PUSH1 0x1 DUP4 ADD PUSH2 0xDE8 JUMP JUMPDEST PUSH2 0xE3B DUP4 PUSH1 0x2 DUP4 ADD PUSH2 0xDE8 JUMP JUMPDEST PUSH2 0xE48 DUP4 PUSH1 0x3 DUP4 ADD PUSH2 0xDE8 JUMP JUMPDEST PUSH2 0xE55 DUP4 PUSH1 0x4 DUP4 ADD PUSH2 0xE05 JUMP JUMPDEST ADD SSTORE JUMP JUMPDEST SWAP1 PUSH1 0x0 SUB PUSH2 0xE6A JUMPI PUSH2 0x190 SWAP1 PUSH2 0xE11 JUMP JUMPDEST PUSH2 0x994 JUMP JUMPDEST PUSH1 0x0 PUSH2 0xEB2 PUSH2 0x190 SWAP3 PUSH2 0xEAB PUSH2 0xE91 PUSH1 0x3 PUSH2 0xE8B DUP5 PUSH1 0x1 PUSH2 0x708 JUMP JUMPDEST ADD PUSH2 0x783 JUMP JUMPDEST PUSH2 0xEA4 PUSH2 0xEA0 PUSH2 0x172 DUP8 PUSH2 0xA0E JUMP JUMPDEST SWAP2 SWAP1 JUMP JUMPDEST EQ ISZERO PUSH2 0xDC4 JUMP JUMPDEST PUSH1 0x1 PUSH2 0x708 JUMP JUMPDEST PUSH2 0xE59 JUMP JUMPDEST PUSH2 0x190 SWAP1 PUSH2 0xD85 JUMP JUMPDEST PUSH2 0x172 PUSH1 0x5 PUSH2 0x783 JUMP JUMPDEST PUSH2 0xED2 PUSH2 0x1766 JUMP JUMPDEST PUSH2 0x190 PUSH2 0xEF0 JUMP JUMPDEST PUSH2 0x218 PUSH2 0x172 PUSH2 0x172 SWAP3 SWAP1 JUMP JUMPDEST PUSH2 0x172 SWAP1 PUSH2 0xEDA JUMP JUMPDEST PUSH2 0x190 PUSH2 0xEFD PUSH1 0x0 PUSH2 0xEE7 JUMP JUMPDEST PUSH2 0x17A8 JUMP JUMPDEST PUSH2 0x190 PUSH2 0xECA JUMP JUMPDEST PUSH2 0x190 SWAP1 PUSH2 0xF16 PUSH2 0x1766 JUMP JUMPDEST PUSH2 0x190 SWAP1 PUSH1 0x7 PUSH2 0xA1B JUMP JUMPDEST PUSH2 0x190 SWAP1 PUSH2 0xF0A JUMP JUMPDEST PUSH2 0x172 SWAP1 PUSH2 0x218 JUMP JUMPDEST PUSH2 0x172 SWAP1 SLOAD PUSH2 0xF2A JUMP JUMPDEST PUSH2 0x172 PUSH1 0x0 PUSH2 0xF33 JUMP JUMPDEST PUSH2 0xF4F PUSH2 0x8F8 JUMP JUMPDEST SWAP1 PUSH1 0x0 DUP3 MSTORE PUSH1 0x20 DUP1 DUP1 DUP1 DUP1 DUP1 DUP8 ADD PUSH1 0x0 DUP2 MSTORE ADD PUSH1 0x0 DUP2 MSTORE ADD PUSH1 0x0 DUP2 MSTORE ADD PUSH1 0x0 DUP2 MSTORE ADD PUSH1 0x0 SWAP1 MSTORE POP JUMP JUMPDEST SWAP1 MSTORE POP JUMP JUMPDEST PUSH2 0x172 PUSH2 0xF47 JUMP JUMPDEST PUSH2 0xF8D PUSH2 0x8E4 JUMP JUMPDEST SWAP1 PUSH1 0x0 DUP3 MSTORE PUSH1 0x20 DUP1 DUP1 DUP1 DUP1 DUP7 ADD PUSH1 0x0 DUP2 MSTORE ADD PUSH1 0x0 DUP2 MSTORE ADD PUSH1 0x0 DUP2 MSTORE ADD PUSH2 0xF78 PUSH2 0xF7D JUMP JUMPDEST PUSH2 0x172 PUSH2 0xF85 JUMP JUMPDEST SWAP1 PUSH2 0x190 PUSH2 0x1010 PUSH1 0x4 PUSH2 0xFCA PUSH2 0x8E4 JUMP JUMPDEST SWAP5 PUSH2 0xFDD PUSH2 0xFD7 DUP3 PUSH2 0xF33 JUMP JUMPDEST DUP8 PUSH2 0x8EE JUMP JUMPDEST PUSH2 0xFEC PUSH2 0x933 PUSH1 0x1 DUP4 ADD PUSH2 0x783 JUMP JUMPDEST PUSH2 0xFFB PUSH2 0x949 PUSH1 0x2 DUP4 ADD PUSH2 0x783 JUMP JUMPDEST PUSH2 0x100A PUSH2 0x95F PUSH1 0x3 DUP4 ADD PUSH2 0x783 JUMP JUMPDEST ADD PUSH2 0x902 JUMP JUMPDEST PUSH1 0x80 DUP5 ADD MSTORE JUMP JUMPDEST PUSH2 0x172 SWAP1 PUSH2 0xFB9 JUMP JUMPDEST PUSH2 0x1037 PUSH2 0x172 SWAP2 PUSH2 0x102F PUSH2 0xFB1 JUMP JUMPDEST POP PUSH1 0x4 PUSH2 0x708 JUMP JUMPDEST PUSH2 0x1017 JUMP JUMPDEST SWAP1 PUSH2 0x172 SWAP9 SWAP8 SWAP7 SWAP6 SWAP5 SWAP4 SWAP3 SWAP2 PUSH2 0x1050 PUSH2 0x1766 JUMP JUMPDEST PUSH2 0x111F JUMP JUMPDEST PUSH1 0x20 DUP1 DUP3 MSTORE PUSH1 0x18 SWAP1 DUP3 ADD MSTORE PUSH32 0x4172726179206C656E67746873206D757374206D617463680000000000000000 PUSH1 0x40 DUP3 ADD MSTORE PUSH1 0x60 ADD SWAP1 JUMP JUMPDEST ISZERO PUSH2 0x1093 JUMPI JUMP JUMPDEST PUSH1 0x40 MLOAD PUSH3 0x461BCD PUSH1 0xE5 SHL DUP2 MSTORE DUP1 PUSH2 0xDE4 PUSH1 0x4 DUP3 ADD PUSH2 0x1055 JUMP JUMPDEST PUSH1 0x1 ADD SWAP1 JUMP JUMPDEST SWAP2 SWAP1 DUP2 LT ISZERO PUSH2 0xB89 JUMPI PUSH1 0x20 MUL ADD SWAP1 JUMP JUMPDEST CALLDATALOAD PUSH2 0x172 DUP2 PUSH2 0x1C1 JUMP JUMPDEST DUP1 ISZERO ISZERO PUSH2 0x1C3 JUMP JUMPDEST SWAP1 POP MLOAD SWAP1 PUSH2 0x190 DUP3 PUSH2 0x10CC JUMP JUMPDEST SWAP1 PUSH1 0x20 DUP3 DUP3 SUB SLT PUSH2 0x157 JUMPI PUSH2 0x172 SWAP2 PUSH2 0x10D4 JUMP JUMPDEST PUSH4 0x4E487B71 PUSH1 0xE0 SHL PUSH1 0x0 MSTORE PUSH1 0x11 PUSH1 0x4 MSTORE PUSH1 0x24 PUSH1 0x0 REVERT JUMPDEST PUSH1 0x0 NOT DUP2 EQ PUSH2 0x111A JUMPI PUSH1 0x1 ADD SWAP1 JUMP JUMPDEST PUSH2 0x10F5 JUMP JUMPDEST SWAP8 SWAP4 SWAP6 SWAP3 SWAP7 SWAP2 SWAP5 SWAP1 SWAP8 SWAP7 PUSH2 0x1130 DUP7 SWAP1 JUMP JUMPDEST SWAP9 DUP8 DUP11 EQ DUP9 DUP2 PUSH2 0x127D JUMPI JUMPDEST POP DUP1 PUSH2 0x1274 JUMPI JUMPDEST PUSH2 0x114B SWAP1 PUSH2 0x108C JUMP JUMPDEST PUSH1 0x0 SWAP11 PUSH2 0x1158 PUSH1 0x0 PUSH2 0xA0E JUMP JUMPDEST DUP12 JUMPDEST DUP2 LT ISZERO PUSH2 0x1264 JUMPI DUP1 DUP1 DUP1 DUP16 DUP2 DUP13 DUP16 DUP16 SWAP1 DUP15 SWAP2 ADDRESS PUSH2 0x1176 SWAP1 PUSH2 0x769 JUMP JUMPDEST SWAP8 PUSH2 0x1181 SWAP2 DUP14 PUSH2 0x10B2 JUMP JUMPDEST PUSH2 0x118A SWAP1 PUSH2 0x10C2 JUMP JUMPDEST SWAP8 PUSH2 0x1195 SWAP2 DUP14 PUSH2 0x10B2 JUMP JUMPDEST PUSH2 0x119E SWAP1 PUSH2 0x10C2 JUMP JUMPDEST SWAP5 PUSH2 0x11A9 SWAP2 DUP14 PUSH2 0x10B2 JUMP JUMPDEST PUSH2 0x11B2 SWAP1 PUSH2 0x10C2 JUMP JUMPDEST SWAP2 PUSH2 0x11BD SWAP2 DUP14 PUSH2 0x10B2 JUMP JUMPDEST PUSH2 0x11C6 SWAP1 PUSH2 0x10C2 JUMP JUMPDEST SWAP3 PUSH2 0x11D0 PUSH1 0x40 MLOAD SWAP1 JUMP JUMPDEST SWAP6 DUP7 SWAP5 DUP6 SWAP4 DUP5 SWAP4 PUSH4 0xE81F927B PUSH1 0xE0 SHL DUP6 MSTORE PUSH2 0x11EE SWAP4 PUSH1 0x4 DUP7 ADD PUSH2 0x893 JUMP JUMPDEST SUB SWAP2 GAS SWAP5 PUSH1 0x20 SWAP6 CALL SWAP1 DUP2 ISZERO PUSH2 0xD56 JUMPI DUP15 SWAP2 PUSH2 0x1236 JUMPI JUMPDEST POP PUSH2 0x121D JUMPI JUMPDEST PUSH2 0x1216 PUSH2 0x115A SWAP2 PUSH2 0x10AC JUMP JUMPDEST SWAP1 POP PUSH2 0x1158 JUMP JUMPDEST SWAP10 PUSH2 0x1216 PUSH2 0x122D PUSH2 0x115A SWAP3 PUSH2 0x110B JUMP JUMPDEST SWAP12 SWAP2 POP POP PUSH2 0x120A JUMP JUMPDEST PUSH2 0x1257 SWAP2 POP PUSH1 0x20 RETURNDATASIZE DUP2 GT PUSH2 0x125D JUMPI JUMPDEST PUSH2 0x124F DUP2 DUP4 PUSH2 0x805 JUMP JUMPDEST DUP2 ADD SWAP1 PUSH2 0x10E1 JUMP JUMPDEST CODESIZE PUSH2 0x1204 JUMP JUMPDEST POP RETURNDATASIZE PUSH2 0x1245 JUMP JUMPDEST POP SWAP11 POP POP POP POP POP POP POP POP POP SWAP1 POP SWAP1 JUMP JUMPDEST POP DUP5 DUP7 EQ PUSH2 0x1142 JUMP JUMPDEST DUP7 SWAP2 POP EQ CODESIZE PUSH2 0x113B JUMP JUMPDEST PUSH2 0x172 SWAP8 SWAP7 SWAP6 SWAP5 SWAP4 SWAP3 SWAP2 SWAP1 PUSH1 0x0 PUSH2 0x103C JUMP JUMPDEST PUSH1 0x20 DUP1 DUP3 MSTORE PUSH1 0x16 SWAP1 DUP3 ADD MSTORE PUSH22 0x139D5B1B1A599A595C88185B1C9958591E481D5CD959 PUSH1 0x52 SHL PUSH1 0x40 DUP3 ADD MSTORE PUSH1 0x60 ADD SWAP1 JUMP JUMPDEST ISZERO PUSH2 0x12D0 JUMPI JUMP JUMPDEST PUSH1 0x40 MLOAD PUSH3 0x461BCD PUSH1 0xE5 SHL DUP2 MSTORE DUP1 PUSH2 0xDE4 PUSH1 0x4 DUP3 ADD PUSH2 0x1299 JUMP JUMPDEST SWAP1 PUSH2 0x172 SWAP5 SWAP4 SWAP3 SWAP2 PUSH2 0x130E PUSH2 0x1309 PUSH2 0x1305 PUSH2 0x747 DUP7 PUSH1 0x2 PUSH2 0x708 JUMP JUMPDEST ISZERO SWAP1 JUMP JUMPDEST PUSH2 0x12C9 JUMP JUMPDEST PUSH2 0x131E JUMP JUMPDEST PUSH2 0x24E DUP2 PUSH1 0x20 SWAP4 SWAP1 MSTORE JUMP JUMPDEST PUSH2 0x1433 SWAP4 DUP4 PUSH2 0x1450 SWAP5 SWAP4 PUSH2 0x1332 SWAP4 POP PUSH2 0x181B JUMP JUMPDEST SWAP4 PUSH2 0x13FE PUSH1 0x20 PUSH2 0x1341 PUSH1 0x40 MLOAD SWAP1 JUMP JUMPDEST PUSH2 0x135E DUP2 DUP4 DUP2 ADD PUSH2 0x1352 DUP9 DUP3 PUSH2 0x1313 JUMP JUMPDEST SWAP1 DUP2 SUB DUP3 MSTORE SUB DUP3 PUSH2 0x805 JUMP JUMPDEST PUSH2 0x1370 PUSH2 0x1369 DUP3 MLOAD SWAP1 JUMP JUMPDEST SWAP2 PUSH1 0x20 ADD SWAP1 JUMP JUMPDEST KECCAK256 PUSH2 0x138B PUSH2 0x137C PUSH2 0x8F8 JUMP JUMPDEST SWAP2 PUSH2 0x1385 DUP7 DUP5 MSTORE JUMP JUMPDEST DUP4 DUP4 ADD MSTORE JUMP JUMPDEST PUSH2 0x1396 DUP5 PUSH1 0x40 DUP4 ADD MSTORE JUMP JUMPDEST PUSH2 0x13A1 DUP9 PUSH1 0x60 DUP4 ADD MSTORE JUMP JUMPDEST PUSH2 0x13AC TIMESTAMP PUSH1 0x80 DUP4 ADD MSTORE JUMP JUMPDEST PUSH1 0x0 PUSH1 0xA0 DUP3 ADD MSTORE PUSH2 0x13C7 DUP2 PUSH2 0x13C2 DUP11 PUSH1 0x1 PUSH2 0x708 JUMP JUMPDEST PUSH2 0xAE3 JUMP JUMPDEST PUSH2 0x13DC PUSH1 0x1 PUSH2 0x13D7 DUP8 PUSH1 0x2 PUSH2 0x708 JUMP JUMPDEST PUSH2 0xA3F JUMP JUMPDEST PUSH2 0x13F8 PUSH2 0x13F1 PUSH2 0x13EC PUSH1 0x5 PUSH2 0x783 JUMP JUMPDEST PUSH2 0x110B JUMP JUMPDEST PUSH1 0x5 PUSH2 0xA1B JUMP JUMPDEST ADD PUSH2 0x9E4 JUMP JUMPDEST PUSH32 0x506B43825C1C1AB28DC92516CAA81ECA0F380417C6E4317931619FBE39F11F14 PUSH2 0x1448 PUSH2 0x142B DUP9 PUSH2 0x172 JUMP JUMPDEST SWAP7 DUP8 SWAP4 PUSH2 0x172 JUMP JUMPDEST SWAP4 PUSH2 0x143D PUSH1 0x40 MLOAD SWAP1 JUMP JUMPDEST SWAP2 DUP3 SWAP2 TIMESTAMP SWAP1 DUP4 PUSH2 0xBE9 JUMP JUMPDEST SUB SWAP1 LOG3 PUSH2 0x172 JUMP JUMPDEST PUSH32 0xAFBAE02739CD46B44C3F5E55FAD3B8AAACF8ACEF6BB518BD7A737A2E02157D04 PUSH2 0x147A PUSH1 0x40 MLOAD SWAP1 JUMP JUMPDEST TIMESTAMP DUP2 MSTORE DUP1 PUSH1 0x20 DUP2 ADD PUSH2 0xD11 JUMP JUMPDEST PUSH2 0x172 SWAP4 SWAP3 SWAP2 SWAP1 PUSH1 0x0 PUSH2 0x12E9 JUMP JUMPDEST SWAP1 PUSH2 0x172 SWAP2 PUSH2 0x14BD PUSH2 0x14AD PUSH1 0x3 PUSH2 0xE8B DUP6 PUSH1 0x1 PUSH2 0x708 JUMP JUMPDEST PUSH2 0xEA4 PUSH2 0xEA0 PUSH2 0x172 PUSH1 0x0 PUSH2 0xA0E JUMP JUMPDEST PUSH2 0x172 SWAP2 PUSH2 0xC95 SWAP2 POP PUSH1 0x1 PUSH2 0x708 JUMP JUMPDEST PUSH2 0x172 SWAP1 PUSH2 0x14D9 PUSH2 0xF7D JUMP JUMPDEST PUSH2 0x1495 JUMP JUMPDEST PUSH1 0x60 SHL SWAP1 JUMP JUMPDEST PUSH2 0x172 SWAP1 PUSH2 0x14DE JUMP JUMPDEST PUSH2 0x14F9 PUSH2 0x18C SWAP2 PUSH2 0x218 JUMP JUMPDEST PUSH2 0x14E4 JUMP JUMPDEST PUSH2 0x24E DUP2 PUSH1 0x14 SWAP4 PUSH2 0x14ED JUMP JUMPDEST PUSH2 0x172 SWAP3 SWAP1 PUSH2 0x152B PUSH2 0x151B PUSH1 0x40 MLOAD SWAP1 JUMP JUMPDEST DUP1 SWAP3 PUSH2 0x1352 PUSH1 0x20 DUP4 ADD SWAP2 DUP3 PUSH2 0x14FE JUMP JUMPDEST PUSH2 0x1536 PUSH2 0x1369 DUP3 MLOAD SWAP1 JUMP JUMPDEST KECCAK256 SWAP2 PUSH2 0x1542 PUSH1 0x6 PUSH2 0x783 JUMP JUMPDEST SWAP3 PUSH2 0x18BE JUMP JUMPDEST SWAP1 PUSH2 0x172 SWAP5 SWAP4 SWAP3 SWAP2 PUSH2 0x1563 PUSH2 0x14AD PUSH1 0x3 PUSH2 0xE8B DUP6 PUSH1 0x1 PUSH2 0x708 JUMP JUMPDEST PUSH2 0x161A JUMP JUMPDEST PUSH1 0x20 DUP1 DUP3 MSTORE PUSH1 0x16 SWAP1 DUP3 ADD MSTORE PUSH22 0x141C9BDBD988185B1C9958591E481D995C9A599A5959 PUSH1 0x52 SHL PUSH1 0x40 DUP3 ADD MSTORE PUSH1 0x60 ADD SWAP1 JUMP JUMPDEST ISZERO PUSH2 0x159F JUMPI JUMP JUMPDEST PUSH1 0x40 MLOAD PUSH3 0x461BCD PUSH1 0xE5 SHL DUP2 MSTORE DUP1 PUSH2 0xDE4 PUSH1 0x4 DUP3 ADD PUSH2 0x1568 JUMP JUMPDEST PUSH1 0x20 DUP1 DUP3 MSTORE PUSH1 0x13 SWAP1 DUP3 ADD MSTORE PUSH19 0x139D5B1B1A599A595C881B9BDD08199BDD5B99 PUSH1 0x6A SHL PUSH1 0x40 DUP3 ADD MSTORE PUSH1 0x60 ADD SWAP1 JUMP JUMPDEST ISZERO PUSH2 0x15EC JUMPI JUMP JUMPDEST PUSH1 0x40 MLOAD PUSH3 0x461BCD PUSH1 0xE5 SHL DUP2 MSTORE DUP1 PUSH2 0xDE4 PUSH1 0x4 DUP3 ADD PUSH2 0x15B8 JUMP JUMPDEST SWAP1 ISZERO ISZERO DUP2 MSTORE PUSH1 0x40 DUP2 ADD SWAP3 SWAP2 PUSH2 0x190 SWAP2 PUSH1 0x20 ADD MSTORE JUMP JUMPDEST SWAP4 PUSH2 0x1665 SWAP2 SWAP3 SWAP5 POP PUSH1 0x1 SWAP4 PUSH1 0x5 PUSH2 0x1634 PUSH2 0x172 DUP7 DUP9 PUSH2 0x708 JUMP JUMPDEST ADD SWAP6 PUSH2 0x164A PUSH2 0x1645 PUSH2 0x1305 DUP10 PUSH2 0x726 JUMP JUMPDEST PUSH2 0x1598 JUMP JUMPDEST PUSH2 0x1660 PUSH2 0x165B PUSH2 0x747 DUP5 PUSH1 0x2 PUSH2 0x708 JUMP JUMPDEST PUSH2 0x15E5 JUMP JUMPDEST PUSH2 0x181B JUMP JUMPDEST DUP2 EQ SWAP3 DUP4 ISZERO PUSH2 0x16BB JUMPI PUSH2 0x16A0 PUSH32 0xBD1FE7A887205D9EDE817440B4FAD4E3D32DFAC34D415A05FE22A6D6A68CF207 SWAP3 PUSH2 0xA02 DUP6 PUSH2 0x16B5 SWAP5 PUSH2 0xA3F JUMP JUMPDEST SWAP3 PUSH2 0x16AA PUSH1 0x40 MLOAD SWAP1 JUMP JUMPDEST SWAP2 DUP3 SWAP2 TIMESTAMP SWAP1 DUP4 PUSH2 0x1605 JUMP JUMPDEST SUB SWAP1 LOG2 SWAP1 JUMP JUMPDEST POP PUSH2 0x16C6 SWAP2 POP PUSH2 0x172 JUMP JUMPDEST PUSH32 0xBD1FE7A887205D9EDE817440B4FAD4E3D32DFAC34D415A05FE22A6D6A68CF207 PUSH2 0x16F0 PUSH1 0x40 MLOAD SWAP1 JUMP JUMPDEST DUP1 PUSH2 0x16B5 TIMESTAMP PUSH1 0x0 DUP4 PUSH2 0x1605 JUMP JUMPDEST PUSH2 0x172 SWAP4 SWAP3 SWAP2 SWAP1 PUSH1 0x0 PUSH2 0x1548 JUMP JUMPDEST PUSH2 0x190 SWAP1 PUSH2 0x1717 PUSH2 0x1766 JUMP JUMPDEST PUSH1 0x0 PUSH2 0x1722 DUP2 PUSH2 0xEE7 JUMP JUMPDEST PUSH2 0x172B DUP2 PUSH2 0x218 JUMP JUMPDEST PUSH2 0x1734 DUP5 PUSH2 0x218 JUMP JUMPDEST EQ PUSH2 0x1744 JUMPI POP POP PUSH2 0x190 SWAP1 PUSH2 0x17A8 JUMP JUMPDEST PUSH4 0x1E4FBDF7 PUSH1 0xE0 SHL DUP3 MSTORE DUP2 SWAP1 PUSH2 0xDE4 SWAP1 PUSH1 0x4 DUP4 ADD PUSH2 0x42D JUMP JUMPDEST PUSH2 0x190 SWAP1 PUSH2 0x170B JUMP JUMPDEST PUSH2 0x176E PUSH2 0xF3D JUMP JUMPDEST CALLER SWAP1 PUSH2 0x1782 PUSH2 0x177C DUP4 PUSH2 0x218 JUMP JUMPDEST SWAP2 PUSH2 0x218 JUMP JUMPDEST SUB PUSH2 0x178A JUMPI POP JUMP JUMPDEST PUSH4 0x118CDAA7 PUSH1 0xE0 SHL PUSH1 0x0 SWAP1 DUP2 MSTORE SWAP1 PUSH2 0x17A3 SWAP1 PUSH1 0x4 PUSH2 0x42D JUMP JUMPDEST SUB PUSH1 0x0 REVERT JUMPDEST PUSH2 0x17CE PUSH2 0x17C8 PUSH2 0x17B8 PUSH1 0x0 PUSH2 0xF33 JUMP JUMPDEST PUSH2 0x17C3 DUP5 PUSH1 0x0 PUSH2 0x9C9 JUMP JUMPDEST PUSH2 0x769 JUMP JUMPDEST SWAP2 PUSH2 0x769 JUMP JUMPDEST SWAP1 PUSH32 0x8BE0079C531659141344CD1FD0A4F28419497F9722A3DAAFE3B4186F6B6457E0 PUSH2 0x17F9 PUSH1 0x40 MLOAD SWAP1 JUMP JUMPDEST PUSH1 0x0 SWAP1 LOG3 JUMP JUMPDEST PUSH1 0x20 SWAP4 SWAP3 PUSH2 0x1815 DUP6 DUP4 PUSH2 0x1815 DUP3 SWAP6 PUSH2 0x24E SWAP8 SWAP1 MSTORE JUMP JUMPDEST ADD SWAP2 DUP3 MSTORE JUMP JUMPDEST PUSH2 0x183A SWAP2 SWAP1 PUSH2 0x1352 PUSH2 0x182C PUSH1 0x40 MLOAD SWAP1 JUMP JUMPDEST SWAP5 DUP6 SWAP4 PUSH1 0x20 DUP6 ADD SWAP4 DUP5 PUSH2 0x17FF JUMP JUMPDEST PUSH2 0x1845 PUSH2 0x1369 DUP3 MLOAD SWAP1 JUMP JUMPDEST KECCAK256 SWAP1 JUMP JUMPDEST PUSH8 0xFFFFFFFFFFFFFFFF DUP2 GT PUSH2 0x827 JUMPI PUSH1 0x20 DUP1 SWAP2 MUL ADD SWAP1 JUMP JUMPDEST SWAP1 SWAP3 SWAP2 SWAP3 PUSH2 0x1876 PUSH2 0x1871 DUP3 PUSH2 0x1849 JUMP JUMPDEST PUSH2 0x8D0 JUMP JUMPDEST SWAP4 DUP2 DUP6 MSTORE PUSH1 0x20 DUP1 DUP7 ADD SWAP3 MUL DUP4 ADD SWAP3 DUP2 DUP5 GT PUSH2 0x157 JUMPI SWAP2 JUMPDEST DUP4 DUP4 LT PUSH2 0x189A JUMPI POP POP POP POP JUMP JUMPDEST PUSH1 0x20 DUP1 SWAP2 PUSH2 0x18A8 DUP5 DUP7 PUSH2 0x1CA JUMP JUMPDEST DUP2 MSTORE ADD SWAP3 ADD SWAP2 PUSH2 0x188D JUMP JUMPDEST PUSH2 0x172 SWAP2 CALLDATASIZE SWAP2 PUSH2 0x1861 JUMP JUMPDEST SWAP2 PUSH2 0x18D6 SWAP1 PUSH2 0x172 SWAP5 SWAP3 PUSH2 0x18D0 PUSH1 0x0 SWAP1 JUMP JUMPDEST POP PUSH2 0x18B3 JUMP JUMPDEST PUSH2 0x18F0 PUSH2 0x18F4 SWAP3 SWAP4 PUSH2 0xEA0 SWAP3 PUSH2 0x18EA PUSH1 0x0 SWAP1 JUMP JUMPDEST POP PUSH2 0x1912 JUMP JUMPDEST SWAP3 SWAP1 JUMP JUMPDEST EQ SWAP1 JUMP JUMPDEST SWAP1 PUSH2 0x1901 DUP3 MLOAD SWAP1 JUMP JUMPDEST DUP2 LT ISZERO PUSH2 0xB89 JUMPI PUSH1 0x20 DUP1 SWAP2 MUL ADD ADD SWAP1 JUMP JUMPDEST PUSH2 0x191C PUSH1 0x0 PUSH2 0xA0E JUMP JUMPDEST SWAP2 JUMPDEST PUSH2 0x1929 PUSH2 0x172 DUP4 MLOAD SWAP1 JUMP JUMPDEST DUP4 LT ISZERO PUSH2 0x195B JUMPI PUSH2 0x194F PUSH2 0x1955 SWAP2 PUSH2 0x1949 PUSH2 0x1944 DUP7 DUP7 PUSH2 0x18F8 JUMP JUMPDEST PUSH2 0x9E4 JUMP JUMPDEST SWAP1 PUSH2 0x1961 JUMP JUMPDEST SWAP3 PUSH2 0x10AC JUMP JUMPDEST SWAP2 PUSH2 0x191E JUMP JUMPDEST SWAP2 POP POP SWAP1 JUMP JUMPDEST DUP2 DUP2 LT ISZERO PUSH2 0x197C JUMPI SWAP1 PUSH2 0x172 SWAP2 PUSH1 0x0 MSTORE PUSH1 0x20 MSTORE PUSH1 0x40 PUSH1 0x0 KECCAK256 SWAP1 JUMP JUMPDEST PUSH2 0x172 SWAP2 PUSH1 0x0 MSTORE PUSH1 0x20 MSTORE PUSH1 0x40 PUSH1 0x0 KECCAK256 SWAP1 JUMP INVALID LOG2 PUSH5 0x6970667358 0x22 SLT KECCAK256 PUSH3 0xBF9917 JUMPI BALANCE 0xD DELEGATECALL 0xE4 SSTORE ADD 0xCA SWAP5 0xF8 ORIGIN PUSH8 0x4FD79A66ACB8AF6A MUL SLT 0xE1 TSTORE EQ GAS CALLVALUE 0xF7 PUSH5 0x736F6C6343 STOP ADDMOD SHR STOP CALLER "},"methodIdentifiers":{"batchVerifyProofs(bytes32[],bytes32[],bytes32[],bytes32[])":"c423f910","createZKProof(bytes32,bytes32,bytes32,bytes32)":"c9433940","emergencyInvalidateProof(bytes32)":"5089cec2","getMerkleRoot()":"49590657","getProofCount()":"5be4ee1b","getVoteProof(bytes32)":"a067228e","getVoterProofs(address)":"2607788e","getZKProof(bytes32)":"d51b456b","isNullifierUsed(bytes32)":"22dc7b4c","merkleRoot()":"2eb4a7ab","owner()":"8da5cb5b","proofCounter()":"6d9f4370","renounceOwnership()":"715018a6","submitVoteProof(bytes32,bytes32,bytes32,bytes32)":"451b923c","transferOwnership(address)":"f2fde38b","updateMerkleRoot(bytes32)":"4783f0ef","updateVerificationThreshold(uint256)":"89aa56a4","verificationThreshold()":"167feb09","verifyVoterInclusion(address,bytes32[])":"e6ab8c54","verifyZKProof(bytes32,bytes32,bytes32,bytes32)":"e81f927b"}}}}}