{"contracts/LiquidDemocracy.sol":{"LiquidDemocracy":{"abi":[{"inputs":[{"internalType":"uint256","name":"_maxDelegationDepth","type":"uint256"},{"internalType":"uint256","name":"_minDelegationPower","type":"uint256"}],"stateMutability":"nonpayable","type":"constructor"},{"inputs":[{"internalType":"address","name":"owner","type":"address"}],"name":"OwnableInvalidOwner","type":"error"},{"inputs":[{"internalType":"address","name":"account","type":"address"}],"name":"OwnableUnauthorizedAccount","type":"error"},{"inputs":[],"name":"ReentrancyGuardReentrantCall","type":"error"},{"anonymous":false,"inputs":[{"indexed":true,"internalType":"address","name":"voter","type":"address"},{"indexed":false,"internalType":"uint256","name":"newTotalPower","type":"uint256"}],"name":"DelegationChainUpdated","type":"event"},{"anonymous":false,"inputs":[{"indexed":true,"internalType":"address","name":"from","type":"address"},{"indexed":true,"internalType":"address","name":"to","type":"address"},{"indexed":false,"internalType":"uint256","name":"power","type":"uint256"},{"indexed":false,"internalType":"uint256","name":"delegationId","type":"uint256"},{"indexed":false,"internalType":"uint256","name":"timestamp","type":"uint256"}],"name":"DelegationCreated","type":"event"},{"anonymous":false,"inputs":[{"indexed":true,"internalType":"address","name":"from","type":"address"},{"indexed":true,"internalType":"address","name":"to","type":"address"},{"indexed":false,"internalType":"uint256","name":"delegationId","type":"uint256"},{"indexed":false,"internalType":"uint256","name":"timestamp","type":"uint256"}],"name":"DelegationRevoked","type":"event"},{"anonymous":false,"inputs":[{"indexed":true,"internalType":"address","name":"previousOwner","type":"address"},{"indexed":true,"internalType":"address","name":"newOwner","type":"address"}],"name":"OwnershipTransferred","type":"event"},{"anonymous":false,"inputs":[{"indexed":true,"internalType":"address","name":"voter","type":"address"},{"indexed":false,"internalType":"uint256","name":"candidateId","type":"uint256"},{"indexed":false,"internalType":"uint256","name":"powerUsed","type":"uint256"},{"indexed":false,"internalType":"bool","name":"isDelegated","type":"bool"},{"indexed":false,"internalType":"uint256","name":"timestamp","type":"uint256"}],"name":"VoteCast","type":"event"},{"anonymous":false,"inputs":[{"indexed":true,"internalType":"address","name":"voter","type":"address"},{"indexed":false,"internalType":"uint256","name":"power","type":"uint256"},{"indexed":false,"internalType":"uint256","name":"timestamp","type":"uint256"}],"name":"VoterRegistered","type":"event"},{"anonymous":false,"inputs":[{"indexed":false,"internalType":"uint256","name":"endTime","type":"uint256"}],"name":"VotingSessionEnded","type":"event"},{"anonymous":false,"inputs":[{"indexed":false,"internalType":"uint256","name":"startTime","type":"uint256"},{"indexed":false,"internalType":"uint256","name":"endTime","type":"uint256"}],"name":"VotingSessionStarted","type":"event"},{"inputs":[{"internalType":"address","name":"delegate","type":"address"},{"internalType":"uint256","name":"power","type":"uint256"}],"name":"createDelegation","outputs":[{"internalType":"uint256","name":"delegationId","type":"uint256"}],"stateMutability":"nonpayable","type":"function"},{"inputs":[],"name":"endVotingSession","outputs":[],"stateMutability":"nonpayable","type":"function"},{"inputs":[],"name":"getActiveDelegations","outputs":[{"internalType":"uint256","name":"","type":"uint256"}],"stateMutability":"view","type":"function"},{"inputs":[{"internalType":"uint256","name":"candidateId","type":"uint256"}],"name":"getCandidateTotalVotes","outputs":[{"internalType":"uint256","name":"","type":"uint256"}],"stateMutability":"view","type":"function"},{"inputs":[{"internalType":"uint256","name":"candidateId","type":"uint256"}],"name":"getCandidateVotes","outputs":[{"components":[{"internalType":"address","name":"voter","type":"address"},{"internalType":"uint256","name":"candidateId","type":"uint256"},{"internalType":"uint256","name":"powerUsed","type":"uint256"},{"internalType":"uint256","name":"timestamp","type":"uint256"},{"internalType":"bytes32","name":"voteHash","type":"bytes32"},{"internalType":"bool","name":"isDelegated","type":"bool"}],"internalType":"struct LiquidDemocracy.Vote[]","name":"","type":"tuple[]"}],"stateMutability":"view","type":"function"},{"inputs":[{"internalType":"uint256","name":"delegationId","type":"uint256"}],"name":"getDelegation","outputs":[{"components":[{"internalType":"address","name":"from","type":"address"},{"internalType":"address","name":"to","type":"address"},{"internalType":"uint256","name":"power","type":"uint256"},{"internalType":"uint256","name":"timestamp","type":"uint256"},{"internalType":"bool","name":"isActive","type":"bool"},{"internalType":"uint256","name":"delegationId","type":"uint256"}],"internalType":"struct LiquidDemocracy.Delegation","name":"","type":"tuple"}],"stateMutability":"view","type":"function"},{"inputs":[],"name":"getRegisteredVoters","outputs":[{"internalType":"address[]","name":"","type":"address[]"}],"stateMutability":"view","type":"function"},{"inputs":[],"name":"getTotalVotingPower","outputs":[{"internalType":"uint256","name":"","type":"uint256"}],"stateMutability":"view","type":"function"},{"inputs":[{"internalType":"address","name":"voter","type":"address"}],"name":"getVoter","outputs":[{"components":[{"internalType":"address","name":"voterAddress","type":"address"},{"internalType":"uint256","name":"votingPower","type":"uint256"},{"internalType":"uint256","name":"delegatedPower","type":"uint256"},{"internalType":"uint256","name":"totalPower","type":"uint256"},{"internalType":"address","name":"delegate","type":"address"},{"internalType":"address[]","name":"delegates","type":"address[]"},{"internalType":"bool","name":"isActive","type":"bool"},{"internalType":"uint256","name":"lastVoteTime","type":"uint256"},{"internalType":"uint256","name":"delegationCount","type":"uint256"}],"internalType":"struct LiquidDemocracy.Voter","name":"","type":"tuple"}],"stateMutability":"view","type":"function"},{"inputs":[{"internalType":"address","name":"voter","type":"address"}],"name":"getVoterDelegations","outputs":[{"internalType":"uint256[]","name":"","type":"uint256[]"}],"stateMutability":"view","type":"function"},{"inputs":[{"internalType":"address","name":"voter","type":"address"},{"internalType":"uint256","name":"candidateId","type":"uint256"}],"name":"hasVoterVoted","outputs":[{"internalType":"bool","name":"","type":"bool"}],"stateMutability":"view","type":"function"},{"inputs":[],"name":"maxDelegationDepth","outputs":[{"internalType":"uint256","name":"","type":"uint256"}],"stateMutability":"view","type":"function"},{"inputs":[],"name":"minDelegationPower","outputs":[{"internalType":"uint256","name":"","type":"uint256"}],"stateMutability":"view","type":"function"},{"inputs":[],"name":"owner","outputs":[{"internalType":"address","name":"","type":"address"}],"stateMutability":"view","type":"function"},{"inputs":[{"internalType":"address","name":"voter","type":"address"},{"internalType":"uint256","name":"power","type":"uint256"}],"name":"registerVoter","outputs":[],"stateMutability":"nonpayable","type":"function"},{"inputs":[],"name":"renounceOwnership","outputs":[],"stateMutability":"nonpayable","type":"function"},{"inputs":[{"internalType":"uint256","name":"delegationId","type":"uint256"}],"name":"revokeDelegation","outputs":[],"stateMutability":"nonpayable","type":"function"},{"inputs":[{"internalType":"uint256","name":"durationSeconds","type":"uint256"}],"name":"startVotingSession","outputs":[],"stateMutability":"nonpayable","type":"function"},{"inputs":[{"internalType":"address","name":"newOwner","type":"address"}],"name":"transferOwnership","outputs":[],"stateMutability":"nonpayable","type":"function"},{"inputs":[{"internalType":"uint256","name":"_maxDelegationDepth","type":"uint256"},{"internalType":"uint256","name":"_minDelegationPower","type":"uint256"}],"name":"updateDelegationParameters","outputs":[],"stateMutability":"nonpayable","type":"function"},{"inputs":[{"internalType":"uint256","name":"candidateId","type":"uint256"},{"internalType":"uint256","name":"power","type":"uint256"}],"name":"vote","outputs":[],"stateMutability":"nonpayable","type":"function"},{"inputs":[],"name":"votingActive","outputs":[{"internalType":"bool","name":"","type":"bool"}],"stateMutability":"view","type":"function"},{"inputs":[],"name":"votingEndTime","outputs":[{"internalType":"uint256","name":"","type":"uint256"}],"stateMutability":"view","type":"function"},{"inputs":[],"name":"votingStartTime","outputs":[{"internalType":"uint256","name":"","type":"uint256"}],"stateMutability":"view","type":"function"}],"evm":{"bytecode":{"linkReferences":{},"object":"60806040523461002b5761001a6100146100ae565b90610108565b6040516126146102b6823961261490f35b600080fd5b634e487b7160e01b600052604160045260246000fd5b90601f01601f191681019081106001600160401b0382111761006757604052565b610030565b9061008061007960405190565b9283610046565b565b90505190565b919060408382031261002b576100ab9060206100a48286610082565b9401610082565b90565b6100cc6128ca803803806100c18161006c565b928339810190610088565b9091565b90600019905b9181191691161790565b6100ab6100ab6100ab9290565b906100fd6100ab610104926100e0565b82546100d0565b9055565b90610120610127926101193361015b565b600e6100ed565b600f6100ed565b61008061013460006100e0565b61013f8160086100ed565b61014a81600a6100ed565b60096100ed565b6100ab60016100e0565b610164906101b5565b61008061016f610151565b60016100ed565b6101836100ab6100ab9290565b6001600160a01b031690565b6100ab90610176565b6101a190610183565b9052565b6020810192916100809190610198565b60006101c08161018f565b6101c981610183565b6101d284610183565b146101e25750506100809061025e565b631e4fbdf760e01b825281906101fb90600483016101a5565b0390fd5b6100ab90610183565b6100ab90546101ff565b906001600160a01b03906100d6565b6100ab90610183906001600160a01b031682565b6100ab90610221565b6100ab90610235565b906102576100ab6101049261023e565b8254610212565b61028461027e61026e6000610208565b610279846000610247565b61023e565b9161023e565b907f8be0079c531659141344cd1fd0a4f28419497f9722a3daafe3b4186f6b6457e06102af60405190565b600090a356fe6080604052600436101561001257600080fd5b60003560e01c80630dd357011461019257806311acc1a71461018d5780631ea736e0146101885780632019a608146101835780632bc4a6e71461017e57806336dab67814610179578063408e2727146101745780634f1b49721461016f57806365d082be1461016a578063715018a614610165578063866163c0146101605780638da5cb5b1461015b5780639980a55a146101565780639b541f7614610151578063a288210c1461014c578063a7bfab1614610147578063abdd80a314610142578063b384abef1461013d578063bd3d425d14610138578063cbea81ef14610133578063cd8e09031461012e578063ce52c4ef14610129578063d4f50f98146101245763f2fde38b0361019757610872565b61084b565b61074b565b610730565b61070b565b6106f3565b6106da565b6106bf565b6106a7565b61068e565b610656565b61061b565b6105dc565b6105b5565b6104e3565b6104c8565b6104a1565b6103f5565b6103b4565b610381565b6102f2565b6102cb565b61027d565b610247565b600080fd5b805b0361019757565b905035906101b28261019c565b565b90602082820312610197576101c8916101a5565b90565b6001600160a01b031690565b9052565b80516001600160a01b031682526101b2919060a09081906020818101516001600160a01b03169085015261021460408201516040860152565b61022360608201516060860152565b6080818101511515908501525b0151910152565b60c0810192916101b291906101db565b346101975761026e61026261025d3660046101b4565b610a1c565b60405191829182610237565b0390f35b600091031261019757565b346101975761028d366004610272565b61026e610298610a38565b6040515b9182918290815260200190565b6101c8916008021c81565b906101c891546102a9565b6101c86000600d6102b4565b34610197576102db366004610272565b61026e6102986102bf565b6101c86000600c6102b4565b3461019757610302366004610272565b61026e6102986102e6565b0190565b9061033161032a610320845190565b8084529260200190565b9260200190565b9060005b8181106103425750505090565b90919261036861036160019286516001600160a01b0316815260200190565b9460200190565b929101610335565b60208082526101c892910190610311565b3461019757610391366004610272565b61026e61039c610adf565b60405191829182610370565b6101c86000600f6102b4565b34610197576103c4366004610272565b61026e6102986103a8565b6101c8916008021c5b60ff1690565b906101c891546103cf565b6101c86000600b6103de565b3461019757610405366004610272565b61026e6104106103e9565b60405191829182901515815260200190565b6001600160a01b03811661019e565b905035906101b282610422565b90602082820312610197576101c891610431565b9061046161032a610320845190565b9060005b8181106104725750505090565b9091926104886103616001928651815260200190565b929101610465565b60208082526101c892910190610452565b346101975761026e6104bc6104b736600461043e565b610b8b565b60405191829182610490565b34610197576104d8366004610272565b61026e610298610ba7565b34610197576104f3366004610272565b6104fb610be9565b604051005b80516001600160a01b031682526101b2919060a090819061052660208201516020860152565b61053560408201516040860152565b61054460608201516060860152565b61055360808201516080860152565b01511515910152565b9061030d8160c093610500565b9061057861032a610320845190565b9060005b8181106105895750505090565b90919261059c610361600192865161055c565b92910161057c565b60208082526101c892910190610569565b346101975761026e6105d06105cb3660046101b4565b610d06565b604051918291826105a4565b34610197576105ec366004610272565b61026e6106016000546001600160a01b031690565b604051918291826001600160a01b03909116815260200190565b34610197576104fb61062e3660046101b4565b610e9a565b9190604083820312610197576101c890602061064f8286610431565b94016101a5565b346101975761026e61041061066c366004610633565b90610ea3565b9190604083820312610197576101c890602061064f82866101a5565b34610197576104fb6106a1366004610672565b90610eeb565b34610197576106b7366004610272565b6104fb610f9c565b346101975761026e6102986106d53660046101b4565b610fe2565b34610197576104fb6106ed366004610672565b906114cd565b34610197576104fb6107063660046101b4565b611756565b34610197576104fb61071e366004610633565b90611b82565b6101c86000600e6102b4565b3461019757610740366004610272565b61026e610298610724565b346101975761026e610298610761366004610633565b906120bc565b9061077661032a610320845190565b9060005b8181106107875750505090565b9091926107a661036160019286516001600160a01b0316815260200190565b92910161077a565b80516001600160a01b03168252906101c8906101008061081e61012084016107db60208801516020870152565b6107ea60408801516040870152565b6107f960608801516060870152565b6080878101516001600160a01b03169086015260a087015185820360a0870152610767565b60c0808701511515908501529461023060e082015160e0860152565b60208082526101c8929101906107ae565b346101975761026e61086661086136600461043e565b6121d3565b6040519182918261083a565b34610197576104fb61088536600461043e565b612247565b634e487b7160e01b600052604160045260246000fd5b90601f01601f1916810190811067ffffffffffffffff8211176108c257604052565b61088a565b906101b26108d460405190565b92836108a0565b6101c860c06108c7565b6108ed6108db565b9060008252602080808080808701600081520160005b815201600081520160008152016000905250565b6101c86108e5565b6101c86101c86101c89290565b906109369061091f565b600052602052604060002090565b6101c89081565b6101c89054610944565b6101c8906103d8565b6101c89054610955565b906101b2610a0c60056109796108db565b9461099b61098e82546001600160a01b031690565b6001600160a01b03168752565b6109c26109b260018301546001600160a01b031690565b6001600160a01b03166020880152565b6109d86109d16002830161094b565b6040880152565b6109ee6109e76003830161094b565b6060880152565b610a066109fd6004830161095e565b15156080880152565b0161094b565b60a0840152565b6101c890610968565b610a336101c891610a2b610917565b50600361092c565b610a13565b6101c8600961094b565b90610a5d610a51610320845490565b92600052602060002090565b9060005b818110610a6e5750505090565b909192610aa3610a9c600192610a8b87546001600160a01b031690565b6001600160a01b0316815260200190565b9460010190565b929101610a61565b906101c891610a42565b906101b2610acf92610ac660405190565b93848092610aab565b03836108a0565b6101c890610ab5565b6101c86007610ad6565b6101c8906101cb906001600160a01b031682565b6101c890610ae9565b6101c890610afd565b9061093690610b06565b90610b28610a51610320845490565b9060005b818110610b395750505090565b909192610b56610a9c600192610b4e8761094b565b815260200190565b929101610b2c565b906101c891610b19565b906101b2610acf92610b7960405190565b93848092610b5e565b6101c890610b68565b610ba26101c891610b9a606090565b506004610b0f565b610b82565b6101c8600a61094b565b610bb9612250565b6101b2610bd7565b6101cb6101c86101c89290565b6101c890610bc1565b6101b2610be46000610bce565b612291565b6101b2610bb1565b67ffffffffffffffff81116108c25760208091020190565b90610c1b610c1683610bf1565b6108c7565b918252565b906101b2610c966005610c316108db565b94610c4661098e82546001600160a01b031690565b610c5c610c556001830161094b565b6020880152565b610c6b6109d16002830161094b565b610c7a6109e76003830161094b565b610c90610c896004830161094b565b6080880152565b0161095e565b151560a0840152565b6101c890610c20565b90610cb1825490565b610cba81610c09565b92610cce6020850191600052602060002090565b6000915b838310610cdf5750505050565b60066020600192610cef85610c9f565b815201920192019190610cd2565b6101c890610ca8565b610d1d6101c891610d15606090565b50600561092c565b610cfd565b6101b290610d2e612250565b610e06565b15610d3a57565b60405162461bcd60e51b8152602060048201526015602482015274566f74696e6720616c72656164792061637469766560581b604482015280606481015b0390fd5b9060ff905b9181191691161790565b90610d9b6101c8610da292151590565b8254610d7c565b9055565b9060001990610d81565b90610dc06101c8610da29261091f565b8254610da6565b634e487b7160e01b600052601160045260246000fd5b91908201809211610dea57565b610dc7565b9081526040810192916101b29160200152565b0152565b610e43610e4a91610e26610e21610e1d600b61095e565b1590565b610d33565b610e326001600b610d8b565b610e3d42600c610db0565b42610ddd565b600d610db0565b7fe280a408633821740a429fb671e01cacf8d1d70d5c2735f4f94ec0edef4ea6de610e75600c61094b565b610e7f600d61094b565b90610e95610e8c60405190565b92839283610def565b0390a1565b6101b290610d22565b6101c891610ebe610ec392610eb6600090565b506006610b0f565b61092c565b61095e565b906101b291610ed5612250565b90610ee46101b292600e610db0565b600f610db0565b906101b291610ec8565b610efd612250565b6101b2610f45565b15610f0c57565b60405162461bcd60e51b8152602060048201526011602482015270566f74696e67206e6f742061637469766560781b6044820152606490fd5b610f57610f52600b61095e565b610f05565b610f636000600b610d8b565b610f6e42600d610db0565b7f9956bd7b1ae344fbb54dbd02a85e2283bec6bf75f7fccbaa9c2392a715e71e49610e95610298600d61094b565b6101b2610ef5565b634e487b7160e01b600052603260045260246000fd5b8054821015610fdd57610fd4600691600052602060002090565b91020190600090565b610fa4565b610fec600061091f565b90815b60056110056101c8611001858461092c565b5490565b8410156110455761103f91611032600261102b87611026886110389761092c565b610fba565b500161094b565b90610ddd565b9260010190565b91610fef565b5091505090565b1561105357565b60405162461bcd60e51b8152602060048201526014602482015273159bdd195c881b9bdd081c9959da5cdd195c995960621b6044820152606490fd5b906101b2916110ac6110a76006610c90336002610b0f565b61104c565b6110f5565b156110b857565b60405162461bcd60e51b815260206004820152601560248201527413dd5d1cda5919481d9bdd1a5b99c81c195c9a5bd9605a1b6044820152606490fd5b906101b291611107610f52600b61095e565b6111146101c8600c61094b565b4210158061112b575b611126906110b1565b611376565b5061112661113c6101c8600d61094b565b421115905061111d565b1561114d57565b60405162461bcd60e51b815280610d78600482016020808252818101527f416c726561647920766f74656420666f7220746869732063616e646964617465604082015260600190565b1561119d57565b60405162461bcd60e51b815260206004820152601c60248201527f506f776572206d7573742062652067726561746572207468616e2030000000006044820152606490fd5b156111e957565b60405162461bcd60e51b815260206004820152601960248201527f496e73756666696369656e7420766f74696e6720706f776572000000000000006044820152606490fd5b634e487b7160e01b600052600060045260246000fd5b906001600160a01b0390610d81565b906112636101c8610da292610b06565b8254611244565b90610dc06101c8610da29290565b600561130360a06101b2946112a061129a60008301516001600160a01b031690565b86611253565b6112b76112ae602083015190565b60018701610db0565b6112ce6112c5604083015190565b60028701610db0565b6112e56112dc606083015190565b60038701610db0565b6112fc6112f3608083015190565b6004870161126a565b0151151590565b9101610d8b565b9190611319576101b291611278565b61122e565b90815491600160401b8310156108c257826113419160016101b295018155610fba565b9061130a565b610e026101b29461136d606094989795611366608086019a6000870152565b6020850152565b15156040830152565b907fe89c99a0264d21c2ad18316d6e7b3aa31414c12f31b085afdeeacaa7e69f80b6906113b66113b1610e1d610ec386610ebe336006610b0f565b611146565b6113cb6113c3600061091f565b825b11611196565b6114a660a060026113ef6113e76101c86003610a063386610b0f565b8511156111e2565b6112fc61149c6114096114018961091f565b42903361231d565b9261146561141b82610a063382610b0f565b61142c611428600061091f565b9190565b1161145d6114386108db565b338152966114478d60208a0152565b6114528b60408a0152565b610c894260608a0152565b151585870152565b61147c846114776101c88c600561092c565b61131e565b61149560016114908b610ebe336006610b0f565b610d8b565b3390610b0f565b6007429101610db0565b906114c86114b333610b06565b946114bd60405190565b938493429285611347565b0390a2565b906101b29161108f565b6114e8906114e3612368565b61158e565b6101b26123a8565b156114f757565b60405162461bcd60e51b815260206004820152601560248201527444656c65676174696f6e206e6f742061637469766560581b6044820152606490fd5b1561153b57565b60405162461bcd60e51b81526020600482015260116024820152702737ba103a3432903232b632b3b0ba37b960791b6044820152606490fd5b91908203918211610dea57565b8015610dea576000190190565b61170661159f6101c883600361092c565b6115e76000600483016115b96115b48261095e565b6114f0565b6114906115cf838601546001600160a01b031690565b6115e1335b916001600160a01b031690565b14611534565b6116a560086116936115f96000610bce565b611611600291600461160b3385610b0f565b01611253565b611682600161165183880161164c6116288261094b565b61164685611636338a610b0f565b01916116418361094b565b610ddd565b90610db0565b61094b565b9601956116468361167261166c8a546001600160a01b031690565b82610b0f565b019161167d8361094b565b611574565b84546001600160a01b031690610b0f565b016116466116a08261094b565b611581565b6116c06116b982546001600160a01b031690565b339061240f565b6116c9336124b1565b6116e26116dd82546001600160a01b031690565b6124b1565b6116f96116f26116a0600a61094b565b600a610db0565b546001600160a01b031690565b7f657937cad9c3ce43c8ece19052e5f60b2db7d536fdb47405c20ecf1c3df56b7d61175161173c61173633610b06565b93610b06565b9361174660405190565b918291429083610def565b0390a3565b6101b2906114d7565b906101b29161176c612250565b611a51565b1561177857565b60405162461bcd60e51b815260206004820152601860248201527f566f74657220616c7265616479207265676973746572656400000000000000006044820152606490fd5b369037565b906101b26117d86117d284610c09565b93610bf1565b601f1901602084016117bd565b6101c86101206108c7565b9160001960089290920291821b911b610d81565b91906118156101c8610da29361091f565b9083546117f0565b6101b291600091611804565b818110611834575050565b80611842600060019361181d565b01611829565b91909182821061185757505050565b6101b2929161186c9091600052602060002090565b9182019101611829565b90600160401b81116108c2578161188e6101b2935490565b90828155611848565b6101c8916008021c6101cb565b916001600160a01b0360089290920291821b911b610d81565b81519167ffffffffffffffff83116108c2576118e8610a516001926118e28686611876565b60200190565b92049160005b8381106118fb5750505050565b60019060206119146101c886516001600160a01b031690565b94019381840155016118ee565b906101b2916118bd565b60086119e46101006101b29461194e61129a60008301516001600160a01b031690565b61195c6112ae602083015190565b61196a6112c5604083015190565b6119786112dc606083015190565b61199861198f60808301516001600160a01b031690565b60048701611253565b6119af6119a660a083015190565b60058701611921565b6119c86119bf60c0830151151590565b60068701610d8b565b6119df6119d660e083015190565b60078701610db0565b015190565b9101610db0565b906101b29161192b565b8054821015610fdd57610fd4600191600052602060002090565b9190611a206101c8610da293610b06565b9083546118a4565b90815491600160401b8310156108c25782611a4b9160016101b2950181556119f5565b90611a0f565b6114c8611b787f49a90692135172b11ff45007ef12b97c37df00bc650e48846f88da97b191b2d092611a94611a8f610e1d6006610c90856002610b0f565b611771565b611b506000611aab611aa58261091f565b886113c5565b611b40611ab782610bce565b611b26611ac38461091f565b91611b1f611ad0846117c2565b91611aee89611add6117e5565b988901906001600160a01b03169052565b611af98d6020890152565b611b04856040890152565b611b0f8d6060890152565b6001600160a01b03166080870152565b60a0850152565b600160c0840152611b388160e0850152565b610100830152565b611b4b836002610b0f565b6119eb565b611b5b816007611a28565b611b73611b6c86611641600961094b565b6009610db0565b610b06565b9261174660405190565b906101b29161175f565b906101c89291611ba56110a76006610c90336002610b0f565b611cd1565b15611bb157565b60405162461bcd60e51b815260206004820152601760248201527f43616e6e6f742064656c656761746520746f2073656c660000000000000000006044820152606490fd5b15611bfd57565b60405162461bcd60e51b815260206004820152601860248201527f44656c656761746f72206e6f74207265676973746572656400000000000000006044820152606490fd5b15611c4957565b60405162461bcd60e51b815260206004820152601760248201527f44656c6567617465206e6f7420726567697374657265640000000000000000006044820152606490fd5b15611c9557565b60405162461bcd60e51b8152602060048201526014602482015273416c7265616479206861732064656c656761746560601b6044820152606490fd5b6101c8929190611cec6001600160a01b038316331415611baa565b611d4b611d356004611d276002611d10611d0b6006610c903385610b0f565b611bf6565b611495611d226006610c908a85610b0f565b611c42565b01546001600160a01b031690565b611d456115d46101cb6000610bce565b14611c8e565b611ef5565b15611d5757565b60405162461bcd60e51b8152602060048201526013602482015272506f7765722062656c6f77206d696e696d756d60681b6044820152606490fd5b15611d9957565b60405162461bcd60e51b815260206004820152601260248201527124b739bab33334b1b4b2b73a103837bbb2b960711b6044820152606490fd5b15611dda57565b60405162461bcd60e51b815260206004820152601c60248201527f43697263756c61722064656c65676174696f6e206465746563746564000000006044820152606490fd5b6000198114610dea5760010190565b60056119e460a06101b294611e5061129a60008301516001600160a01b031690565b611e70611e6760208301516001600160a01b031690565b60018701611253565b611e7e6112c5604083015190565b611e8c6112dc606083015190565b6119df611e9c6080830151151590565b60048701610d8b565b906101b291611e2e565b90815491600160401b8310156108c25782611ed29160016101b2950181556119f5565b90611804565b9081526060810193926101b2929091604091610e02906020830152565b5090611f0f611f076101c8600f61094b565b821015611d50565b600291611f2f611f276101c86001610a063388610b0f565b831115611d92565b611f44611f3f610e1d8333612521565b611dd3565b61204e600861203c83611f568361094b565b96611f69611f6389611e1f565b85610db0565b611fbe611f746108db565b3381526001600160a01b0384166020820152611f91896040830152565b611f9c426060830152565b60016080820152611fae8a60a0830152565b611fb98a600361092c565b611ea5565b611fd588611fd06101c8336004610b0f565b611eaf565b611fe582600461160b3385610b0f565b6120026001611ff43384610b0f565b016116468961167d8361094b565b61201e816120108482610b0f565b01611646896116418361094b565b612037612030600561030d8585610b0f565b3390611a28565b610b0f565b016116466120498261094b565b611e1f565b612057336124b1565b612060816124b1565b6120706116f2612049600a61094b565b7ffe35c70e4980d7df0afccc73bb14c09d90b04287cd40b249a714d4033c2851856120b66120a061173633610b06565b936120aa60405190565b91829187429184611ed8565b0390a390565b6101c891906000611b8c565b6120d06117e5565b9060008252602080808080808080808a0160008152016000815201600081520160008152016060610903565b6101c86120c8565b906101b26121c260086121156117e5565b9461212a61098e82546001600160a01b031690565b612139610c556001830161094b565b6121486109d16002830161094b565b6121576109e76003830161094b565b61217e61216e60048301546001600160a01b031690565b6001600160a01b03166080880152565b61219461218d60058301610ab5565b60a0880152565b6121ac6121a36006830161095e565b151560c0880152565b610a066121bb6007830161094b565b60e0880152565b610100840152565b6101c890612104565b6121ea6101c8916121e26120fc565b506002610b0f565b6121ca565b6101b2906121fb612250565b600061220681610bce565b6001600160a01b0381166001600160a01b0384161461222a5750506101b290612291565b631e4fbdf760e01b82526001600160a01b03166004820152602490fd5b6101b2906121ef565b6000546001600160a01b03163390612267826115d4565b0361226f5750565b63118cdaa760e01b60009081526001600160a01b039091166004526024036000fd5b6122ba6122b46122a96000546001600160a01b031690565b611b73846000611253565b91610b06565b907f8be0079c531659141344cd1fd0a4f28419497f9722a3daafe3b4186f6b6457e06122e560405190565b8080611751565b6101d7906001600160a01b031660601b90565b60209392612317601483612317889561030d976122ec565b01918252565b612348919061233c61232e60405190565b9485936020850193846122ff565b908103825203826108a0565b61235a612353825190565b9160200190565b2090565b6101c8600261091f565b612372600161094b565b61237a61235e565b90811461238c576101b2906001610db0565b633ee5aeb560e01b6000908152600490fd5b6101c8600161091f565b6101b26123b361239e565b6001610db0565b906101c89154611897565b634e487b7160e01b600052603160045260246000fd5b6101b291600091611a0f565b8054801561240a57600019019061240761240183836119f5565b906123db565b55565b6123c5565b600561030d61241f926002610b0f565b612429600061091f565b6124346101c8835490565b8110156124ac5761244e61244882846119f5565b906123ba565b6124606001600160a01b0385166115d4565b1461246d57600101612429565b6101b292506124a790611a4b6124a061244861249a61248a875490565b612494600161091f565b90611574565b866119f5565b91846119f5565b6123e7565b505050565b7f255d9fd63837b26ddecf40374f32676fd529f58accd2f1673335f6e04d0fe1366114c86125176117366003610a068660026120376125066124f86001610a068686610b0f565b61103284610a068782610b0f565b856125118585610b0f565b01610db0565b9261029c60405190565b906001600160a01b0381166001600160a01b038316146125d757906000612548600061091f565b925b60029061255c6004611d278385610b0f565b61256b6115d46101cb86610bce565b1415806125c2575b156125b857611d2760049161258793610b0f565b928361259b6001600160a01b0385166115d4565b146125af576125a990611e1f565b9261254a565b50505050600190565b5050505050600090565b506125d06101c8600e61094b565b8510612573565b505060019056fea2646970667358221220e221caea8b2d5d86d67bd331fa077e08b9dd63055fb96b972fedd8fdafda8b2564736f6c634300081c0033","opcodes":"PUSH1 0x80 PUSH1 0x40 MSTORE CALLVALUE PUSH2 0x2B JUMPI PUSH2 0x1A PUSH2 0x14 PUSH2 0xAE JUMP JUMPDEST SWAP1 PUSH2 0x108 JUMP JUMPDEST PUSH1 0x40 MLOAD PUSH2 0x2614 PUSH2 0x2B6 DUP3 CODECOPY PUSH2 0x2614 SWAP1 RETURN JUMPDEST PUSH1 0x0 DUP1 REVERT JUMPDEST PUSH4 0x4E487B71 PUSH1 0xE0 SHL PUSH1 0x0 MSTORE PUSH1 0x41 PUSH1 0x4 MSTORE PUSH1 0x24 PUSH1 0x0 REVERT JUMPDEST SWAP1 PUSH1 0x1F ADD PUSH1 0x1F NOT AND DUP2 ADD SWAP1 DUP2 LT PUSH1 0x1 PUSH1 0x1 PUSH1 0x40 SHL SUB DUP3 GT OR PUSH2 0x67 JUMPI PUSH1 0x40 MSTORE JUMP JUMPDEST PUSH2 0x30 JUMP JUMPDEST SWAP1 PUSH2 0x80 PUSH2 0x79 PUSH1 0x40 MLOAD SWAP1 JUMP JUMPDEST SWAP3 DUP4 PUSH2 0x46 JUMP JUMPDEST JUMP JUMPDEST SWAP1 POP MLOAD SWAP1 JUMP JUMPDEST SWAP2 SWAP1 PUSH1 0x40 DUP4 DUP3 SUB SLT PUSH2 0x2B JUMPI PUSH2 0xAB SWAP1 PUSH1 0x20 PUSH2 0xA4 DUP3 DUP7 PUSH2 0x82 JUMP JUMPDEST SWAP5 ADD PUSH2 0x82 JUMP JUMPDEST SWAP1 JUMP JUMPDEST PUSH2 0xCC PUSH2 0x28CA DUP1 CODESIZE SUB DUP1 PUSH2 0xC1 DUP2 PUSH2 0x6C JUMP JUMPDEST SWAP3 DUP4 CODECOPY DUP2 ADD SWAP1 PUSH2 0x88 JUMP JUMPDEST SWAP1 SWAP2 JUMP JUMPDEST SWAP1 PUSH1 0x0 NOT SWAP1 JUMPDEST SWAP2 DUP2 NOT AND SWAP2 AND OR SWAP1 JUMP JUMPDEST PUSH2 0xAB PUSH2 0xAB PUSH2 0xAB SWAP3 SWAP1 JUMP JUMPDEST SWAP1 PUSH2 0xFD PUSH2 0xAB PUSH2 0x104 SWAP3 PUSH2 0xE0 JUMP JUMPDEST DUP3 SLOAD PUSH2 0xD0 JUMP JUMPDEST SWAP1 SSTORE JUMP JUMPDEST SWAP1 PUSH2 0x120 PUSH2 0x127 SWAP3 PUSH2 0x119 CALLER PUSH2 0x15B JUMP JUMPDEST PUSH1 0xE PUSH2 0xED JUMP JUMPDEST PUSH1 0xF PUSH2 0xED JUMP JUMPDEST PUSH2 0x80 PUSH2 0x134 PUSH1 0x0 PUSH2 0xE0 JUMP JUMPDEST PUSH2 0x13F DUP2 PUSH1 0x8 PUSH2 0xED JUMP JUMPDEST PUSH2 0x14A DUP2 PUSH1 0xA PUSH2 0xED JUMP JUMPDEST PUSH1 0x9 PUSH2 0xED JUMP JUMPDEST PUSH2 0xAB PUSH1 0x1 PUSH2 0xE0 JUMP JUMPDEST PUSH2 0x164 SWAP1 PUSH2 0x1B5 JUMP JUMPDEST PUSH2 0x80 PUSH2 0x16F PUSH2 0x151 JUMP JUMPDEST PUSH1 0x1 PUSH2 0xED JUMP JUMPDEST PUSH2 0x183 PUSH2 0xAB PUSH2 0xAB SWAP3 SWAP1 JUMP JUMPDEST PUSH1 0x1 PUSH1 0x1 PUSH1 0xA0 SHL SUB AND SWAP1 JUMP JUMPDEST PUSH2 0xAB SWAP1 PUSH2 0x176 JUMP JUMPDEST PUSH2 0x1A1 SWAP1 PUSH2 0x183 JUMP JUMPDEST SWAP1 MSTORE JUMP JUMPDEST PUSH1 0x20 DUP2 ADD SWAP3 SWAP2 PUSH2 0x80 SWAP2 SWAP1 PUSH2 0x198 JUMP JUMPDEST PUSH1 0x0 PUSH2 0x1C0 DUP2 PUSH2 0x18F JUMP JUMPDEST PUSH2 0x1C9 DUP2 PUSH2 0x183 JUMP JUMPDEST PUSH2 0x1D2 DUP5 PUSH2 0x183 JUMP JUMPDEST EQ PUSH2 0x1E2 JUMPI POP POP PUSH2 0x80 SWAP1 PUSH2 0x25E JUMP JUMPDEST PUSH4 0x1E4FBDF7 PUSH1 0xE0 SHL DUP3 MSTORE DUP2 SWAP1 PUSH2 0x1FB SWAP1 PUSH1 0x4 DUP4 ADD PUSH2 0x1A5 JUMP JUMPDEST SUB SWAP1 REVERT JUMPDEST PUSH2 0xAB SWAP1 PUSH2 0x183 JUMP JUMPDEST PUSH2 0xAB SWAP1 SLOAD PUSH2 0x1FF JUMP JUMPDEST SWAP1 PUSH1 0x1 PUSH1 0x1 PUSH1 0xA0 SHL SUB SWAP1 PUSH2 0xD6 JUMP JUMPDEST PUSH2 0xAB SWAP1 PUSH2 0x183 SWAP1 PUSH1 0x1 PUSH1 0x1 PUSH1 0xA0 SHL SUB AND DUP3 JUMP JUMPDEST PUSH2 0xAB SWAP1 PUSH2 0x221 JUMP JUMPDEST PUSH2 0xAB SWAP1 PUSH2 0x235 JUMP JUMPDEST SWAP1 PUSH2 0x257 PUSH2 0xAB PUSH2 0x104 SWAP3 PUSH2 0x23E JUMP JUMPDEST DUP3 SLOAD PUSH2 0x212 JUMP JUMPDEST PUSH2 0x284 PUSH2 0x27E PUSH2 0x26E PUSH1 0x0 PUSH2 0x208 JUMP JUMPDEST PUSH2 0x279 DUP5 PUSH1 0x0 PUSH2 0x247 JUMP JUMPDEST PUSH2 0x23E JUMP JUMPDEST SWAP2 PUSH2 0x23E JUMP JUMPDEST SWAP1 PUSH32 0x8BE0079C531659141344CD1FD0A4F28419497F9722A3DAAFE3B4186F6B6457E0 PUSH2 0x2AF PUSH1 0x40 MLOAD SWAP1 JUMP JUMPDEST PUSH1 0x0 SWAP1 LOG3 JUMP INVALID PUSH1 0x80 PUSH1 0x40 MSTORE PUSH1 0x4 CALLDATASIZE LT ISZERO PUSH2 0x12 JUMPI PUSH1 0x0 DUP1 REVERT JUMPDEST PUSH1 0x0 CALLDATALOAD PUSH1 0xE0 SHR DUP1 PUSH4 0xDD35701 EQ PUSH2 0x192 JUMPI DUP1 PUSH4 0x11ACC1A7 EQ PUSH2 0x18D JUMPI DUP1 PUSH4 0x1EA736E0 EQ PUSH2 0x188 JUMPI DUP1 PUSH4 0x2019A608 EQ PUSH2 0x183 JUMPI DUP1 PUSH4 0x2BC4A6E7 EQ PUSH2 0x17E JUMPI DUP1 PUSH4 0x36DAB678 EQ PUSH2 0x179 JUMPI DUP1 PUSH4 0x408E2727 EQ PUSH2 0x174 JUMPI DUP1 PUSH4 0x4F1B4972 EQ PUSH2 0x16F JUMPI DUP1 PUSH4 0x65D082BE EQ PUSH2 0x16A JUMPI DUP1 PUSH4 0x715018A6 EQ PUSH2 0x165 JUMPI DUP1 PUSH4 0x866163C0 EQ PUSH2 0x160 JUMPI DUP1 PUSH4 0x8DA5CB5B EQ PUSH2 0x15B JUMPI DUP1 PUSH4 0x9980A55A EQ PUSH2 0x156 JUMPI DUP1 PUSH4 0x9B541F76 EQ PUSH2 0x151 JUMPI DUP1 PUSH4 0xA288210C EQ PUSH2 0x14C JUMPI DUP1 PUSH4 0xA7BFAB16 EQ PUSH2 0x147 JUMPI DUP1 PUSH4 0xABDD80A3 EQ PUSH2 0x142 JUMPI DUP1 PUSH4 0xB384ABEF EQ PUSH2 0x13D JUMPI DUP1 PUSH4 0xBD3D425D EQ PUSH2 0x138 JUMPI DUP1 PUSH4 0xCBEA81EF EQ PUSH2 0x133 JUMPI DUP1 PUSH4 0xCD8E0903 EQ PUSH2 0x12E JUMPI DUP1 PUSH4 0xCE52C4EF EQ PUSH2 0x129 JUMPI DUP1 PUSH4 0xD4F50F98 EQ PUSH2 0x124 JUMPI PUSH4 0xF2FDE38B SUB PUSH2 0x197 JUMPI PUSH2 0x872 JUMP JUMPDEST PUSH2 0x84B JUMP JUMPDEST PUSH2 0x74B JUMP JUMPDEST PUSH2 0x730 JUMP JUMPDEST PUSH2 0x70B JUMP JUMPDEST PUSH2 0x6F3 JUMP JUMPDEST PUSH2 0x6DA JUMP JUMPDEST PUSH2 0x6BF JUMP JUMPDEST PUSH2 0x6A7 JUMP JUMPDEST PUSH2 0x68E JUMP JUMPDEST PUSH2 0x656 JUMP JUMPDEST PUSH2 0x61B JUMP JUMPDEST PUSH2 0x5DC JUMP JUMPDEST PUSH2 0x5B5 JUMP JUMPDEST PUSH2 0x4E3 JUMP JUMPDEST PUSH2 0x4C8 JUMP JUMPDEST PUSH2 0x4A1 JUMP JUMPDEST PUSH2 0x3F5 JUMP JUMPDEST PUSH2 0x3B4 JUMP JUMPDEST PUSH2 0x381 JUMP JUMPDEST PUSH2 0x2F2 JUMP JUMPDEST PUSH2 0x2CB JUMP JUMPDEST PUSH2 0x27D JUMP JUMPDEST PUSH2 0x247 JUMP JUMPDEST PUSH1 0x0 DUP1 REVERT JUMPDEST DUP1 JUMPDEST SUB PUSH2 0x197 JUMPI JUMP JUMPDEST SWAP1 POP CALLDATALOAD SWAP1 PUSH2 0x1B2 DUP3 PUSH2 0x19C JUMP JUMPDEST JUMP JUMPDEST SWAP1 PUSH1 0x20 DUP3 DUP3 SUB SLT PUSH2 0x197 JUMPI PUSH2 0x1C8 SWAP2 PUSH2 0x1A5 JUMP JUMPDEST SWAP1 JUMP JUMPDEST PUSH1 0x1 PUSH1 0x1 PUSH1 0xA0 SHL SUB AND SWAP1 JUMP JUMPDEST SWAP1 MSTORE JUMP JUMPDEST DUP1 MLOAD PUSH1 0x1 PUSH1 0x1 PUSH1 0xA0 SHL SUB AND DUP3 MSTORE PUSH2 0x1B2 SWAP2 SWAP1 PUSH1 0xA0 SWAP1 DUP2 SWAP1 PUSH1 0x20 DUP2 DUP2 ADD MLOAD PUSH1 0x1 PUSH1 0x1 PUSH1 0xA0 SHL SUB AND SWAP1 DUP6 ADD MSTORE PUSH2 0x214 PUSH1 0x40 DUP3 ADD MLOAD PUSH1 0x40 DUP7 ADD MSTORE JUMP JUMPDEST PUSH2 0x223 PUSH1 0x60 DUP3 ADD MLOAD PUSH1 0x60 DUP7 ADD MSTORE JUMP JUMPDEST PUSH1 0x80 DUP2 DUP2 ADD MLOAD ISZERO ISZERO SWAP1 DUP6 ADD MSTORE JUMPDEST ADD MLOAD SWAP2 ADD MSTORE JUMP JUMPDEST PUSH1 0xC0 DUP2 ADD SWAP3 SWAP2 PUSH2 0x1B2 SWAP2 SWAP1 PUSH2 0x1DB JUMP JUMPDEST CALLVALUE PUSH2 0x197 JUMPI PUSH2 0x26E PUSH2 0x262 PUSH2 0x25D CALLDATASIZE PUSH1 0x4 PUSH2 0x1B4 JUMP JUMPDEST PUSH2 0xA1C JUMP JUMPDEST PUSH1 0x40 MLOAD SWAP2 DUP3 SWAP2 DUP3 PUSH2 0x237 JUMP JUMPDEST SUB SWAP1 RETURN JUMPDEST PUSH1 0x0 SWAP2 SUB SLT PUSH2 0x197 JUMPI JUMP JUMPDEST CALLVALUE PUSH2 0x197 JUMPI PUSH2 0x28D CALLDATASIZE PUSH1 0x4 PUSH2 0x272 JUMP JUMPDEST PUSH2 0x26E PUSH2 0x298 PUSH2 0xA38 JUMP JUMPDEST PUSH1 0x40 MLOAD JUMPDEST SWAP2 DUP3 SWAP2 DUP3 SWAP1 DUP2 MSTORE PUSH1 0x20 ADD SWAP1 JUMP JUMPDEST PUSH2 0x1C8 SWAP2 PUSH1 0x8 MUL SHR DUP2 JUMP JUMPDEST SWAP1 PUSH2 0x1C8 SWAP2 SLOAD PUSH2 0x2A9 JUMP JUMPDEST PUSH2 0x1C8 PUSH1 0x0 PUSH1 0xD PUSH2 0x2B4 JUMP JUMPDEST CALLVALUE PUSH2 0x197 JUMPI PUSH2 0x2DB CALLDATASIZE PUSH1 0x4 PUSH2 0x272 JUMP JUMPDEST PUSH2 0x26E PUSH2 0x298 PUSH2 0x2BF JUMP JUMPDEST PUSH2 0x1C8 PUSH1 0x0 PUSH1 0xC PUSH2 0x2B4 JUMP JUMPDEST CALLVALUE PUSH2 0x197 JUMPI PUSH2 0x302 CALLDATASIZE PUSH1 0x4 PUSH2 0x272 JUMP JUMPDEST PUSH2 0x26E PUSH2 0x298 PUSH2 0x2E6 JUMP JUMPDEST ADD SWAP1 JUMP JUMPDEST SWAP1 PUSH2 0x331 PUSH2 0x32A PUSH2 0x320 DUP5 MLOAD SWAP1 JUMP JUMPDEST DUP1 DUP5 MSTORE SWAP3 PUSH1 0x20 ADD SWAP1 JUMP JUMPDEST SWAP3 PUSH1 0x20 ADD SWAP1 JUMP JUMPDEST SWAP1 PUSH1 0x0 JUMPDEST DUP2 DUP2 LT PUSH2 0x342 JUMPI POP POP POP SWAP1 JUMP JUMPDEST SWAP1 SWAP2 SWAP3 PUSH2 0x368 PUSH2 0x361 PUSH1 0x1 SWAP3 DUP7 MLOAD PUSH1 0x1 PUSH1 0x1 PUSH1 0xA0 SHL SUB AND DUP2 MSTORE PUSH1 0x20 ADD SWAP1 JUMP JUMPDEST SWAP5 PUSH1 0x20 ADD SWAP1 JUMP JUMPDEST SWAP3 SWAP2 ADD PUSH2 0x335 JUMP JUMPDEST PUSH1 0x20 DUP1 DUP3 MSTORE PUSH2 0x1C8 SWAP3 SWAP2 ADD SWAP1 PUSH2 0x311 JUMP JUMPDEST CALLVALUE PUSH2 0x197 JUMPI PUSH2 0x391 CALLDATASIZE PUSH1 0x4 PUSH2 0x272 JUMP JUMPDEST PUSH2 0x26E PUSH2 0x39C PUSH2 0xADF JUMP JUMPDEST PUSH1 0x40 MLOAD SWAP2 DUP3 SWAP2 DUP3 PUSH2 0x370 JUMP JUMPDEST PUSH2 0x1C8 PUSH1 0x0 PUSH1 0xF PUSH2 0x2B4 JUMP JUMPDEST CALLVALUE PUSH2 0x197 JUMPI PUSH2 0x3C4 CALLDATASIZE PUSH1 0x4 PUSH2 0x272 JUMP JUMPDEST PUSH2 0x26E PUSH2 0x298 PUSH2 0x3A8 JUMP JUMPDEST PUSH2 0x1C8 SWAP2 PUSH1 0x8 MUL SHR JUMPDEST PUSH1 0xFF AND SWAP1 JUMP JUMPDEST SWAP1 PUSH2 0x1C8 SWAP2 SLOAD PUSH2 0x3CF JUMP JUMPDEST PUSH2 0x1C8 PUSH1 0x0 PUSH1 0xB PUSH2 0x3DE JUMP JUMPDEST CALLVALUE PUSH2 0x197 JUMPI PUSH2 0x405 CALLDATASIZE PUSH1 0x4 PUSH2 0x272 JUMP JUMPDEST PUSH2 0x26E PUSH2 0x410 PUSH2 0x3E9 JUMP JUMPDEST PUSH1 0x40 MLOAD SWAP2 DUP3 SWAP2 DUP3 SWAP1 ISZERO ISZERO DUP2 MSTORE PUSH1 0x20 ADD SWAP1 JUMP JUMPDEST PUSH1 0x1 PUSH1 0x1 PUSH1 0xA0 SHL SUB DUP2 AND PUSH2 0x19E JUMP JUMPDEST SWAP1 POP CALLDATALOAD SWAP1 PUSH2 0x1B2 DUP3 PUSH2 0x422 JUMP JUMPDEST SWAP1 PUSH1 0x20 DUP3 DUP3 SUB SLT PUSH2 0x197 JUMPI PUSH2 0x1C8 SWAP2 PUSH2 0x431 JUMP JUMPDEST SWAP1 PUSH2 0x461 PUSH2 0x32A PUSH2 0x320 DUP5 MLOAD SWAP1 JUMP JUMPDEST SWAP1 PUSH1 0x0 JUMPDEST DUP2 DUP2 LT PUSH2 0x472 JUMPI POP POP POP SWAP1 JUMP JUMPDEST SWAP1 SWAP2 SWAP3 PUSH2 0x488 PUSH2 0x361 PUSH1 0x1 SWAP3 DUP7 MLOAD DUP2 MSTORE PUSH1 0x20 ADD SWAP1 JUMP JUMPDEST SWAP3 SWAP2 ADD PUSH2 0x465 JUMP JUMPDEST PUSH1 0x20 DUP1 DUP3 MSTORE PUSH2 0x1C8 SWAP3 SWAP2 ADD SWAP1 PUSH2 0x452 JUMP JUMPDEST CALLVALUE PUSH2 0x197 JUMPI PUSH2 0x26E PUSH2 0x4BC PUSH2 0x4B7 CALLDATASIZE PUSH1 0x4 PUSH2 0x43E JUMP JUMPDEST PUSH2 0xB8B JUMP JUMPDEST PUSH1 0x40 MLOAD SWAP2 DUP3 SWAP2 DUP3 PUSH2 0x490 JUMP JUMPDEST CALLVALUE PUSH2 0x197 JUMPI PUSH2 0x4D8 CALLDATASIZE PUSH1 0x4 PUSH2 0x272 JUMP JUMPDEST PUSH2 0x26E PUSH2 0x298 PUSH2 0xBA7 JUMP JUMPDEST CALLVALUE PUSH2 0x197 JUMPI PUSH2 0x4F3 CALLDATASIZE PUSH1 0x4 PUSH2 0x272 JUMP JUMPDEST PUSH2 0x4FB PUSH2 0xBE9 JUMP JUMPDEST PUSH1 0x40 MLOAD STOP JUMPDEST DUP1 MLOAD PUSH1 0x1 PUSH1 0x1 PUSH1 0xA0 SHL SUB AND DUP3 MSTORE PUSH2 0x1B2 SWAP2 SWAP1 PUSH1 0xA0 SWAP1 DUP2 SWAP1 PUSH2 0x526 PUSH1 0x20 DUP3 ADD MLOAD PUSH1 0x20 DUP7 ADD MSTORE JUMP JUMPDEST PUSH2 0x535 PUSH1 0x40 DUP3 ADD MLOAD PUSH1 0x40 DUP7 ADD MSTORE JUMP JUMPDEST PUSH2 0x544 PUSH1 0x60 DUP3 ADD MLOAD PUSH1 0x60 DUP7 ADD MSTORE JUMP JUMPDEST PUSH2 0x553 PUSH1 0x80 DUP3 ADD MLOAD PUSH1 0x80 DUP7 ADD MSTORE JUMP JUMPDEST ADD MLOAD ISZERO ISZERO SWAP2 ADD MSTORE JUMP JUMPDEST SWAP1 PUSH2 0x30D DUP2 PUSH1 0xC0 SWAP4 PUSH2 0x500 JUMP JUMPDEST SWAP1 PUSH2 0x578 PUSH2 0x32A PUSH2 0x320 DUP5 MLOAD SWAP1 JUMP JUMPDEST SWAP1 PUSH1 0x0 JUMPDEST DUP2 DUP2 LT PUSH2 0x589 JUMPI POP POP POP SWAP1 JUMP JUMPDEST SWAP1 SWAP2 SWAP3 PUSH2 0x59C PUSH2 0x361 PUSH1 0x1 SWAP3 DUP7 MLOAD PUSH2 0x55C JUMP JUMPDEST SWAP3 SWAP2 ADD PUSH2 0x57C JUMP JUMPDEST PUSH1 0x20 DUP1 DUP3 MSTORE PUSH2 0x1C8 SWAP3 SWAP2 ADD SWAP1 PUSH2 0x569 JUMP JUMPDEST CALLVALUE PUSH2 0x197 JUMPI PUSH2 0x26E PUSH2 0x5D0 PUSH2 0x5CB CALLDATASIZE PUSH1 0x4 PUSH2 0x1B4 JUMP JUMPDEST PUSH2 0xD06 JUMP JUMPDEST PUSH1 0x40 MLOAD SWAP2 DUP3 SWAP2 DUP3 PUSH2 0x5A4 JUMP JUMPDEST CALLVALUE PUSH2 0x197 JUMPI PUSH2 0x5EC CALLDATASIZE PUSH1 0x4 PUSH2 0x272 JUMP JUMPDEST PUSH2 0x26E PUSH2 0x601 PUSH1 0x0 SLOAD PUSH1 0x1 PUSH1 0x1 PUSH1 0xA0 SHL SUB AND SWAP1 JUMP JUMPDEST PUSH1 0x40 MLOAD SWAP2 DUP3 SWAP2 DUP3 PUSH1 0x1 PUSH1 0x1 PUSH1 0xA0 SHL SUB SWAP1 SWAP2 AND DUP2 MSTORE PUSH1 0x20 ADD SWAP1 JUMP JUMPDEST CALLVALUE PUSH2 0x197 JUMPI PUSH2 0x4FB PUSH2 0x62E CALLDATASIZE PUSH1 0x4 PUSH2 0x1B4 JUMP JUMPDEST PUSH2 0xE9A JUMP JUMPDEST SWAP2 SWAP1 PUSH1 0x40 DUP4 DUP3 SUB SLT PUSH2 0x197 JUMPI PUSH2 0x1C8 SWAP1 PUSH1 0x20 PUSH2 0x64F DUP3 DUP7 PUSH2 0x431 JUMP JUMPDEST SWAP5 ADD PUSH2 0x1A5 JUMP JUMPDEST CALLVALUE PUSH2 0x197 JUMPI PUSH2 0x26E PUSH2 0x410 PUSH2 0x66C CALLDATASIZE PUSH1 0x4 PUSH2 0x633 JUMP JUMPDEST SWAP1 PUSH2 0xEA3 JUMP JUMPDEST SWAP2 SWAP1 PUSH1 0x40 DUP4 DUP3 SUB SLT PUSH2 0x197 JUMPI PUSH2 0x1C8 SWAP1 PUSH1 0x20 PUSH2 0x64F DUP3 DUP7 PUSH2 0x1A5 JUMP JUMPDEST CALLVALUE PUSH2 0x197 JUMPI PUSH2 0x4FB PUSH2 0x6A1 CALLDATASIZE PUSH1 0x4 PUSH2 0x672 JUMP JUMPDEST SWAP1 PUSH2 0xEEB JUMP JUMPDEST CALLVALUE PUSH2 0x197 JUMPI PUSH2 0x6B7 CALLDATASIZE PUSH1 0x4 PUSH2 0x272 JUMP JUMPDEST PUSH2 0x4FB PUSH2 0xF9C JUMP JUMPDEST CALLVALUE PUSH2 0x197 JUMPI PUSH2 0x26E PUSH2 0x298 PUSH2 0x6D5 CALLDATASIZE PUSH1 0x4 PUSH2 0x1B4 JUMP JUMPDEST PUSH2 0xFE2 JUMP JUMPDEST CALLVALUE PUSH2 0x197 JUMPI PUSH2 0x4FB PUSH2 0x6ED CALLDATASIZE PUSH1 0x4 PUSH2 0x672 JUMP JUMPDEST SWAP1 PUSH2 0x14CD JUMP JUMPDEST CALLVALUE PUSH2 0x197 JUMPI PUSH2 0x4FB PUSH2 0x706 CALLDATASIZE PUSH1 0x4 PUSH2 0x1B4 JUMP JUMPDEST PUSH2 0x1756 JUMP JUMPDEST CALLVALUE PUSH2 0x197 JUMPI PUSH2 0x4FB PUSH2 0x71E CALLDATASIZE PUSH1 0x4 PUSH2 0x633 JUMP JUMPDEST SWAP1 PUSH2 0x1B82 JUMP JUMPDEST PUSH2 0x1C8 PUSH1 0x0 PUSH1 0xE PUSH2 0x2B4 JUMP JUMPDEST CALLVALUE PUSH2 0x197 JUMPI PUSH2 0x740 CALLDATASIZE PUSH1 0x4 PUSH2 0x272 JUMP JUMPDEST PUSH2 0x26E PUSH2 0x298 PUSH2 0x724 JUMP JUMPDEST CALLVALUE PUSH2 0x197 JUMPI PUSH2 0x26E PUSH2 0x298 PUSH2 0x761 CALLDATASIZE PUSH1 0x4 PUSH2 0x633 JUMP JUMPDEST SWAP1 PUSH2 0x20BC JUMP JUMPDEST SWAP1 PUSH2 0x776 PUSH2 0x32A PUSH2 0x320 DUP5 MLOAD SWAP1 JUMP JUMPDEST SWAP1 PUSH1 0x0 JUMPDEST DUP2 DUP2 LT PUSH2 0x787 JUMPI POP POP POP SWAP1 JUMP JUMPDEST SWAP1 SWAP2 SWAP3 PUSH2 0x7A6 PUSH2 0x361 PUSH1 0x1 SWAP3 DUP7 MLOAD PUSH1 0x1 PUSH1 0x1 PUSH1 0xA0 SHL SUB AND DUP2 MSTORE PUSH1 0x20 ADD SWAP1 JUMP JUMPDEST SWAP3 SWAP2 ADD PUSH2 0x77A JUMP JUMPDEST DUP1 MLOAD PUSH1 0x1 PUSH1 0x1 PUSH1 0xA0 SHL SUB AND DUP3 MSTORE SWAP1 PUSH2 0x1C8 SWAP1 PUSH2 0x100 DUP1 PUSH2 0x81E PUSH2 0x120 DUP5 ADD PUSH2 0x7DB PUSH1 0x20 DUP9 ADD MLOAD PUSH1 0x20 DUP8 ADD MSTORE JUMP JUMPDEST PUSH2 0x7EA PUSH1 0x40 DUP9 ADD MLOAD PUSH1 0x40 DUP8 ADD MSTORE JUMP JUMPDEST PUSH2 0x7F9 PUSH1 0x60 DUP9 ADD MLOAD PUSH1 0x60 DUP8 ADD MSTORE JUMP JUMPDEST PUSH1 0x80 DUP8 DUP2 ADD MLOAD PUSH1 0x1 PUSH1 0x1 PUSH1 0xA0 SHL SUB AND SWAP1 DUP7 ADD MSTORE PUSH1 0xA0 DUP8 ADD MLOAD DUP6 DUP3 SUB PUSH1 0xA0 DUP8 ADD MSTORE PUSH2 0x767 JUMP JUMPDEST PUSH1 0xC0 DUP1 DUP8 ADD MLOAD ISZERO ISZERO SWAP1 DUP6 ADD MSTORE SWAP5 PUSH2 0x230 PUSH1 0xE0 DUP3 ADD MLOAD PUSH1 0xE0 DUP7 ADD MSTORE JUMP JUMPDEST PUSH1 0x20 DUP1 DUP3 MSTORE PUSH2 0x1C8 SWAP3 SWAP2 ADD SWAP1 PUSH2 0x7AE JUMP JUMPDEST CALLVALUE PUSH2 0x197 JUMPI PUSH2 0x26E PUSH2 0x866 PUSH2 0x861 CALLDATASIZE PUSH1 0x4 PUSH2 0x43E JUMP JUMPDEST PUSH2 0x21D3 JUMP JUMPDEST PUSH1 0x40 MLOAD SWAP2 DUP3 SWAP2 DUP3 PUSH2 0x83A JUMP JUMPDEST CALLVALUE PUSH2 0x197 JUMPI PUSH2 0x4FB PUSH2 0x885 CALLDATASIZE PUSH1 0x4 PUSH2 0x43E JUMP JUMPDEST PUSH2 0x2247 JUMP JUMPDEST PUSH4 0x4E487B71 PUSH1 0xE0 SHL PUSH1 0x0 MSTORE PUSH1 0x41 PUSH1 0x4 MSTORE PUSH1 0x24 PUSH1 0x0 REVERT JUMPDEST SWAP1 PUSH1 0x1F ADD PUSH1 0x1F NOT AND DUP2 ADD SWAP1 DUP2 LT PUSH8 0xFFFFFFFFFFFFFFFF DUP3 GT OR PUSH2 0x8C2 JUMPI PUSH1 0x40 MSTORE JUMP JUMPDEST PUSH2 0x88A JUMP JUMPDEST SWAP1 PUSH2 0x1B2 PUSH2 0x8D4 PUSH1 0x40 MLOAD SWAP1 JUMP JUMPDEST SWAP3 DUP4 PUSH2 0x8A0 JUMP JUMPDEST PUSH2 0x1C8 PUSH1 0xC0 PUSH2 0x8C7 JUMP JUMPDEST PUSH2 0x8ED PUSH2 0x8DB JUMP JUMPDEST SWAP1 PUSH1 0x0 DUP3 MSTORE PUSH1 0x20 DUP1 DUP1 DUP1 DUP1 DUP1 DUP8 ADD PUSH1 0x0 DUP2 MSTORE ADD PUSH1 0x0 JUMPDEST DUP2 MSTORE ADD PUSH1 0x0 DUP2 MSTORE ADD PUSH1 0x0 DUP2 MSTORE ADD PUSH1 0x0 SWAP1 MSTORE POP JUMP JUMPDEST PUSH2 0x1C8 PUSH2 0x8E5 JUMP JUMPDEST PUSH2 0x1C8 PUSH2 0x1C8 PUSH2 0x1C8 SWAP3 SWAP1 JUMP JUMPDEST SWAP1 PUSH2 0x936 SWAP1 PUSH2 0x91F JUMP JUMPDEST PUSH1 0x0 MSTORE PUSH1 0x20 MSTORE PUSH1 0x40 PUSH1 0x0 KECCAK256 SWAP1 JUMP JUMPDEST PUSH2 0x1C8 SWAP1 DUP2 JUMP JUMPDEST PUSH2 0x1C8 SWAP1 SLOAD PUSH2 0x944 JUMP JUMPDEST PUSH2 0x1C8 SWAP1 PUSH2 0x3D8 JUMP JUMPDEST PUSH2 0x1C8 SWAP1 SLOAD PUSH2 0x955 JUMP JUMPDEST SWAP1 PUSH2 0x1B2 PUSH2 0xA0C PUSH1 0x5 PUSH2 0x979 PUSH2 0x8DB JUMP JUMPDEST SWAP5 PUSH2 0x99B PUSH2 0x98E DUP3 SLOAD PUSH1 0x1 PUSH1 0x1 PUSH1 0xA0 SHL SUB AND SWAP1 JUMP JUMPDEST PUSH1 0x1 PUSH1 0x1 PUSH1 0xA0 SHL SUB AND DUP8 MSTORE JUMP JUMPDEST PUSH2 0x9C2 PUSH2 0x9B2 PUSH1 0x1 DUP4 ADD SLOAD PUSH1 0x1 PUSH1 0x1 PUSH1 0xA0 SHL SUB AND SWAP1 JUMP JUMPDEST PUSH1 0x1 PUSH1 0x1 PUSH1 0xA0 SHL SUB AND PUSH1 0x20 DUP9 ADD MSTORE JUMP JUMPDEST PUSH2 0x9D8 PUSH2 0x9D1 PUSH1 0x2 DUP4 ADD PUSH2 0x94B JUMP JUMPDEST PUSH1 0x40 DUP9 ADD MSTORE JUMP JUMPDEST PUSH2 0x9EE PUSH2 0x9E7 PUSH1 0x3 DUP4 ADD PUSH2 0x94B JUMP JUMPDEST PUSH1 0x60 DUP9 ADD MSTORE JUMP JUMPDEST PUSH2 0xA06 PUSH2 0x9FD PUSH1 0x4 DUP4 ADD PUSH2 0x95E JUMP JUMPDEST ISZERO ISZERO PUSH1 0x80 DUP9 ADD MSTORE JUMP JUMPDEST ADD PUSH2 0x94B JUMP JUMPDEST PUSH1 0xA0 DUP5 ADD MSTORE JUMP JUMPDEST PUSH2 0x1C8 SWAP1 PUSH2 0x968 JUMP JUMPDEST PUSH2 0xA33 PUSH2 0x1C8 SWAP2 PUSH2 0xA2B PUSH2 0x917 JUMP JUMPDEST POP PUSH1 0x3 PUSH2 0x92C JUMP JUMPDEST PUSH2 0xA13 JUMP JUMPDEST PUSH2 0x1C8 PUSH1 0x9 PUSH2 0x94B JUMP JUMPDEST SWAP1 PUSH2 0xA5D PUSH2 0xA51 PUSH2 0x320 DUP5 SLOAD SWAP1 JUMP JUMPDEST SWAP3 PUSH1 0x0 MSTORE PUSH1 0x20 PUSH1 0x0 KECCAK256 SWAP1 JUMP JUMPDEST SWAP1 PUSH1 0x0 JUMPDEST DUP2 DUP2 LT PUSH2 0xA6E JUMPI POP POP POP SWAP1 JUMP JUMPDEST SWAP1 SWAP2 SWAP3 PUSH2 0xAA3 PUSH2 0xA9C PUSH1 0x1 SWAP3 PUSH2 0xA8B DUP8 SLOAD PUSH1 0x1 PUSH1 0x1 PUSH1 0xA0 SHL SUB AND SWAP1 JUMP JUMPDEST PUSH1 0x1 PUSH1 0x1 PUSH1 0xA0 SHL SUB AND DUP2 MSTORE PUSH1 0x20 ADD SWAP1 JUMP JUMPDEST SWAP5 PUSH1 0x1 ADD SWAP1 JUMP JUMPDEST SWAP3 SWAP2 ADD PUSH2 0xA61 JUMP JUMPDEST SWAP1 PUSH2 0x1C8 SWAP2 PUSH2 0xA42 JUMP JUMPDEST SWAP1 PUSH2 0x1B2 PUSH2 0xACF SWAP3 PUSH2 0xAC6 PUSH1 0x40 MLOAD SWAP1 JUMP JUMPDEST SWAP4 DUP5 DUP1 SWAP3 PUSH2 0xAAB JUMP JUMPDEST SUB DUP4 PUSH2 0x8A0 JUMP JUMPDEST PUSH2 0x1C8 SWAP1 PUSH2 0xAB5 JUMP JUMPDEST PUSH2 0x1C8 PUSH1 0x7 PUSH2 0xAD6 JUMP JUMPDEST PUSH2 0x1C8 SWAP1 PUSH2 0x1CB SWAP1 PUSH1 0x1 PUSH1 0x1 PUSH1 0xA0 SHL SUB AND DUP3 JUMP JUMPDEST PUSH2 0x1C8 SWAP1 PUSH2 0xAE9 JUMP JUMPDEST PUSH2 0x1C8 SWAP1 PUSH2 0xAFD JUMP JUMPDEST SWAP1 PUSH2 0x936 SWAP1 PUSH2 0xB06 JUMP JUMPDEST SWAP1 PUSH2 0xB28 PUSH2 0xA51 PUSH2 0x320 DUP5 SLOAD SWAP1 JUMP JUMPDEST SWAP1 PUSH1 0x0 JUMPDEST DUP2 DUP2 LT PUSH2 0xB39 JUMPI POP POP POP SWAP1 JUMP JUMPDEST SWAP1 SWAP2 SWAP3 PUSH2 0xB56 PUSH2 0xA9C PUSH1 0x1 SWAP3 PUSH2 0xB4E DUP8 PUSH2 0x94B JUMP JUMPDEST DUP2 MSTORE PUSH1 0x20 ADD SWAP1 JUMP JUMPDEST SWAP3 SWAP2 ADD PUSH2 0xB2C JUMP JUMPDEST SWAP1 PUSH2 0x1C8 SWAP2 PUSH2 0xB19 JUMP JUMPDEST SWAP1 PUSH2 0x1B2 PUSH2 0xACF SWAP3 PUSH2 0xB79 PUSH1 0x40 MLOAD SWAP1 JUMP JUMPDEST SWAP4 DUP5 DUP1 SWAP3 PUSH2 0xB5E JUMP JUMPDEST PUSH2 0x1C8 SWAP1 PUSH2 0xB68 JUMP JUMPDEST PUSH2 0xBA2 PUSH2 0x1C8 SWAP2 PUSH2 0xB9A PUSH1 0x60 SWAP1 JUMP JUMPDEST POP PUSH1 0x4 PUSH2 0xB0F JUMP JUMPDEST PUSH2 0xB82 JUMP JUMPDEST PUSH2 0x1C8 PUSH1 0xA PUSH2 0x94B JUMP JUMPDEST PUSH2 0xBB9 PUSH2 0x2250 JUMP JUMPDEST PUSH2 0x1B2 PUSH2 0xBD7 JUMP JUMPDEST PUSH2 0x1CB PUSH2 0x1C8 PUSH2 0x1C8 SWAP3 SWAP1 JUMP JUMPDEST PUSH2 0x1C8 SWAP1 PUSH2 0xBC1 JUMP JUMPDEST PUSH2 0x1B2 PUSH2 0xBE4 PUSH1 0x0 PUSH2 0xBCE JUMP JUMPDEST PUSH2 0x2291 JUMP JUMPDEST PUSH2 0x1B2 PUSH2 0xBB1 JUMP JUMPDEST PUSH8 0xFFFFFFFFFFFFFFFF DUP2 GT PUSH2 0x8C2 JUMPI PUSH1 0x20 DUP1 SWAP2 MUL ADD SWAP1 JUMP JUMPDEST SWAP1 PUSH2 0xC1B PUSH2 0xC16 DUP4 PUSH2 0xBF1 JUMP JUMPDEST PUSH2 0x8C7 JUMP JUMPDEST SWAP2 DUP3 MSTORE JUMP JUMPDEST SWAP1 PUSH2 0x1B2 PUSH2 0xC96 PUSH1 0x5 PUSH2 0xC31 PUSH2 0x8DB JUMP JUMPDEST SWAP5 PUSH2 0xC46 PUSH2 0x98E DUP3 SLOAD PUSH1 0x1 PUSH1 0x1 PUSH1 0xA0 SHL SUB AND SWAP1 JUMP JUMPDEST PUSH2 0xC5C PUSH2 0xC55 PUSH1 0x1 DUP4 ADD PUSH2 0x94B JUMP JUMPDEST PUSH1 0x20 DUP9 ADD MSTORE JUMP JUMPDEST PUSH2 0xC6B PUSH2 0x9D1 PUSH1 0x2 DUP4 ADD PUSH2 0x94B JUMP JUMPDEST PUSH2 0xC7A PUSH2 0x9E7 PUSH1 0x3 DUP4 ADD PUSH2 0x94B JUMP JUMPDEST PUSH2 0xC90 PUSH2 0xC89 PUSH1 0x4 DUP4 ADD PUSH2 0x94B JUMP JUMPDEST PUSH1 0x80 DUP9 ADD MSTORE JUMP JUMPDEST ADD PUSH2 0x95E JUMP JUMPDEST ISZERO ISZERO PUSH1 0xA0 DUP5 ADD MSTORE JUMP JUMPDEST PUSH2 0x1C8 SWAP1 PUSH2 0xC20 JUMP JUMPDEST SWAP1 PUSH2 0xCB1 DUP3 SLOAD SWAP1 JUMP JUMPDEST PUSH2 0xCBA DUP2 PUSH2 0xC09 JUMP JUMPDEST SWAP3 PUSH2 0xCCE PUSH1 0x20 DUP6 ADD SWAP2 PUSH1 0x0 MSTORE PUSH1 0x20 PUSH1 0x0 KECCAK256 SWAP1 JUMP JUMPDEST PUSH1 0x0 SWAP2 JUMPDEST DUP4 DUP4 LT PUSH2 0xCDF JUMPI POP POP POP POP JUMP JUMPDEST PUSH1 0x6 PUSH1 0x20 PUSH1 0x1 SWAP3 PUSH2 0xCEF DUP6 PUSH2 0xC9F JUMP JUMPDEST DUP2 MSTORE ADD SWAP3 ADD SWAP3 ADD SWAP2 SWAP1 PUSH2 0xCD2 JUMP JUMPDEST PUSH2 0x1C8 SWAP1 PUSH2 0xCA8 JUMP JUMPDEST PUSH2 0xD1D PUSH2 0x1C8 SWAP2 PUSH2 0xD15 PUSH1 0x60 SWAP1 JUMP JUMPDEST POP PUSH1 0x5 PUSH2 0x92C JUMP JUMPDEST PUSH2 0xCFD JUMP JUMPDEST PUSH2 0x1B2 SWAP1 PUSH2 0xD2E PUSH2 0x2250 JUMP JUMPDEST PUSH2 0xE06 JUMP JUMPDEST ISZERO PUSH2 0xD3A JUMPI JUMP JUMPDEST PUSH1 0x40 MLOAD PUSH3 0x461BCD PUSH1 0xE5 SHL DUP2 MSTORE PUSH1 0x20 PUSH1 0x4 DUP3 ADD MSTORE PUSH1 0x15 PUSH1 0x24 DUP3 ADD MSTORE PUSH21 0x566F74696E6720616C726561647920616374697665 PUSH1 0x58 SHL PUSH1 0x44 DUP3 ADD MSTORE DUP1 PUSH1 0x64 DUP2 ADD JUMPDEST SUB SWAP1 REVERT JUMPDEST SWAP1 PUSH1 0xFF SWAP1 JUMPDEST SWAP2 DUP2 NOT AND SWAP2 AND OR SWAP1 JUMP JUMPDEST SWAP1 PUSH2 0xD9B PUSH2 0x1C8 PUSH2 0xDA2 SWAP3 ISZERO ISZERO SWAP1 JUMP JUMPDEST DUP3 SLOAD PUSH2 0xD7C JUMP JUMPDEST SWAP1 SSTORE JUMP JUMPDEST SWAP1 PUSH1 0x0 NOT SWAP1 PUSH2 0xD81 JUMP JUMPDEST SWAP1 PUSH2 0xDC0 PUSH2 0x1C8 PUSH2 0xDA2 SWAP3 PUSH2 0x91F JUMP JUMPDEST DUP3 SLOAD PUSH2 0xDA6 JUMP JUMPDEST PUSH4 0x4E487B71 PUSH1 0xE0 SHL PUSH1 0x0 MSTORE PUSH1 0x11 PUSH1 0x4 MSTORE PUSH1 0x24 PUSH1 0x0 REVERT JUMPDEST SWAP2 SWAP1 DUP3 ADD DUP1 SWAP3 GT PUSH2 0xDEA JUMPI JUMP JUMPDEST PUSH2 0xDC7 JUMP JUMPDEST SWAP1 DUP2 MSTORE PUSH1 0x40 DUP2 ADD SWAP3 SWAP2 PUSH2 0x1B2 SWAP2 PUSH1 0x20 ADD MSTORE JUMP JUMPDEST ADD MSTORE JUMP JUMPDEST PUSH2 0xE43 PUSH2 0xE4A SWAP2 PUSH2 0xE26 PUSH2 0xE21 PUSH2 0xE1D PUSH1 0xB PUSH2 0x95E JUMP JUMPDEST ISZERO SWAP1 JUMP JUMPDEST PUSH2 0xD33 JUMP JUMPDEST PUSH2 0xE32 PUSH1 0x1 PUSH1 0xB PUSH2 0xD8B JUMP JUMPDEST PUSH2 0xE3D TIMESTAMP PUSH1 0xC PUSH2 0xDB0 JUMP JUMPDEST TIMESTAMP PUSH2 0xDDD JUMP JUMPDEST PUSH1 0xD PUSH2 0xDB0 JUMP JUMPDEST PUSH32 0xE280A408633821740A429FB671E01CACF8D1D70D5C2735F4F94EC0EDEF4EA6DE PUSH2 0xE75 PUSH1 0xC PUSH2 0x94B JUMP JUMPDEST PUSH2 0xE7F PUSH1 0xD PUSH2 0x94B JUMP JUMPDEST SWAP1 PUSH2 0xE95 PUSH2 0xE8C PUSH1 0x40 MLOAD SWAP1 JUMP JUMPDEST SWAP3 DUP4 SWAP3 DUP4 PUSH2 0xDEF JUMP JUMPDEST SUB SWAP1 LOG1 JUMP JUMPDEST PUSH2 0x1B2 SWAP1 PUSH2 0xD22 JUMP JUMPDEST PUSH2 0x1C8 SWAP2 PUSH2 0xEBE PUSH2 0xEC3 SWAP3 PUSH2 0xEB6 PUSH1 0x0 SWAP1 JUMP JUMPDEST POP PUSH1 0x6 PUSH2 0xB0F JUMP JUMPDEST PUSH2 0x92C JUMP JUMPDEST PUSH2 0x95E JUMP JUMPDEST SWAP1 PUSH2 0x1B2 SWAP2 PUSH2 0xED5 PUSH2 0x2250 JUMP JUMPDEST SWAP1 PUSH2 0xEE4 PUSH2 0x1B2 SWAP3 PUSH1 0xE PUSH2 0xDB0 JUMP JUMPDEST PUSH1 0xF PUSH2 0xDB0 JUMP JUMPDEST SWAP1 PUSH2 0x1B2 SWAP2 PUSH2 0xEC8 JUMP JUMPDEST PUSH2 0xEFD PUSH2 0x2250 JUMP JUMPDEST PUSH2 0x1B2 PUSH2 0xF45 JUMP JUMPDEST ISZERO PUSH2 0xF0C JUMPI JUMP JUMPDEST PUSH1 0x40 MLOAD PUSH3 0x461BCD PUSH1 0xE5 SHL DUP2 MSTORE PUSH1 0x20 PUSH1 0x4 DUP3 ADD MSTORE PUSH1 0x11 PUSH1 0x24 DUP3 ADD MSTORE PUSH17 0x566F74696E67206E6F7420616374697665 PUSH1 0x78 SHL PUSH1 0x44 DUP3 ADD MSTORE PUSH1 0x64 SWAP1 REVERT JUMPDEST PUSH2 0xF57 PUSH2 0xF52 PUSH1 0xB PUSH2 0x95E JUMP JUMPDEST PUSH2 0xF05 JUMP JUMPDEST PUSH2 0xF63 PUSH1 0x0 PUSH1 0xB PUSH2 0xD8B JUMP JUMPDEST PUSH2 0xF6E TIMESTAMP PUSH1 0xD PUSH2 0xDB0 JUMP JUMPDEST PUSH32 0x9956BD7B1AE344FBB54DBD02A85E2283BEC6BF75F7FCCBAA9C2392A715E71E49 PUSH2 0xE95 PUSH2 0x298 PUSH1 0xD PUSH2 0x94B JUMP JUMPDEST PUSH2 0x1B2 PUSH2 0xEF5 JUMP JUMPDEST PUSH4 0x4E487B71 PUSH1 0xE0 SHL PUSH1 0x0 MSTORE PUSH1 0x32 PUSH1 0x4 MSTORE PUSH1 0x24 PUSH1 0x0 REVERT JUMPDEST DUP1 SLOAD DUP3 LT ISZERO PUSH2 0xFDD JUMPI PUSH2 0xFD4 PUSH1 0x6 SWAP2 PUSH1 0x0 MSTORE PUSH1 0x20 PUSH1 0x0 KECCAK256 SWAP1 JUMP JUMPDEST SWAP2 MUL ADD SWAP1 PUSH1 0x0 SWAP1 JUMP JUMPDEST PUSH2 0xFA4 JUMP JUMPDEST PUSH2 0xFEC PUSH1 0x0 PUSH2 0x91F JUMP JUMPDEST SWAP1 DUP2 JUMPDEST PUSH1 0x5 PUSH2 0x1005 PUSH2 0x1C8 PUSH2 0x1001 DUP6 DUP5 PUSH2 0x92C JUMP JUMPDEST SLOAD SWAP1 JUMP JUMPDEST DUP5 LT ISZERO PUSH2 0x1045 JUMPI PUSH2 0x103F SWAP2 PUSH2 0x1032 PUSH1 0x2 PUSH2 0x102B DUP8 PUSH2 0x1026 DUP9 PUSH2 0x1038 SWAP8 PUSH2 0x92C JUMP JUMPDEST PUSH2 0xFBA JUMP JUMPDEST POP ADD PUSH2 0x94B JUMP JUMPDEST SWAP1 PUSH2 0xDDD JUMP JUMPDEST SWAP3 PUSH1 0x1 ADD SWAP1 JUMP JUMPDEST SWAP2 PUSH2 0xFEF JUMP JUMPDEST POP SWAP2 POP POP SWAP1 JUMP JUMPDEST ISZERO PUSH2 0x1053 JUMPI JUMP JUMPDEST PUSH1 0x40 MLOAD PUSH3 0x461BCD PUSH1 0xE5 SHL DUP2 MSTORE PUSH1 0x20 PUSH1 0x4 DUP3 ADD MSTORE PUSH1 0x14 PUSH1 0x24 DUP3 ADD MSTORE PUSH20 0x159BDD195C881B9BDD081C9959DA5CDD195C9959 PUSH1 0x62 SHL PUSH1 0x44 DUP3 ADD MSTORE PUSH1 0x64 SWAP1 REVERT JUMPDEST SWAP1 PUSH2 0x1B2 SWAP2 PUSH2 0x10AC PUSH2 0x10A7 PUSH1 0x6 PUSH2 0xC90 CALLER PUSH1 0x2 PUSH2 0xB0F JUMP JUMPDEST PUSH2 0x104C JUMP JUMPDEST PUSH2 0x10F5 JUMP JUMPDEST ISZERO PUSH2 0x10B8 JUMPI JUMP JUMPDEST PUSH1 0x40 MLOAD PUSH3 0x461BCD PUSH1 0xE5 SHL DUP2 MSTORE PUSH1 0x20 PUSH1 0x4 DUP3 ADD MSTORE PUSH1 0x15 PUSH1 0x24 DUP3 ADD MSTORE PUSH21 0x13DD5D1CDA5919481D9BDD1A5B99C81C195C9A5BD9 PUSH1 0x5A SHL PUSH1 0x44 DUP3 ADD MSTORE PUSH1 0x64 SWAP1 REVERT JUMPDEST SWAP1 PUSH2 0x1B2 SWAP2 PUSH2 0x1107 PUSH2 0xF52 PUSH1 0xB PUSH2 0x95E JUMP JUMPDEST PUSH2 0x1114 PUSH2 0x1C8 PUSH1 0xC PUSH2 0x94B JUMP JUMPDEST TIMESTAMP LT ISZERO DUP1 PUSH2 0x112B JUMPI JUMPDEST PUSH2 0x1126 SWAP1 PUSH2 0x10B1 JUMP JUMPDEST PUSH2 0x1376 JUMP JUMPDEST POP PUSH2 0x1126 PUSH2 0x113C PUSH2 0x1C8 PUSH1 0xD PUSH2 0x94B JUMP JUMPDEST TIMESTAMP GT ISZERO SWAP1 POP PUSH2 0x111D JUMP JUMPDEST ISZERO PUSH2 0x114D JUMPI JUMP JUMPDEST PUSH1 0x40 MLOAD PUSH3 0x461BCD PUSH1 0xE5 SHL DUP2 MSTORE DUP1 PUSH2 0xD78 PUSH1 0x4 DUP3 ADD PUSH1 0x20 DUP1 DUP3 MSTORE DUP2 DUP2 ADD MSTORE PUSH32 0x416C726561647920766F74656420666F7220746869732063616E646964617465 PUSH1 0x40 DUP3 ADD MSTORE PUSH1 0x60 ADD SWAP1 JUMP JUMPDEST ISZERO PUSH2 0x119D JUMPI JUMP JUMPDEST PUSH1 0x40 MLOAD PUSH3 0x461BCD PUSH1 0xE5 SHL DUP2 MSTORE PUSH1 0x20 PUSH1 0x4 DUP3 ADD MSTORE PUSH1 0x1C PUSH1 0x24 DUP3 ADD MSTORE PUSH32 0x506F776572206D7573742062652067726561746572207468616E203000000000 PUSH1 0x44 DUP3 ADD MSTORE PUSH1 0x64 SWAP1 REVERT JUMPDEST ISZERO PUSH2 0x11E9 JUMPI JUMP JUMPDEST PUSH1 0x40 MLOAD PUSH3 0x461BCD PUSH1 0xE5 SHL DUP2 MSTORE PUSH1 0x20 PUSH1 0x4 DUP3 ADD MSTORE PUSH1 0x19 PUSH1 0x24 DUP3 ADD MSTORE PUSH32 0x496E73756666696369656E7420766F74696E6720706F77657200000000000000 PUSH1 0x44 DUP3 ADD MSTORE PUSH1 0x64 SWAP1 REVERT JUMPDEST PUSH4 0x4E487B71 PUSH1 0xE0 SHL PUSH1 0x0 MSTORE PUSH1 0x0 PUSH1 0x4 MSTORE PUSH1 0x24 PUSH1 0x0 REVERT JUMPDEST SWAP1 PUSH1 0x1 PUSH1 0x1 PUSH1 0xA0 SHL SUB SWAP1 PUSH2 0xD81 JUMP JUMPDEST SWAP1 PUSH2 0x1263 PUSH2 0x1C8 PUSH2 0xDA2 SWAP3 PUSH2 0xB06 JUMP JUMPDEST DUP3 SLOAD PUSH2 0x1244 JUMP JUMPDEST SWAP1 PUSH2 0xDC0 PUSH2 0x1C8 PUSH2 0xDA2 SWAP3 SWAP1 JUMP JUMPDEST PUSH1 0x5 PUSH2 0x1303 PUSH1 0xA0 PUSH2 0x1B2 SWAP5 PUSH2 0x12A0 PUSH2 0x129A PUSH1 0x0 DUP4 ADD MLOAD PUSH1 0x1 PUSH1 0x1 PUSH1 0xA0 SHL SUB AND SWAP1 JUMP JUMPDEST DUP7 PUSH2 0x1253 JUMP JUMPDEST PUSH2 0x12B7 PUSH2 0x12AE PUSH1 0x20 DUP4 ADD MLOAD SWAP1 JUMP JUMPDEST PUSH1 0x1 DUP8 ADD PUSH2 0xDB0 JUMP JUMPDEST PUSH2 0x12CE PUSH2 0x12C5 PUSH1 0x40 DUP4 ADD MLOAD SWAP1 JUMP JUMPDEST PUSH1 0x2 DUP8 ADD PUSH2 0xDB0 JUMP JUMPDEST PUSH2 0x12E5 PUSH2 0x12DC PUSH1 0x60 DUP4 ADD MLOAD SWAP1 JUMP JUMPDEST PUSH1 0x3 DUP8 ADD PUSH2 0xDB0 JUMP JUMPDEST PUSH2 0x12FC PUSH2 0x12F3 PUSH1 0x80 DUP4 ADD MLOAD SWAP1 JUMP JUMPDEST PUSH1 0x4 DUP8 ADD PUSH2 0x126A JUMP JUMPDEST ADD MLOAD ISZERO ISZERO SWAP1 JUMP JUMPDEST SWAP2 ADD PUSH2 0xD8B JUMP JUMPDEST SWAP2 SWAP1 PUSH2 0x1319 JUMPI PUSH2 0x1B2 SWAP2 PUSH2 0x1278 JUMP JUMPDEST PUSH2 0x122E JUMP JUMPDEST SWAP1 DUP2 SLOAD SWAP2 PUSH1 0x1 PUSH1 0x40 SHL DUP4 LT ISZERO PUSH2 0x8C2 JUMPI DUP3 PUSH2 0x1341 SWAP2 PUSH1 0x1 PUSH2 0x1B2 SWAP6 ADD DUP2 SSTORE PUSH2 0xFBA JUMP JUMPDEST SWAP1 PUSH2 0x130A JUMP JUMPDEST PUSH2 0xE02 PUSH2 0x1B2 SWAP5 PUSH2 0x136D PUSH1 0x60 SWAP5 SWAP9 SWAP8 SWAP6 PUSH2 0x1366 PUSH1 0x80 DUP7 ADD SWAP11 PUSH1 0x0 DUP8 ADD MSTORE JUMP JUMPDEST PUSH1 0x20 DUP6 ADD MSTORE JUMP JUMPDEST ISZERO ISZERO PUSH1 0x40 DUP4 ADD MSTORE JUMP JUMPDEST SWAP1 PUSH32 0xE89C99A0264D21C2AD18316D6E7B3AA31414C12F31B085AFDEEACAA7E69F80B6 SWAP1 PUSH2 0x13B6 PUSH2 0x13B1 PUSH2 0xE1D PUSH2 0xEC3 DUP7 PUSH2 0xEBE CALLER PUSH1 0x6 PUSH2 0xB0F JUMP JUMPDEST PUSH2 0x1146 JUMP JUMPDEST PUSH2 0x13CB PUSH2 0x13C3 PUSH1 0x0 PUSH2 0x91F JUMP JUMPDEST DUP3 JUMPDEST GT PUSH2 0x1196 JUMP JUMPDEST PUSH2 0x14A6 PUSH1 0xA0 PUSH1 0x2 PUSH2 0x13EF PUSH2 0x13E7 PUSH2 0x1C8 PUSH1 0x3 PUSH2 0xA06 CALLER DUP7 PUSH2 0xB0F JUMP JUMPDEST DUP6 GT ISZERO PUSH2 0x11E2 JUMP JUMPDEST PUSH2 0x12FC PUSH2 0x149C PUSH2 0x1409 PUSH2 0x1401 DUP10 PUSH2 0x91F JUMP JUMPDEST TIMESTAMP SWAP1 CALLER PUSH2 0x231D JUMP JUMPDEST SWAP3 PUSH2 0x1465 PUSH2 0x141B DUP3 PUSH2 0xA06 CALLER DUP3 PUSH2 0xB0F JUMP JUMPDEST PUSH2 0x142C PUSH2 0x1428 PUSH1 0x0 PUSH2 0x91F JUMP JUMPDEST SWAP2 SWAP1 JUMP JUMPDEST GT PUSH2 0x145D PUSH2 0x1438 PUSH2 0x8DB JUMP JUMPDEST CALLER DUP2 MSTORE SWAP7 PUSH2 0x1447 DUP14 PUSH1 0x20 DUP11 ADD MSTORE JUMP JUMPDEST PUSH2 0x1452 DUP12 PUSH1 0x40 DUP11 ADD MSTORE JUMP JUMPDEST PUSH2 0xC89 TIMESTAMP PUSH1 0x60 DUP11 ADD MSTORE JUMP JUMPDEST ISZERO ISZERO DUP6 DUP8 ADD MSTORE JUMP JUMPDEST PUSH2 0x147C DUP5 PUSH2 0x1477 PUSH2 0x1C8 DUP13 PUSH1 0x5 PUSH2 0x92C JUMP JUMPDEST PUSH2 0x131E JUMP JUMPDEST PUSH2 0x1495 PUSH1 0x1 PUSH2 0x1490 DUP12 PUSH2 0xEBE CALLER PUSH1 0x6 PUSH2 0xB0F JUMP JUMPDEST PUSH2 0xD8B JUMP JUMPDEST CALLER SWAP1 PUSH2 0xB0F JUMP JUMPDEST PUSH1 0x7 TIMESTAMP SWAP2 ADD PUSH2 0xDB0 JUMP JUMPDEST SWAP1 PUSH2 0x14C8 PUSH2 0x14B3 CALLER PUSH2 0xB06 JUMP JUMPDEST SWAP5 PUSH2 0x14BD PUSH1 0x40 MLOAD SWAP1 JUMP JUMPDEST SWAP4 DUP5 SWAP4 TIMESTAMP SWAP3 DUP6 PUSH2 0x1347 JUMP JUMPDEST SUB SWAP1 LOG2 JUMP JUMPDEST SWAP1 PUSH2 0x1B2 SWAP2 PUSH2 0x108F JUMP JUMPDEST PUSH2 0x14E8 SWAP1 PUSH2 0x14E3 PUSH2 0x2368 JUMP JUMPDEST PUSH2 0x158E JUMP JUMPDEST PUSH2 0x1B2 PUSH2 0x23A8 JUMP JUMPDEST ISZERO PUSH2 0x14F7 JUMPI JUMP JUMPDEST PUSH1 0x40 MLOAD PUSH3 0x461BCD PUSH1 0xE5 SHL DUP2 MSTORE PUSH1 0x20 PUSH1 0x4 DUP3 ADD MSTORE PUSH1 0x15 PUSH1 0x24 DUP3 ADD MSTORE PUSH21 0x44656C65676174696F6E206E6F7420616374697665 PUSH1 0x58 SHL PUSH1 0x44 DUP3 ADD MSTORE PUSH1 0x64 SWAP1 REVERT JUMPDEST ISZERO PUSH2 0x153B JUMPI JUMP JUMPDEST PUSH1 0x40 MLOAD PUSH3 0x461BCD PUSH1 0xE5 SHL DUP2 MSTORE PUSH1 0x20 PUSH1 0x4 DUP3 ADD MSTORE PUSH1 0x11 PUSH1 0x24 DUP3 ADD MSTORE PUSH17 0x2737BA103A3432903232B632B3B0BA37B9 PUSH1 0x79 SHL PUSH1 0x44 DUP3 ADD MSTORE PUSH1 0x64 SWAP1 REVERT JUMPDEST SWAP2 SWAP1 DUP3 SUB SWAP2 DUP3 GT PUSH2 0xDEA JUMPI JUMP JUMPDEST DUP1 ISZERO PUSH2 0xDEA JUMPI PUSH1 0x0 NOT ADD SWAP1 JUMP JUMPDEST PUSH2 0x1706 PUSH2 0x159F PUSH2 0x1C8 DUP4 PUSH1 0x3 PUSH2 0x92C JUMP JUMPDEST PUSH2 0x15E7 PUSH1 0x0 PUSH1 0x4 DUP4 ADD PUSH2 0x15B9 PUSH2 0x15B4 DUP3 PUSH2 0x95E JUMP JUMPDEST PUSH2 0x14F0 JUMP JUMPDEST PUSH2 0x1490 PUSH2 0x15CF DUP4 DUP7 ADD SLOAD PUSH1 0x1 PUSH1 0x1 PUSH1 0xA0 SHL SUB AND SWAP1 JUMP JUMPDEST PUSH2 0x15E1 CALLER JUMPDEST SWAP2 PUSH1 0x1 PUSH1 0x1 PUSH1 0xA0 SHL SUB AND SWAP1 JUMP JUMPDEST EQ PUSH2 0x1534 JUMP JUMPDEST PUSH2 0x16A5 PUSH1 0x8 PUSH2 0x1693 PUSH2 0x15F9 PUSH1 0x0 PUSH2 0xBCE JUMP JUMPDEST PUSH2 0x1611 PUSH1 0x2 SWAP2 PUSH1 0x4 PUSH2 0x160B CALLER DUP6 PUSH2 0xB0F JUMP JUMPDEST ADD PUSH2 0x1253 JUMP JUMPDEST PUSH2 0x1682 PUSH1 0x1 PUSH2 0x1651 DUP4 DUP9 ADD PUSH2 0x164C PUSH2 0x1628 DUP3 PUSH2 0x94B JUMP JUMPDEST PUSH2 0x1646 DUP6 PUSH2 0x1636 CALLER DUP11 PUSH2 0xB0F JUMP JUMPDEST ADD SWAP2 PUSH2 0x1641 DUP4 PUSH2 0x94B JUMP JUMPDEST PUSH2 0xDDD JUMP JUMPDEST SWAP1 PUSH2 0xDB0 JUMP JUMPDEST PUSH2 0x94B JUMP JUMPDEST SWAP7 ADD SWAP6 PUSH2 0x1646 DUP4 PUSH2 0x1672 PUSH2 0x166C DUP11 SLOAD PUSH1 0x1 PUSH1 0x1 PUSH1 0xA0 SHL SUB AND SWAP1 JUMP JUMPDEST DUP3 PUSH2 0xB0F JUMP JUMPDEST ADD SWAP2 PUSH2 0x167D DUP4 PUSH2 0x94B JUMP JUMPDEST PUSH2 0x1574 JUMP JUMPDEST DUP5 SLOAD PUSH1 0x1 PUSH1 0x1 PUSH1 0xA0 SHL SUB AND SWAP1 PUSH2 0xB0F JUMP JUMPDEST ADD PUSH2 0x1646 PUSH2 0x16A0 DUP3 PUSH2 0x94B JUMP JUMPDEST PUSH2 0x1581 JUMP JUMPDEST PUSH2 0x16C0 PUSH2 0x16B9 DUP3 SLOAD PUSH1 0x1 PUSH1 0x1 PUSH1 0xA0 SHL SUB AND SWAP1 JUMP JUMPDEST CALLER SWAP1 PUSH2 0x240F JUMP JUMPDEST PUSH2 0x16C9 CALLER PUSH2 0x24B1 JUMP JUMPDEST PUSH2 0x16E2 PUSH2 0x16DD DUP3 SLOAD PUSH1 0x1 PUSH1 0x1 PUSH1 0xA0 SHL SUB AND SWAP1 JUMP JUMPDEST PUSH2 0x24B1 JUMP JUMPDEST PUSH2 0x16F9 PUSH2 0x16F2 PUSH2 0x16A0 PUSH1 0xA PUSH2 0x94B JUMP JUMPDEST PUSH1 0xA PUSH2 0xDB0 JUMP JUMPDEST SLOAD PUSH1 0x1 PUSH1 0x1 PUSH1 0xA0 SHL SUB AND SWAP1 JUMP JUMPDEST PUSH32 0x657937CAD9C3CE43C8ECE19052E5F60B2DB7D536FDB47405C20ECF1C3DF56B7D PUSH2 0x1751 PUSH2 0x173C PUSH2 0x1736 CALLER PUSH2 0xB06 JUMP JUMPDEST SWAP4 PUSH2 0xB06 JUMP JUMPDEST SWAP4 PUSH2 0x1746 PUSH1 0x40 MLOAD SWAP1 JUMP JUMPDEST SWAP2 DUP3 SWAP2 TIMESTAMP SWAP1 DUP4 PUSH2 0xDEF JUMP JUMPDEST SUB SWAP1 LOG3 JUMP JUMPDEST PUSH2 0x1B2 SWAP1 PUSH2 0x14D7 JUMP JUMPDEST SWAP1 PUSH2 0x1B2 SWAP2 PUSH2 0x176C PUSH2 0x2250 JUMP JUMPDEST PUSH2 0x1A51 JUMP JUMPDEST ISZERO PUSH2 0x1778 JUMPI JUMP JUMPDEST PUSH1 0x40 MLOAD PUSH3 0x461BCD PUSH1 0xE5 SHL DUP2 MSTORE PUSH1 0x20 PUSH1 0x4 DUP3 ADD MSTORE PUSH1 0x18 PUSH1 0x24 DUP3 ADD MSTORE PUSH32 0x566F74657220616C726561647920726567697374657265640000000000000000 PUSH1 0x44 DUP3 ADD MSTORE PUSH1 0x64 SWAP1 REVERT JUMPDEST CALLDATASIZE SWAP1 CALLDATACOPY JUMP JUMPDEST SWAP1 PUSH2 0x1B2 PUSH2 0x17D8 PUSH2 0x17D2 DUP5 PUSH2 0xC09 JUMP JUMPDEST SWAP4 PUSH2 0xBF1 JUMP JUMPDEST PUSH1 0x1F NOT ADD PUSH1 0x20 DUP5 ADD PUSH2 0x17BD JUMP JUMPDEST PUSH2 0x1C8 PUSH2 0x120 PUSH2 0x8C7 JUMP JUMPDEST SWAP2 PUSH1 0x0 NOT PUSH1 0x8 SWAP3 SWAP1 SWAP3 MUL SWAP2 DUP3 SHL SWAP2 SHL PUSH2 0xD81 JUMP JUMPDEST SWAP2 SWAP1 PUSH2 0x1815 PUSH2 0x1C8 PUSH2 0xDA2 SWAP4 PUSH2 0x91F JUMP JUMPDEST SWAP1 DUP4 SLOAD PUSH2 0x17F0 JUMP JUMPDEST PUSH2 0x1B2 SWAP2 PUSH1 0x0 SWAP2 PUSH2 0x1804 JUMP JUMPDEST DUP2 DUP2 LT PUSH2 0x1834 JUMPI POP POP JUMP JUMPDEST DUP1 PUSH2 0x1842 PUSH1 0x0 PUSH1 0x1 SWAP4 PUSH2 0x181D JUMP JUMPDEST ADD PUSH2 0x1829 JUMP JUMPDEST SWAP2 SWAP1 SWAP2 DUP3 DUP3 LT PUSH2 0x1857 JUMPI POP POP POP JUMP JUMPDEST PUSH2 0x1B2 SWAP3 SWAP2 PUSH2 0x186C SWAP1 SWAP2 PUSH1 0x0 MSTORE PUSH1 0x20 PUSH1 0x0 KECCAK256 SWAP1 JUMP JUMPDEST SWAP2 DUP3 ADD SWAP2 ADD PUSH2 0x1829 JUMP JUMPDEST SWAP1 PUSH1 0x1 PUSH1 0x40 SHL DUP2 GT PUSH2 0x8C2 JUMPI DUP2 PUSH2 0x188E PUSH2 0x1B2 SWAP4 SLOAD SWAP1 JUMP JUMPDEST SWAP1 DUP3 DUP2 SSTORE PUSH2 0x1848 JUMP JUMPDEST PUSH2 0x1C8 SWAP2 PUSH1 0x8 MUL SHR PUSH2 0x1CB JUMP JUMPDEST SWAP2 PUSH1 0x1 PUSH1 0x1 PUSH1 0xA0 SHL SUB PUSH1 0x8 SWAP3 SWAP1 SWAP3 MUL SWAP2 DUP3 SHL SWAP2 SHL PUSH2 0xD81 JUMP JUMPDEST DUP2 MLOAD SWAP2 PUSH8 0xFFFFFFFFFFFFFFFF DUP4 GT PUSH2 0x8C2 JUMPI PUSH2 0x18E8 PUSH2 0xA51 PUSH1 0x1 SWAP3 PUSH2 0x18E2 DUP7 DUP7 PUSH2 0x1876 JUMP JUMPDEST PUSH1 0x20 ADD SWAP1 JUMP JUMPDEST SWAP3 DIV SWAP2 PUSH1 0x0 JUMPDEST DUP4 DUP2 LT PUSH2 0x18FB JUMPI POP POP POP POP JUMP JUMPDEST PUSH1 0x1 SWAP1 PUSH1 0x20 PUSH2 0x1914 PUSH2 0x1C8 DUP7 MLOAD PUSH1 0x1 PUSH1 0x1 PUSH1 0xA0 SHL SUB AND SWAP1 JUMP JUMPDEST SWAP5 ADD SWAP4 DUP2 DUP5 ADD SSTORE ADD PUSH2 0x18EE JUMP JUMPDEST SWAP1 PUSH2 0x1B2 SWAP2 PUSH2 0x18BD JUMP JUMPDEST PUSH1 0x8 PUSH2 0x19E4 PUSH2 0x100 PUSH2 0x1B2 SWAP5 PUSH2 0x194E PUSH2 0x129A PUSH1 0x0 DUP4 ADD MLOAD PUSH1 0x1 PUSH1 0x1 PUSH1 0xA0 SHL SUB AND SWAP1 JUMP JUMPDEST PUSH2 0x195C PUSH2 0x12AE PUSH1 0x20 DUP4 ADD MLOAD SWAP1 JUMP JUMPDEST PUSH2 0x196A PUSH2 0x12C5 PUSH1 0x40 DUP4 ADD MLOAD SWAP1 JUMP JUMPDEST PUSH2 0x1978 PUSH2 0x12DC PUSH1 0x60 DUP4 ADD MLOAD SWAP1 JUMP JUMPDEST PUSH2 0x1998 PUSH2 0x198F PUSH1 0x80 DUP4 ADD MLOAD PUSH1 0x1 PUSH1 0x1 PUSH1 0xA0 SHL SUB AND SWAP1 JUMP JUMPDEST PUSH1 0x4 DUP8 ADD PUSH2 0x1253 JUMP JUMPDEST PUSH2 0x19AF PUSH2 0x19A6 PUSH1 0xA0 DUP4 ADD MLOAD SWAP1 JUMP JUMPDEST PUSH1 0x5 DUP8 ADD PUSH2 0x1921 JUMP JUMPDEST PUSH2 0x19C8 PUSH2 0x19BF PUSH1 0xC0 DUP4 ADD MLOAD ISZERO ISZERO SWAP1 JUMP JUMPDEST PUSH1 0x6 DUP8 ADD PUSH2 0xD8B JUMP JUMPDEST PUSH2 0x19DF PUSH2 0x19D6 PUSH1 0xE0 DUP4 ADD MLOAD SWAP1 JUMP JUMPDEST PUSH1 0x7 DUP8 ADD PUSH2 0xDB0 JUMP JUMPDEST ADD MLOAD SWAP1 JUMP JUMPDEST SWAP2 ADD PUSH2 0xDB0 JUMP JUMPDEST SWAP1 PUSH2 0x1B2 SWAP2 PUSH2 0x192B JUMP JUMPDEST DUP1 SLOAD DUP3 LT ISZERO PUSH2 0xFDD JUMPI PUSH2 0xFD4 PUSH1 0x1 SWAP2 PUSH1 0x0 MSTORE PUSH1 0x20 PUSH1 0x0 KECCAK256 SWAP1 JUMP JUMPDEST SWAP2 SWAP1 PUSH2 0x1A20 PUSH2 0x1C8 PUSH2 0xDA2 SWAP4 PUSH2 0xB06 JUMP JUMPDEST SWAP1 DUP4 SLOAD PUSH2 0x18A4 JUMP JUMPDEST SWAP1 DUP2 SLOAD SWAP2 PUSH1 0x1 PUSH1 0x40 SHL DUP4 LT ISZERO PUSH2 0x8C2 JUMPI DUP3 PUSH2 0x1A4B SWAP2 PUSH1 0x1 PUSH2 0x1B2 SWAP6 ADD DUP2 SSTORE PUSH2 0x19F5 JUMP JUMPDEST SWAP1 PUSH2 0x1A0F JUMP JUMPDEST PUSH2 0x14C8 PUSH2 0x1B78 PUSH32 0x49A90692135172B11FF45007EF12B97C37DF00BC650E48846F88DA97B191B2D0 SWAP3 PUSH2 0x1A94 PUSH2 0x1A8F PUSH2 0xE1D PUSH1 0x6 PUSH2 0xC90 DUP6 PUSH1 0x2 PUSH2 0xB0F JUMP JUMPDEST PUSH2 0x1771 JUMP JUMPDEST PUSH2 0x1B50 PUSH1 0x0 PUSH2 0x1AAB PUSH2 0x1AA5 DUP3 PUSH2 0x91F JUMP JUMPDEST DUP9 PUSH2 0x13C5 JUMP JUMPDEST PUSH2 0x1B40 PUSH2 0x1AB7 DUP3 PUSH2 0xBCE JUMP JUMPDEST PUSH2 0x1B26 PUSH2 0x1AC3 DUP5 PUSH2 0x91F JUMP JUMPDEST SWAP2 PUSH2 0x1B1F PUSH2 0x1AD0 DUP5 PUSH2 0x17C2 JUMP JUMPDEST SWAP2 PUSH2 0x1AEE DUP10 PUSH2 0x1ADD PUSH2 0x17E5 JUMP JUMPDEST SWAP9 DUP10 ADD SWAP1 PUSH1 0x1 PUSH1 0x1 PUSH1 0xA0 SHL SUB AND SWAP1 MSTORE JUMP JUMPDEST PUSH2 0x1AF9 DUP14 PUSH1 0x20 DUP10 ADD MSTORE JUMP JUMPDEST PUSH2 0x1B04 DUP6 PUSH1 0x40 DUP10 ADD MSTORE JUMP JUMPDEST PUSH2 0x1B0F DUP14 PUSH1 0x60 DUP10 ADD MSTORE JUMP JUMPDEST PUSH1 0x1 PUSH1 0x1 PUSH1 0xA0 SHL SUB AND PUSH1 0x80 DUP8 ADD MSTORE JUMP JUMPDEST PUSH1 0xA0 DUP6 ADD MSTORE JUMP JUMPDEST PUSH1 0x1 PUSH1 0xC0 DUP5 ADD MSTORE PUSH2 0x1B38 DUP2 PUSH1 0xE0 DUP6 ADD MSTORE JUMP JUMPDEST PUSH2 0x100 DUP4 ADD MSTORE JUMP JUMPDEST PUSH2 0x1B4B DUP4 PUSH1 0x2 PUSH2 0xB0F JUMP JUMPDEST PUSH2 0x19EB JUMP JUMPDEST PUSH2 0x1B5B DUP2 PUSH1 0x7 PUSH2 0x1A28 JUMP JUMPDEST PUSH2 0x1B73 PUSH2 0x1B6C DUP7 PUSH2 0x1641 PUSH1 0x9 PUSH2 0x94B JUMP JUMPDEST PUSH1 0x9 PUSH2 0xDB0 JUMP JUMPDEST PUSH2 0xB06 JUMP JUMPDEST SWAP3 PUSH2 0x1746 PUSH1 0x40 MLOAD SWAP1 JUMP JUMPDEST SWAP1 PUSH2 0x1B2 SWAP2 PUSH2 0x175F JUMP JUMPDEST SWAP1 PUSH2 0x1C8 SWAP3 SWAP2 PUSH2 0x1BA5 PUSH2 0x10A7 PUSH1 0x6 PUSH2 0xC90 CALLER PUSH1 0x2 PUSH2 0xB0F JUMP JUMPDEST PUSH2 0x1CD1 JUMP JUMPDEST ISZERO PUSH2 0x1BB1 JUMPI JUMP JUMPDEST PUSH1 0x40 MLOAD PUSH3 0x461BCD PUSH1 0xE5 SHL DUP2 MSTORE PUSH1 0x20 PUSH1 0x4 DUP3 ADD MSTORE PUSH1 0x17 PUSH1 0x24 DUP3 ADD MSTORE PUSH32 0x43616E6E6F742064656C656761746520746F2073656C66000000000000000000 PUSH1 0x44 DUP3 ADD MSTORE PUSH1 0x64 SWAP1 REVERT JUMPDEST ISZERO PUSH2 0x1BFD JUMPI JUMP JUMPDEST PUSH1 0x40 MLOAD PUSH3 0x461BCD PUSH1 0xE5 SHL DUP2 MSTORE PUSH1 0x20 PUSH1 0x4 DUP3 ADD MSTORE PUSH1 0x18 PUSH1 0x24 DUP3 ADD MSTORE PUSH32 0x44656C656761746F72206E6F7420726567697374657265640000000000000000 PUSH1 0x44 DUP3 ADD MSTORE PUSH1 0x64 SWAP1 REVERT JUMPDEST ISZERO PUSH2 0x1C49 JUMPI JUMP JUMPDEST PUSH1 0x40 MLOAD PUSH3 0x461BCD PUSH1 0xE5 SHL DUP2 MSTORE PUSH1 0x20 PUSH1 0x4 DUP3 ADD MSTORE PUSH1 0x17 PUSH1 0x24 DUP3 ADD MSTORE PUSH32 0x44656C6567617465206E6F742072656769737465726564000000000000000000 PUSH1 0x44 DUP3 ADD MSTORE PUSH1 0x64 SWAP1 REVERT JUMPDEST ISZERO PUSH2 0x1C95 JUMPI JUMP JUMPDEST PUSH1 0x40 MLOAD PUSH3 0x461BCD PUSH1 0xE5 SHL DUP2 MSTORE PUSH1 0x20 PUSH1 0x4 DUP3 ADD MSTORE PUSH1 0x14 PUSH1 0x24 DUP3 ADD MSTORE PUSH20 0x416C7265616479206861732064656C6567617465 PUSH1 0x60 SHL PUSH1 0x44 DUP3 ADD MSTORE PUSH1 0x64 SWAP1 REVERT JUMPDEST PUSH2 0x1C8 SWAP3 SWAP2 SWAP1 PUSH2 0x1CEC PUSH1 0x1 PUSH1 0x1 PUSH1 0xA0 SHL SUB DUP4 AND CALLER EQ ISZERO PUSH2 0x1BAA JUMP JUMPDEST PUSH2 0x1D4B PUSH2 0x1D35 PUSH1 0x4 PUSH2 0x1D27 PUSH1 0x2 PUSH2 0x1D10 PUSH2 0x1D0B PUSH1 0x6 PUSH2 0xC90 CALLER DUP6 PUSH2 0xB0F JUMP JUMPDEST PUSH2 0x1BF6 JUMP JUMPDEST PUSH2 0x1495 PUSH2 0x1D22 PUSH1 0x6 PUSH2 0xC90 DUP11 DUP6 PUSH2 0xB0F JUMP JUMPDEST PUSH2 0x1C42 JUMP JUMPDEST ADD SLOAD PUSH1 0x1 PUSH1 0x1 PUSH1 0xA0 SHL SUB AND SWAP1 JUMP JUMPDEST PUSH2 0x1D45 PUSH2 0x15D4 PUSH2 0x1CB PUSH1 0x0 PUSH2 0xBCE JUMP JUMPDEST EQ PUSH2 0x1C8E JUMP JUMPDEST PUSH2 0x1EF5 JUMP JUMPDEST ISZERO PUSH2 0x1D57 JUMPI JUMP JUMPDEST PUSH1 0x40 MLOAD PUSH3 0x461BCD PUSH1 0xE5 SHL DUP2 MSTORE PUSH1 0x20 PUSH1 0x4 DUP3 ADD MSTORE PUSH1 0x13 PUSH1 0x24 DUP3 ADD MSTORE PUSH19 0x506F7765722062656C6F77206D696E696D756D PUSH1 0x68 SHL PUSH1 0x44 DUP3 ADD MSTORE PUSH1 0x64 SWAP1 REVERT JUMPDEST ISZERO PUSH2 0x1D99 JUMPI JUMP JUMPDEST PUSH1 0x40 MLOAD PUSH3 0x461BCD PUSH1 0xE5 SHL DUP2 MSTORE PUSH1 0x20 PUSH1 0x4 DUP3 ADD MSTORE PUSH1 0x12 PUSH1 0x24 DUP3 ADD MSTORE PUSH18 0x24B739BAB33334B1B4B2B73A103837BBB2B9 PUSH1 0x71 SHL PUSH1 0x44 DUP3 ADD MSTORE PUSH1 0x64 SWAP1 REVERT JUMPDEST ISZERO PUSH2 0x1DDA JUMPI JUMP JUMPDEST PUSH1 0x40 MLOAD PUSH3 0x461BCD PUSH1 0xE5 SHL DUP2 MSTORE PUSH1 0x20 PUSH1 0x4 DUP3 ADD MSTORE PUSH1 0x1C PUSH1 0x24 DUP3 ADD MSTORE PUSH32 0x43697263756C61722064656C65676174696F6E20646574656374656400000000 PUSH1 0x44 DUP3 ADD MSTORE PUSH1 0x64 SWAP1 REVERT JUMPDEST PUSH1 0x0 NOT DUP2 EQ PUSH2 0xDEA JUMPI PUSH1 0x1 ADD SWAP1 JUMP JUMPDEST PUSH1 0x5 PUSH2 0x19E4 PUSH1 0xA0 PUSH2 0x1B2 SWAP5 PUSH2 0x1E50 PUSH2 0x129A PUSH1 0x0 DUP4 ADD MLOAD PUSH1 0x1 PUSH1 0x1 PUSH1 0xA0 SHL SUB AND SWAP1 JUMP JUMPDEST PUSH2 0x1E70 PUSH2 0x1E67 PUSH1 0x20 DUP4 ADD MLOAD PUSH1 0x1 PUSH1 0x1 PUSH1 0xA0 SHL SUB AND SWAP1 JUMP JUMPDEST PUSH1 0x1 DUP8 ADD PUSH2 0x1253 JUMP JUMPDEST PUSH2 0x1E7E PUSH2 0x12C5 PUSH1 0x40 DUP4 ADD MLOAD SWAP1 JUMP JUMPDEST PUSH2 0x1E8C PUSH2 0x12DC PUSH1 0x60 DUP4 ADD MLOAD SWAP1 JUMP JUMPDEST PUSH2 0x19DF PUSH2 0x1E9C PUSH1 0x80 DUP4 ADD MLOAD ISZERO ISZERO SWAP1 JUMP JUMPDEST PUSH1 0x4 DUP8 ADD PUSH2 0xD8B JUMP JUMPDEST SWAP1 PUSH2 0x1B2 SWAP2 PUSH2 0x1E2E JUMP JUMPDEST SWAP1 DUP2 SLOAD SWAP2 PUSH1 0x1 PUSH1 0x40 SHL DUP4 LT ISZERO PUSH2 0x8C2 JUMPI DUP3 PUSH2 0x1ED2 SWAP2 PUSH1 0x1 PUSH2 0x1B2 SWAP6 ADD DUP2 SSTORE PUSH2 0x19F5 JUMP JUMPDEST SWAP1 PUSH2 0x1804 JUMP JUMPDEST SWAP1 DUP2 MSTORE PUSH1 0x60 DUP2 ADD SWAP4 SWAP3 PUSH2 0x1B2 SWAP3 SWAP1 SWAP2 PUSH1 0x40 SWAP2 PUSH2 0xE02 SWAP1 PUSH1 0x20 DUP4 ADD MSTORE JUMP JUMPDEST POP SWAP1 PUSH2 0x1F0F PUSH2 0x1F07 PUSH2 0x1C8 PUSH1 0xF PUSH2 0x94B JUMP JUMPDEST DUP3 LT ISZERO PUSH2 0x1D50 JUMP JUMPDEST PUSH1 0x2 SWAP2 PUSH2 0x1F2F PUSH2 0x1F27 PUSH2 0x1C8 PUSH1 0x1 PUSH2 0xA06 CALLER DUP9 PUSH2 0xB0F JUMP JUMPDEST DUP4 GT ISZERO PUSH2 0x1D92 JUMP JUMPDEST PUSH2 0x1F44 PUSH2 0x1F3F PUSH2 0xE1D DUP4 CALLER PUSH2 0x2521 JUMP JUMPDEST PUSH2 0x1DD3 JUMP JUMPDEST PUSH2 0x204E PUSH1 0x8 PUSH2 0x203C DUP4 PUSH2 0x1F56 DUP4 PUSH2 0x94B JUMP JUMPDEST SWAP7 PUSH2 0x1F69 PUSH2 0x1F63 DUP10 PUSH2 0x1E1F JUMP JUMPDEST DUP6 PUSH2 0xDB0 JUMP JUMPDEST PUSH2 0x1FBE PUSH2 0x1F74 PUSH2 0x8DB JUMP JUMPDEST CALLER DUP2 MSTORE PUSH1 0x1 PUSH1 0x1 PUSH1 0xA0 SHL SUB DUP5 AND PUSH1 0x20 DUP3 ADD MSTORE PUSH2 0x1F91 DUP10 PUSH1 0x40 DUP4 ADD MSTORE JUMP JUMPDEST PUSH2 0x1F9C TIMESTAMP PUSH1 0x60 DUP4 ADD MSTORE JUMP JUMPDEST PUSH1 0x1 PUSH1 0x80 DUP3 ADD MSTORE PUSH2 0x1FAE DUP11 PUSH1 0xA0 DUP4 ADD MSTORE JUMP JUMPDEST PUSH2 0x1FB9 DUP11 PUSH1 0x3 PUSH2 0x92C JUMP JUMPDEST PUSH2 0x1EA5 JUMP JUMPDEST PUSH2 0x1FD5 DUP9 PUSH2 0x1FD0 PUSH2 0x1C8 CALLER PUSH1 0x4 PUSH2 0xB0F JUMP JUMPDEST PUSH2 0x1EAF JUMP JUMPDEST PUSH2 0x1FE5 DUP3 PUSH1 0x4 PUSH2 0x160B CALLER DUP6 PUSH2 0xB0F JUMP JUMPDEST PUSH2 0x2002 PUSH1 0x1 PUSH2 0x1FF4 CALLER DUP5 PUSH2 0xB0F JUMP JUMPDEST ADD PUSH2 0x1646 DUP10 PUSH2 0x167D DUP4 PUSH2 0x94B JUMP JUMPDEST PUSH2 0x201E DUP2 PUSH2 0x2010 DUP5 DUP3 PUSH2 0xB0F JUMP JUMPDEST ADD PUSH2 0x1646 DUP10 PUSH2 0x1641 DUP4 PUSH2 0x94B JUMP JUMPDEST PUSH2 0x2037 PUSH2 0x2030 PUSH1 0x5 PUSH2 0x30D DUP6 DUP6 PUSH2 0xB0F JUMP JUMPDEST CALLER SWAP1 PUSH2 0x1A28 JUMP JUMPDEST PUSH2 0xB0F JUMP JUMPDEST ADD PUSH2 0x1646 PUSH2 0x2049 DUP3 PUSH2 0x94B JUMP JUMPDEST PUSH2 0x1E1F JUMP JUMPDEST PUSH2 0x2057 CALLER PUSH2 0x24B1 JUMP JUMPDEST PUSH2 0x2060 DUP2 PUSH2 0x24B1 JUMP JUMPDEST PUSH2 0x2070 PUSH2 0x16F2 PUSH2 0x2049 PUSH1 0xA PUSH2 0x94B JUMP JUMPDEST PUSH32 0xFE35C70E4980D7DF0AFCCC73BB14C09D90B04287CD40B249A714D4033C285185 PUSH2 0x20B6 PUSH2 0x20A0 PUSH2 0x1736 CALLER PUSH2 0xB06 JUMP JUMPDEST SWAP4 PUSH2 0x20AA PUSH1 0x40 MLOAD SWAP1 JUMP JUMPDEST SWAP2 DUP3 SWAP2 DUP8 TIMESTAMP SWAP2 DUP5 PUSH2 0x1ED8 JUMP JUMPDEST SUB SWAP1 LOG3 SWAP1 JUMP JUMPDEST PUSH2 0x1C8 SWAP2 SWAP1 PUSH1 0x0 PUSH2 0x1B8C JUMP JUMPDEST PUSH2 0x20D0 PUSH2 0x17E5 JUMP JUMPDEST SWAP1 PUSH1 0x0 DUP3 MSTORE PUSH1 0x20 DUP1 DUP1 DUP1 DUP1 DUP1 DUP1 DUP1 DUP1 DUP11 ADD PUSH1 0x0 DUP2 MSTORE ADD PUSH1 0x0 DUP2 MSTORE ADD PUSH1 0x0 DUP2 MSTORE ADD PUSH1 0x0 DUP2 MSTORE ADD PUSH1 0x60 PUSH2 0x903 JUMP JUMPDEST PUSH2 0x1C8 PUSH2 0x20C8 JUMP JUMPDEST SWAP1 PUSH2 0x1B2 PUSH2 0x21C2 PUSH1 0x8 PUSH2 0x2115 PUSH2 0x17E5 JUMP JUMPDEST SWAP5 PUSH2 0x212A PUSH2 0x98E DUP3 SLOAD PUSH1 0x1 PUSH1 0x1 PUSH1 0xA0 SHL SUB AND SWAP1 JUMP JUMPDEST PUSH2 0x2139 PUSH2 0xC55 PUSH1 0x1 DUP4 ADD PUSH2 0x94B JUMP JUMPDEST PUSH2 0x2148 PUSH2 0x9D1 PUSH1 0x2 DUP4 ADD PUSH2 0x94B JUMP JUMPDEST PUSH2 0x2157 PUSH2 0x9E7 PUSH1 0x3 DUP4 ADD PUSH2 0x94B JUMP JUMPDEST PUSH2 0x217E PUSH2 0x216E PUSH1 0x4 DUP4 ADD SLOAD PUSH1 0x1 PUSH1 0x1 PUSH1 0xA0 SHL SUB AND SWAP1 JUMP JUMPDEST PUSH1 0x1 PUSH1 0x1 PUSH1 0xA0 SHL SUB AND PUSH1 0x80 DUP9 ADD MSTORE JUMP JUMPDEST PUSH2 0x2194 PUSH2 0x218D PUSH1 0x5 DUP4 ADD PUSH2 0xAB5 JUMP JUMPDEST PUSH1 0xA0 DUP9 ADD MSTORE JUMP JUMPDEST PUSH2 0x21AC PUSH2 0x21A3 PUSH1 0x6 DUP4 ADD PUSH2 0x95E JUMP JUMPDEST ISZERO ISZERO PUSH1 0xC0 DUP9 ADD MSTORE JUMP JUMPDEST PUSH2 0xA06 PUSH2 0x21BB PUSH1 0x7 DUP4 ADD PUSH2 0x94B JUMP JUMPDEST PUSH1 0xE0 DUP9 ADD MSTORE JUMP JUMPDEST PUSH2 0x100 DUP5 ADD MSTORE JUMP JUMPDEST PUSH2 0x1C8 SWAP1 PUSH2 0x2104 JUMP JUMPDEST PUSH2 0x21EA PUSH2 0x1C8 SWAP2 PUSH2 0x21E2 PUSH2 0x20FC JUMP JUMPDEST POP PUSH1 0x2 PUSH2 0xB0F JUMP JUMPDEST PUSH2 0x21CA JUMP JUMPDEST PUSH2 0x1B2 SWAP1 PUSH2 0x21FB PUSH2 0x2250 JUMP JUMPDEST PUSH1 0x0 PUSH2 0x2206 DUP2 PUSH2 0xBCE JUMP JUMPDEST PUSH1 0x1 PUSH1 0x1 PUSH1 0xA0 SHL SUB DUP2 AND PUSH1 0x1 PUSH1 0x1 PUSH1 0xA0 SHL SUB DUP5 AND EQ PUSH2 0x222A JUMPI POP POP PUSH2 0x1B2 SWAP1 PUSH2 0x2291 JUMP JUMPDEST PUSH4 0x1E4FBDF7 PUSH1 0xE0 SHL DUP3 MSTORE PUSH1 0x1 PUSH1 0x1 PUSH1 0xA0 SHL SUB AND PUSH1 0x4 DUP3 ADD MSTORE PUSH1 0x24 SWAP1 REVERT JUMPDEST PUSH2 0x1B2 SWAP1 PUSH2 0x21EF JUMP JUMPDEST PUSH1 0x0 SLOAD PUSH1 0x1 PUSH1 0x1 PUSH1 0xA0 SHL SUB AND CALLER SWAP1 PUSH2 0x2267 DUP3 PUSH2 0x15D4 JUMP JUMPDEST SUB PUSH2 0x226F JUMPI POP JUMP JUMPDEST PUSH4 0x118CDAA7 PUSH1 0xE0 SHL PUSH1 0x0 SWAP1 DUP2 MSTORE PUSH1 0x1 PUSH1 0x1 PUSH1 0xA0 SHL SUB SWAP1 SWAP2 AND PUSH1 0x4 MSTORE PUSH1 0x24 SUB PUSH1 0x0 REVERT JUMPDEST PUSH2 0x22BA PUSH2 0x22B4 PUSH2 0x22A9 PUSH1 0x0 SLOAD PUSH1 0x1 PUSH1 0x1 PUSH1 0xA0 SHL SUB AND SWAP1 JUMP JUMPDEST PUSH2 0x1B73 DUP5 PUSH1 0x0 PUSH2 0x1253 JUMP JUMPDEST SWAP2 PUSH2 0xB06 JUMP JUMPDEST SWAP1 PUSH32 0x8BE0079C531659141344CD1FD0A4F28419497F9722A3DAAFE3B4186F6B6457E0 PUSH2 0x22E5 PUSH1 0x40 MLOAD SWAP1 JUMP JUMPDEST DUP1 DUP1 PUSH2 0x1751 JUMP JUMPDEST PUSH2 0x1D7 SWAP1 PUSH1 0x1 PUSH1 0x1 PUSH1 0xA0 SHL SUB AND PUSH1 0x60 SHL SWAP1 JUMP JUMPDEST PUSH1 0x20 SWAP4 SWAP3 PUSH2 0x2317 PUSH1 0x14 DUP4 PUSH2 0x2317 DUP9 SWAP6 PUSH2 0x30D SWAP8 PUSH2 0x22EC JUMP JUMPDEST ADD SWAP2 DUP3 MSTORE JUMP JUMPDEST PUSH2 0x2348 SWAP2 SWAP1 PUSH2 0x233C PUSH2 0x232E PUSH1 0x40 MLOAD SWAP1 JUMP JUMPDEST SWAP5 DUP6 SWAP4 PUSH1 0x20 DUP6 ADD SWAP4 DUP5 PUSH2 0x22FF JUMP JUMPDEST SWAP1 DUP2 SUB DUP3 MSTORE SUB DUP3 PUSH2 0x8A0 JUMP JUMPDEST PUSH2 0x235A PUSH2 0x2353 DUP3 MLOAD SWAP1 JUMP JUMPDEST SWAP2 PUSH1 0x20 ADD SWAP1 JUMP JUMPDEST KECCAK256 SWAP1 JUMP JUMPDEST PUSH2 0x1C8 PUSH1 0x2 PUSH2 0x91F JUMP JUMPDEST PUSH2 0x2372 PUSH1 0x1 PUSH2 0x94B JUMP JUMPDEST PUSH2 0x237A PUSH2 0x235E JUMP JUMPDEST SWAP1 DUP2 EQ PUSH2 0x238C JUMPI PUSH2 0x1B2 SWAP1 PUSH1 0x1 PUSH2 0xDB0 JUMP JUMPDEST PUSH4 0x3EE5AEB5 PUSH1 0xE0 SHL PUSH1 0x0 SWAP1 DUP2 MSTORE PUSH1 0x4 SWAP1 REVERT JUMPDEST PUSH2 0x1C8 PUSH1 0x1 PUSH2 0x91F JUMP JUMPDEST PUSH2 0x1B2 PUSH2 0x23B3 PUSH2 0x239E JUMP JUMPDEST PUSH1 0x1 PUSH2 0xDB0 JUMP JUMPDEST SWAP1 PUSH2 0x1C8 SWAP2 SLOAD PUSH2 0x1897 JUMP JUMPDEST PUSH4 0x4E487B71 PUSH1 0xE0 SHL PUSH1 0x0 MSTORE PUSH1 0x31 PUSH1 0x4 MSTORE PUSH1 0x24 PUSH1 0x0 REVERT JUMPDEST PUSH2 0x1B2 SWAP2 PUSH1 0x0 SWAP2 PUSH2 0x1A0F JUMP JUMPDEST DUP1 SLOAD DUP1 ISZERO PUSH2 0x240A JUMPI PUSH1 0x0 NOT ADD SWAP1 PUSH2 0x2407 PUSH2 0x2401 DUP4 DUP4 PUSH2 0x19F5 JUMP JUMPDEST SWAP1 PUSH2 0x23DB JUMP JUMPDEST SSTORE JUMP JUMPDEST PUSH2 0x23C5 JUMP JUMPDEST PUSH1 0x5 PUSH2 0x30D PUSH2 0x241F SWAP3 PUSH1 0x2 PUSH2 0xB0F JUMP JUMPDEST PUSH2 0x2429 PUSH1 0x0 PUSH2 0x91F JUMP JUMPDEST PUSH2 0x2434 PUSH2 0x1C8 DUP4 SLOAD SWAP1 JUMP JUMPDEST DUP2 LT ISZERO PUSH2 0x24AC JUMPI PUSH2 0x244E PUSH2 0x2448 DUP3 DUP5 PUSH2 0x19F5 JUMP JUMPDEST SWAP1 PUSH2 0x23BA JUMP JUMPDEST PUSH2 0x2460 PUSH1 0x1 PUSH1 0x1 PUSH1 0xA0 SHL SUB DUP6 AND PUSH2 0x15D4 JUMP JUMPDEST EQ PUSH2 0x246D JUMPI PUSH1 0x1 ADD PUSH2 0x2429 JUMP JUMPDEST PUSH2 0x1B2 SWAP3 POP PUSH2 0x24A7 SWAP1 PUSH2 0x1A4B PUSH2 0x24A0 PUSH2 0x2448 PUSH2 0x249A PUSH2 0x248A DUP8 SLOAD SWAP1 JUMP JUMPDEST PUSH2 0x2494 PUSH1 0x1 PUSH2 0x91F JUMP JUMPDEST SWAP1 PUSH2 0x1574 JUMP JUMPDEST DUP7 PUSH2 0x19F5 JUMP JUMPDEST SWAP2 DUP5 PUSH2 0x19F5 JUMP JUMPDEST PUSH2 0x23E7 JUMP JUMPDEST POP POP POP JUMP JUMPDEST PUSH32 0x255D9FD63837B26DDECF40374F32676FD529F58ACCD2F1673335F6E04D0FE136 PUSH2 0x14C8 PUSH2 0x2517 PUSH2 0x1736 PUSH1 0x3 PUSH2 0xA06 DUP7 PUSH1 0x2 PUSH2 0x2037 PUSH2 0x2506 PUSH2 0x24F8 PUSH1 0x1 PUSH2 0xA06 DUP7 DUP7 PUSH2 0xB0F JUMP JUMPDEST PUSH2 0x1032 DUP5 PUSH2 0xA06 DUP8 DUP3 PUSH2 0xB0F JUMP JUMPDEST DUP6 PUSH2 0x2511 DUP6 DUP6 PUSH2 0xB0F JUMP JUMPDEST ADD PUSH2 0xDB0 JUMP JUMPDEST SWAP3 PUSH2 0x29C PUSH1 0x40 MLOAD SWAP1 JUMP JUMPDEST SWAP1 PUSH1 0x1 PUSH1 0x1 PUSH1 0xA0 SHL SUB DUP2 AND PUSH1 0x1 PUSH1 0x1 PUSH1 0xA0 SHL SUB DUP4 AND EQ PUSH2 0x25D7 JUMPI SWAP1 PUSH1 0x0 PUSH2 0x2548 PUSH1 0x0 PUSH2 0x91F JUMP JUMPDEST SWAP3 JUMPDEST PUSH1 0x2 SWAP1 PUSH2 0x255C PUSH1 0x4 PUSH2 0x1D27 DUP4 DUP6 PUSH2 0xB0F JUMP JUMPDEST PUSH2 0x256B PUSH2 0x15D4 PUSH2 0x1CB DUP7 PUSH2 0xBCE JUMP JUMPDEST EQ ISZERO DUP1 PUSH2 0x25C2 JUMPI JUMPDEST ISZERO PUSH2 0x25B8 JUMPI PUSH2 0x1D27 PUSH1 0x4 SWAP2 PUSH2 0x2587 SWAP4 PUSH2 0xB0F JUMP JUMPDEST SWAP3 DUP4 PUSH2 0x259B PUSH1 0x1 PUSH1 0x1 PUSH1 0xA0 SHL SUB DUP6 AND PUSH2 0x15D4 JUMP JUMPDEST EQ PUSH2 0x25AF JUMPI PUSH2 0x25A9 SWAP1 PUSH2 0x1E1F JUMP JUMPDEST SWAP3 PUSH2 0x254A JUMP JUMPDEST POP POP POP POP PUSH1 0x1 SWAP1 JUMP JUMPDEST POP POP POP POP POP PUSH1 0x0 SWAP1 JUMP JUMPDEST POP PUSH2 0x25D0 PUSH2 0x1C8 PUSH1 0xE PUSH2 0x94B JUMP JUMPDEST DUP6 LT PUSH2 0x2573 JUMP JUMPDEST POP POP PUSH1 0x1 SWAP1 JUMP INVALID LOG2 PUSH5 0x6970667358 0x22 SLT KECCAK256 0xE2 0x21 0xCA 0xEA DUP12 0x2D TSTORE DUP7 0xD6 PUSH28 0xD331FA077E08B9DD63055FB96B972FEDD8FDAFDA8B2564736F6C6343 STOP ADDMOD SHR STOP CALLER "},"methodIdentifiers":{"createDelegation(address,uint256)":"ce52c4ef","endVotingSession()":"a7bfab16","getActiveDelegations()":"65d082be","getCandidateTotalVotes(uint256)":"abdd80a3","getCandidateVotes(uint256)":"866163c0","getDelegation(uint256)":"0dd35701","getRegisteredVoters()":"2bc4a6e7","getTotalVotingPower()":"11acc1a7","getVoter(address)":"d4f50f98","getVoterDelegations(address)":"4f1b4972","hasVoterVoted(address,uint256)":"9b541f76","maxDelegationDepth()":"cd8e0903","minDelegationPower()":"36dab678","owner()":"8da5cb5b","registerVoter(address,uint256)":"cbea81ef","renounceOwnership()":"715018a6","revokeDelegation(uint256)":"bd3d425d","startVotingSession(uint256)":"9980a55a","transferOwnership(address)":"f2fde38b","updateDelegationParameters(uint256,uint256)":"a288210c","vote(uint256,uint256)":"b384abef","votingActive()":"408e2727","votingEndTime()":"1ea736e0","votingStartTime()":"2019a608"}}}}}