{
  "_format": "hh-sol-artifact-1",
  "contractName": "VoteMixing",
  "sourceName": "contracts/VoteMixing.sol",
  "abi": [
    {
      "inputs": [
        {
          "internalType": "uint256",
          "name": "_minParticipants",
          "type": "uint256"
        },
        {
          "internalType": "uint256",
          "name": "_maxParticipants",
          "type": "uint256"
        },
        {
          "internalType": "uint256",
          "name": "_mixingDuration",
          "type": "uint256"
        },
        {
          "internalType": "uint256",
          "name": "_revealDelay",
          "type": "uint256"
        }
      ],
      "stateMutability": "nonpayable",
      "type": "constructor"
    },
    {
      "inputs": [
        {
          "internalType": "address",
          "name": "owner",
          "type": "address"
        }
      ],
      "name": "OwnableInvalidOwner",
      "type": "error"
    },
    {
      "inputs": [
        {
          "internalType": "address",
          "name": "account",
          "type": "address"
        }
      ],
      "name": "OwnableUnauthorizedAccount",
      "type": "error"
    },
    {
      "inputs": [],
      "name": "ReentrancyGuardReentrantCall",
      "type": "error"
    },
    {
      "anonymous": false,
      "inputs": [
        {
          "indexed": true,
          "internalType": "uint256",
          "name": "roundId",
          "type": "uint256"
        },
        {
          "indexed": false,
          "internalType": "uint256",
          "name": "participantCount",
          "type": "uint256"
        },
        {
          "indexed": false,
          "internalType": "bytes32",
          "name": "merkleRoot",
          "type": "bytes32"
        },
        {
          "indexed": false,
          "internalType": "uint256",
          "name": "timestamp",
          "type": "uint256"
        }
      ],
      "name": "MixingRoundCompleted",
      "type": "event"
    },
    {
      "anonymous": false,
      "inputs": [
        {
          "indexed": true,
          "internalType": "uint256",
          "name": "roundId",
          "type": "uint256"
        },
        {
          "indexed": false,
          "internalType": "uint256",
          "name": "startTime",
          "type": "uint256"
        },
        {
          "indexed": false,
          "internalType": "uint256",
          "name": "endTime",
          "type": "uint256"
        },
        {
          "indexed": false,
          "internalType": "uint256",
          "name": "minParticipants",
          "type": "uint256"
        }
      ],
      "name": "MixingRoundCreated",
      "type": "event"
    },
    {
      "anonymous": false,
      "inputs": [
        {
          "indexed": true,
          "internalType": "uint256",
          "name": "roundId",
          "type": "uint256"
        },
        {
          "indexed": false,
          "internalType": "uint256",
          "name": "totalVotes",
          "type": "uint256"
        },
        {
          "indexed": false,
          "internalType": "uint256",
          "name": "timestamp",
          "type": "uint256"
        }
      ],
      "name": "MixingRoundRevealed",
      "type": "event"
    },
    {
      "anonymous": false,
      "inputs": [
        {
          "indexed": true,
          "internalType": "address",
          "name": "previousOwner",
          "type": "address"
        },
        {
          "indexed": true,
          "internalType": "address",
          "name": "newOwner",
          "type": "address"
        }
      ],
      "name": "OwnershipTransferred",
      "type": "event"
    },
    {
      "anonymous": false,
      "inputs": [
        {
          "indexed": true,
          "internalType": "uint256",
          "name": "roundId",
          "type": "uint256"
        },
        {
          "indexed": true,
          "internalType": "address",
          "name": "voter",
          "type": "address"
        },
        {
          "indexed": false,
          "internalType": "bytes32",
          "name": "originalVote",
          "type": "bytes32"
        },
        {
          "indexed": false,
          "internalType": "bytes32",
          "name": "mixedVote",
          "type": "bytes32"
        },
        {
          "indexed": false,
          "internalType": "uint256",
          "name": "timestamp",
          "type": "uint256"
        }
      ],
      "name": "VoteRevealed",
      "type": "event"
    },
    {
      "anonymous": false,
      "inputs": [
        {
          "indexed": true,
          "internalType": "uint256",
          "name": "roundId",
          "type": "uint256"
        },
        {
          "indexed": true,
          "internalType": "address",
          "name": "voter",
          "type": "address"
        },
        {
          "indexed": false,
          "internalType": "bytes32",
          "name": "mixedVote",
          "type": "bytes32"
        },
        {
          "indexed": false,
          "internalType": "uint256",
          "name": "mixIndex",
          "type": "uint256"
        },
        {
          "indexed": false,
          "internalType": "uint256",
          "name": "timestamp",
          "type": "uint256"
        }
      ],
      "name": "VoteSubmitted",
      "type": "event"
    },
    {
      "inputs": [
        {
          "internalType": "uint256",
          "name": "roundId",
          "type": "uint256"
        }
      ],
      "name": "completeMixingRound",
      "outputs": [],
      "stateMutability": "nonpayable",
      "type": "function"
    },
    {
      "inputs": [
        {
          "internalType": "bytes32",
          "name": "originalVote",
          "type": "bytes32"
        },
        {
          "internalType": "bytes32",
          "name": "mixedVote",
          "type": "bytes32"
        },
        {
          "internalType": "bytes32",
          "name": "randomness",
          "type": "bytes32"
        },
        {
          "internalType": "uint256",
          "name": "mixIndex",
          "type": "uint256"
        }
      ],
      "name": "createMixingProof",
      "outputs": [
        {
          "components": [
            {
              "internalType": "bytes32",
              "name": "originalVote",
              "type": "bytes32"
            },
            {
              "internalType": "bytes32",
              "name": "mixedVote",
              "type": "bytes32"
            },
            {
              "internalType": "bytes32",
              "name": "randomness",
              "type": "bytes32"
            },
            {
              "internalType": "uint256",
              "name": "mixIndex",
              "type": "uint256"
            },
            {
              "internalType": "bytes32[]",
              "name": "merkleProof",
              "type": "bytes32[]"
            }
          ],
          "internalType": "struct VoteMixing.MixingProof",
          "name": "proof",
          "type": "tuple"
        }
      ],
      "stateMutability": "pure",
      "type": "function"
    },
    {
      "inputs": [],
      "name": "createMixingRound",
      "outputs": [
        {
          "internalType": "uint256",
          "name": "roundId",
          "type": "uint256"
        }
      ],
      "stateMutability": "nonpayable",
      "type": "function"
    },
    {
      "inputs": [
        {
          "internalType": "uint256",
          "name": "roundId",
          "type": "uint256"
        }
      ],
      "name": "emergencyInvalidateRound",
      "outputs": [],
      "stateMutability": "nonpayable",
      "type": "function"
    },
    {
      "inputs": [
        {
          "internalType": "bytes32",
          "name": "seed",
          "type": "bytes32"
        }
      ],
      "name": "generateMixIndex",
      "outputs": [
        {
          "internalType": "uint256",
          "name": "mixIndex",
          "type": "uint256"
        }
      ],
      "stateMutability": "view",
      "type": "function"
    },
    {
      "inputs": [
        {
          "internalType": "bytes32",
          "name": "mixedVote",
          "type": "bytes32"
        }
      ],
      "name": "getMixedVote",
      "outputs": [
        {
          "components": [
            {
              "internalType": "bytes32",
              "name": "originalVote",
              "type": "bytes32"
            },
            {
              "internalType": "bytes32",
              "name": "mixedVote",
              "type": "bytes32"
            },
            {
              "internalType": "bytes32",
              "name": "randomness",
              "type": "bytes32"
            },
            {
              "internalType": "uint256",
              "name": "mixIndex",
              "type": "uint256"
            },
            {
              "internalType": "uint256",
              "name": "timestamp",
              "type": "uint256"
            },
            {
              "internalType": "bool",
              "name": "isRevealed",
              "type": "bool"
            },
            {
              "internalType": "address",
              "name": "voter",
              "type": "address"
            }
          ],
          "internalType": "struct VoteMixing.MixedVote",
          "name": "",
          "type": "tuple"
        }
      ],
      "stateMutability": "view",
      "type": "function"
    },
    {
      "inputs": [],
      "name": "getMixingParameters",
      "outputs": [
        {
          "internalType": "uint256",
          "name": "minParticipants",
          "type": "uint256"
        },
        {
          "internalType": "uint256",
          "name": "maxParticipants",
          "type": "uint256"
        },
        {
          "internalType": "uint256",
          "name": "mixingDuration",
          "type": "uint256"
        },
        {
          "internalType": "uint256",
          "name": "revealDelay",
          "type": "uint256"
        }
      ],
      "stateMutability": "view",
      "type": "function"
    },
    {
      "inputs": [
        {
          "internalType": "uint256",
          "name": "roundId",
          "type": "uint256"
        }
      ],
      "name": "getMixingRound",
      "outputs": [
        {
          "components": [
            {
              "internalType": "uint256",
              "name": "roundId",
              "type": "uint256"
            },
            {
              "internalType": "bytes32[]",
              "name": "mixedVotes",
              "type": "bytes32[]"
            },
            {
              "internalType": "bytes32[]",
              "name": "randomness",
              "type": "bytes32[]"
            },
            {
              "internalType": "uint256[]",
              "name": "mixIndices",
              "type": "uint256[]"
            },
            {
              "internalType": "uint256",
              "name": "startTime",
              "type": "uint256"
            },
            {
              "internalType": "uint256",
              "name": "endTime",
              "type": "uint256"
            },
            {
              "internalType": "uint256",
              "name": "revealTime",
              "type": "uint256"
            },
            {
              "internalType": "bool",
              "name": "isActive",
              "type": "bool"
            },
            {
              "internalType": "bool",
              "name": "isRevealed",
              "type": "bool"
            },
            {
              "internalType": "uint256",
              "name": "participantCount",
              "type": "uint256"
            },
            {
              "internalType": "bytes32",
              "name": "merkleRoot",
              "type": "bytes32"
            }
          ],
          "internalType": "struct VoteMixing.MixingRound",
          "name": "",
          "type": "tuple"
        }
      ],
      "stateMutability": "view",
      "type": "function"
    },
    {
      "inputs": [
        {
          "internalType": "uint256",
          "name": "roundId",
          "type": "uint256"
        }
      ],
      "name": "getRoundMixedVotes",
      "outputs": [
        {
          "internalType": "bytes32[]",
          "name": "",
          "type": "bytes32[]"
        }
      ],
      "stateMutability": "view",
      "type": "function"
    },
    {
      "inputs": [
        {
          "internalType": "uint256",
          "name": "roundId",
          "type": "uint256"
        }
      ],
      "name": "getRoundParticipants",
      "outputs": [
        {
          "internalType": "address[]",
          "name": "",
          "type": "address[]"
        }
      ],
      "stateMutability": "view",
      "type": "function"
    },
    {
      "inputs": [],
      "name": "getTotalRounds",
      "outputs": [
        {
          "internalType": "uint256",
          "name": "",
          "type": "uint256"
        }
      ],
      "stateMutability": "view",
      "type": "function"
    },
    {
      "inputs": [
        {
          "internalType": "address",
          "name": "voter",
          "type": "address"
        }
      ],
      "name": "getVoterRounds",
      "outputs": [
        {
          "internalType": "uint256[]",
          "name": "",
          "type": "uint256[]"
        }
      ],
      "stateMutability": "view",
      "type": "function"
    },
    {
      "inputs": [
        {
          "internalType": "uint256",
          "name": "roundId",
          "type": "uint256"
        },
        {
          "internalType": "address",
          "name": "voter",
          "type": "address"
        }
      ],
      "name": "hasVoterParticipated",
      "outputs": [
        {
          "internalType": "bool",
          "name": "",
          "type": "bool"
        }
      ],
      "stateMutability": "view",
      "type": "function"
    },
    {
      "inputs": [],
      "name": "mixingEnabled",
      "outputs": [
        {
          "internalType": "bool",
          "name": "",
          "type": "bool"
        }
      ],
      "stateMutability": "view",
      "type": "function"
    },
    {
      "inputs": [],
      "name": "owner",
      "outputs": [
        {
          "internalType": "address",
          "name": "",
          "type": "address"
        }
      ],
      "stateMutability": "view",
      "type": "function"
    },
    {
      "inputs": [],
      "name": "renounceOwnership",
      "outputs": [],
      "stateMutability": "nonpayable",
      "type": "function"
    },
    {
      "inputs": [
        {
          "internalType": "uint256",
          "name": "roundId",
          "type": "uint256"
        }
      ],
      "name": "revealMixingRound",
      "outputs": [
        {
          "internalType": "uint256",
          "name": "revealedCount",
          "type": "uint256"
        }
      ],
      "stateMutability": "nonpayable",
      "type": "function"
    },
    {
      "inputs": [
        {
          "internalType": "uint256",
          "name": "roundId",
          "type": "uint256"
        },
        {
          "internalType": "bytes32",
          "name": "mixedVote",
          "type": "bytes32"
        },
        {
          "internalType": "bytes32",
          "name": "originalVote",
          "type": "bytes32"
        },
        {
          "internalType": "bytes32",
          "name": "randomness",
          "type": "bytes32"
        },
        {
          "internalType": "uint256",
          "name": "mixIndex",
          "type": "uint256"
        }
      ],
      "name": "revealVote",
      "outputs": [],
      "stateMutability": "nonpayable",
      "type": "function"
    },
    {
      "inputs": [
        {
          "internalType": "bool",
          "name": "enabled",
          "type": "bool"
        }
      ],
      "name": "setMixingEnabled",
      "outputs": [],
      "stateMutability": "nonpayable",
      "type": "function"
    },
    {
      "inputs": [
        {
          "internalType": "uint256",
          "name": "roundId",
          "type": "uint256"
        },
        {
          "internalType": "bytes32",
          "name": "originalVote",
          "type": "bytes32"
        },
        {
          "internalType": "bytes32",
          "name": "randomness",
          "type": "bytes32"
        },
        {
          "internalType": "uint256",
          "name": "mixIndex",
          "type": "uint256"
        }
      ],
      "name": "submitVote",
      "outputs": [
        {
          "internalType": "bytes32",
          "name": "mixedVote",
          "type": "bytes32"
        }
      ],
      "stateMutability": "nonpayable",
      "type": "function"
    },
    {
      "inputs": [
        {
          "internalType": "address",
          "name": "newOwner",
          "type": "address"
        }
      ],
      "name": "transferOwnership",
      "outputs": [],
      "stateMutability": "nonpayable",
      "type": "function"
    },
    {
      "inputs": [
        {
          "internalType": "uint256",
          "name": "_minParticipants",
          "type": "uint256"
        },
        {
          "internalType": "uint256",
          "name": "_maxParticipants",
          "type": "uint256"
        },
        {
          "internalType": "uint256",
          "name": "_mixingDuration",
          "type": "uint256"
        },
        {
          "internalType": "uint256",
          "name": "_revealDelay",
          "type": "uint256"
        }
      ],
      "name": "updateMixingParameters",
      "outputs": [],
      "stateMutability": "nonpayable",
      "type": "function"
    },
    {
      "inputs": [
        {
          "internalType": "uint256",
          "name": "roundId",
          "type": "uint256"
        },
        {
          "internalType": "bytes32",
          "name": "mixedVote",
          "type": "bytes32"
        },
        {
          "internalType": "bytes32[]",
          "name": "proof",
          "type": "bytes32[]"
        }
      ],
      "name": "verifyVoteInclusion",
      "outputs": [
        {
          "internalType": "bool",
          "name": "",
          "type": "bool"
        }
      ],
      "stateMutability": "view",
      "type": "function"
    }
  ],
  "bytecode": "0x60806040523461002e5761001d6100146100ca565b92919091610146565b6040516126da61030082396126da90f35b600080fd5b634e487b7160e01b600052604160045260246000fd5b90601f01601f191681019081106001600160401b0382111761006a57604052565b610033565b9061008361007c60405190565b9283610049565b565b90505190565b60808183031261002e5761009f8282610085565b926100c76100b08460208501610085565b9360606100c08260408701610085565b9401610085565b90565b6100e86129da803803806100dd8161006f565b92833981019061008b565b90919293565b90600019905b9181191691161790565b6100c76100c76100c79290565b9061011b6100c7610122926100fe565b82546100ee565b9055565b9060ff906100f4565b9061013f6100c761012292151590565b8254610126565b9161016d6101749261016661017b969561015f336101a5565b600861010b565b600961010b565b600a61010b565b600b61010b565b61018f61018860006100fe565b600761010b565b6100836001600c61012f565b6100c760016100fe565b6101ae906101ff565b6100836101b961019b565b600161010b565b6101cd6100c76100c79290565b6001600160a01b031690565b6100c7906101c0565b6101eb906101cd565b9052565b60208101929161008391906101e2565b600061020a816101d9565b610213816101cd565b61021c846101cd565b1461022c575050610083906102a8565b631e4fbdf760e01b8252819061024590600483016101ef565b0390fd5b6100c7906101cd565b6100c79054610249565b906001600160a01b03906100f4565b6100c7906101cd906001600160a01b031682565b6100c79061026b565b6100c79061027f565b906102a16100c761012292610288565b825461025c565b6102ce6102c86102b86000610252565b6102c3846000610291565b610288565b91610288565b907f8be0079c531659141344cd1fd0a4f28419497f9722a3daafe3b4186f6b6457e06102f960405190565b600090a356fe6080604052600436101561001257600080fd5b60003560e01c806304dca6fa146101825780630a232e671461017d57806310956f271461017857806316a7b4fa1461017357806318ce408f1461016e5780631ad1ec22146101695780632e1ddd081461016457806337305df51461015f57806345cba1141461015a57806347ebc739146101555780635b7f1e5d14610150578063715018a61461014b57806384b3f4cc146101465780638cf723b8146101415780638da5cb5b1461013c57806393bfe13e14610137578063b120a58a14610132578063cb5a974a1461012d578063cc5dd32614610128578063cfe1622314610123578063d73705e51461011e578063e514ef2e146101195763f2fde38b03610187576109b4565b610989565b6108fe565b6108ae565b61081c565b6107dd565b610779565b610752565b6106a7565b61068b565b610622565b6105e4565b6105cc565b61057c565b610515565b6104ee565b61047b565b610460565b610439565b610393565b61035d565b610336565b6101bb565b600080fd5b805b0361018757565b905035906101a28261018c565b565b90602082820312610187576101b891610195565b90565b34610187576101d36101ce3660046101a4565b610db9565b60405180805b0390f35b0190565b906102016101fa6101f0845190565b8084529260200190565b9260200190565b9060005b8181106102125750505090565b90919261022f6102286001928651815260200190565b9460200190565b929101610205565b906102466101fa6101f0845190565b9060005b8181106102575750505090565b90919261026d6102286001928651815260200190565b92910161024a565b80518252906101b890610140806102c66102b46102a26101608601602089015187820360208901526101e1565b604088015186820360408801526101e1565b60608701518582036060870152610237565b946102d660808201516080860152565b6102e560a082015160a0860152565b6102f460c082015160c0860152565b60e0818101511515908501526101008181015115159085015261031e610120820151610120860152565b0151910152565b60208082526101b892910190610275565b34610187576101d961035161034c3660046101a4565b611024565b60405191829182610325565b34610187576101d96103786103733660046101a4565b611073565b6040519182918290815260200190565b600091031261018757565b34610187576103a3366004610388565b6101d96103786115ba565b6001600160a01b031690565b6001600160a01b03811661018e565b905035906101a2826103ba565b90602082820312610187576101b8916103c9565b906103f96101fa6101f0845190565b9060005b81811061040a5750505090565b9091926104206102286001928651815260200190565b9291016103fd565b60208082526101b8929101906103ea565b34610187576101d961045461044f3660046103d6565b6115fd565b60405191829182610428565b3461018757610470366004610388565b6101d9610378611619565b34610187576101d96103786104913660046101a4565b611780565b906104a56101fa6101f0845190565b9060005b8181106104b65750505090565b9091926104d561022860019286516001600160a01b0316815260200190565b9291016104a9565b60208082526101b892910190610496565b34610187576101d96105096105043660046101a4565b611819565b604051918291826104dd565b34610187576101d36105283660046101a4565b611871565b9061053c6101fa6101f0845190565b9060005b81811061054d5750505090565b9091926105636102286001928651815260200190565b929101610540565b60208082526101b89291019061052d565b34610187576101d96105976105923660046101a4565b611883565b6040519182918261056b565b80151561018e565b905035906101a2826105a3565b90602082820312610187576101b8916105ab565b34610187576101d36105df3660046105b8565b6118b1565b34610187576105f4366004610388565b6101d36118f2565b6101b8916008021c5b60ff1690565b906101b891546105fc565b6101b86000600c61060b565b3461018757610632366004610388565b6101d961063d610616565b60405191829182901515815260200190565b608081830312610187576106638282610195565b926101b86106748460208501610195565b9360606106848260408701610195565b9401610195565b34610187576101d361069e36600461064f565b92919091611935565b34610187576106b7366004610388565b6101d96106c2611941565b604051918291826001600160a01b03909116815260200190565b805182526101a2919060c09081906106f960208201516020860152565b61070860408201516040860152565b61071760608201516060860152565b61072660808201516080860152565b60a08181015115159085015201516001600160a01b0316910152565b60e0810192916101a291906106dc565b34610187576101d961076d6107683660046101a4565b611a27565b60405191829182610742565b34610187576101d961037861078f36600461064f565b92919091611eb0565b919060a083820312610187576107ae8184610195565b926107bc8260208301610195565b926101b86107cd8460408501610195565b9360806106848260608701610195565b34610187576101d36107f0366004610798565b93929092612044565b9190604083820312610187576101b89060206108158286610195565b94016103c9565b34610187576101d961063d6108323660046107f9565b90612051565b909182601f830112156101875781359167ffffffffffffffff831161018757602001926020830284011161018757565b916060838303126101875761087d8284610195565b9261088b8360208301610195565b92604082013567ffffffffffffffff8111610187576108aa9201610838565b9091565b34610187576101d961063d6108c4366004610868565b929190916120c6565b6108fa6101a2946108f36060949897956108ec608086019a6000870152565b6020850152565b6040830152565b0152565b346101875761090e366004610388565b6101d9600080808061092294929460405190565b948594856108cd565b805182526101b89160a081019160809061094a60208201516020850152565b61095960408201516040850152565b61096860608201516060850152565b01519060808184039101526101e1565b60208082526101b89291019061092b565b34610187576101d96109a861099f36600461064f565b92919091612120565b60405191829182610978565b34610187576101d36109c73660046103d6565b6121ca565b6101a2906109d86121d3565b610c6b565b6101b86101b86101b89290565b906109f4906109dd565b600052602052604060002090565b6101b890610605565b6101b89054610a02565b15610a1c57565b60405162461bcd60e51b815260206004820152601060248201526f526f756e64206e6f742061637469766560801b6044820152606490fd5b6101b89081565b6101b89054610a54565b15610a6c57565b60405162461bcd60e51b815260206004820152600f60248201526e149bdd5b99081b9bdd08195b991959608a1b6044820152606490fd5b15610aaa57565b60405162461bcd60e51b815260206004820152601960248201527f496e73756666696369656e74207061727469636970616e7473000000000000006044820152606490fd5b9060ff905b9181191691161790565b90610b0e6101b8610b1592151590565b8254610aef565b9055565b634e487b7160e01b600052604160045260246000fd5b90601f01601f1916810190811067ffffffffffffffff821117610b5157604052565b610b19565b906101a2610b6360405190565b9283610b2f565b67ffffffffffffffff8111610b515760208091020190565b90610b94610b8f83610b6a565b610b56565b918252565b369037565b906101a2610bb4610bae84610b82565b93610b6a565b601f190160208401610b99565b634e487b7160e01b600052603260045260246000fd5b8054821015610bfa57610bf1600191600052602060002090565b91020190600090565b610bc1565b6101b8916008021c81565b906101b89154610bff565b90610c1e825190565b811015610bfa576020809102010190565b9060001990610af4565b90610c476101b8610b159290565b8254610c2f565b9081526060810193926101a29290916040916108fa906020830152565b610c796101b88260026109ea565b906007820192610c90610c8b85610a0b565b610a15565b610caa610ca26101b860058601610a5b565b421015610a65565b610ce060006008850195610cdb610cc088610a5b565b610cd4610cd06101b86008610a5b565b9190565b1015610aa3565b610afe565b6001830190610cf5610cf0835490565b610b9e565b92610d0060006109dd565b610d0b6101b8855490565b811015610d445780610d39610d2c610d26610d3f9488610bd7565b90610c0a565b610d368389610c15565b52565b60010190565b610d00565b5093915093610d96610d90610d9c92610d8b6009610d827f702ca2b43eb700bf6c35cd0fd463096f3f976f36abf9a0640b9111d2774e909598612261565b96019586610c39565b610a5b565b92610a5b565b936109dd565b92610db4610da960405190565b928392429184610c4e565b0390a2565b6101a2906109cc565b6101b8610160610b56565b610dd5610dc2565b90600082526020808080808080808080808c01606081520160608152016060815201600081520160005b81520160008152016000815201600081520160008152016000905250565b6101b8610dcd565b90610e40610e346101f0845490565b92600052602060002090565b9060005b818110610e515750505090565b909192610e75610e6e600192610e6687610a5b565b815260200190565b9460010190565b929101610e44565b906101b891610e25565b906101a2610ea192610e9860405190565b93848092610e7d565b0383610b2f565b90610eb7610e346101f0845490565b9060005b818110610ec85750505090565b909192610edd610e6e600192610e6687610a5b565b929101610ebb565b906101b891610ea8565b906101a2610ea192610f0060405190565b93848092610ee5565b6101b89060081c610605565b6101b89054610f09565b906101a26110136009610f30610dc2565b94610f41610f3d82610a5b565b8752565b610f57610f5060018301610e87565b6020880152565b610f6d610f6660028301610e87565b6040880152565b610f83610f7c60038301610eef565b6060880152565b610f99610f9260048301610a5b565b6080880152565b610faf610fa860058301610a5b565b60a0880152565b610fc5610fbe60068301610a5b565b60c0880152565b610fdd610fd460078301610a0b565b151560e0880152565b610ff6610fec60078301610f15565b1515610100880152565b61100d61100560088301610a5b565b610120880152565b01610a5b565b610140840152565b6101b890610f1f565b61103b6101b891611033610e1d565b5060026109ea565b61101b565b6101b8906109dd565b6109dd565b634e487b7160e01b600052601260045260246000fd5b811561106e570690565b61104e565b61109061108b6101b892611085600090565b50612419565b611040565b61109a6009610a5b565b90611064565b6101b8906110ac6121d3565b611454565b156110b857565b60405162461bcd60e51b815260206004820152600f60248201526e135a5e1a5b99c8191a5cd8589b1959608a1b6044820152606490fd5b634e487b7160e01b600052601160045260246000fd5b60001981146111145760010190565b6110ef565b90610c476101b8610b15926109dd565b9190611134565b9290565b820180921161111457565b9160001960089290920291821b911b610af4565b91906111626101b8610b159390565b90835461113f565b6101a291600091611153565b818110611181575050565b8061118f600060019361116a565b01611176565b9190918282106111a457505050565b6101a292916111ba905b91600052602060002090565b9182019101611176565b90600160401b8111610b5157816111dc6101a2935490565b90828155611195565b81519167ffffffffffffffff8311610b5157611210610e3460019261120a86866111c4565b60200190565b92049160005b8381106112235750505050565b60019060206112336101b8865190565b9401938184015501611216565b906101a2916111e5565b91906111626101b8610b15936109dd565b6101a29160009161124a565b818110611272575050565b80611280600060019361125b565b01611267565b91909182821061129557505050565b6101a292916112a3906111ae565b9182019101611267565b90600160401b8111610b5157816112c56101a2935490565b90828155611286565b81519167ffffffffffffffff8311610b51576112f3610e3460019261120a86866112ad565b92049160005b8381106113065750505050565b60019060206113166101b8865190565b94019381840155016112f9565b906101a2916112ce565b9061ff009060081b610af4565b9061134a6101b8610b1592151590565b825461132d565b60096114436101406101a29461137161136b600083015190565b86611119565b61138861137f602083015190565b60018701611240565b61139f611396604083015190565b60028701611240565b6113b66113ad606083015190565b60038701611323565b6113cd6113c4608083015190565b60048701611119565b6113e46113db60a083015190565b60058701611119565b6113fb6113f260c083015190565b60068701611119565b6114266007860161141861141260e0850151151590565b82610afe565b61010083015115159061133a565b61143e61143561012083015190565b60088701611119565b015190565b9101610c39565b906101a291611351565b5061145f600c610a0b565b611468906110b1565b6114726007610a5b565b61147b81611105565b611486906007611119565b6000611491816109dd565b9061149b82610b9e565b916114a581610b9e565b916114af82610b9e565b6114b9600a610a5b565b6114c39042611129565b6114cd600a610a5b565b6114d79042611129565b6114e1600b610a5b565b6114ea91611129565b916114f4846109dd565b956114fd610dc2565b976115088a878b0152565b602089015260408801526060870152611522426080880152565b60a086015260c0850152600160e08501521515610100840152610120830152610140820152806115538360026109ea565b9061155d9161144a565b608081015160a0909101516115726008610a5b565b9061157c846109dd565b9261158660405190565b9283926115939284610c4e565b037f87a3241a0380a7685f0cfd2544c5d771c51dc926dd74d20d81ee1aea62fbfb5591a290565b6101b860006110a0565b6101b8906103ae906001600160a01b031682565b6101b8906115c4565b6101b8906115d8565b906109f4906115e1565b6101b890610eef565b6116146101b89161160c606090565b5060046115ea565b6115f4565b6101b86007610a5b565b906101b8916116306121d3565b611681565b1561163c57565b60405162461bcd60e51b815260206004820152601760248201527f52657665616c2074696d65206e6f7420726561636865640000000000000000006044820152606490fd5b906101b8916116a461169c6101b8600661100d8660026109ea565b421015611635565b611701565b156116b057565b60405162461bcd60e51b8152602060048201526016602482015275149bdd5b9908185b1c9958591e481c995d99585b195960521b6044820152606490fd5b9081526040810192916101a29160200152565b5061174461173e60086117186101b88560026109ea565b61100d60016007830161173961173461173083610f15565b1590565b6116a9565b61133a565b916109dd565b7fd48fe253bdb396c73bc32f7b556a42456788b817d0254dd2469873141ca91c2461176e60405190565b8061177a4286836116ee565b0390a290565b6101b8906000611623565b6101b8906103ae565b6101b8905461178b565b906117ad610e346101f0845490565b9060005b8181106117be5750505090565b9091926117e4610e6e6001926117d387611794565b6001600160a01b0316815260200190565b9291016117b1565b906101b89161179e565b906101a2610ea19261180760405190565b938480926117ec565b6101b8906117f6565b6118306101b891611828606090565b5060056109ea565b611810565b6101a2906118416121d3565b6000600761186b6101a293611864610c8b8461185e8460026109ea565b01610a0b565b60026109ea565b01610afe565b6101a290611835565b6101b890610e87565b60016118946101b892611033606090565b0161187a565b6101a2906118a66121d3565b6101a290600c610afe565b6101a29061189a565b6118c26121d3565b6101a26118e0565b6103ae6101b86101b89290565b6101b8906118ca565b6101a26118ed60006118d7565b612496565b6101a26118ba565b906101a29392916119096121d3565b9161192761192e926119206101a296956008611119565b6009611119565b600a611119565b600b611119565b906101a29392916118fa565b6101b86000611794565b6101b860e0610b56565b61195d61194b565b9060008252602080808080808088016000610dff565b6101b8611955565b906109f4565b6101b89060081c6103ae565b6101b89054611981565b906101a2611a0e60056119a861194b565b946119b5610f3d82610a5b565b6119c4610f5060018301610a5b565b6119d3610f6660028301610a5b565b6119e2610f7c60038301610a5b565b6119f1610f9260048301610a5b565b611a086119ff838301610a0b565b151560a0880152565b0161198d565b6001600160a01b031660c0840152565b6101b890611997565b611a3e6101b891611a36611973565b50600361197b565b611a1e565b906101b894939291611a5e610c8b600761185e8560026109ea565b611aaf565b15611a6a57565b60405162461bcd60e51b815260206004820152601760248201527f52616e646f6d6e65737320616c726561647920757365640000000000000000006044820152606490fd5b906101b894939291611ad5611ad0611730611acb87600661197b565b610a0b565b611a63565b611d19565b15611ae157565b60405162461bcd60e51b815260206004820152600b60248201526a149bdd5b9908195b99195960aa1b6044820152606490fd5b15611b1b57565b60405162461bcd60e51b815260206004820152600a602482015269149bdd5b9908199d5b1b60b21b6044820152606490fd5b15611b5457565b60405162461bcd60e51b8152602060048201526014602482015273105b1c9958591e481c185c9d1a58da5c185d195960621b6044820152606490fd5b90610100600160a81b039060081b610af4565b90611bb36101b8610b15926115e1565b8254611b90565b90611c5c60c060056101a294611bda611bd4600087015190565b82610c39565b611bf1611be8602087015190565b60018301610c39565b611c08611bff604087015190565b60028301610c39565b611c1f611c16606087015190565b60038301611119565b611c36611c2d608087015190565b60048301611119565b0192611c4e611c4860a0830151151590565b85610afe565b01516001600160a01b031690565b90611ba3565b906101a291611bba565b90815491600160401b831015610b515782611c8f9160016101a295018155610bd7565b90611153565b90815491600160401b831015610b515782611cb89160016101a295018155610bd7565b9061124a565b916001600160a01b0360089290920291821b911b610af4565b9190611ce86101b8610b15936115e1565b908354611cbe565b90815491600160401b831015610b515782611d139160016101a295018155610bd7565b90611cd7565b50909291611d288260026109ea565b611d3460058201610a5b565b421115611d4090611ada565b836008820191611d4f83610a5b565b611d596009610a5b565b11611d6390611b14565b611d6d3386612051565b15611d7790611b4d565b611d828285896124ee565b96611d8b61194b565b908152611d99886020830152565b611da4856040830152565b611daf836060830152565b611dba426080830152565b600060a08201523360c0820152611dd288600361197b565b90611ddc91611c62565b611de98760018301611c6c565b611df68460028301611c6c565b60030190611e0391611c95565b611e0c81610a5b565b611e1590611105565b611e1e91611119565b611e298260056109ea565b33611e3391611cf0565b81611e3f3360046115ea565b90611e4991611c95565b611e5490600661197b565b6001611e5f91610afe565b611e68906109dd565b611e71336115e1565b91611e7b60405190565b809142611e89918784610c4e565b037f57ad1338c773df8ab4b3a0b286cae4e4f6d36473d7e7a1f0b3f1b4de474cd37b91a390565b6101b8939291906000611a43565b906101a294939291611edc61169c6101b8600661100d8560026109ea565b611f9e565b15611ee857565b60405162461bcd60e51b815260206004820152600d60248201526c4e6f7420796f757220766f746560981b6044820152606490fd5b15611f2457565b60405162461bcd60e51b8152602060048201526015602482015274159bdd1948185b1c9958591e481c995d99585b1959605a1b6044820152606490fd5b15611f6857565b60405162461bcd60e51b815260206004820152600e60248201526d125b9d985b1a59081c995d99585b60921b6044820152606490fd5b61104960017f517de2d19cd96b554768be894916ac969b1449096e6033efc0d82d10a2cec88c9495610cdb61202161202896996005611fe16101b88d600361197b565b0193612007611fef8661198d565b612001335b916001600160a01b031690565b14611ee1565b61201b61201661173087610a0b565b611f1d565b8a6124ee565b8914611f61565b91612032336115e1565b9361203f610da960405190565b0390a3565b906101a294939291611ebe565b61183061206091611828600090565b9061206b60006109dd565b6120766101b8845190565b8110156120be5761209761208a8285610c15565b516001600160a01b031690565b6120a96001600160a01b038416611ff4565b146120b65760010161206b565b505050600190565b505050600090565b916120dd600961100d6101b8969495611033600090565b92612570565b6101b860a0610b56565b6120f56120e3565b906000825260208080808086016000815201600081520160008152016060905250565b6101b86120ed565b9261216b906121646101b894612134612118565b5061215d612145610cf060006109dd565b956121566121516120e3565b998a52565b6020890152565b6040870152565b6060850152565b6080830152565b6101a29061217e6121d3565b6000612189816118d7565b6001600160a01b0381166001600160a01b038416146121ad5750506101a290612496565b631e4fbdf760e01b82526001600160a01b03166004820152602490fd5b6101a290612172565b6121db611941565b33906121e682611ff4565b036121ee5750565b63118cdaa760e01b60009081526001600160a01b039091166004526024036000fd5b1561221757565b60405162461bcd60e51b8152602060048201526012602482015271456d707479206c656176657320617272617960701b6044820152606490fd5b811561106e570490565b01918252565b9061228061226d835190565b61227a610cd060006109dd565b11612210565b815191600192612292610cd0856109dd565b146123f2576122b16122a2825190565b6122ab856109dd565b90611129565b926122ca610cf06002956122c4876109dd565b90612251565b91816122d660006109dd565b905b6122eb575b5050506101b891925061258d565b6122f66101b8835190565b8110156123ed57906123c2839261231561230f856109dd565b82611129565b612323610cd06101b8865190565b10156123c9576123b961238561239161234361233f8588610c15565b5190565b61236161233f61235b6123558b6109dd565b88611129565b89610c15565b9061236b60405190565b93849260208401928360208161225b6101dd938396959052565b90810382520382610b2f565b6123a361239c825190565b9160200190565b20610d3661235b6123b38c6109dd565b85612251565b6122ab886109dd565b90916122d8565b6123e86123d961233f8386610c15565b610d3661235b6123b38c6109dd565b6123b9565b6122dd565b6101b891925061233f9061240660006109dd565b90610c15565b9190820391821161111457565b61246161238591612428600090565b5061243c61243660016109dd565b4361240c565b6040519040602080830191825291948593919290916101dd824461225b824282828b82565b61246c61239c825190565b2090565b906001600160a01b0390610af4565b9061248f6101b8610b15926115e1565b8254612470565b6124bc6124b66124a66000611794565b6124b184600061247f565b6115e1565b916115e1565b907f8be0079c531659141344cd1fd0a4f28419497f9722a3daafe3b4186f6b6457e06124e760405190565b808061203f565b9161250890612385926124ff600090565b5060405161236b565b61251361239c825190565b201890565b90929192612528610b8f82610b6a565b938185526020808601920283019281841161018757915b83831061254c5750505050565b6020809161255a8486610195565b81520192019161253f565b6101b8913691612518565b91612588906101b89492612582600090565b50612565565b61260e565b908151916001926125a0610cd0856109dd565b146123f2576125b06122a2825190565b926125c3610cf06002956122c4876109dd565b91816125cf60006109dd565b905b6125e3575050506101b891925061258d565b6125ee6101b8835190565b8110156123ed5790612607839261231561230f856109dd565b90916125d1565b6111306126289293610cd092612622600090565b5061262c565b1490565b61263660006109dd565b915b6126436101b8835190565b8310156126715761266461266b9161265e61233f8686610c15565b90612677565b9260010190565b91612638565b91505090565b8181101561269257906101b891600052602052604060002090565b6101b89160005260205260406000209056fea264697066735822122010065fea38109b7bc05423a17dcf9b6cdf9202dd1bd4a57162b2160da40d401764736f6c634300081c0033",
  "linkReferences": {},
  "deployedLinkReferences": {}
}