{
  "_format": "hh-sol-artifact-1",
  "contractName": "BlocPol",
  "sourceName": "contracts/BlocPol.sol",
  "abi": [
    {
      "inputs": [],
      "stateMutability": "nonpayable",
      "type": "constructor"
    },
    {
      "anonymous": false,
      "inputs": [
        {
          "indexed": true,
          "internalType": "uint256",
          "name": "candidateId",
          "type": "uint256"
        },
        {
          "indexed": false,
          "internalType": "string",
          "name": "name",
          "type": "string"
        },
        {
          "indexed": false,
          "internalType": "string",
          "name": "ipfsHash",
          "type": "string"
        }
      ],
      "name": "CandidateRegistered",
      "type": "event"
    },
    {
      "anonymous": false,
      "inputs": [
        {
          "indexed": true,
          "internalType": "address",
          "name": "voter",
          "type": "address"
        },
        {
          "indexed": true,
          "internalType": "uint256",
          "name": "candidateId",
          "type": "uint256"
        },
        {
          "indexed": false,
          "internalType": "bytes32",
          "name": "voteHash",
          "type": "bytes32"
        },
        {
          "indexed": false,
          "internalType": "bytes32",
          "name": "txHash",
          "type": "bytes32"
        }
      ],
      "name": "VoteCast",
      "type": "event"
    },
    {
      "anonymous": false,
      "inputs": [
        {
          "indexed": false,
          "internalType": "uint256",
          "name": "startTime",
          "type": "uint256"
        },
        {
          "indexed": false,
          "internalType": "uint256",
          "name": "endTime",
          "type": "uint256"
        }
      ],
      "name": "VotingSessionStarted",
      "type": "event"
    },
    {
      "anonymous": false,
      "inputs": [
        {
          "indexed": false,
          "internalType": "uint256",
          "name": "stopTime",
          "type": "uint256"
        }
      ],
      "name": "VotingSessionStopped",
      "type": "event"
    },
    {
      "inputs": [],
      "name": "admin",
      "outputs": [
        {
          "internalType": "address",
          "name": "",
          "type": "address"
        }
      ],
      "stateMutability": "view",
      "type": "function"
    },
    {
      "inputs": [],
      "name": "deploymentTimestamp",
      "outputs": [
        {
          "internalType": "uint256",
          "name": "",
          "type": "uint256"
        }
      ],
      "stateMutability": "view",
      "type": "function"
    },
    {
      "inputs": [],
      "name": "getAllVotes",
      "outputs": [
        {
          "internalType": "uint256[]",
          "name": "",
          "type": "uint256[]"
        }
      ],
      "stateMutability": "view",
      "type": "function"
    },
    {
      "inputs": [
        {
          "internalType": "uint256",
          "name": "candidateId",
          "type": "uint256"
        }
      ],
      "name": "getCandidate",
      "outputs": [
        {
          "components": [
            {
              "internalType": "uint256",
              "name": "id",
              "type": "uint256"
            },
            {
              "internalType": "string",
              "name": "name",
              "type": "string"
            },
            {
              "internalType": "string",
              "name": "ipfsHash",
              "type": "string"
            },
            {
              "internalType": "uint256",
              "name": "voteCount",
              "type": "uint256"
            }
          ],
          "internalType": "struct BlocPol.Candidate",
          "name": "",
          "type": "tuple"
        }
      ],
      "stateMutability": "view",
      "type": "function"
    },
    {
      "inputs": [],
      "name": "getCandidates",
      "outputs": [
        {
          "components": [
            {
              "internalType": "uint256",
              "name": "id",
              "type": "uint256"
            },
            {
              "internalType": "string",
              "name": "name",
              "type": "string"
            },
            {
              "internalType": "string",
              "name": "ipfsHash",
              "type": "string"
            },
            {
              "internalType": "uint256",
              "name": "voteCount",
              "type": "uint256"
            }
          ],
          "internalType": "struct BlocPol.Candidate[]",
          "name": "",
          "type": "tuple[]"
        }
      ],
      "stateMutability": "view",
      "type": "function"
    },
    {
      "inputs": [],
      "name": "getDeploymentTimestamp",
      "outputs": [
        {
          "internalType": "uint256",
          "name": "",
          "type": "uint256"
        }
      ],
      "stateMutability": "view",
      "type": "function"
    },
    {
      "inputs": [
        {
          "internalType": "uint256",
          "name": "candidateId",
          "type": "uint256"
        }
      ],
      "name": "getTotalVotes",
      "outputs": [
        {
          "internalType": "uint256",
          "name": "",
          "type": "uint256"
        }
      ],
      "stateMutability": "view",
      "type": "function"
    },
    {
      "inputs": [
        {
          "internalType": "address",
          "name": "voter",
          "type": "address"
        }
      ],
      "name": "getVoteHash",
      "outputs": [
        {
          "internalType": "bytes32",
          "name": "",
          "type": "bytes32"
        }
      ],
      "stateMutability": "view",
      "type": "function"
    },
    {
      "inputs": [
        {
          "internalType": "address",
          "name": "voter",
          "type": "address"
        }
      ],
      "name": "getVoteTxHash",
      "outputs": [
        {
          "internalType": "bytes32",
          "name": "",
          "type": "bytes32"
        }
      ],
      "stateMutability": "view",
      "type": "function"
    },
    {
      "inputs": [
        {
          "internalType": "address",
          "name": "voter",
          "type": "address"
        }
      ],
      "name": "getVotedCandidate",
      "outputs": [
        {
          "internalType": "uint256",
          "name": "",
          "type": "uint256"
        }
      ],
      "stateMutability": "view",
      "type": "function"
    },
    {
      "inputs": [
        {
          "internalType": "address",
          "name": "addr",
          "type": "address"
        }
      ],
      "name": "hasAddressVoted",
      "outputs": [
        {
          "internalType": "bool",
          "name": "",
          "type": "bool"
        }
      ],
      "stateMutability": "view",
      "type": "function"
    },
    {
      "inputs": [],
      "name": "isVotingActive",
      "outputs": [
        {
          "internalType": "bool",
          "name": "",
          "type": "bool"
        }
      ],
      "stateMutability": "view",
      "type": "function"
    },
    {
      "inputs": [
        {
          "internalType": "string",
          "name": "name",
          "type": "string"
        },
        {
          "internalType": "string",
          "name": "ipfsHash",
          "type": "string"
        }
      ],
      "name": "registerCandidate",
      "outputs": [],
      "stateMutability": "nonpayable",
      "type": "function"
    },
    {
      "inputs": [
        {
          "internalType": "uint256",
          "name": "durationSeconds",
          "type": "uint256"
        }
      ],
      "name": "startVotingSession",
      "outputs": [],
      "stateMutability": "nonpayable",
      "type": "function"
    },
    {
      "inputs": [],
      "name": "stopVotingSession",
      "outputs": [],
      "stateMutability": "nonpayable",
      "type": "function"
    },
    {
      "inputs": [
        {
          "internalType": "uint256",
          "name": "candidateId",
          "type": "uint256"
        }
      ],
      "name": "vote",
      "outputs": [],
      "stateMutability": "nonpayable",
      "type": "function"
    },
    {
      "inputs": [],
      "name": "votingActive",
      "outputs": [
        {
          "internalType": "bool",
          "name": "",
          "type": "bool"
        }
      ],
      "stateMutability": "view",
      "type": "function"
    },
    {
      "inputs": [],
      "name": "votingEndTime",
      "outputs": [
        {
          "internalType": "uint256",
          "name": "",
          "type": "uint256"
        }
      ],
      "stateMutability": "view",
      "type": "function"
    },
    {
      "inputs": [],
      "name": "votingStartTime",
      "outputs": [
        {
          "internalType": "uint256",
          "name": "",
          "type": "uint256"
        }
      ],
      "stateMutability": "view",
      "type": "function"
    }
  ],
  "bytecode": "0x608060405234601f57600e60a3565b6040516116336100b8823961163390f35b600080fd5b906001600160a01b03905b9181191691161790565b604b90604e906001600160a01b031682565b90565b6001600160a01b031690565b604b906039565b604b90605a565b906074604b607a926061565b82546024565b9055565b9060001990602f565b604b604b604b9290565b90609d604b607a926087565b8254607e565b60ac3360006068565b60b54260016091565b56fe6080604052600436101561001257600080fd5b60003560e01c80630121b93f1461014257806306a49fce1461013d5780630dbce4dd1461013857806317a0ad8e146101335780631ea736e01461012e5780632019a608146101295780632ce35e111461012457806335b8e8201461011f578063408e27271461011a57806347cf6f7614610115578063851b6ef214610110578063959812f81461010b57806396a379d8146101065780639980a55a14610101578063bfc12c05146100fc578063e061a858146100f7578063e3e6ca7d146100f2578063edaa5dfc146100ed5763f851a4400361014757610698565b610653565b610638565b61061d565b610602565b6105de565b6105c3565b6105a8565b610545565b6104c3565b610496565b610449565b61041d565b610402565b6103cb565b610391565b610375565b6102d0565b61017b565b600080fd5b805b0361014757565b905035906101628261014c565b565b906020828203126101475761017891610155565b90565b346101475761019361018e366004610164565b610b60565b60405180805b0390f35b600091031261014757565b9052565b60005b8381106101bf5750506000910152565b81810151838201526020016101af565b6101f06101f9602093610203936101e4815190565b80835293849260200190565b958691016101ac565b601f01601f191690565b0190565b80518252906101789060608061024161022f60808501602088015186820360208801526101cf565b604087015185820360408701526101cf565b940151910152565b9061017891610207565b9061026961025f835190565b8083529160200190565b908161027b6020830284019460200190565b926000915b83831061028f57505050505090565b909192939460206102b26102ab83856001950387528951610249565b9760200190565b9301930191939290610280565b602080825261017892910190610253565b34610147576102e036600461019d565b6101996102eb610dcd565b604051918291826102bf565b909182601f830112156101475781359167ffffffffffffffff831161014757602001926001830284011161014757565b909160408284031261014757813567ffffffffffffffff811161014757836103509184016102f7565b929093602082013567ffffffffffffffff81116101475761037192016102f7565b9091565b3461014757610193610388366004610327565b92919091611260565b34610147576103a136600461019d565b610193611320565b610178916008021c81565b9061017891546103a9565b610178600060046103b4565b34610147576103db36600461019d565b6101996103e66103bf565b6040519182918290815260200190565b610178600060036103b4565b346101475761041236600461019d565b6101996103e66103f6565b34610147576101996103e6610433366004610164565b611328565b602080825261017892910190610207565b346101475761019961046461045f366004610164565b611341565b60405191829182610438565b610178916008021c5b60ff1690565b906101789154610470565b6101786000600261047f565b34610147576104a636600461019d565b6101996104b161048a565b60405191829182901515815260200190565b34610147576104d336600461019d565b6101996104b1611350565b906104fe6104f76104ed845190565b8084529260200190565b9260200190565b9060005b81811061050f5750505090565b90919261052c6105256001928651815260200190565b9460200190565b929101610502565b6020808252610178929101906104de565b346101475761055536600461019d565b6101996105606113b4565b60405191829182610534565b6001600160a01b031690565b6001600160a01b03811661014e565b9050359061016282610578565b906020828203126101475761017891610587565b34610147576101996103e66105be366004610594565b611465565b34610147576105d336600461019d565b6101996103e6611497565b34610147576101936105f1366004610164565b61158d565b610178600060016103b4565b346101475761061236600461019d565b6101996103e66105f6565b34610147576101996103e6610633366004610594565b611596565b34610147576101996104b161064e366004610594565b6115be565b34610147576101996103e6610669366004610594565b6115d5565b610178916008021c6001600160a01b031690565b90610178915461066e565b610178600080610682565b34610147576106a836600461019d565b6101996106b361068d565b604051918291826001600160a01b03909116815260200190565b61017890610479565b61017890546106cd565b156106e757565b60405162461bcd60e51b8152602060048201526014602482015273566f74696e67206973206e6f742061637469766560601b6044820152606490fd5b6101789081565b6101789054610723565b1561073b57565b60405162461bcd60e51b815260206004820152601c60248201527f566f74696e67206e6f7420696e20616c6c6f77656420706572696f64000000006044820152606490fd5b6101629061079661079160026106d6565b6106e0565b6107a3610178600361072a565b421015806107ba575b6107b590610734565b610858565b506107b56107cb610178600461072a565b42111590506107ac565b6101789061056c906001600160a01b031682565b610178906107d5565b610178906107e9565b90610805906107f2565b600052602052604060002090565b1561081a57565b60405162461bcd60e51b8152602060048201526016602482015275165bdd481a185d9948185b1c9958591e481d9bdd195960521b6044820152606490fd5b6101629061087e6108796108756108703360086107fb565b6106d6565b1590565b610813565b610a08565b6101786101786101789290565b9061080590610883565b156108a157565b60405162461bcd60e51b8152602060048201526011602482015270496e76616c69642063616e64696461746560781b6044820152606490fd5b634e487b7160e01b600052601160045260246000fd5b60001981146108ff5760010190565b6108da565b90600019905b9181191691161790565b9061092461017861092b92610883565b8254610904565b9055565b9060ff9061090a565b9061094861017861092b92151590565b825461092f565b6101a8906001600160a01b031660601b90565b6020939261097a60148361097a88956102039761094f565b01918252565b634e487b7160e01b600052604160045260246000fd5b90601f01601f1916810190811067ffffffffffffffff8211176109b857604052565b610980565b9061092461017861092b9290565b919082039182116108ff57565b9261097a60206102039461097a60148861097a859b9a869961094f565b9081526040810192916101629160200152565b610a28610a216000610a1b846006610890565b0161072a565b821461089a565b610a506003610a38836006610890565b01610a4a610a458261072a565b6108f0565b90610914565b610a656001610a603360086107fb565b610938565b610a7981610a743360096107fb565b610914565b604051610a9c8160208101610a9042863384610962565b90810382520382610996565b610aae610aa7825190565b9160200190565b2090610ac482610abf33600a6107fb565b6109bd565b7feffd419499491389e01fe2774ed0a6fddd60460399033fda8e42ce83081db172610af8610af26001610883565b436109cb565b610b18610b0460405190565b8092610a90602083019140438833856109d8565b610b23610aa7825190565b20610b3381610abf33600b6107fb565b610b45610b3f336107f2565b93610883565b93610b5b610b5260405190565b928392836109f5565b0390a3565b61016290610780565b90610162610b7660405190565b9283610996565b67ffffffffffffffff81116109b85760208091020190565b90610ba7610ba283610b7d565b610b69565b918252565b6101786080610b69565b610bbe610bac565b60008082526060602083018190526040830181905282015290565b610178610bb6565b60005b828110610bf057505050565b602090610bfb610bd9565b8184015201610be4565b90610162610c1b610c1584610b95565b93610b7d565b601f190160208401610be1565b634e487b7160e01b600052603260045260246000fd5b8054821015610c6157610c58600191600052602060002090565b91020190600090565b610c28565b90610c6f825190565b811015610c61576020809102010190565b634e487b7160e01b600052602260045260246000fd5b9060016002830492168015610cb6575b6020831014610cb157565b610c80565b91607f1691610ca6565b80546000939291610cdd610cd383610c96565b8085529360200190565b9160018116908115610d2f5750600114610cf657505050565b610d099192939450600052602060002090565b916000925b818410610d1b5750500190565b805484840152602090930192600101610d0e565b92949550505060ff1916825215156020020190565b9061017891610cc0565b90610162610d6892610d5f60405190565b93848092610d44565b0383610996565b90610162610dbd6003610d80610bac565b94610d91610d8d8261072a565b8752565b610da7610da060018301610d4e565b6020880152565b610a1b610db660028301610d4e565b6040880152565b6060840152565b61017890610d6f565b6007610ddf610dda825490565b610c05565b90610dea6000610883565b610df5610178835490565b811015610e4757610e4290610e26610e216006610e1b610e158588610c3e565b906103b4565b90610890565b610dc4565b610e308286610c66565b52610e3b8185610c66565b5060010190565b610dea565b505090565b6101789061056c565b6101789054610e4c565b15610e6657565b60405162461bcd60e51b815260206004820152602260248201527f4f6e6c792061646d696e2063616e20706572666f726d2074686973206163746960448201526137b760f11b6064820152608490fd5b90610162939291610ed4610ecd61056c6000610e55565b3314610e5f565b611193565b67ffffffffffffffff81116109b857602090601f01601f19160190565b90826000939282370152565b90929192610f12610ba282610ed9565b938185528183011161014757610162916020850190610ef6565b610178913691610f02565b9160001960089290920291821b911b61090a565b9190610f5c61017861092b93610883565b908354610f37565b61016291600091610f4b565b818110610f7b575050565b80610f896000600193610f64565b01610f70565b9190601f8111610f9e57505050565b610fb061016293600052602060002090565b906020601f840181900483019310610fd2575b6020601f909101040190610f70565b9091508190610fc3565b90610fe5815190565b9067ffffffffffffffff82116109b857611009826110038554610c96565b85610f8f565b602090601f83116001146110445761092b929160009183611039575b5050600019600883021c1916906002021790565b015190503880611025565b601f1983169161105985600052602060002090565b9260005b8181106110975750916002939185600196941061107e575b50505002019055565b01516000196008601f8516021c19169055388080611075565b9193602060018192878701518155019501920161105d565b9061016291610fdc565b600361110b6060610162946110d86110d2600083015190565b86610914565b6110ef6110e6602083015190565b600187016110af565b6111066110fd604083015190565b600287016110af565b015190565b9101610914565b90610162916110b9565b90815491680100000000000000008310156109b8578261114491600161016295018155610c3e565b90610f4b565b91906101f981611161816102039560209181520190565b8095610ef6565b92906111859061017895936040860191868303600088015261114a565b92602081850391015261114a565b61125b7f0ec1a365aeeec255796bf50d7a2a8f24d0d5f5c6ada0167b6c647428d916458293946112486111c6600561072a565b6111d96111d2826108f0565b6005610914565b6112386111e4610bac565b6111ec838252565b6112006111f98989610f2c565b6020830152565b61121461120d868c610f2c565b6040830152565b6112286112216000610883565b6060830152565b611233836006610890565b611112565b61124381600761111c565b610883565b9561125260405190565b94859485611168565b0390a2565b90610162939291610eb6565b61127c610ecd61056c6000610e55565b6101626112c4565b1561128b57565b60405162461bcd60e51b8152602060048201526011602482015270566f74696e67206e6f742061637469766560781b6044820152606490fd5b6112d66112d160026106d6565b611284565b6112e260006002610938565b6112ed426004610914565b7f74fd836262d1ad6bbd13b40f5a80a5415f4d2db6ee1d7d8f9c9bb515d9f04e0161131b6103e6600461072a565b0390a1565b61016261126c565b6003610a1b61017892611339600090565b506006610890565b610e2161017891611339610bd9565b61135a60026106d6565b8061137c575b806113685790565b50611376610178600461072a565b42111590565b5061138a610178600361072a565b421015611360565b369037565b906101626113a7610c1584610b95565b601f190160208401611392565b60076113c66113c1825490565b611397565b906113d16000610883565b6113dc610178835490565b811015610e47576114149061140e6114016003610a1b6006610e1b610e15878a610c3e565b61140b8387610c66565b52565b60010190565b6113d1565b1561142057565b60405162461bcd60e51b815260206004820152601e60248201527f4e6f20766f746520666f756e6420666f722074686973206164647265737300006044820152606490fd5b61149261017891611474600090565b5061148b6114866108708360086107fb565b611419565b600a6107fb565b61072a565b610178600161072a565b610162906114b5610ecd61056c6000610e55565b61150b565b156114c157565b60405162461bcd60e51b8152602060048201526015602482015274566f74696e6720616c72656164792061637469766560581b6044820152606490fd5b919082018092116108ff57565b61154461154b9161152761152261087560026106d6565b6114ba565b61153360016002610938565b61153e426003610914565b426114fe565b6004610914565b7fe280a408633821740a429fb671e01cacf8d1d70d5c2735f4f94ec0edef4ea6de611576600361072a565b611580600461072a565b9061131b610b5260405190565b610162906114a1565b611492610178916115a5600090565b506115b76114866108708360086107fb565b600b6107fb565b610870610178916115cd600090565b5060086107fb565b611492610178916115e4600090565b506115f66114866108708360086107fb565b60096107fb56fea26469706673582212203ac7354326c6376c01f7d51946388e080a41417150ff6a7bf4094c5da4f5727064736f6c634300081c0033",
  "linkReferences": {},
  "deployedLinkReferences": {}
}