{
  "_format": "hh-sol-artifact-1",
  "contractName": "ZKProofVerifier",
  "sourceName": "contracts/ZKProofVerifier.sol",
  "abi": [
    {
      "inputs": [
        {
          "internalType": "uint256",
          "name": "_verificationThreshold",
          "type": "uint256"
        }
      ],
      "stateMutability": "nonpayable",
      "type": "constructor"
    },
    {
      "inputs": [
        {
          "internalType": "address",
          "name": "owner",
          "type": "address"
        }
      ],
      "name": "OwnableInvalidOwner",
      "type": "error"
    },
    {
      "inputs": [
        {
          "internalType": "address",
          "name": "account",
          "type": "address"
        }
      ],
      "name": "OwnableUnauthorizedAccount",
      "type": "error"
    },
    {
      "anonymous": false,
      "inputs": [
        {
          "indexed": true,
          "internalType": "bytes32",
          "name": "nullifier",
          "type": "bytes32"
        },
        {
          "indexed": true,
          "internalType": "bytes32",
          "name": "proofHash",
          "type": "bytes32"
        },
        {
          "indexed": false,
          "internalType": "uint256",
          "name": "timestamp",
          "type": "uint256"
        }
      ],
      "name": "NullifierUsed",
      "type": "event"
    },
    {
      "anonymous": false,
      "inputs": [
        {
          "indexed": true,
          "internalType": "address",
          "name": "previousOwner",
          "type": "address"
        },
        {
          "indexed": true,
          "internalType": "address",
          "name": "newOwner",
          "type": "address"
        }
      ],
      "name": "OwnershipTransferred",
      "type": "event"
    },
    {
      "anonymous": false,
      "inputs": [
        {
          "indexed": true,
          "internalType": "address",
          "name": "voter",
          "type": "address"
        },
        {
          "indexed": true,
          "internalType": "bytes32",
          "name": "voteHash",
          "type": "bytes32"
        },
        {
          "indexed": false,
          "internalType": "bytes32",
          "name": "proofHash",
          "type": "bytes32"
        },
        {
          "indexed": false,
          "internalType": "uint256",
          "name": "timestamp",
          "type": "uint256"
        }
      ],
      "name": "VoteProofSubmitted",
      "type": "event"
    },
    {
      "anonymous": false,
      "inputs": [
        {
          "indexed": true,
          "internalType": "bytes32",
          "name": "proofHash",
          "type": "bytes32"
        },
        {
          "indexed": true,
          "internalType": "bytes32",
          "name": "nullifierHash",
          "type": "bytes32"
        },
        {
          "indexed": false,
          "internalType": "bytes32",
          "name": "commitmentHash",
          "type": "bytes32"
        },
        {
          "indexed": false,
          "internalType": "uint256",
          "name": "timestamp",
          "type": "uint256"
        }
      ],
      "name": "ZKProofCreated",
      "type": "event"
    },
    {
      "anonymous": false,
      "inputs": [
        {
          "indexed": true,
          "internalType": "bytes32",
          "name": "proofHash",
          "type": "bytes32"
        },
        {
          "indexed": false,
          "internalType": "bool",
          "name": "isValid",
          "type": "bool"
        },
        {
          "indexed": false,
          "internalType": "uint256",
          "name": "timestamp",
          "type": "uint256"
        }
      ],
      "name": "ZKProofVerified",
      "type": "event"
    },
    {
      "inputs": [
        {
          "internalType": "bytes32[]",
          "name": "proofHashes",
          "type": "bytes32[]"
        },
        {
          "internalType": "bytes32[]",
          "name": "voteHashes",
          "type": "bytes32[]"
        },
        {
          "internalType": "bytes32[]",
          "name": "nullifiers",
          "type": "bytes32[]"
        },
        {
          "internalType": "bytes32[]",
          "name": "secrets",
          "type": "bytes32[]"
        }
      ],
      "name": "batchVerifyProofs",
      "outputs": [
        {
          "internalType": "uint256",
          "name": "validCount",
          "type": "uint256"
        }
      ],
      "stateMutability": "nonpayable",
      "type": "function"
    },
    {
      "inputs": [
        {
          "internalType": "bytes32",
          "name": "voteHash",
          "type": "bytes32"
        },
        {
          "internalType": "bytes32",
          "name": "nullifier",
          "type": "bytes32"
        },
        {
          "internalType": "bytes32",
          "name": "secret",
          "type": "bytes32"
        },
        {
          "internalType": "bytes32",
          "name": "commitmentHash",
          "type": "bytes32"
        }
      ],
      "name": "createZKProof",
      "outputs": [
        {
          "internalType": "bytes32",
          "name": "proofHash",
          "type": "bytes32"
        }
      ],
      "stateMutability": "nonpayable",
      "type": "function"
    },
    {
      "inputs": [
        {
          "internalType": "bytes32",
          "name": "proofHash",
          "type": "bytes32"
        }
      ],
      "name": "emergencyInvalidateProof",
      "outputs": [],
      "stateMutability": "nonpayable",
      "type": "function"
    },
    {
      "inputs": [],
      "name": "getMerkleRoot",
      "outputs": [
        {
          "internalType": "bytes32",
          "name": "",
          "type": "bytes32"
        }
      ],
      "stateMutability": "view",
      "type": "function"
    },
    {
      "inputs": [],
      "name": "getProofCount",
      "outputs": [
        {
          "internalType": "uint256",
          "name": "",
          "type": "uint256"
        }
      ],
      "stateMutability": "view",
      "type": "function"
    },
    {
      "inputs": [
        {
          "internalType": "bytes32",
          "name": "proofHash",
          "type": "bytes32"
        }
      ],
      "name": "getVoteProof",
      "outputs": [
        {
          "components": [
            {
              "internalType": "address",
              "name": "voter",
              "type": "address"
            },
            {
              "internalType": "bytes32",
              "name": "voteHash",
              "type": "bytes32"
            },
            {
              "internalType": "bytes32",
              "name": "nullifier",
              "type": "bytes32"
            },
            {
              "internalType": "bytes32",
              "name": "secret",
              "type": "bytes32"
            },
            {
              "components": [
                {
                  "internalType": "bytes32",
                  "name": "publicInputs",
                  "type": "bytes32"
                },
                {
                  "internalType": "bytes32",
                  "name": "nullifierHash",
                  "type": "bytes32"
                },
                {
                  "internalType": "bytes32",
                  "name": "commitmentHash",
                  "type": "bytes32"
                },
                {
                  "internalType": "bytes32",
                  "name": "proofHash",
                  "type": "bytes32"
                },
                {
                  "internalType": "uint256",
                  "name": "timestamp",
                  "type": "uint256"
                },
                {
                  "internalType": "bool",
                  "name": "verified",
                  "type": "bool"
                }
              ],
              "internalType": "struct ZKProofVerifier.ZKProof",
              "name": "zkProof",
              "type": "tuple"
            }
          ],
          "internalType": "struct ZKProofVerifier.VoteProof",
          "name": "",
          "type": "tuple"
        }
      ],
      "stateMutability": "view",
      "type": "function"
    },
    {
      "inputs": [
        {
          "internalType": "address",
          "name": "voter",
          "type": "address"
        }
      ],
      "name": "getVoterProofs",
      "outputs": [
        {
          "internalType": "bytes32[]",
          "name": "",
          "type": "bytes32[]"
        }
      ],
      "stateMutability": "view",
      "type": "function"
    },
    {
      "inputs": [
        {
          "internalType": "bytes32",
          "name": "proofHash",
          "type": "bytes32"
        }
      ],
      "name": "getZKProof",
      "outputs": [
        {
          "components": [
            {
              "internalType": "bytes32",
              "name": "publicInputs",
              "type": "bytes32"
            },
            {
              "internalType": "bytes32",
              "name": "nullifierHash",
              "type": "bytes32"
            },
            {
              "internalType": "bytes32",
              "name": "commitmentHash",
              "type": "bytes32"
            },
            {
              "internalType": "bytes32",
              "name": "proofHash",
              "type": "bytes32"
            },
            {
              "internalType": "uint256",
              "name": "timestamp",
              "type": "uint256"
            },
            {
              "internalType": "bool",
              "name": "verified",
              "type": "bool"
            }
          ],
          "internalType": "struct ZKProofVerifier.ZKProof",
          "name": "",
          "type": "tuple"
        }
      ],
      "stateMutability": "view",
      "type": "function"
    },
    {
      "inputs": [
        {
          "internalType": "bytes32",
          "name": "nullifier",
          "type": "bytes32"
        }
      ],
      "name": "isNullifierUsed",
      "outputs": [
        {
          "internalType": "bool",
          "name": "",
          "type": "bool"
        }
      ],
      "stateMutability": "view",
      "type": "function"
    },
    {
      "inputs": [],
      "name": "merkleRoot",
      "outputs": [
        {
          "internalType": "bytes32",
          "name": "",
          "type": "bytes32"
        }
      ],
      "stateMutability": "view",
      "type": "function"
    },
    {
      "inputs": [],
      "name": "owner",
      "outputs": [
        {
          "internalType": "address",
          "name": "",
          "type": "address"
        }
      ],
      "stateMutability": "view",
      "type": "function"
    },
    {
      "inputs": [],
      "name": "proofCounter",
      "outputs": [
        {
          "internalType": "uint256",
          "name": "",
          "type": "uint256"
        }
      ],
      "stateMutability": "view",
      "type": "function"
    },
    {
      "inputs": [],
      "name": "renounceOwnership",
      "outputs": [],
      "stateMutability": "nonpayable",
      "type": "function"
    },
    {
      "inputs": [
        {
          "internalType": "bytes32",
          "name": "voteHash",
          "type": "bytes32"
        },
        {
          "internalType": "bytes32",
          "name": "nullifier",
          "type": "bytes32"
        },
        {
          "internalType": "bytes32",
          "name": "secret",
          "type": "bytes32"
        },
        {
          "internalType": "bytes32",
          "name": "commitmentHash",
          "type": "bytes32"
        }
      ],
      "name": "submitVoteProof",
      "outputs": [
        {
          "internalType": "bytes32",
          "name": "proofHash",
          "type": "bytes32"
        }
      ],
      "stateMutability": "nonpayable",
      "type": "function"
    },
    {
      "inputs": [
        {
          "internalType": "address",
          "name": "newOwner",
          "type": "address"
        }
      ],
      "name": "transferOwnership",
      "outputs": [],
      "stateMutability": "nonpayable",
      "type": "function"
    },
    {
      "inputs": [
        {
          "internalType": "bytes32",
          "name": "newRoot",
          "type": "bytes32"
        }
      ],
      "name": "updateMerkleRoot",
      "outputs": [],
      "stateMutability": "nonpayable",
      "type": "function"
    },
    {
      "inputs": [
        {
          "internalType": "uint256",
          "name": "newThreshold",
          "type": "uint256"
        }
      ],
      "name": "updateVerificationThreshold",
      "outputs": [],
      "stateMutability": "nonpayable",
      "type": "function"
    },
    {
      "inputs": [],
      "name": "verificationThreshold",
      "outputs": [
        {
          "internalType": "uint256",
          "name": "",
          "type": "uint256"
        }
      ],
      "stateMutability": "view",
      "type": "function"
    },
    {
      "inputs": [
        {
          "internalType": "address",
          "name": "voter",
          "type": "address"
        },
        {
          "internalType": "bytes32[]",
          "name": "proof",
          "type": "bytes32[]"
        }
      ],
      "name": "verifyVoterInclusion",
      "outputs": [
        {
          "internalType": "bool",
          "name": "isValid",
          "type": "bool"
        }
      ],
      "stateMutability": "view",
      "type": "function"
    },
    {
      "inputs": [
        {
          "internalType": "bytes32",
          "name": "proofHash",
          "type": "bytes32"
        },
        {
          "internalType": "bytes32",
          "name": "voteHash",
          "type": "bytes32"
        },
        {
          "internalType": "bytes32",
          "name": "nullifier",
          "type": "bytes32"
        },
        {
          "internalType": "bytes32",
          "name": "secret",
          "type": "bytes32"
        }
      ],
      "name": "verifyZKProof",
      "outputs": [
        {
          "internalType": "bool",
          "name": "isValid",
          "type": "bool"
        }
      ],
      "stateMutability": "nonpayable",
      "type": "function"
    }
  ],
  "bytecode": "0x60806040523461002a5761001961001461009e565b6100f4565b6040516119c461025c82396119c490f35b600080fd5b634e487b7160e01b600052604160045260246000fd5b90601f01601f191681019081106001600160401b0382111761006657604052565b61002f565b9061007f61007860405190565b9283610045565b565b90505190565b9060208282031261002a5761009b91610081565b90565b61009b611c20803803806100b18161006b565b928339810190610087565b90600019905b9181191691161790565b61009b61009b61009b9290565b906100e961009b6100f0926100cc565b82546100bc565b9055565b610108906101013361015b565b60076100d9565b61007f61011560006100cc565b60056100d9565b61012961009b61009b9290565b6001600160a01b031690565b61009b9061011c565b61014790610129565b9052565b60208101929161007f919061013e565b600061016681610135565b61016f81610129565b61017884610129565b1461018857505061007f90610204565b631e4fbdf760e01b825281906101a1906004830161014b565b0390fd5b61009b90610129565b61009b90546101a5565b906001600160a01b03906100c2565b61009b90610129906001600160a01b031682565b61009b906101c7565b61009b906101db565b906101fd61009b6100f0926101e4565b82546101b8565b61022a61022461021460006101ae565b61021f8460006101ed565b6101e4565b916101e4565b907f8be0079c531659141344cd1fd0a4f28419497f9722a3daafe3b4186f6b6457e061025560405190565b600090a356fe6080604052600436101561001257600080fd5b60003560e01c8063167feb091461015257806322dc7b4c1461014d5780632607788e146101485780632eb4a7ab14610143578063451b923c1461013e5780634783f0ef1461013957806349590657146101345780635089cec21461012f5780635be4ee1b1461012a5780636d9f437014610125578063715018a61461012057806389aa56a41461011b5780638da5cb5b14610116578063a067228e14610111578063c423f9101461010c578063c943394014610107578063d51b456b14610102578063e6ab8c54146100fd578063e81f927b146100f85763f2fde38b03610157576106f0565b6106d1565b6106b5565b610658565b610629565b610604565b610519565b61043d565b61040c565b6103f4565b6103d9565b6103b2565b61039a565b61037f565b610362565b610343565b6102ec565b6102b9565b6101eb565b610192565b600080fd5b600091031261015757565b610172916008021c81565b90565b906101729154610167565b61017260006007610175565b9052565b565b34610157576101a236600461015c565b6101bd6101ad610180565b6040519182918290815260200190565b0390f35b805b0361015757565b90503590610190826101c1565b9060208282031261015757610172916101ca565b34610157576101bd6102066102013660046101d7565b610730565b60405191829182901515815260200190565b6001600160a01b031690565b6101c381610218565b9050359061019082610224565b90602082820312610157576101729161022d565b0190565b9061027261026b610261845190565b8084529260200190565b9260200190565b9060005b8181106102835750505090565b9091926102a06102996001928651815260200190565b9460200190565b929101610276565b602080825261017292910190610252565b34610157576101bd6102d46102cf36600461023a565b610856565b604051918291826102a8565b61017260006006610175565b34610157576102fc36600461015c565b6101bd6101ad6102e0565b6080818303126101575761031b82826101ca565b9261017261032c84602085016101ca565b93606061033c82604087016101ca565b94016101ca565b34610157576101bd6101ad610359366004610307565b92919091610bfc565b346101575761037a6103753660046101d7565b610d72565b604051005b346101575761038f36600461015c565b6101bd6101ad610d7b565b346101575761037a6103ad3660046101d7565b610eb7565b34610157576103c236600461015c565b6101bd6101ad610ec0565b61017260006005610175565b34610157576103e936600461015c565b6101bd6101ad6103cd565b346101575761040436600461015c565b61037a610f02565b346101575761037a61041f3660046101d7565b610f21565b61018c90610218565b6020810192916101909190610424565b346101575761044d36600461015c565b6101bd610458610f3d565b6040519182918261042d565b80518252610190919060a090819061048160208201516020860152565b61049060408201516040860152565b61049f60608201516060860152565b6104ae60808201516080860152565b01511515910152565b90608080610190936104d160008201516000860190610424565b6104e060208201516020860152565b6104ef60408201516040860152565b6104fe60608201516060860152565b0151910190610464565b6101408101929161019091906104b7565b34610157576101bd61053461052f3660046101d7565b611020565b60405191829182610508565b909182601f830112156101575781359167ffffffffffffffff831161015757602001926020830284011161015757565b909160808284031261015757813567ffffffffffffffff81116101575783610599918401610540565b929093602082013567ffffffffffffffff811161015757816105bc918401610540565b929093604082013567ffffffffffffffff811161015757836105df918401610540565b929093606082013567ffffffffffffffff8111610157576106009201610540565b9091565b34610157576101bd6101ad61061a366004610570565b96959095949194939293611287565b34610157576101bd6101ad61063f366004610307565b92919091611487565b60c0810192916101909190610464565b34610157576101bd61067361066e3660046101d7565b6114cd565b60405191829182610648565b91909160408184031261015757610696838261022d565b92602082013567ffffffffffffffff8111610157576106009201610540565b34610157576101bd6102066106cb36600461067f565b9161150a565b34610157576101bd6102066106e7366004610307565b929190916116fd565b346101575761037a61070336600461023a565b61175d565b9061071290610172565b600052602052604060002090565b60ff1690565b6101729054610720565b6107476101729161073f600090565b506002610708565b610726565b61017290610218906001600160a01b031682565b6101729061074c565b61017290610760565b9061071290610769565b6101729081565b610172905461077c565b906107a861079c610261845490565b92600052602060002090565b9060005b8181106107b95750505090565b9091926107dd6107d66001926107ce87610783565b815260200190565b9460010190565b9291016107ac565b906101729161078d565b634e487b7160e01b600052604160045260246000fd5b90601f01601f1916810190811067ffffffffffffffff82111761082757604052565b6107ef565b906101906108469261083d60405190565b938480926107e5565b0383610805565b6101729061082c565b61086d61017291610865606090565b506003610772565b61084d565b90505190610190826101c1565b906020828203126101575761017291610872565b6108c0610190946108b96060949897956108b2608086019a6000870152565b6020850152565b6040830152565b0152565b6040513d6000823e3d90fd5b906101906108dd60405190565b9283610805565b61017260a06108d0565b9061018c90610218565b61017260c06108d0565b9061019061098260056109136108f8565b9461092461092082610783565b8752565b61093a61093360018301610783565b6020880152565b61095061094960028301610783565b6040880152565b61096661095f60038301610783565b6060880152565b61097c61097560048301610783565b6080880152565b01610726565b151560a0840152565b61017290610902565b634e487b7160e01b600052600060045260246000fd5b6101729051610218565b906001600160a01b03905b9181191691161790565b906109d96101726109e092610769565b82546109b4565b9055565b5190565b90600019906109bf565b90610a07610a026109e092610172565b610172565b82546109e8565b6101726101726101729290565b90610a076101726109e092610a0e565b51151590565b9060ff906109bf565b151590565b90610a4f6101726109e092610a3a565b8254610a31565b6005610adc60a061019094610a76610a70600083016109e4565b866109f2565b610a8e610a85602083016109e4565b600187016109f2565b610aa6610a9d604083016109e4565b600287016109f2565b610abe610ab5606083016109e4565b600387016109f2565b610ad6610acd608083016109e4565b60048701610a1b565b01610a2b565b9101610a3f565b9061019091610a56565b6004610b3f608061019094610b0d610b07600083016109aa565b866109c9565b610b1c610a85602083016109e4565b610b2b610a9d604083016109e4565b610b3a610ab5606083016109e4565b015190565b9101610ae3565b9061019091610aed565b634e487b7160e01b600052603260045260246000fd5b8054821015610b8957610b80600191600052602060002090565b91020190600090565b610b50565b9160001960089290920291821b911b6109bf565b9190610bb3610a026109e093610172565b908354610b8e565b90815491680100000000000000008310156108275782610be391600161019095018155610b66565b90610ba2565b9081526040810192916101909160200152565b916020610c3f600095610c0d600090565b50610c1730610769565b90610c2160405190565b97889384928391906303250ce560e61b8352888a8c60048601610893565b03925af1938415610d5657600094610d17575b5090610ca1610c9a610cb193610c95610c6c886001610708565b91610c8e610c786108e4565b96610c8333896108ee565b6109498a60208a0152565b6060860152565b61098b565b6080830152565b610cac846004610708565b610b46565b610cc882610cc3610172336003610772565b610bbb565b610cda610cd433610769565b91610172565b907ff2a38cb36bcfb3c71a301f45f653f09b07e5579c023684ab0cfdf0c1b0baf557610d0560405190565b80610d11428783610be9565b0390a390565b610cb192919450610c9a610d45610ca19260203d602011610d4f575b610d3d8183610805565b81019061087f565b9592935050610c52565b503d610d33565b6108c4565b61019090610d67611766565b6101909060066109f2565b61019090610d5b565b6101726006610783565b61019090610d91611766565b610e6f565b602080825260149082015273141c9bdbd988191bd95cc81b9bdd08195e1a5cdd60621b604082015260600190565b15610dcb57565b60405162461bcd60e51b815280610de460048201610d96565b0390fd5b61019091600091610ba2565b9190610bb36101726109e093610a0e565b61019091600091610df4565b600090600590610e218382610de8565b610e2e8360018301610de8565b610e3b8360028301610de8565b610e488360038301610de8565b610e558360048301610e05565b0155565b90600003610e6a5761019090610e11565b610994565b6000610eb261019092610eab610e916003610e8b846001610708565b01610783565b610ea4610ea061017287610a0e565b9190565b1415610dc4565b6001610708565b610e59565b61019090610d85565b6101726005610783565b610ed2611766565b610190610ef0565b6102186101726101729290565b61017290610eda565b610190610efd6000610ee7565b6117a8565b610190610eca565b61019090610f16611766565b610190906007610a1b565b61019090610f0a565b61017290610218565b6101729054610f2a565b6101726000610f33565b610f4f6108f8565b906000825260208080808080870160008152016000815201600081520160008152016000905250565b905250565b610172610f47565b610f8d6108e4565b90600082526020808080808601600081520160008152016000815201610f78610f7d565b610172610f85565b906101906110106004610fca6108e4565b94610fdd610fd782610f33565b876108ee565b610fec61093360018301610783565b610ffb61094960028301610783565b61100a61095f60038301610783565b01610902565b6080840152565b61017290610fb9565b6110376101729161102f610fb1565b506004610708565b611017565b906101729897969594939291611050611766565b61111f565b60208082526018908201527f4172726179206c656e67746873206d757374206d617463680000000000000000604082015260600190565b1561109357565b60405162461bcd60e51b815280610de460048201611055565b60010190565b9190811015610b89576020020190565b35610172816101c1565b8015156101c3565b90505190610190826110cc565b9060208282031261015757610172916110d4565b634e487b7160e01b600052601160045260246000fd5b600019811461111a5760010190565b6110f5565b979395929691949097966111308690565b98878a14888161127d575b5080611274575b61114b9061108c565b60009a6111586000610a0e565b8b5b811015611264578080808f818c8f8f908e913061117690610769565b97611181918d6110b2565b61118a906110c2565b97611195918d6110b2565b61119e906110c2565b946111a9918d6110b2565b6111b2906110c2565b916111bd918d6110b2565b6111c6906110c2565b926111d060405190565b9586948593849363e81f927b60e01b85526111ee9360048601610893565b03915a94602095f1908115610d56578e91611236575b5061121d575b61121661115a916110ac565b9050611158565b9961121661122d61115a9261110b565b9b91505061120a565b611257915060203d811161125d575b61124f8183610805565b8101906110e1565b38611204565b503d611245565b509a505050505050505050905090565b50848614611142565b869150143861113b565b6101729796959493929190600061103c565b602080825260169082015275139d5b1b1a599a595c88185b1c9958591e481d5cd95960521b604082015260600190565b156112d057565b60405162461bcd60e51b815280610de460048201611299565b906101729493929161130e611309611305610747866002610708565b1590565b6112c9565b61131e565b61024e816020939052565b61143393836114509493611332935061181b565b936113fe602061134160405190565b61135e818381016113528882611313565b90810382520382610805565b611370611369825190565b9160200190565b2061138b61137c6108f8565b91611385868452565b83830152565b611396846040830152565b6113a1886060830152565b6113ac426080830152565b600060a08201526113c7816113c28a6001610708565b610ae3565b6113dc60016113d7876002610708565b610a3f565b6113f86113f16113ec6005610783565b61110b565b6005610a1b565b016109e4565b7f506b43825c1c1ab28dc92516caa81eca0f380417c6e4317931619fbe39f11f1461144861142b88610172565b968793610172565b9361143d60405190565b918291429083610be9565b0390a3610172565b7fafbae02739cd46b44c3f5e55fad3b8aaacf8acef6bb518bd7a737a2e02157d0461147a60405190565b4281528060208101610d11565b6101729392919060006112e9565b90610172916114bd6114ad6003610e8b856001610708565b610ea4610ea06101726000610a0e565b61017291610c9591506001610708565b610172906114d9610f7d565b611495565b60601b90565b610172906114de565b6114f961018c91610218565b6114e4565b61024e816014936114ed565b610172929061152b61151b60405190565b80926113526020830191826114fe565b611536611369825190565b20916115426006610783565b926118be565b90610172949392916115636114ad6003610e8b856001610708565b61161a565b602080825260169082015275141c9bdbd988185b1c9958591e481d995c9a599a595960521b604082015260600190565b1561159f57565b60405162461bcd60e51b815280610de460048201611568565b602080825260139082015272139d5b1b1a599a595c881b9bdd08199bdd5b99606a1b604082015260600190565b156115ec57565b60405162461bcd60e51b815280610de4600482016115b8565b90151581526040810192916101909160200152565b936116659192945060019360056116346101728688610708565b019561164a61164561130589610726565b611598565b61166061165b610747846002610708565b6115e5565b61181b565b81149283156116bb576116a07fbd1fe7a887205d9ede817440b4fad4e3d32dfac34d415a05fe22a6d6a68cf20792610a02856116b594610a3f565b926116aa60405190565b918291429083611605565b0390a290565b506116c69150610172565b7fbd1fe7a887205d9ede817440b4fad4e3d32dfac34d415a05fe22a6d6a68cf2076116f060405190565b806116b542600083611605565b610172939291906000611548565b61019090611717611766565b600061172281610ee7565b61172b81610218565b61173484610218565b14611744575050610190906117a8565b631e4fbdf760e01b82528190610de4906004830161042d565b6101909061170b565b61176e610f3d565b339061178261177c83610218565b91610218565b0361178a5750565b63118cdaa760e01b6000908152906117a390600461042d565b036000fd5b6117ce6117c86117b86000610f33565b6117c38460006109c9565b610769565b91610769565b907f8be0079c531659141344cd1fd0a4f28419497f9722a3daafe3b4186f6b6457e06117f960405190565b600090a3565b602093926118158583611815829561024e979052565b01918252565b61183a919061135261182c60405190565b9485936020850193846117ff565b611845611369825190565b2090565b67ffffffffffffffff81116108275760208091020190565b9092919261187661187182611849565b6108d0565b938185526020808601920283019281841161015757915b83831061189a5750505050565b602080916118a884866101ca565b81520192019161188d565b610172913691611861565b916118d69061017294926118d0600090565b506118b3565b6118f06118f49293610ea0926118ea600090565b50611912565b9290565b1490565b90611901825190565b811015610b89576020809102010190565b61191c6000610a0e565b915b611929610172835190565b83101561195b5761194f6119559161194961194486866118f8565b6109e4565b90611961565b926110ac565b9161191e565b91505090565b8181101561197c579061017291600052602052604060002090565b6101729160005260205260406000209056fea264697066735822122062bf991757310df4e45501ca94f832674fd79a66acb8af6a0212e15d145a34f764736f6c634300081c0033",
  "linkReferences": {},
  "deployedLinkReferences": {}
}