{
  "_format": "hh-sol-artifact-1",
  "contractName": "LiquidDemocracy",
  "sourceName": "contracts/LiquidDemocracy.sol",
  "abi": [
    {
      "inputs": [
        {
          "internalType": "uint256",
          "name": "_maxDelegationDepth",
          "type": "uint256"
        },
        {
          "internalType": "uint256",
          "name": "_minDelegationPower",
          "type": "uint256"
        }
      ],
      "stateMutability": "nonpayable",
      "type": "constructor"
    },
    {
      "inputs": [
        {
          "internalType": "address",
          "name": "owner",
          "type": "address"
        }
      ],
      "name": "OwnableInvalidOwner",
      "type": "error"
    },
    {
      "inputs": [
        {
          "internalType": "address",
          "name": "account",
          "type": "address"
        }
      ],
      "name": "OwnableUnauthorizedAccount",
      "type": "error"
    },
    {
      "inputs": [],
      "name": "ReentrancyGuardReentrantCall",
      "type": "error"
    },
    {
      "anonymous": false,
      "inputs": [
        {
          "indexed": true,
          "internalType": "address",
          "name": "voter",
          "type": "address"
        },
        {
          "indexed": false,
          "internalType": "uint256",
          "name": "newTotalPower",
          "type": "uint256"
        }
      ],
      "name": "DelegationChainUpdated",
      "type": "event"
    },
    {
      "anonymous": false,
      "inputs": [
        {
          "indexed": true,
          "internalType": "address",
          "name": "from",
          "type": "address"
        },
        {
          "indexed": true,
          "internalType": "address",
          "name": "to",
          "type": "address"
        },
        {
          "indexed": false,
          "internalType": "uint256",
          "name": "power",
          "type": "uint256"
        },
        {
          "indexed": false,
          "internalType": "uint256",
          "name": "delegationId",
          "type": "uint256"
        },
        {
          "indexed": false,
          "internalType": "uint256",
          "name": "timestamp",
          "type": "uint256"
        }
      ],
      "name": "DelegationCreated",
      "type": "event"
    },
    {
      "anonymous": false,
      "inputs": [
        {
          "indexed": true,
          "internalType": "address",
          "name": "from",
          "type": "address"
        },
        {
          "indexed": true,
          "internalType": "address",
          "name": "to",
          "type": "address"
        },
        {
          "indexed": false,
          "internalType": "uint256",
          "name": "delegationId",
          "type": "uint256"
        },
        {
          "indexed": false,
          "internalType": "uint256",
          "name": "timestamp",
          "type": "uint256"
        }
      ],
      "name": "DelegationRevoked",
      "type": "event"
    },
    {
      "anonymous": false,
      "inputs": [
        {
          "indexed": true,
          "internalType": "address",
          "name": "previousOwner",
          "type": "address"
        },
        {
          "indexed": true,
          "internalType": "address",
          "name": "newOwner",
          "type": "address"
        }
      ],
      "name": "OwnershipTransferred",
      "type": "event"
    },
    {
      "anonymous": false,
      "inputs": [
        {
          "indexed": true,
          "internalType": "address",
          "name": "voter",
          "type": "address"
        },
        {
          "indexed": false,
          "internalType": "uint256",
          "name": "candidateId",
          "type": "uint256"
        },
        {
          "indexed": false,
          "internalType": "uint256",
          "name": "powerUsed",
          "type": "uint256"
        },
        {
          "indexed": false,
          "internalType": "bool",
          "name": "isDelegated",
          "type": "bool"
        },
        {
          "indexed": false,
          "internalType": "uint256",
          "name": "timestamp",
          "type": "uint256"
        }
      ],
      "name": "VoteCast",
      "type": "event"
    },
    {
      "anonymous": false,
      "inputs": [
        {
          "indexed": true,
          "internalType": "address",
          "name": "voter",
          "type": "address"
        },
        {
          "indexed": false,
          "internalType": "uint256",
          "name": "power",
          "type": "uint256"
        },
        {
          "indexed": false,
          "internalType": "uint256",
          "name": "timestamp",
          "type": "uint256"
        }
      ],
      "name": "VoterRegistered",
      "type": "event"
    },
    {
      "anonymous": false,
      "inputs": [
        {
          "indexed": false,
          "internalType": "uint256",
          "name": "endTime",
          "type": "uint256"
        }
      ],
      "name": "VotingSessionEnded",
      "type": "event"
    },
    {
      "anonymous": false,
      "inputs": [
        {
          "indexed": false,
          "internalType": "uint256",
          "name": "startTime",
          "type": "uint256"
        },
        {
          "indexed": false,
          "internalType": "uint256",
          "name": "endTime",
          "type": "uint256"
        }
      ],
      "name": "VotingSessionStarted",
      "type": "event"
    },
    {
      "inputs": [
        {
          "internalType": "address",
          "name": "delegate",
          "type": "address"
        },
        {
          "internalType": "uint256",
          "name": "power",
          "type": "uint256"
        }
      ],
      "name": "createDelegation",
      "outputs": [
        {
          "internalType": "uint256",
          "name": "delegationId",
          "type": "uint256"
        }
      ],
      "stateMutability": "nonpayable",
      "type": "function"
    },
    {
      "inputs": [],
      "name": "endVotingSession",
      "outputs": [],
      "stateMutability": "nonpayable",
      "type": "function"
    },
    {
      "inputs": [],
      "name": "getActiveDelegations",
      "outputs": [
        {
          "internalType": "uint256",
          "name": "",
          "type": "uint256"
        }
      ],
      "stateMutability": "view",
      "type": "function"
    },
    {
      "inputs": [
        {
          "internalType": "uint256",
          "name": "candidateId",
          "type": "uint256"
        }
      ],
      "name": "getCandidateTotalVotes",
      "outputs": [
        {
          "internalType": "uint256",
          "name": "",
          "type": "uint256"
        }
      ],
      "stateMutability": "view",
      "type": "function"
    },
    {
      "inputs": [
        {
          "internalType": "uint256",
          "name": "candidateId",
          "type": "uint256"
        }
      ],
      "name": "getCandidateVotes",
      "outputs": [
        {
          "components": [
            {
              "internalType": "address",
              "name": "voter",
              "type": "address"
            },
            {
              "internalType": "uint256",
              "name": "candidateId",
              "type": "uint256"
            },
            {
              "internalType": "uint256",
              "name": "powerUsed",
              "type": "uint256"
            },
            {
              "internalType": "uint256",
              "name": "timestamp",
              "type": "uint256"
            },
            {
              "internalType": "bytes32",
              "name": "voteHash",
              "type": "bytes32"
            },
            {
              "internalType": "bool",
              "name": "isDelegated",
              "type": "bool"
            }
          ],
          "internalType": "struct LiquidDemocracy.Vote[]",
          "name": "",
          "type": "tuple[]"
        }
      ],
      "stateMutability": "view",
      "type": "function"
    },
    {
      "inputs": [
        {
          "internalType": "uint256",
          "name": "delegationId",
          "type": "uint256"
        }
      ],
      "name": "getDelegation",
      "outputs": [
        {
          "components": [
            {
              "internalType": "address",
              "name": "from",
              "type": "address"
            },
            {
              "internalType": "address",
              "name": "to",
              "type": "address"
            },
            {
              "internalType": "uint256",
              "name": "power",
              "type": "uint256"
            },
            {
              "internalType": "uint256",
              "name": "timestamp",
              "type": "uint256"
            },
            {
              "internalType": "bool",
              "name": "isActive",
              "type": "bool"
            },
            {
              "internalType": "uint256",
              "name": "delegationId",
              "type": "uint256"
            }
          ],
          "internalType": "struct LiquidDemocracy.Delegation",
          "name": "",
          "type": "tuple"
        }
      ],
      "stateMutability": "view",
      "type": "function"
    },
    {
      "inputs": [],
      "name": "getRegisteredVoters",
      "outputs": [
        {
          "internalType": "address[]",
          "name": "",
          "type": "address[]"
        }
      ],
      "stateMutability": "view",
      "type": "function"
    },
    {
      "inputs": [],
      "name": "getTotalVotingPower",
      "outputs": [
        {
          "internalType": "uint256",
          "name": "",
          "type": "uint256"
        }
      ],
      "stateMutability": "view",
      "type": "function"
    },
    {
      "inputs": [
        {
          "internalType": "address",
          "name": "voter",
          "type": "address"
        }
      ],
      "name": "getVoter",
      "outputs": [
        {
          "components": [
            {
              "internalType": "address",
              "name": "voterAddress",
              "type": "address"
            },
            {
              "internalType": "uint256",
              "name": "votingPower",
              "type": "uint256"
            },
            {
              "internalType": "uint256",
              "name": "delegatedPower",
              "type": "uint256"
            },
            {
              "internalType": "uint256",
              "name": "totalPower",
              "type": "uint256"
            },
            {
              "internalType": "address",
              "name": "delegate",
              "type": "address"
            },
            {
              "internalType": "address[]",
              "name": "delegates",
              "type": "address[]"
            },
            {
              "internalType": "bool",
              "name": "isActive",
              "type": "bool"
            },
            {
              "internalType": "uint256",
              "name": "lastVoteTime",
              "type": "uint256"
            },
            {
              "internalType": "uint256",
              "name": "delegationCount",
              "type": "uint256"
            }
          ],
          "internalType": "struct LiquidDemocracy.Voter",
          "name": "",
          "type": "tuple"
        }
      ],
      "stateMutability": "view",
      "type": "function"
    },
    {
      "inputs": [
        {
          "internalType": "address",
          "name": "voter",
          "type": "address"
        }
      ],
      "name": "getVoterDelegations",
      "outputs": [
        {
          "internalType": "uint256[]",
          "name": "",
          "type": "uint256[]"
        }
      ],
      "stateMutability": "view",
      "type": "function"
    },
    {
      "inputs": [
        {
          "internalType": "address",
          "name": "voter",
          "type": "address"
        },
        {
          "internalType": "uint256",
          "name": "candidateId",
          "type": "uint256"
        }
      ],
      "name": "hasVoterVoted",
      "outputs": [
        {
          "internalType": "bool",
          "name": "",
          "type": "bool"
        }
      ],
      "stateMutability": "view",
      "type": "function"
    },
    {
      "inputs": [],
      "name": "maxDelegationDepth",
      "outputs": [
        {
          "internalType": "uint256",
          "name": "",
          "type": "uint256"
        }
      ],
      "stateMutability": "view",
      "type": "function"
    },
    {
      "inputs": [],
      "name": "minDelegationPower",
      "outputs": [
        {
          "internalType": "uint256",
          "name": "",
          "type": "uint256"
        }
      ],
      "stateMutability": "view",
      "type": "function"
    },
    {
      "inputs": [],
      "name": "owner",
      "outputs": [
        {
          "internalType": "address",
          "name": "",
          "type": "address"
        }
      ],
      "stateMutability": "view",
      "type": "function"
    },
    {
      "inputs": [
        {
          "internalType": "address",
          "name": "voter",
          "type": "address"
        },
        {
          "internalType": "uint256",
          "name": "power",
          "type": "uint256"
        }
      ],
      "name": "registerVoter",
      "outputs": [],
      "stateMutability": "nonpayable",
      "type": "function"
    },
    {
      "inputs": [],
      "name": "renounceOwnership",
      "outputs": [],
      "stateMutability": "nonpayable",
      "type": "function"
    },
    {
      "inputs": [
        {
          "internalType": "uint256",
          "name": "delegationId",
          "type": "uint256"
        }
      ],
      "name": "revokeDelegation",
      "outputs": [],
      "stateMutability": "nonpayable",
      "type": "function"
    },
    {
      "inputs": [
        {
          "internalType": "uint256",
          "name": "durationSeconds",
          "type": "uint256"
        }
      ],
      "name": "startVotingSession",
      "outputs": [],
      "stateMutability": "nonpayable",
      "type": "function"
    },
    {
      "inputs": [
        {
          "internalType": "address",
          "name": "newOwner",
          "type": "address"
        }
      ],
      "name": "transferOwnership",
      "outputs": [],
      "stateMutability": "nonpayable",
      "type": "function"
    },
    {
      "inputs": [
        {
          "internalType": "uint256",
          "name": "_maxDelegationDepth",
          "type": "uint256"
        },
        {
          "internalType": "uint256",
          "name": "_minDelegationPower",
          "type": "uint256"
        }
      ],
      "name": "updateDelegationParameters",
      "outputs": [],
      "stateMutability": "nonpayable",
      "type": "function"
    },
    {
      "inputs": [
        {
          "internalType": "uint256",
          "name": "candidateId",
          "type": "uint256"
        },
        {
          "internalType": "uint256",
          "name": "power",
          "type": "uint256"
        }
      ],
      "name": "vote",
      "outputs": [],
      "stateMutability": "nonpayable",
      "type": "function"
    },
    {
      "inputs": [],
      "name": "votingActive",
      "outputs": [
        {
          "internalType": "bool",
          "name": "",
          "type": "bool"
        }
      ],
      "stateMutability": "view",
      "type": "function"
    },
    {
      "inputs": [],
      "name": "votingEndTime",
      "outputs": [
        {
          "internalType": "uint256",
          "name": "",
          "type": "uint256"
        }
      ],
      "stateMutability": "view",
      "type": "function"
    },
    {
      "inputs": [],
      "name": "votingStartTime",
      "outputs": [
        {
          "internalType": "uint256",
          "name": "",
          "type": "uint256"
        }
      ],
      "stateMutability": "view",
      "type": "function"
    }
  ],
  "bytecode": "0x60806040523461002b5761001a6100146100ae565b90610108565b6040516126146102b6823961261490f35b600080fd5b634e487b7160e01b600052604160045260246000fd5b90601f01601f191681019081106001600160401b0382111761006757604052565b610030565b9061008061007960405190565b9283610046565b565b90505190565b919060408382031261002b576100ab9060206100a48286610082565b9401610082565b90565b6100cc6128ca803803806100c18161006c565b928339810190610088565b9091565b90600019905b9181191691161790565b6100ab6100ab6100ab9290565b906100fd6100ab610104926100e0565b82546100d0565b9055565b90610120610127926101193361015b565b600e6100ed565b600f6100ed565b61008061013460006100e0565b61013f8160086100ed565b61014a81600a6100ed565b60096100ed565b6100ab60016100e0565b610164906101b5565b61008061016f610151565b60016100ed565b6101836100ab6100ab9290565b6001600160a01b031690565b6100ab90610176565b6101a190610183565b9052565b6020810192916100809190610198565b60006101c08161018f565b6101c981610183565b6101d284610183565b146101e25750506100809061025e565b631e4fbdf760e01b825281906101fb90600483016101a5565b0390fd5b6100ab90610183565b6100ab90546101ff565b906001600160a01b03906100d6565b6100ab90610183906001600160a01b031682565b6100ab90610221565b6100ab90610235565b906102576100ab6101049261023e565b8254610212565b61028461027e61026e6000610208565b610279846000610247565b61023e565b9161023e565b907f8be0079c531659141344cd1fd0a4f28419497f9722a3daafe3b4186f6b6457e06102af60405190565b600090a356fe6080604052600436101561001257600080fd5b60003560e01c80630dd357011461019257806311acc1a71461018d5780631ea736e0146101885780632019a608146101835780632bc4a6e71461017e57806336dab67814610179578063408e2727146101745780634f1b49721461016f57806365d082be1461016a578063715018a614610165578063866163c0146101605780638da5cb5b1461015b5780639980a55a146101565780639b541f7614610151578063a288210c1461014c578063a7bfab1614610147578063abdd80a314610142578063b384abef1461013d578063bd3d425d14610138578063cbea81ef14610133578063cd8e09031461012e578063ce52c4ef14610129578063d4f50f98146101245763f2fde38b0361019757610872565b61084b565b61074b565b610730565b61070b565b6106f3565b6106da565b6106bf565b6106a7565b61068e565b610656565b61061b565b6105dc565b6105b5565b6104e3565b6104c8565b6104a1565b6103f5565b6103b4565b610381565b6102f2565b6102cb565b61027d565b610247565b600080fd5b805b0361019757565b905035906101b28261019c565b565b90602082820312610197576101c8916101a5565b90565b6001600160a01b031690565b9052565b80516001600160a01b031682526101b2919060a09081906020818101516001600160a01b03169085015261021460408201516040860152565b61022360608201516060860152565b6080818101511515908501525b0151910152565b60c0810192916101b291906101db565b346101975761026e61026261025d3660046101b4565b610a1c565b60405191829182610237565b0390f35b600091031261019757565b346101975761028d366004610272565b61026e610298610a38565b6040515b9182918290815260200190565b6101c8916008021c81565b906101c891546102a9565b6101c86000600d6102b4565b34610197576102db366004610272565b61026e6102986102bf565b6101c86000600c6102b4565b3461019757610302366004610272565b61026e6102986102e6565b0190565b9061033161032a610320845190565b8084529260200190565b9260200190565b9060005b8181106103425750505090565b90919261036861036160019286516001600160a01b0316815260200190565b9460200190565b929101610335565b60208082526101c892910190610311565b3461019757610391366004610272565b61026e61039c610adf565b60405191829182610370565b6101c86000600f6102b4565b34610197576103c4366004610272565b61026e6102986103a8565b6101c8916008021c5b60ff1690565b906101c891546103cf565b6101c86000600b6103de565b3461019757610405366004610272565b61026e6104106103e9565b60405191829182901515815260200190565b6001600160a01b03811661019e565b905035906101b282610422565b90602082820312610197576101c891610431565b9061046161032a610320845190565b9060005b8181106104725750505090565b9091926104886103616001928651815260200190565b929101610465565b60208082526101c892910190610452565b346101975761026e6104bc6104b736600461043e565b610b8b565b60405191829182610490565b34610197576104d8366004610272565b61026e610298610ba7565b34610197576104f3366004610272565b6104fb610be9565b604051005b80516001600160a01b031682526101b2919060a090819061052660208201516020860152565b61053560408201516040860152565b61054460608201516060860152565b61055360808201516080860152565b01511515910152565b9061030d8160c093610500565b9061057861032a610320845190565b9060005b8181106105895750505090565b90919261059c610361600192865161055c565b92910161057c565b60208082526101c892910190610569565b346101975761026e6105d06105cb3660046101b4565b610d06565b604051918291826105a4565b34610197576105ec366004610272565b61026e6106016000546001600160a01b031690565b604051918291826001600160a01b03909116815260200190565b34610197576104fb61062e3660046101b4565b610e9a565b9190604083820312610197576101c890602061064f8286610431565b94016101a5565b346101975761026e61041061066c366004610633565b90610ea3565b9190604083820312610197576101c890602061064f82866101a5565b34610197576104fb6106a1366004610672565b90610eeb565b34610197576106b7366004610272565b6104fb610f9c565b346101975761026e6102986106d53660046101b4565b610fe2565b34610197576104fb6106ed366004610672565b906114cd565b34610197576104fb6107063660046101b4565b611756565b34610197576104fb61071e366004610633565b90611b82565b6101c86000600e6102b4565b3461019757610740366004610272565b61026e610298610724565b346101975761026e610298610761366004610633565b906120bc565b9061077661032a610320845190565b9060005b8181106107875750505090565b9091926107a661036160019286516001600160a01b0316815260200190565b92910161077a565b80516001600160a01b03168252906101c8906101008061081e61012084016107db60208801516020870152565b6107ea60408801516040870152565b6107f960608801516060870152565b6080878101516001600160a01b03169086015260a087015185820360a0870152610767565b60c0808701511515908501529461023060e082015160e0860152565b60208082526101c8929101906107ae565b346101975761026e61086661086136600461043e565b6121d3565b6040519182918261083a565b34610197576104fb61088536600461043e565b612247565b634e487b7160e01b600052604160045260246000fd5b90601f01601f1916810190811067ffffffffffffffff8211176108c257604052565b61088a565b906101b26108d460405190565b92836108a0565b6101c860c06108c7565b6108ed6108db565b9060008252602080808080808701600081520160005b815201600081520160008152016000905250565b6101c86108e5565b6101c86101c86101c89290565b906109369061091f565b600052602052604060002090565b6101c89081565b6101c89054610944565b6101c8906103d8565b6101c89054610955565b906101b2610a0c60056109796108db565b9461099b61098e82546001600160a01b031690565b6001600160a01b03168752565b6109c26109b260018301546001600160a01b031690565b6001600160a01b03166020880152565b6109d86109d16002830161094b565b6040880152565b6109ee6109e76003830161094b565b6060880152565b610a066109fd6004830161095e565b15156080880152565b0161094b565b60a0840152565b6101c890610968565b610a336101c891610a2b610917565b50600361092c565b610a13565b6101c8600961094b565b90610a5d610a51610320845490565b92600052602060002090565b9060005b818110610a6e5750505090565b909192610aa3610a9c600192610a8b87546001600160a01b031690565b6001600160a01b0316815260200190565b9460010190565b929101610a61565b906101c891610a42565b906101b2610acf92610ac660405190565b93848092610aab565b03836108a0565b6101c890610ab5565b6101c86007610ad6565b6101c8906101cb906001600160a01b031682565b6101c890610ae9565b6101c890610afd565b9061093690610b06565b90610b28610a51610320845490565b9060005b818110610b395750505090565b909192610b56610a9c600192610b4e8761094b565b815260200190565b929101610b2c565b906101c891610b19565b906101b2610acf92610b7960405190565b93848092610b5e565b6101c890610b68565b610ba26101c891610b9a606090565b506004610b0f565b610b82565b6101c8600a61094b565b610bb9612250565b6101b2610bd7565b6101cb6101c86101c89290565b6101c890610bc1565b6101b2610be46000610bce565b612291565b6101b2610bb1565b67ffffffffffffffff81116108c25760208091020190565b90610c1b610c1683610bf1565b6108c7565b918252565b906101b2610c966005610c316108db565b94610c4661098e82546001600160a01b031690565b610c5c610c556001830161094b565b6020880152565b610c6b6109d16002830161094b565b610c7a6109e76003830161094b565b610c90610c896004830161094b565b6080880152565b0161095e565b151560a0840152565b6101c890610c20565b90610cb1825490565b610cba81610c09565b92610cce6020850191600052602060002090565b6000915b838310610cdf5750505050565b60066020600192610cef85610c9f565b815201920192019190610cd2565b6101c890610ca8565b610d1d6101c891610d15606090565b50600561092c565b610cfd565b6101b290610d2e612250565b610e06565b15610d3a57565b60405162461bcd60e51b8152602060048201526015602482015274566f74696e6720616c72656164792061637469766560581b604482015280606481015b0390fd5b9060ff905b9181191691161790565b90610d9b6101c8610da292151590565b8254610d7c565b9055565b9060001990610d81565b90610dc06101c8610da29261091f565b8254610da6565b634e487b7160e01b600052601160045260246000fd5b91908201809211610dea57565b610dc7565b9081526040810192916101b29160200152565b0152565b610e43610e4a91610e26610e21610e1d600b61095e565b1590565b610d33565b610e326001600b610d8b565b610e3d42600c610db0565b42610ddd565b600d610db0565b7fe280a408633821740a429fb671e01cacf8d1d70d5c2735f4f94ec0edef4ea6de610e75600c61094b565b610e7f600d61094b565b90610e95610e8c60405190565b92839283610def565b0390a1565b6101b290610d22565b6101c891610ebe610ec392610eb6600090565b506006610b0f565b61092c565b61095e565b906101b291610ed5612250565b90610ee46101b292600e610db0565b600f610db0565b906101b291610ec8565b610efd612250565b6101b2610f45565b15610f0c57565b60405162461bcd60e51b8152602060048201526011602482015270566f74696e67206e6f742061637469766560781b6044820152606490fd5b610f57610f52600b61095e565b610f05565b610f636000600b610d8b565b610f6e42600d610db0565b7f9956bd7b1ae344fbb54dbd02a85e2283bec6bf75f7fccbaa9c2392a715e71e49610e95610298600d61094b565b6101b2610ef5565b634e487b7160e01b600052603260045260246000fd5b8054821015610fdd57610fd4600691600052602060002090565b91020190600090565b610fa4565b610fec600061091f565b90815b60056110056101c8611001858461092c565b5490565b8410156110455761103f91611032600261102b87611026886110389761092c565b610fba565b500161094b565b90610ddd565b9260010190565b91610fef565b5091505090565b1561105357565b60405162461bcd60e51b8152602060048201526014602482015273159bdd195c881b9bdd081c9959da5cdd195c995960621b6044820152606490fd5b906101b2916110ac6110a76006610c90336002610b0f565b61104c565b6110f5565b156110b857565b60405162461bcd60e51b815260206004820152601560248201527413dd5d1cda5919481d9bdd1a5b99c81c195c9a5bd9605a1b6044820152606490fd5b906101b291611107610f52600b61095e565b6111146101c8600c61094b565b4210158061112b575b611126906110b1565b611376565b5061112661113c6101c8600d61094b565b421115905061111d565b1561114d57565b60405162461bcd60e51b815280610d78600482016020808252818101527f416c726561647920766f74656420666f7220746869732063616e646964617465604082015260600190565b1561119d57565b60405162461bcd60e51b815260206004820152601c60248201527f506f776572206d7573742062652067726561746572207468616e2030000000006044820152606490fd5b156111e957565b60405162461bcd60e51b815260206004820152601960248201527f496e73756666696369656e7420766f74696e6720706f776572000000000000006044820152606490fd5b634e487b7160e01b600052600060045260246000fd5b906001600160a01b0390610d81565b906112636101c8610da292610b06565b8254611244565b90610dc06101c8610da29290565b600561130360a06101b2946112a061129a60008301516001600160a01b031690565b86611253565b6112b76112ae602083015190565b60018701610db0565b6112ce6112c5604083015190565b60028701610db0565b6112e56112dc606083015190565b60038701610db0565b6112fc6112f3608083015190565b6004870161126a565b0151151590565b9101610d8b565b9190611319576101b291611278565b61122e565b90815491600160401b8310156108c257826113419160016101b295018155610fba565b9061130a565b610e026101b29461136d606094989795611366608086019a6000870152565b6020850152565b15156040830152565b907fe89c99a0264d21c2ad18316d6e7b3aa31414c12f31b085afdeeacaa7e69f80b6906113b66113b1610e1d610ec386610ebe336006610b0f565b611146565b6113cb6113c3600061091f565b825b11611196565b6114a660a060026113ef6113e76101c86003610a063386610b0f565b8511156111e2565b6112fc61149c6114096114018961091f565b42903361231d565b9261146561141b82610a063382610b0f565b61142c611428600061091f565b9190565b1161145d6114386108db565b338152966114478d60208a0152565b6114528b60408a0152565b610c894260608a0152565b151585870152565b61147c846114776101c88c600561092c565b61131e565b61149560016114908b610ebe336006610b0f565b610d8b565b3390610b0f565b6007429101610db0565b906114c86114b333610b06565b946114bd60405190565b938493429285611347565b0390a2565b906101b29161108f565b6114e8906114e3612368565b61158e565b6101b26123a8565b156114f757565b60405162461bcd60e51b815260206004820152601560248201527444656c65676174696f6e206e6f742061637469766560581b6044820152606490fd5b1561153b57565b60405162461bcd60e51b81526020600482015260116024820152702737ba103a3432903232b632b3b0ba37b960791b6044820152606490fd5b91908203918211610dea57565b8015610dea576000190190565b61170661159f6101c883600361092c565b6115e76000600483016115b96115b48261095e565b6114f0565b6114906115cf838601546001600160a01b031690565b6115e1335b916001600160a01b031690565b14611534565b6116a560086116936115f96000610bce565b611611600291600461160b3385610b0f565b01611253565b611682600161165183880161164c6116288261094b565b61164685611636338a610b0f565b01916116418361094b565b610ddd565b90610db0565b61094b565b9601956116468361167261166c8a546001600160a01b031690565b82610b0f565b019161167d8361094b565b611574565b84546001600160a01b031690610b0f565b016116466116a08261094b565b611581565b6116c06116b982546001600160a01b031690565b339061240f565b6116c9336124b1565b6116e26116dd82546001600160a01b031690565b6124b1565b6116f96116f26116a0600a61094b565b600a610db0565b546001600160a01b031690565b7f657937cad9c3ce43c8ece19052e5f60b2db7d536fdb47405c20ecf1c3df56b7d61175161173c61173633610b06565b93610b06565b9361174660405190565b918291429083610def565b0390a3565b6101b2906114d7565b906101b29161176c612250565b611a51565b1561177857565b60405162461bcd60e51b815260206004820152601860248201527f566f74657220616c7265616479207265676973746572656400000000000000006044820152606490fd5b369037565b906101b26117d86117d284610c09565b93610bf1565b601f1901602084016117bd565b6101c86101206108c7565b9160001960089290920291821b911b610d81565b91906118156101c8610da29361091f565b9083546117f0565b6101b291600091611804565b818110611834575050565b80611842600060019361181d565b01611829565b91909182821061185757505050565b6101b2929161186c9091600052602060002090565b9182019101611829565b90600160401b81116108c2578161188e6101b2935490565b90828155611848565b6101c8916008021c6101cb565b916001600160a01b0360089290920291821b911b610d81565b81519167ffffffffffffffff83116108c2576118e8610a516001926118e28686611876565b60200190565b92049160005b8381106118fb5750505050565b60019060206119146101c886516001600160a01b031690565b94019381840155016118ee565b906101b2916118bd565b60086119e46101006101b29461194e61129a60008301516001600160a01b031690565b61195c6112ae602083015190565b61196a6112c5604083015190565b6119786112dc606083015190565b61199861198f60808301516001600160a01b031690565b60048701611253565b6119af6119a660a083015190565b60058701611921565b6119c86119bf60c0830151151590565b60068701610d8b565b6119df6119d660e083015190565b60078701610db0565b015190565b9101610db0565b906101b29161192b565b8054821015610fdd57610fd4600191600052602060002090565b9190611a206101c8610da293610b06565b9083546118a4565b90815491600160401b8310156108c25782611a4b9160016101b2950181556119f5565b90611a0f565b6114c8611b787f49a90692135172b11ff45007ef12b97c37df00bc650e48846f88da97b191b2d092611a94611a8f610e1d6006610c90856002610b0f565b611771565b611b506000611aab611aa58261091f565b886113c5565b611b40611ab782610bce565b611b26611ac38461091f565b91611b1f611ad0846117c2565b91611aee89611add6117e5565b988901906001600160a01b03169052565b611af98d6020890152565b611b04856040890152565b611b0f8d6060890152565b6001600160a01b03166080870152565b60a0850152565b600160c0840152611b388160e0850152565b610100830152565b611b4b836002610b0f565b6119eb565b611b5b816007611a28565b611b73611b6c86611641600961094b565b6009610db0565b610b06565b9261174660405190565b906101b29161175f565b906101c89291611ba56110a76006610c90336002610b0f565b611cd1565b15611bb157565b60405162461bcd60e51b815260206004820152601760248201527f43616e6e6f742064656c656761746520746f2073656c660000000000000000006044820152606490fd5b15611bfd57565b60405162461bcd60e51b815260206004820152601860248201527f44656c656761746f72206e6f74207265676973746572656400000000000000006044820152606490fd5b15611c4957565b60405162461bcd60e51b815260206004820152601760248201527f44656c6567617465206e6f7420726567697374657265640000000000000000006044820152606490fd5b15611c9557565b60405162461bcd60e51b8152602060048201526014602482015273416c7265616479206861732064656c656761746560601b6044820152606490fd5b6101c8929190611cec6001600160a01b038316331415611baa565b611d4b611d356004611d276002611d10611d0b6006610c903385610b0f565b611bf6565b611495611d226006610c908a85610b0f565b611c42565b01546001600160a01b031690565b611d456115d46101cb6000610bce565b14611c8e565b611ef5565b15611d5757565b60405162461bcd60e51b8152602060048201526013602482015272506f7765722062656c6f77206d696e696d756d60681b6044820152606490fd5b15611d9957565b60405162461bcd60e51b815260206004820152601260248201527124b739bab33334b1b4b2b73a103837bbb2b960711b6044820152606490fd5b15611dda57565b60405162461bcd60e51b815260206004820152601c60248201527f43697263756c61722064656c65676174696f6e206465746563746564000000006044820152606490fd5b6000198114610dea5760010190565b60056119e460a06101b294611e5061129a60008301516001600160a01b031690565b611e70611e6760208301516001600160a01b031690565b60018701611253565b611e7e6112c5604083015190565b611e8c6112dc606083015190565b6119df611e9c6080830151151590565b60048701610d8b565b906101b291611e2e565b90815491600160401b8310156108c25782611ed29160016101b2950181556119f5565b90611804565b9081526060810193926101b2929091604091610e02906020830152565b5090611f0f611f076101c8600f61094b565b821015611d50565b600291611f2f611f276101c86001610a063388610b0f565b831115611d92565b611f44611f3f610e1d8333612521565b611dd3565b61204e600861203c83611f568361094b565b96611f69611f6389611e1f565b85610db0565b611fbe611f746108db565b3381526001600160a01b0384166020820152611f91896040830152565b611f9c426060830152565b60016080820152611fae8a60a0830152565b611fb98a600361092c565b611ea5565b611fd588611fd06101c8336004610b0f565b611eaf565b611fe582600461160b3385610b0f565b6120026001611ff43384610b0f565b016116468961167d8361094b565b61201e816120108482610b0f565b01611646896116418361094b565b612037612030600561030d8585610b0f565b3390611a28565b610b0f565b016116466120498261094b565b611e1f565b612057336124b1565b612060816124b1565b6120706116f2612049600a61094b565b7ffe35c70e4980d7df0afccc73bb14c09d90b04287cd40b249a714d4033c2851856120b66120a061173633610b06565b936120aa60405190565b91829187429184611ed8565b0390a390565b6101c891906000611b8c565b6120d06117e5565b9060008252602080808080808080808a0160008152016000815201600081520160008152016060610903565b6101c86120c8565b906101b26121c260086121156117e5565b9461212a61098e82546001600160a01b031690565b612139610c556001830161094b565b6121486109d16002830161094b565b6121576109e76003830161094b565b61217e61216e60048301546001600160a01b031690565b6001600160a01b03166080880152565b61219461218d60058301610ab5565b60a0880152565b6121ac6121a36006830161095e565b151560c0880152565b610a066121bb6007830161094b565b60e0880152565b610100840152565b6101c890612104565b6121ea6101c8916121e26120fc565b506002610b0f565b6121ca565b6101b2906121fb612250565b600061220681610bce565b6001600160a01b0381166001600160a01b0384161461222a5750506101b290612291565b631e4fbdf760e01b82526001600160a01b03166004820152602490fd5b6101b2906121ef565b6000546001600160a01b03163390612267826115d4565b0361226f5750565b63118cdaa760e01b60009081526001600160a01b039091166004526024036000fd5b6122ba6122b46122a96000546001600160a01b031690565b611b73846000611253565b91610b06565b907f8be0079c531659141344cd1fd0a4f28419497f9722a3daafe3b4186f6b6457e06122e560405190565b8080611751565b6101d7906001600160a01b031660601b90565b60209392612317601483612317889561030d976122ec565b01918252565b612348919061233c61232e60405190565b9485936020850193846122ff565b908103825203826108a0565b61235a612353825190565b9160200190565b2090565b6101c8600261091f565b612372600161094b565b61237a61235e565b90811461238c576101b2906001610db0565b633ee5aeb560e01b6000908152600490fd5b6101c8600161091f565b6101b26123b361239e565b6001610db0565b906101c89154611897565b634e487b7160e01b600052603160045260246000fd5b6101b291600091611a0f565b8054801561240a57600019019061240761240183836119f5565b906123db565b55565b6123c5565b600561030d61241f926002610b0f565b612429600061091f565b6124346101c8835490565b8110156124ac5761244e61244882846119f5565b906123ba565b6124606001600160a01b0385166115d4565b1461246d57600101612429565b6101b292506124a790611a4b6124a061244861249a61248a875490565b612494600161091f565b90611574565b866119f5565b91846119f5565b6123e7565b505050565b7f255d9fd63837b26ddecf40374f32676fd529f58accd2f1673335f6e04d0fe1366114c86125176117366003610a068660026120376125066124f86001610a068686610b0f565b61103284610a068782610b0f565b856125118585610b0f565b01610db0565b9261029c60405190565b906001600160a01b0381166001600160a01b038316146125d757906000612548600061091f565b925b60029061255c6004611d278385610b0f565b61256b6115d46101cb86610bce565b1415806125c2575b156125b857611d2760049161258793610b0f565b928361259b6001600160a01b0385166115d4565b146125af576125a990611e1f565b9261254a565b50505050600190565b5050505050600090565b506125d06101c8600e61094b565b8510612573565b505060019056fea2646970667358221220e221caea8b2d5d86d67bd331fa077e08b9dd63055fb96b972fedd8fdafda8b2564736f6c634300081c0033",
  "linkReferences": {},
  "deployedLinkReferences": {}
}