{
  "_format": "hh-sol-artifact-1",
  "contractName": "BlocPolAdvanced",
  "sourceName": "contracts/BlocPolAdvanced.sol",
  "abi": [
    {
      "inputs": [
        {
          "internalType": "address",
          "name": "_zkProofVerifier",
          "type": "address"
        },
        {
          "internalType": "address",
          "name": "_liquidDemocracy",
          "type": "address"
        },
        {
          "internalType": "address",
          "name": "_voteMixing",
          "type": "address"
        },
        {
          "internalType": "uint256",
          "name": "_minVotingPower",
          "type": "uint256"
        },
        {
          "internalType": "uint256",
          "name": "_maxVotingPower",
          "type": "uint256"
        },
        {
          "internalType": "uint256",
          "name": "_commitmentPeriod",
          "type": "uint256"
        },
        {
          "internalType": "uint256",
          "name": "_revealPeriod",
          "type": "uint256"
        }
      ],
      "stateMutability": "nonpayable",
      "type": "constructor"
    },
    {
      "inputs": [],
      "name": "EnforcedPause",
      "type": "error"
    },
    {
      "inputs": [],
      "name": "ExpectedPause",
      "type": "error"
    },
    {
      "inputs": [
        {
          "internalType": "address",
          "name": "owner",
          "type": "address"
        }
      ],
      "name": "OwnableInvalidOwner",
      "type": "error"
    },
    {
      "inputs": [
        {
          "internalType": "address",
          "name": "account",
          "type": "address"
        }
      ],
      "name": "OwnableUnauthorizedAccount",
      "type": "error"
    },
    {
      "inputs": [],
      "name": "ReentrancyGuardReentrantCall",
      "type": "error"
    },
    {
      "anonymous": false,
      "inputs": [
        {
          "indexed": true,
          "internalType": "bytes32",
          "name": "actionHash",
          "type": "bytes32"
        },
        {
          "indexed": true,
          "internalType": "address",
          "name": "actor",
          "type": "address"
        },
        {
          "indexed": false,
          "internalType": "string",
          "name": "action",
          "type": "string"
        },
        {
          "indexed": false,
          "internalType": "uint256",
          "name": "timestamp",
          "type": "uint256"
        }
      ],
      "name": "AuditLogCreated",
      "type": "event"
    },
    {
      "anonymous": false,
      "inputs": [
        {
          "indexed": true,
          "internalType": "uint256",
          "name": "candidateId",
          "type": "uint256"
        },
        {
          "indexed": false,
          "internalType": "string",
          "name": "name",
          "type": "string"
        },
        {
          "indexed": false,
          "internalType": "string",
          "name": "ipfsHash",
          "type": "string"
        },
        {
          "indexed": false,
          "internalType": "uint256",
          "name": "timestamp",
          "type": "uint256"
        }
      ],
      "name": "CandidateRegistered",
      "type": "event"
    },
    {
      "anonymous": false,
      "inputs": [
        {
          "indexed": true,
          "internalType": "address",
          "name": "from",
          "type": "address"
        },
        {
          "indexed": true,
          "internalType": "address",
          "name": "to",
          "type": "address"
        },
        {
          "indexed": false,
          "internalType": "uint256",
          "name": "power",
          "type": "uint256"
        },
        {
          "indexed": false,
          "internalType": "uint256",
          "name": "timestamp",
          "type": "uint256"
        }
      ],
      "name": "DelegationCreated",
      "type": "event"
    },
    {
      "anonymous": false,
      "inputs": [
        {
          "indexed": true,
          "internalType": "address",
          "name": "previousOwner",
          "type": "address"
        },
        {
          "indexed": true,
          "internalType": "address",
          "name": "newOwner",
          "type": "address"
        }
      ],
      "name": "OwnershipTransferred",
      "type": "event"
    },
    {
      "anonymous": false,
      "inputs": [
        {
          "indexed": false,
          "internalType": "address",
          "name": "account",
          "type": "address"
        }
      ],
      "name": "Paused",
      "type": "event"
    },
    {
      "anonymous": false,
      "inputs": [
        {
          "indexed": false,
          "internalType": "address",
          "name": "account",
          "type": "address"
        }
      ],
      "name": "Unpaused",
      "type": "event"
    },
    {
      "anonymous": false,
      "inputs": [
        {
          "indexed": true,
          "internalType": "address",
          "name": "voter",
          "type": "address"
        },
        {
          "indexed": true,
          "internalType": "uint256",
          "name": "candidateId",
          "type": "uint256"
        },
        {
          "indexed": false,
          "internalType": "enum BlocPolAdvanced.VoteType",
          "name": "voteType",
          "type": "uint8"
        },
        {
          "indexed": false,
          "internalType": "uint256",
          "name": "timestamp",
          "type": "uint256"
        }
      ],
      "name": "VoteCast",
      "type": "event"
    },
    {
      "anonymous": false,
      "inputs": [
        {
          "indexed": true,
          "internalType": "bytes32",
          "name": "originalVote",
          "type": "bytes32"
        },
        {
          "indexed": true,
          "internalType": "bytes32",
          "name": "mixedVote",
          "type": "bytes32"
        },
        {
          "indexed": false,
          "internalType": "uint256",
          "name": "timestamp",
          "type": "uint256"
        }
      ],
      "name": "VoteMixed",
      "type": "event"
    },
    {
      "anonymous": false,
      "inputs": [
        {
          "indexed": true,
          "internalType": "address",
          "name": "voter",
          "type": "address"
        },
        {
          "indexed": true,
          "internalType": "uint256",
          "name": "candidateId",
          "type": "uint256"
        },
        {
          "indexed": false,
          "internalType": "uint256",
          "name": "timestamp",
          "type": "uint256"
        }
      ],
      "name": "VoteRevealed",
      "type": "event"
    },
    {
      "anonymous": false,
      "inputs": [
        {
          "indexed": true,
          "internalType": "uint256",
          "name": "sessionId",
          "type": "uint256"
        },
        {
          "indexed": false,
          "internalType": "enum BlocPolAdvanced.VotingMode",
          "name": "mode",
          "type": "uint8"
        },
        {
          "indexed": false,
          "internalType": "uint256",
          "name": "startTime",
          "type": "uint256"
        },
        {
          "indexed": false,
          "internalType": "uint256",
          "name": "endTime",
          "type": "uint256"
        }
      ],
      "name": "VotingSessionCreated",
      "type": "event"
    },
    {
      "anonymous": false,
      "inputs": [
        {
          "indexed": true,
          "internalType": "uint256",
          "name": "sessionId",
          "type": "uint256"
        },
        {
          "indexed": false,
          "internalType": "uint256",
          "name": "totalVotes",
          "type": "uint256"
        },
        {
          "indexed": false,
          "internalType": "uint256",
          "name": "timestamp",
          "type": "uint256"
        }
      ],
      "name": "VotingSessionEnded",
      "type": "event"
    },
    {
      "anonymous": false,
      "inputs": [
        {
          "indexed": true,
          "internalType": "bytes32",
          "name": "proofHash",
          "type": "bytes32"
        },
        {
          "indexed": false,
          "internalType": "bool",
          "name": "isValid",
          "type": "bool"
        },
        {
          "indexed": false,
          "internalType": "uint256",
          "name": "timestamp",
          "type": "uint256"
        }
      ],
      "name": "ZKProofVerified",
      "type": "event"
    },
    {
      "inputs": [
        {
          "internalType": "uint256",
          "name": "sessionId",
          "type": "uint256"
        },
        {
          "internalType": "uint256",
          "name": "candidateId",
          "type": "uint256"
        },
        {
          "internalType": "uint256",
          "name": "votingPower",
          "type": "uint256"
        }
      ],
      "name": "castDelegatedVote",
      "outputs": [
        {
          "internalType": "uint256",
          "name": "voteId",
          "type": "uint256"
        }
      ],
      "stateMutability": "nonpayable",
      "type": "function"
    },
    {
      "inputs": [
        {
          "internalType": "uint256",
          "name": "sessionId",
          "type": "uint256"
        },
        {
          "internalType": "uint256",
          "name": "candidateId",
          "type": "uint256"
        },
        {
          "internalType": "bytes32",
          "name": "commitmentHash",
          "type": "bytes32"
        },
        {
          "internalType": "uint256",
          "name": "votingPower",
          "type": "uint256"
        }
      ],
      "name": "castVote",
      "outputs": [
        {
          "internalType": "uint256",
          "name": "voteId",
          "type": "uint256"
        }
      ],
      "stateMutability": "nonpayable",
      "type": "function"
    },
    {
      "inputs": [
        {
          "internalType": "uint256",
          "name": "sessionId",
          "type": "uint256"
        },
        {
          "internalType": "uint256",
          "name": "candidateId",
          "type": "uint256"
        },
        {
          "internalType": "bytes32",
          "name": "zkProofHash",
          "type": "bytes32"
        },
        {
          "internalType": "uint256",
          "name": "votingPower",
          "type": "uint256"
        }
      ],
      "name": "castZKVote",
      "outputs": [
        {
          "internalType": "uint256",
          "name": "voteId",
          "type": "uint256"
        }
      ],
      "stateMutability": "nonpayable",
      "type": "function"
    },
    {
      "inputs": [],
      "name": "commitmentPeriod",
      "outputs": [
        {
          "internalType": "uint256",
          "name": "",
          "type": "uint256"
        }
      ],
      "stateMutability": "view",
      "type": "function"
    },
    {
      "inputs": [
        {
          "internalType": "uint256",
          "name": "durationSeconds",
          "type": "uint256"
        },
        {
          "internalType": "enum BlocPolAdvanced.VotingMode",
          "name": "mode",
          "type": "uint8"
        }
      ],
      "name": "createVotingSession",
      "outputs": [
        {
          "internalType": "uint256",
          "name": "sessionId",
          "type": "uint256"
        }
      ],
      "stateMutability": "nonpayable",
      "type": "function"
    },
    {
      "inputs": [
        {
          "internalType": "uint256",
          "name": "sessionId",
          "type": "uint256"
        }
      ],
      "name": "endVotingSession",
      "outputs": [],
      "stateMutability": "nonpayable",
      "type": "function"
    },
    {
      "inputs": [],
      "name": "getAllCandidates",
      "outputs": [
        {
          "components": [
            {
              "internalType": "uint256",
              "name": "id",
              "type": "uint256"
            },
            {
              "internalType": "string",
              "name": "name",
              "type": "string"
            },
            {
              "internalType": "string",
              "name": "ipfsHash",
              "type": "string"
            },
            {
              "internalType": "uint256",
              "name": "voteCount",
              "type": "uint256"
            },
            {
              "internalType": "uint256",
              "name": "delegatedVoteCount",
              "type": "uint256"
            },
            {
              "internalType": "bool",
              "name": "isActive",
              "type": "bool"
            },
            {
              "internalType": "uint256",
              "name": "registrationTime",
              "type": "uint256"
            }
          ],
          "internalType": "struct BlocPolAdvanced.Candidate[]",
          "name": "",
          "type": "tuple[]"
        }
      ],
      "stateMutability": "view",
      "type": "function"
    },
    {
      "inputs": [
        {
          "internalType": "bytes32",
          "name": "actionHash",
          "type": "bytes32"
        }
      ],
      "name": "getAuditTrail",
      "outputs": [
        {
          "components": [
            {
              "internalType": "bytes32",
              "name": "actionHash",
              "type": "bytes32"
            },
            {
              "internalType": "address",
              "name": "actor",
              "type": "address"
            },
            {
              "internalType": "string",
              "name": "action",
              "type": "string"
            },
            {
              "internalType": "uint256",
              "name": "timestamp",
              "type": "uint256"
            },
            {
              "internalType": "bytes32[]",
              "name": "proof",
              "type": "bytes32[]"
            }
          ],
          "internalType": "struct BlocPolAdvanced.AuditTrail",
          "name": "",
          "type": "tuple"
        }
      ],
      "stateMutability": "view",
      "type": "function"
    },
    {
      "inputs": [
        {
          "internalType": "uint256",
          "name": "candidateId",
          "type": "uint256"
        }
      ],
      "name": "getCandidate",
      "outputs": [
        {
          "components": [
            {
              "internalType": "uint256",
              "name": "id",
              "type": "uint256"
            },
            {
              "internalType": "string",
              "name": "name",
              "type": "string"
            },
            {
              "internalType": "string",
              "name": "ipfsHash",
              "type": "string"
            },
            {
              "internalType": "uint256",
              "name": "voteCount",
              "type": "uint256"
            },
            {
              "internalType": "uint256",
              "name": "delegatedVoteCount",
              "type": "uint256"
            },
            {
              "internalType": "bool",
              "name": "isActive",
              "type": "bool"
            },
            {
              "internalType": "uint256",
              "name": "registrationTime",
              "type": "uint256"
            }
          ],
          "internalType": "struct BlocPolAdvanced.Candidate",
          "name": "",
          "type": "tuple"
        }
      ],
      "stateMutability": "view",
      "type": "function"
    },
    {
      "inputs": [
        {
          "internalType": "uint256",
          "name": "candidateId",
          "type": "uint256"
        }
      ],
      "name": "getCandidateTotalVotes",
      "outputs": [
        {
          "internalType": "uint256",
          "name": "",
          "type": "uint256"
        }
      ],
      "stateMutability": "view",
      "type": "function"
    },
    {
      "inputs": [
        {
          "internalType": "uint256",
          "name": "sessionId",
          "type": "uint256"
        }
      ],
      "name": "getSessionTotals",
      "outputs": [
        {
          "internalType": "uint256",
          "name": "totalVotes",
          "type": "uint256"
        },
        {
          "internalType": "uint256",
          "name": "totalVotingPower",
          "type": "uint256"
        }
      ],
      "stateMutability": "view",
      "type": "function"
    },
    {
      "inputs": [
        {
          "internalType": "uint256",
          "name": "voteId",
          "type": "uint256"
        }
      ],
      "name": "getVote",
      "outputs": [
        {
          "components": [
            {
              "internalType": "address",
              "name": "voter",
              "type": "address"
            },
            {
              "internalType": "uint256",
              "name": "candidateId",
              "type": "uint256"
            },
            {
              "internalType": "uint256[]",
              "name": "rankedChoices",
              "type": "uint256[]"
            },
            {
              "internalType": "bytes32",
              "name": "commitmentHash",
              "type": "bytes32"
            },
            {
              "internalType": "bytes32",
              "name": "zkProofHash",
              "type": "bytes32"
            },
            {
              "internalType": "bytes32",
              "name": "mixedVoteHash",
              "type": "bytes32"
            },
            {
              "internalType": "uint256",
              "name": "votingPower",
              "type": "uint256"
            },
            {
              "internalType": "uint256",
              "name": "timestamp",
              "type": "uint256"
            },
            {
              "internalType": "bool",
              "name": "isRevealed",
              "type": "bool"
            },
            {
              "internalType": "enum BlocPolAdvanced.VoteType",
              "name": "voteType",
              "type": "uint8"
            }
          ],
          "internalType": "struct BlocPolAdvanced.AdvancedVote",
          "name": "",
          "type": "tuple"
        }
      ],
      "stateMutability": "view",
      "type": "function"
    },
    {
      "inputs": [
        {
          "internalType": "address",
          "name": "voter",
          "type": "address"
        }
      ],
      "name": "getVoterVotes",
      "outputs": [
        {
          "internalType": "uint256[]",
          "name": "",
          "type": "uint256[]"
        }
      ],
      "stateMutability": "view",
      "type": "function"
    },
    {
      "inputs": [
        {
          "internalType": "uint256",
          "name": "sessionId",
          "type": "uint256"
        }
      ],
      "name": "getVotingSession",
      "outputs": [
        {
          "components": [
            {
              "internalType": "uint256",
              "name": "sessionId",
              "type": "uint256"
            },
            {
              "internalType": "uint256",
              "name": "startTime",
              "type": "uint256"
            },
            {
              "internalType": "uint256",
              "name": "endTime",
              "type": "uint256"
            },
            {
              "internalType": "uint256",
              "name": "revealTime",
              "type": "uint256"
            },
            {
              "internalType": "bool",
              "name": "isActive",
              "type": "bool"
            },
            {
              "internalType": "bool",
              "name": "isRevealed",
              "type": "bool"
            },
            {
              "internalType": "uint256",
              "name": "totalVotes",
              "type": "uint256"
            },
            {
              "internalType": "uint256",
              "name": "totalVotingPower",
              "type": "uint256"
            },
            {
              "internalType": "enum BlocPolAdvanced.VotingMode",
              "name": "mode",
              "type": "uint8"
            },
            {
              "internalType": "bytes32",
              "name": "merkleRoot",
              "type": "bytes32"
            }
          ],
          "internalType": "struct BlocPolAdvanced.VotingSession",
          "name": "",
          "type": "tuple"
        }
      ],
      "stateMutability": "view",
      "type": "function"
    },
    {
      "inputs": [
        {
          "internalType": "address",
          "name": "voter",
          "type": "address"
        },
        {
          "internalType": "uint256",
          "name": "sessionId",
          "type": "uint256"
        }
      ],
      "name": "hasVoterVoted",
      "outputs": [
        {
          "internalType": "bool",
          "name": "",
          "type": "bool"
        }
      ],
      "stateMutability": "view",
      "type": "function"
    },
    {
      "inputs": [],
      "name": "liquidDemocracy",
      "outputs": [
        {
          "internalType": "contract LiquidDemocracy",
          "name": "",
          "type": "address"
        }
      ],
      "stateMutability": "view",
      "type": "function"
    },
    {
      "inputs": [],
      "name": "liquidDemocracyEnabled",
      "outputs": [
        {
          "internalType": "bool",
          "name": "",
          "type": "bool"
        }
      ],
      "stateMutability": "view",
      "type": "function"
    },
    {
      "inputs": [],
      "name": "maxVotingPower",
      "outputs": [
        {
          "internalType": "uint256",
          "name": "",
          "type": "uint256"
        }
      ],
      "stateMutability": "view",
      "type": "function"
    },
    {
      "inputs": [],
      "name": "minVotingPower",
      "outputs": [
        {
          "internalType": "uint256",
          "name": "",
          "type": "uint256"
        }
      ],
      "stateMutability": "view",
      "type": "function"
    },
    {
      "inputs": [],
      "name": "owner",
      "outputs": [
        {
          "internalType": "address",
          "name": "",
          "type": "address"
        }
      ],
      "stateMutability": "view",
      "type": "function"
    },
    {
      "inputs": [],
      "name": "pause",
      "outputs": [],
      "stateMutability": "nonpayable",
      "type": "function"
    },
    {
      "inputs": [],
      "name": "paused",
      "outputs": [
        {
          "internalType": "bool",
          "name": "",
          "type": "bool"
        }
      ],
      "stateMutability": "view",
      "type": "function"
    },
    {
      "inputs": [
        {
          "internalType": "string",
          "name": "name",
          "type": "string"
        },
        {
          "internalType": "string",
          "name": "ipfsHash",
          "type": "string"
        }
      ],
      "name": "registerCandidate",
      "outputs": [
        {
          "internalType": "uint256",
          "name": "candidateId",
          "type": "uint256"
        }
      ],
      "stateMutability": "nonpayable",
      "type": "function"
    },
    {
      "inputs": [],
      "name": "renounceOwnership",
      "outputs": [],
      "stateMutability": "nonpayable",
      "type": "function"
    },
    {
      "inputs": [],
      "name": "revealPeriod",
      "outputs": [
        {
          "internalType": "uint256",
          "name": "",
          "type": "uint256"
        }
      ],
      "stateMutability": "view",
      "type": "function"
    },
    {
      "inputs": [
        {
          "internalType": "uint256",
          "name": "voteId",
          "type": "uint256"
        },
        {
          "internalType": "bytes32",
          "name": "originalVote",
          "type": "bytes32"
        },
        {
          "internalType": "bytes32",
          "name": "randomness",
          "type": "bytes32"
        }
      ],
      "name": "revealVote",
      "outputs": [],
      "stateMutability": "nonpayable",
      "type": "function"
    },
    {
      "inputs": [
        {
          "internalType": "bool",
          "name": "_zkProofsEnabled",
          "type": "bool"
        },
        {
          "internalType": "bool",
          "name": "_liquidDemocracyEnabled",
          "type": "bool"
        },
        {
          "internalType": "bool",
          "name": "_voteMixingEnabled",
          "type": "bool"
        }
      ],
      "name": "setFeatures",
      "outputs": [],
      "stateMutability": "nonpayable",
      "type": "function"
    },
    {
      "inputs": [
        {
          "internalType": "address",
          "name": "newOwner",
          "type": "address"
        }
      ],
      "name": "transferOwnership",
      "outputs": [],
      "stateMutability": "nonpayable",
      "type": "function"
    },
    {
      "inputs": [],
      "name": "unpause",
      "outputs": [],
      "stateMutability": "nonpayable",
      "type": "function"
    },
    {
      "inputs": [
        {
          "internalType": "uint256",
          "name": "_minVotingPower",
          "type": "uint256"
        },
        {
          "internalType": "uint256",
          "name": "_maxVotingPower",
          "type": "uint256"
        },
        {
          "internalType": "uint256",
          "name": "_commitmentPeriod",
          "type": "uint256"
        },
        {
          "internalType": "uint256",
          "name": "_revealPeriod",
          "type": "uint256"
        }
      ],
      "name": "updateVotingParameters",
      "outputs": [],
      "stateMutability": "nonpayable",
      "type": "function"
    },
    {
      "inputs": [],
      "name": "voteMixing",
      "outputs": [
        {
          "internalType": "contract VoteMixing",
          "name": "",
          "type": "address"
        }
      ],
      "stateMutability": "view",
      "type": "function"
    },
    {
      "inputs": [],
      "name": "voteMixingEnabled",
      "outputs": [
        {
          "internalType": "bool",
          "name": "",
          "type": "bool"
        }
      ],
      "stateMutability": "view",
      "type": "function"
    },
    {
      "inputs": [],
      "name": "zkProofVerifier",
      "outputs": [
        {
          "internalType": "contract ZKProofVerifier",
          "name": "",
          "type": "address"
        }
      ],
      "stateMutability": "view",
      "type": "function"
    },
    {
      "inputs": [],
      "name": "zkProofsEnabled",
      "outputs": [
        {
          "internalType": "bool",
          "name": "",
          "type": "bool"
        }
      ],
      "stateMutability": "view",
      "type": "function"
    }
  ],
  "bytecode": "0x6080604052346100315761002061001461012f565b95949094939193610243565b6040516139e361040982396139e390f35b600080fd5b634e487b7160e01b600052604160045260246000fd5b90601f01601f191681019081106001600160401b0382111761006d57604052565b610036565b9061008661007f60405190565b928361004c565b565b6001600160a01b031690565b90565b6001600160a01b0381165b0361003157565b9050519061008682610097565b806100a2565b90505190610086826100b6565b60e081830312610031576100dd82826100a9565b926100eb83602084016100a9565b926100f981604085016100a9565b9261010782606083016100bc565b9261009461011884608085016100bc565b9360c06101288260a087016100bc565b94016100bc565b61014d613dec8038038061014281610072565b9283398101906100c9565b90919293949596565b61009490610088906001600160a01b031682565b61009490610156565b6100949061016a565b906001600160a01b03905b9181191691161790565b906101a16100946101a892610173565b825461017c565b9055565b9060001990610187565b6100946100946100949290565b906101d36100946101a8926101b6565b82546101ac565b9060ff90610187565b906101f36100946101a892151590565b82546101da565b9061ff009060081b610187565b906102176100946101a892151590565b82546101fa565b9062ff00009060101b610187565b9061023c6100946101a892151590565b825461021e565b6102a796959361028b6102846102999561027161027d6102a09a976102716102766102929961027133610300565b610173565b600d610191565b600e610191565b600f610191565b60106101c3565b60116101c3565b60126101c3565b60136101c3565b6102dc6102b460006101b6565b6102bf8160096101c3565b6102ca81600a6101c3565b6102d581600b6101c3565b600c6101c3565b6102e8600160146101e3565b6102f460016014610207565b6100866001601461022c565b61008690610313565b61009460016101b6565b61031c90610357565b610086610327610309565b60016101c3565b6100886100946100949290565b6100949061032e565b6001600160a01b03909116815260200190565b60006103628161033b565b6001600160a01b0381166001600160a01b03841614610386575050610086906103b6565b631e4fbdf760e01b8252819061039f9060048301610344565b0390fd5b61009490610088565b61009490546103a3565b6103d76103d16103c660006103ac565b610271846000610191565b91610173565b907f8be0079c531659141344cd1fd0a4f28419497f9722a3daafe3b4186f6b6457e061040260405190565b600090a356fe6080604052600436101561001257600080fd5b60003560e01c80630dbce4dd146102325780631119501e1461022d5780631943c90b146102285780632966d67a146102235780632beb449e1461021e5780632e6997fe1461021957806333845e521461021457806335b8e8201461020f57806335bb3d301461020a57806336fffde0146102055780633f4ba83a1461020057806342ab9786146101fb5780634650baa1146101f65780635414e58e146101f15780635a55c1f0146101ec5780635c975abb146101e7578063715018a6146101e257806373a8ce8b146101dd5780637c25e889146101d85780637dabdd99146101d35780638456cb59146101ce5780638a3c5f9b146101c95780638da5cb5b146101c45780638ed1fde7146101bf5780639b541f76146101ba5780639ef0fb85146101b5578063abdd80a3146101b0578063b4483aa7146101ab578063bac7c890146101a6578063c7a800af146101a1578063cf0425111461019c578063dd304e3e14610197578063f2fde38b146101925763f96046810361023757610dac565b610d88565b610d6d565b610d3a565b610cbc565b610c94565b610c78565b610c5d565b610c42565b610c1a565b610bcf565b610b7f565b610b54565b610b30565b610b15565b610adb565b610a9d565b6109e1565b6109c6565b61099f565b61085b565b61081a565b6107f2565b6107a0565b610785565b61074b565b610724565b6106f5565b610689565b610516565b610481565b61045a565b610348565b6102c0565b600080fd5b909182601f830112156102375781359167ffffffffffffffff831161023757602001926001830284011161023757565b909160408284031261023757813567ffffffffffffffff8111610237578361029591840161023c565b929093602082013567ffffffffffffffff8111610237576102b6920161023c565b9091565b9052565b565b34610237576102ef6102df6102d636600461026c565b92919091611397565b6040519182918290815260200190565b0390f35b805b0361023757565b905035906102be826102f3565b6080818303126102375761031d82826102fc565b9261034561032e84602085016102fc565b93606061033e82604087016102fc565b94016102fc565b90565b34610237576102ef6102df61035e366004610309565b92919091611b2e565b9060208282031261023757610345916102fc565b634e487b7160e01b600052602160045260246000fd5b6004111561039b57565b61037b565b906102be82610391565b610345906103a0565b6102ba906103aa565b805182526102be91906101209081906103da60208201516020860152565b6103e960408201516040860152565b6103f860608201516060860152565b60808181015115159085015260a08181015115159085015261041f60c082015160c0860152565b61042e60e082015160e0860152565b6104426101008201516101008601906103b3565b0151910152565b610140810192916102be91906103bc565b34610237576102ef610475610470366004610367565b611c95565b60405191829182610449565b34610237576102ef6102df610497366004610309565b92919091611fa4565b600091031261023757565b610345916008021c5b6001600160a01b031690565b9061034591546104ab565b6103456000600d6104c0565b610345906104b4906001600160a01b031682565b610345906104d7565b610345906104eb565b6102ba906104f4565b6020810192916102be91906104fd565b34610237576105263660046104a0565b6102ef6105316104cb565b60405191829182610506565b60005b8381106105505750506000910152565b8181015183820152602001610540565b61058161058a60209361059493610575815190565b80835293849260200190565b9586910161053d565b601f01601f191690565b0190565b80518252906103459060c0806105d26105c060e0850160208801518682036020880152610560565b60408701518582036040870152610560565b946105e260608201516060860152565b6105f160808201516080860152565b60a081810151151590850152610442565b9061034591610598565b90610622610618835190565b8083529160200190565b90816106346020830284019460200190565b926000915b83831061064857505050505090565b9091929394602061066b61066483856001950387528951610602565b9760200190565b9301930191939290610639565b60208082526103459291019061060c565b34610237576106993660046104a0565b6102ef6106a4612167565b60405191829182610678565b8015156102f5565b905035906102be826106b0565b9091606082840312610237576103456106de84846106b8565b9360406106ee82602087016106b8565b94016106b8565b346102375761070e6107083660046106c5565b9161223c565b604051005b602080825261034592910190610598565b34610237576102ef61073f61073a366004610367565b612247565b60405191829182610713565b346102375761070e61075e366004610367565b6124c7565b610345916008021c81565b906103459154610763565b6103456000601061076e565b34610237576107953660046104a0565b6102ef6102df610779565b34610237576107b03660046104a0565b61070e6124e3565b6004111561023757565b905035906102be826107b8565b9190604083820312610237576103459060206107eb82866102fc565b94016107c2565b34610237576102ef6102df6108083660046107cf565b906127c2565b6103456000600f6104c0565b346102375761082a3660046104a0565b6102ef61053161080e565b610345916008021c5b60ff1690565b906103459154610835565b61034560016014610844565b346102375761086b3660046104a0565b6102ef61087661084f565b60405191829182901515815260200190565b6102ba906104b4565b906108b16108aa6108a0845190565b8084529260200190565b9260200190565b9060005b8181106108c25750505090565b9091926108df6108d86001928651815260200190565b9460200190565b9291016108b5565b90610345906101208061092b610140840161090a60008801516000870190610888565b61091960208801516020870152565b60408701518582036040870152610891565b9461093b60608201516060860152565b61094a60808201516080860152565b61095960a082015160a0860152565b61096860c082015160c0860152565b61097760e082015160e0860152565b6101008181015115159085015201519101906103b3565b6020808252610345929101906108e7565b34610237576102ef6109ba6109b5366004610367565b612931565b6040519182918261098e565b34610237576109d63660046104a0565b6102ef61087661294d565b34610237576109f13660046104a0565b61070e61298f565b90610a086108aa6108a0845190565b9060005b818110610a195750505090565b909192610a2f6108d86001928651815260200190565b929101610a0c565b80518252610345916080610a6c60a08301610a5a60208601516020860190610888565b60408501518482036040860152610560565b92610a7c60608201516060850152565b01519060808184039101526109f9565b602080825261034592910190610a37565b34610237576102ef610ab8610ab3366004610367565b612aa5565b60405191829182610a8c565b9081526040810192916102be9160200152565b0152565b3461023757610af3610aee366004610367565b612ac1565b906102ef610b0060405190565b92839283610ac4565b6103456000600e6104c0565b3461023757610b253660046104a0565b6102ef610531610b09565b3461023757610b403660046104a0565b61070e612afa565b6103456000601261076e565b3461023757610b643660046104a0565b6102ef6102df610b48565b6020810192916102be9190610888565b3461023757610b8f3660046104a0565b6102ef610b9a612b02565b60405191829182610b6f565b909160608284031261023757610345610bbf84846102fc565b93604061033e82602087016102fc565b346102375761070e610be2366004610ba6565b91612c38565b6102f5816104b4565b905035906102be82610be8565b91906040838203126102375761034590602061033e8286610bf1565b34610237576102ef610876610c30366004610bfe565b90612d71565b6103456000601161076e565b3461023757610c523660046104a0565b6102ef6102df610c36565b34610237576102ef6102df610c73366004610367565b612d8c565b34610237576102ef6102df610c8e366004610ba6565b91613250565b346102375761070e610ca7366004610309565b92919091613298565b61034560026014610844565b3461023757610ccc3660046104a0565b6102ef610876610cb0565b906020828203126102375761034591610bf1565b90610cfa6108aa6108a0845190565b9060005b818110610d0b5750505090565b909192610d216108d86001928651815260200190565b929101610cfe565b602080825261034592910190610ceb565b34610237576102ef610d55610d50366004610cd7565b6132ad565b60405191829182610d29565b61034560006014610844565b3461023757610d7d3660046104a0565b6102ef610876610d61565b346102375761070e610d9b366004610cd7565b61331b565b6103456000601361076e565b3461023757610dbc3660046104a0565b6102ef6102df610da0565b9061034594939291610dd7613324565b611265565b6103459081565b6103459054610ddc565b634e487b7160e01b600052601160045260246000fd5b6000198114610e125760010190565b610ded565b90600019905b9181191691161790565b6103456103456103459290565b90610e44610345610e4b92610e27565b8254610e17565b9055565b634e487b7160e01b600052604160045260246000fd5b90601f01601f1916810190811067ffffffffffffffff821117610e8757604052565b610e4f565b906102be610e9960405190565b9283610e65565b61034560e0610e8c565b67ffffffffffffffff8111610e8757602090601f01601f19160190565b90826000939282370152565b90929192610ee8610ee382610eaa565b610e8c565b9381855281830111610237576102be916020850190610ec7565b610345913691610ed3565b90610f1790610e27565b600052602052604060002090565b634e487b7160e01b600052602260045260246000fd5b9060016002830492168015610f5b575b6020831014610f5657565b610f25565b91607f1691610f4b565b9160001960089290920291821b911b610e1d565b9190610f8a610345610e4b93610e27565b908354610f65565b6102be91600091610f79565b818110610fa9575050565b80610fb76000600193610f92565b01610f9e565b9190601f8111610fcc57505050565b610fde6102be93600052602060002090565b906020601f840181900483019310611000575b6020601f909101040190610f9e565b9091508190610ff1565b90611013815190565b9067ffffffffffffffff8211610e8757611037826110318554610f3b565b85610fbd565b602090601f831160011461107257610e4b929160009183611067575b5050600019600883021c1916906002021790565b015190503880611053565b601f1983169161108785600052602060002090565b9260005b8181106110c5575091600293918560019694106110ac575b50505002019055565b01516000196008601f8516021c191690553880806110a3565b9193602060018192878701518155019501920161108b565b906102be9161100a565b9060ff90610e1d565b90611100610345610e4b92151590565b82546110e7565b60066111a060c06102be94611126611120600083015190565b86610e34565b61113d611134602083015190565b600187016110dd565b61115461114b604083015190565b600287016110dd565b61116b611162606083015190565b60038701610e34565b611182611179608083015190565b60048701610e34565b61119b61119260a0830151151590565b600587016110f0565b015190565b9101610e34565b906102be91611107565b90916105949083908093610ec7565b01916111b1565b916111b1565b906111da610ee383610eaa565b918252565b6111e960146111cd565b7310d05391125110551157d49151d254d51154915160621b602082015290565b6103456111df565b919061058a81611228816105949560209181520190565b8095610ec7565b9594926102be946112526112609360409560608b01918b830360008d0152611211565b9188830360208a0152611211565b940152565b5092917fd97eaf93ad8386d19c4444905f34d814effa6ed87627bbbaa1e75e797f5b65d5916113916112976009610de3565b956112ab6112a488610e03565b6009610e34565b6113276112b6610ea0565b6112be898252565b6112d26112cb8685610f02565b6020830152565b6112e66112df8988610f02565b6040830152565b6113056112f36000610e27565b6112fe816060850152565b6080830152565b600160a08201526113174260c0830152565b611322896003610f0d565b6111a7565b61137361133360405190565b611366818a61135a8b8a8a89602087019586926020846111c061034598966111c796959052565b90810382520382610e65565b61136e611209565b613502565b61137c87610e27565b9561138660405190565b94859442938661122f565b0390a290565b610345939291906000610dc7565b6103459061083e565b61034590546113a5565b156113bf57565b60405162461bcd60e51b815260206004820152601260248201527153657373696f6e206e6f742061637469766560701b604482015280606481015b0390fd5b906103459493929161142461141f6004611419856005610f0d565b016113ae565b6113b8565b611469565b1561143057565b60405162461bcd60e51b8152602060048201526011602482015270496e76616c69642063616e64696461746560781b6044820152606490fd5b90610345949392916114896114846005611419866003610f0d565b611429565b6114d1565b1561149557565b60405162461bcd60e51b815260206004820152601460248201527324b73b30b634b2103b37ba34b733903837bbb2b960611b6044820152606490fd5b90610345949392916114e66103456010610de3565b851015806114fd575b6114f89061148e565b6118f7565b506114f861150e6103456011610de3565b86111590506114ef565b90610f17906104f4565b1561152957565b60405162461bcd60e51b815260206004820152601d60248201527f416c726561647920766f74656420696e20746869732073657373696f6e0000006044820152606490fd5b1561157557565b60405162461bcd60e51b8152602060048201526013602482015272159bdd1a5b99c81c195c9a5bd908195b991959606a1b6044820152606490fd5b67ffffffffffffffff8111610e875760208091020190565b906111da610ee3836115b0565b369037565b906102be6115f06115ea846115c8565b936115b0565b601f1901602084016115d5565b610345610140610e8c565b906102ba906104b4565b906102ba906103a0565b61034590516104b4565b906001600160a01b0390610e1d565b90611645610345610e4b926104f4565b8254611626565b91909182821061165b57505050565b6102be9291611671905b91600052602060002090565b9182019101610f9e565b90600160401b8111610e8757816116936102be935490565b9082815561164c565b81519167ffffffffffffffff8311610e87576116d36116c76001926116c1868661167b565b60200190565b92600052602060002090565b92049160005b8381106116e65750505050565b60019060206116f6610345865190565b94019381840155016116d9565b906102be9161169c565b90610e44610345610e4b9290565b61034590516103a0565b9061ff009060081b610e1d565b90611742610345610e4b926103aa565b8254611725565b9061182b61012060086102be9461176b6117656000870161161c565b82611635565b611782611779602087015190565b60018301610e34565b611799611790604087015190565b60028301611703565b6117b06117a7606087015190565b6003830161170d565b6117c76117be608087015190565b6004830161170d565b6117de6117d560a087015190565b6005830161170d565b6117f56117ec60c087015190565b60068301610e34565b61180c61180360e087015190565b60078301610e34565b019261182561181f610100830151151590565b856110f0565b0161171b565b90611732565b906102be91611749565b634e487b7160e01b600052603260045260246000fd5b80548210156118745761186b600191600052602060002090565b91020190600090565b61183b565b90815491600160401b831015610e87578261189c9160016102be95018155611851565b90610f79565b91908201809211610e1257565b01918252565b6118bf60096111cd565b681593d51157d0d054d560ba1b602082015290565b6103456118b5565b9160206102be929493610ad7604082019660008301906103b3565b50600693816119063387611518565b9061191091610f0d565b611919906113ae565b1561192390611522565b6005946119308387610f0d565b60020161193c90610de3565b4211156119489061156e565b611952600a610de3565b9561195c87610e03565b61196790600a610e34565b60009561197387610e27565b61197c906115da565b9061198688610e27565b9061198f6115fd565b9261199c338b8601611608565b6119a7896020860152565b604084015260608301526119bc816080840152565b60a08201526119cc8460c0830152565b6119d74260e0830152565b8615156101008201526119ee876101208301611612565b6119f9886004610f0d565b90611a0391611831565b83611a0e3384611518565b90611a1891610f0d565b6001611a23916110f0565b86611a2f336007611518565b90611a3991611879565b8381611a458282610f0d565b01611a4f81610de3565b611a5890610e03565b611a6191610e34565b611a6a91610f0d565b0181611a7582610de3565b90611a7f916118a2565b611a8891610e34565b82611a9260405190565b9283926020840192611abb928985926118af6020610594946118af82886118af829b9a83999052565b908103825203611acb9082610e65565b611ad36118d4565b90611add91613502565b611ae6336104f4565b90611af090610e27565b91611afa60405190565b809142611b0791836118dc565b037f2c9deb38f462962eadbd85a9d3a4120503ee091f1582eaaa10aa8c6797651d2991a390565b6103459392919060006113fe565b611b446115fd565b906000825260208080808080808080808b01600081520160005b8152016000815201600081520160005b8152016000815201600081520160008152016000905250565b610345611b3c565b6103459060081c61083e565b6103459054611b8f565b906102be611c846008611bb66115fd565b94611bc7611bc382610de3565b8752565b611bdd611bd660018301610de3565b6020880152565b611bf3611bec60028301610de3565b6040880152565b611c09611c0260038301610de3565b6060880152565b611c21611c18600483016113ae565b15156080880152565b611c39611c3060048301611b9b565b151560a0880152565b611c4f611c4860058301610de3565b60c0880152565b611c65611c5e60068301610de3565b60e0880152565b611c7e611c74600783016113ae565b6101008801611612565b01610de3565b610120840152565b61034590611ba5565b611cac61034591611ca4611b87565b506005610f0d565b611c8c565b9061034594939291611ccc61141f6004611419856005610f0d565b9061034594939291611ce76114846005611419866003610f0d565b9061034594939291611cfc6103456010610de3565b85101580611d13575b611d0e9061148e565b611d99565b50611d0e611d246103456011610de3565b8611159050611d05565b15611d3557565b60405162461bcd60e51b81526020600482015260126024820152711692cb5c1c9bdbd99cc8191a5cd8589b195960721b6044820152606490fd5b611d79600c6111cd565b6b1692d7d593d51157d0d054d560a21b602082015290565b610345611d6f565b611f54929361135a92611f23611dd897611f4c9450611dc0611dbb60146113ae565b611d2e565b611deb611de6611de2611ddd8660069d8e3390611518565b610f0d565b6113ae565b1590565b611522565b611f0d611df8600a610de3565b99611e0c611e058c610e03565b600a610e34565b611eb88a611e996000611e79611e29611e2483610e27565b6115da565b611e5c611e3584610e27565b91611e55611e416115fd565b97611e4e33888b01611608565b6020890152565b6040870152565b611e67816060870152565b611e728c6080870152565b60a0850152565b611e848760c0850152565b611e8f4260e0850152565b1515610100830152565b611ea860036101208301611612565b611eb38d6004610f0d565b611831565b611ed06001611ecb87611dd83386611518565b6110f0565b611ee78b611ee2610345336007611518565b611879565b611f13856005611dd881611efb8482610f0d565b01611f0d611f0882610de3565b610e03565b90610e34565b0191611f1e83610de3565b6118a2565b6040519384928760208501938a85926118af6020610594946118af82886118af829b9a83999052565b61136e611d91565b611f66611f60336104f4565b91610e27565b907f2c9deb38f462962eadbd85a9d3a4120503ee091f1582eaaa10aa8c6797651d29611f9160405190565b80611f9e426003836118dc565b0390a390565b610345939291906000611cb1565b611fba610ea0565b90600082526020808080808080880160608152016060611b6e565b610345611fb2565b60005b828110611fec57505050565b602090611ff7611fd5565b8184015201611fe0565b906102be6120116115ea846115c8565b601f190160208401611fdd565b90612027825190565b811015611874576020809102010190565b8054600093929161205561204b83610f3b565b8085529360200190565b91600181169081156120a7575060011461206e57505050565b6120819192939450600052602060002090565b916000925b8184106120935750500190565b805484840152602090930192600101612086565b92949550505060ff1916825215156020020190565b9061034591612038565b906102be6120e0926120d760405190565b938480926120bc565b0383610e65565b906102be61215760066120f8610ea0565b94612105611bc382610de3565b612114611bd6600183016120c6565b612123611bec600283016120c6565b612132611c0260038301610de3565b61214861214160048301610de3565b6080880152565b611c7e611c30600583016113ae565b60c0840152565b610345906120e7565b6121796121746009610de3565b612001565b6121836000610e27565b6121906103456009610de3565b8110156121cf57806121ae6121a96121ca936003610f0d565b61215e565b6121b8828561201e565b526121c3818461201e565b5060010190565b612183565b5090565b906102be92916121e1613324565b61221b565b90611742610345610e4b92151590565b9062ff00009060101b610e1d565b90612214610345610e4b92151590565b82546121f6565b6102be929161222e6122359260146110f0565b60146121e6565b6014612204565b906102be92916121d3565b6121a961034591612256611fd5565b506003610f0d565b6102be9061226a613324565b61230e565b1561227657565b60405162461bcd60e51b815260206004820152601160248201527014d95cdcda5bdb881b9bdd08195b991959607a1b6044820152606490fd5b610345906104b4565b61034590546122af565b6122ce6102ba916104b4565b60601b90565b0180926122c2565b6122e660146111cd565b731593d5125391d7d4d154d4d253d397d15391115160621b602082015290565b6103456122dc565b9061231d610345836005610f0d565b90600482019061232f61141f836113ae565b61234961234161034560028601610de3565b42101561226f565b612355600080936110f0565b6005830193612366611e2486610de3565b946123716000610e27565b61237d61034583610de3565b81101561240c576124079061240161135a6123e160046123b66001611c7e876123b08e6123aa8388610f0d565b016122b8565b94610f0d565b906123c060405190565b93849260208401928884602093926118af85836122d4601495610594979052565b6123f36123ec825190565b9160200190565b206123fe838b61201e565b52565b60010190565b612371565b507f5ebf5ba0a9d6578537b09fb99eac524839499181ce448f968b5c9ca6c1b82b4793506124a7906124a261135a61249a6124ad959861245b6124526124c2999c613654565b6008830161170d565b612470600661246987610de3565b9201610de3565b9061247a60405190565b93849260208401928d84602093926118af85836118af8295610594979052565b61136e612306565b610de3565b93610e27565b926124b760405190565b918291429083610ac4565b0390a2565b6102be9061225e565b6124d8613324565b6102be6102be613812565b6102be6124d0565b9061034592916124f9613324565b612654565b90611100610345610e4b926103aa565b60086125d56101206102be94612528611120600083015190565b61253f612536602083015190565b60018701610e34565b61255661254d604083015190565b60028701610e34565b612564611162606083015190565b61258e6004860161258161257b6080850151151590565b826110f0565b60a08301511515906121e6565b6125a561259c60c083015190565b60058701610e34565b6125bc6125b360e083015190565b60068701610e34565b61119b6125cc610100830161171b565b600787016124fe565b910161170d565b906102be9161250e565b6125f26102ba916103aa565b60f81b90565b0180926125e6565b61260a60166111cd565b751593d5125391d7d4d154d4d253d397d0d4915055115160521b602082015290565b610345612600565b604090610ad76102be94969593966112cb606084019860008501906103b3565b50907e914bb2a5e0ac4484c74b57ec82229700da233d0eed407c4cff3eb82aac23bf61270061278c612686600b610de3565b9461269a61269387610e03565b600b610e34565b6127438661272d61271b6126ae85426118a2565b6127076126ce6126be88426118a2565b6126c86013610de3565b906118a2565b6000998a936126ee6126df86610e27565b986126e86115fd565b9d8e0152565b6126f94260208e0152565b60408c0152565b60608a0152565b6001608089015280151560a0890152610e27565b6127268160c0890152565b60e0870152565b61273b876101008701611612565b610120850152565b61275783612752886005610f0d565b6125dc565b61278461276360405190565b6020808201898152919384929161135a9161059460018c6118af85886125f8565b61136e61262c565b6127a2604061279c602084015190565b92015190565b926113916127af86610e27565b946127b960405190565b93849384612634565b610345919060006124eb565b6127d66115fd565b906000825260208080808080808080808b0160008152016060611b5e565b6103456127ce565b9061280b6116c76108a0845490565b9060005b81811061281c5750505090565b90919261284061283960019261283187610de3565b815260200190565b9460010190565b92910161280f565b90610345916127fc565b906102be6120e09261286360405190565b93848092612848565b906102be61291e600861287d6115fd565b9461289061288a826122b8565b87611608565b61289f611bd660018301610de3565b6128ae611bec60028301612852565b6128bd611c0260038301610de3565b6128cc61214160048301610de3565b6128e26128db60058301610de3565b60a0880152565b6128f1611c4860068301610de3565b612900611c5e60078301610de3565b61291861290e8383016113ae565b1515610100880152565b01611b9b565b6101208401611612565b6103459061286c565b612948610345916129406127f4565b506004610f0d565b612928565b61034560026113ae565b61295f613324565b6102be61297d565b6104b46103456103459290565b61034590612967565b6102be61298a6000612974565b61381a565b6102be612957565b61034560a0610e8c565b6129a9612997565b906000825260208080808086016000815201606081520160008152016060905250565b6103456129a1565b90610f17565b906129e96116c76108a0845490565b9060005b8181106129fa5750505090565b909192612a0f61283960019261283187610de3565b9291016129ed565b90610345916129da565b906102be6120e092612a3260405190565b93848092612a17565b906102be612a956004612a4c612997565b94612a59611bc382610de3565b612a71612a68600183016122b8565b60208801611608565b612a80611bec600283016120c6565b612a8f611c0260038301610de3565b01612a21565b6080840152565b61034590612a3b565b612abc61034591612ab46129cc565b5060086129d4565b612a9c565b611cac612ad091611ca4600090565b9061034560e0612ae160c085015190565b93015190565b612aef613324565b6102be6102be6138ae565b6102be612ae7565b61034560006122b8565b15612b1357565b60405162461bcd60e51b815260206004820152600d60248201526c4e6f7420796f757220766f746560981b6044820152606490fd5b15612b4f57565b60405162461bcd60e51b8152602060048201526015602482015274159bdd1948185b1c9958591e481c995d99585b1959605a1b6044820152606490fd5b15612b9357565b60405162461bcd60e51b81526020600482015260116024820152704e6f7420612064697265637420766f746560781b6044820152606490fd5b15612bd357565b60405162461bcd60e51b8152602060048201526012602482015271125b9d985b1a590818dbdb5b5a5d1b595b9d60721b6044820152606490fd5b612c17600d6111cd565b6c1593d51157d491559150531151609a1b602082015290565b610345612c0d565b61135a612d24612d2c94936124a293612cdb6001612c5a610345846004610f0d565b97612c7f612c678a6122b8565b612c79612c73336104b4565b916104b4565b14612b0c565b611ecb612cd660088b0192612c9e612c99611de2866113ae565b612b48565b612cc3612caa85611b9b565b612cbd612cb760006103a0565b916103a0565b14612b8c565b612ccf60038d01610de3565b90886138b6565b612bcc565b612d066001612cec60068901610de3565b970196611f0d6003611f13612d008b610de3565b82610f0d565b6040515b9384926020840192836020816118af610594938396959052565b61136e612c30565b612d38611f60336104f4565b907ff65a04be847d83385f9a7abcf32cfb35055023a4affcc7eaa319160746f44528612d6360405190565b42815280602081015b0390a3565b61034591611dd8611ddd92612d84600090565b506006611518565b610345906126c86004611c7e6003936123b085611c7e8382610f0d565b90610345939291612dc361141f6004611419856005610f0d565b90610345939291612ddd6114846005611419866003610f0d565b90610345939291612df16103456010610de3565b84101580612e08575b612e039061148e565b613078565b50612e03612e196103456011610de3565b8511159050612dfa565b15612e2a57565b60405162461bcd60e51b815260206004820152601960248201527f4c69717569642064656d6f63726163792064697361626c6564000000000000006044820152606490fd5b905051906102be82610be8565b905051906102be826102f3565b90929192612e99610ee3826115b0565b938185526020808601920283019281841161023757915b838310612ebd5750505050565b60208091612ecb8486612e6f565b815201920191612eb0565b9080601f8301121561023757815161034592602001612e89565b905051906102be826106b0565b9190916101208184031261023757612f16610120610e8c565b92612f218183612e6f565b8452612f308160208401612e7c565b6020850152612f428160408401612e7c565b6040850152612f548160608401612e7c565b6060850152612f668160808401612e6f565b608085015260a08201519067ffffffffffffffff821161023757612f8f81612fc3938501612ed6565b60a0860152612fa18160c08501612ef0565b60c0860152612fb38160e08501612e7c565b60e0860152610100809301612e7c565b90830152565b9060208282031261023757815167ffffffffffffffff8111610237576103459201612efd565b6040513d6000823e3d90fd5b1561300257565b60405162461bcd60e51b815260206004820152601960248201527f496e73756666696369656e7420766f74696e6720706f776572000000000000006044820152606490fd5b61305160136111cd565b721111531151d055115117d593d51157d0d054d5606a1b602082015290565b610345613047565b5061308b6130866014611b9b565b612e23565b6006926130a5611de6611de2611ddd85611dd8338a611518565b6130b76130b2600e6122b8565b6104f4565b9060006130c360405190565b928390631a9ea1f360e31b825281806130df3360048301610b6f565b03915afa90811561324b576131e69361311e61310c60606131de9561135a9760009161322a575b50015190565b8390613117565b9190565b1015612ffb565b611f2361312b600a610de3565b97613138611e058a610e03565b6131978861317d6000613172613150611e2483610e27565b61315c611e3584610e27565b613167816060870152565b611e72816080870152565b611e848860c0850152565b61318c60016101208301611612565b611eb38b6004610f0d565b6131aa6001611ecb85611dd83386611518565b6131bc89611ee2610345336007611518565b6131d0836005611dd881611efb8482610f0d565b01611f0d84611f1e83610de3565b61136e613070565b6131f2611f60336104f4565b907f2c9deb38f462962eadbd85a9d3a4120503ee091f1582eaaa10aa8c6797651d2961321d60405190565b80611f9e426001836118dc565b613245913d8091833e61323d8183610e65565b810190612fc9565b38613106565b612fef565b6103459291906000612da9565b906102be93929161326c613324565b9161328a613291926132836102be96956010610e34565b6011610e34565b6012610e34565b6013610e34565b906102be93929161325d565b61034590612852565b6132c4610345916132bc606090565b506007611518565b6132a4565b6102be906132d5613324565b60006132e081612974565b6132e9816104b4565b6132f2846104b4565b146133025750506102be9061381a565b631e4fbdf760e01b825281906113fa9060048301610b6f565b6102be906132c9565b61332c612b02565b339061333a612c73836104b4565b036133425750565b63118cdaa760e01b60009081529061335b906004610b6f565b036000fd5b61059461337892602092613372815190565b94859290565b9384910161053d565b926118af6111da6105949461339a602098978996613360565b90613360565b9190610f8a610345610e4b9390565b6102be916000916133a0565b8181106133c6575050565b806133d460006001936133af565b016133bb565b9190918282106133e957505050565b6102be92916133f790611665565b91820191016133bb565b90600160401b8111610e8757816134196102be935490565b908281556133da565b81519167ffffffffffffffff8311610e87576134476116c76001926116c18686613401565b92049160005b83811061345a5750505050565b600190602061346a610345865190565b940193818401550161344d565b906102be91613422565b60046134d460806102be946134a061349a600083015190565b8661170d565b6134b86134af6020830161161c565b60018701611635565b6134c661114b604083015190565b61119b611162606083015190565b9101613477565b906102be91613481565b929160206112606102be9360408701908782036000890152610560565b9061135a6135326135ac92613517600c610de3565b9061352160405190565b938492602084019242908985613381565b61353d6123ec825190565b2061359561354e611e246000610e27565b613585613559612997565b91613562858452565b61356f3360208501611608565b61357a876040850152565b6112fe426060850152565b6135908360086129d4565b6134db565b6103456135a5611f08600c610de3565b600c610e34565b7ff6d3f32241786cad73e665a475dd59e4aff37ee43093b5504c05d73d3806f9ef612d6c6135d9336104f4565b936135e360405190565b9182914290836134e5565b156135f557565b60405162461bcd60e51b8152602060048201526012602482015271456d707479206c656176657320617272617960701b6044820152606490fd5b634e487b7160e01b600052601260045260246000fd5b811561364f570490565b61362f565b90613673613660835190565b61366d6131136000610e27565b116135ee565b81519160019261368561311385610e27565b146137b25761369e613695825190565b6126c885610e27565b926136b7611e246002956136b187610e27565b90613645565b91816136c36000610e27565b905b6136d8575b5050506103459192506138e9565b6136e3610345835190565b8110156137ad579061378283926137026136fc85610e27565b826118a2565b613710613113610345865190565b10156137895761377961135a61375861373061372c858861201e565b5190565b61374e61372c6137486137428b610e27565b886118a2565b8961201e565b90612d0a60405190565b6137636123ec825190565b206123fe6137486137738c610e27565b85613645565b6126c888610e27565b90916136c5565b6137a861379961372c838661201e565b6123fe6137486137738c610e27565b613779565b6136ca565b61034591925061372c906137c66000610e27565b9061201e565b6137d461396a565b6102be6137e3600060026110f0565b7f5db9ee0a495bf2e6ff9c91a7834c1ba4fdd244a5e8aa4e537bd38aeae4b073aa61380d33610b9a565b0390a1565b6102be6137cc565b61383b61383561382a60006122b8565b6130b2846000611635565b916104f4565b907f8be0079c531659141344cd1fd0a4f28419497f9722a3daafe3b4186f6b6457e061386660405190565b8080612d6c565b61387561398d565b6102be613884600160026110f0565b7f62e78cea01bee320cd4e420270b5ea74000d11b0c9f74754ebdbfc544b05a25861380d33610b9a565b6102be61386d565b61135a6138d56138e593613113936138cc600090565b50604051612d0a565b6138e06123ec825190565b209290565b1490565b908151916001926138fc61311385610e27565b146137b25761390c613695825190565b9261391f611e246002956136b187610e27565b918161392b6000610e27565b905b61393f575050506103459192506138e9565b61394a610345835190565b8110156137ad579061396383926137026136fc85610e27565b909161392d565b613975611de261294d565b61397b57565b638dfc202b60e01b6000908152600490fd5b61399561294d565b61399b57565b63d93c066560e01b6000908152600490fdfea26469706673582212203ea3255c6e3c6ca3c3ae5ed666a3157d36341e819dca40fe82e6acea5d99b74f64736f6c634300081c0033",
  "linkReferences": {},
  "deployedLinkReferences": {}
}